{
	"MyDevFirst.sol": {
		"devtoken": {
			"abi": [
				{
					"inputs": [
						{
							"internalType": "string",
							"name": "name",
							"type": "string"
						},
						{
							"internalType": "string",
							"name": "symbol",
							"type": "string"
						},
						{
							"internalType": "uint8",
							"name": "decimals",
							"type": "uint8"
						},
						{
							"internalType": "uint256",
							"name": "cap",
							"type": "uint256"
						},
						{
							"internalType": "uint256",
							"name": "initialBalance",
							"type": "uint256"
						}
					],
					"stateMutability": "nonpayable",
					"type": "constructor"
				},
				{
					"anonymous": false,
					"inputs": [
						{
							"indexed": true,
							"internalType": "address",
							"name": "owner",
							"type": "address"
						},
						{
							"indexed": true,
							"internalType": "address",
							"name": "spender",
							"type": "address"
						},
						{
							"indexed": false,
							"internalType": "uint256",
							"name": "value",
							"type": "uint256"
						}
					],
					"name": "Approval",
					"type": "event"
				},
				{
					"anonymous": false,
					"inputs": [],
					"name": "MintFinished",
					"type": "event"
				},
				{
					"anonymous": false,
					"inputs": [
						{
							"indexed": true,
							"internalType": "address",
							"name": "previousOwner",
							"type": "address"
						},
						{
							"indexed": true,
							"internalType": "address",
							"name": "newOwner",
							"type": "address"
						}
					],
					"name": "OwnershipTransferred",
					"type": "event"
				},
				{
					"anonymous": false,
					"inputs": [
						{
							"indexed": true,
							"internalType": "address",
							"name": "from",
							"type": "address"
						},
						{
							"indexed": true,
							"internalType": "address",
							"name": "to",
							"type": "address"
						},
						{
							"indexed": false,
							"internalType": "uint256",
							"name": "value",
							"type": "uint256"
						}
					],
					"name": "Transfer",
					"type": "event"
				},
				{
					"inputs": [
						{
							"internalType": "address",
							"name": "owner",
							"type": "address"
						},
						{
							"internalType": "address",
							"name": "spender",
							"type": "address"
						}
					],
					"name": "allowance",
					"outputs": [
						{
							"internalType": "uint256",
							"name": "",
							"type": "uint256"
						}
					],
					"stateMutability": "view",
					"type": "function"
				},
				{
					"inputs": [
						{
							"internalType": "address",
							"name": "spender",
							"type": "address"
						},
						{
							"internalType": "uint256",
							"name": "amount",
							"type": "uint256"
						}
					],
					"name": "approve",
					"outputs": [
						{
							"internalType": "bool",
							"name": "",
							"type": "bool"
						}
					],
					"stateMutability": "nonpayable",
					"type": "function"
				},
				{
					"inputs": [
						{
							"internalType": "address",
							"name": "account",
							"type": "address"
						}
					],
					"name": "balanceOf",
					"outputs": [
						{
							"internalType": "uint256",
							"name": "",
							"type": "uint256"
						}
					],
					"stateMutability": "view",
					"type": "function"
				},
				{
					"inputs": [],
					"name": "cap",
					"outputs": [
						{
							"internalType": "uint256",
							"name": "",
							"type": "uint256"
						}
					],
					"stateMutability": "view",
					"type": "function"
				},
				{
					"inputs": [],
					"name": "decimals",
					"outputs": [
						{
							"internalType": "uint8",
							"name": "",
							"type": "uint8"
						}
					],
					"stateMutability": "view",
					"type": "function"
				},
				{
					"inputs": [
						{
							"internalType": "address",
							"name": "spender",
							"type": "address"
						},
						{
							"internalType": "uint256",
							"name": "subtractedValue",
							"type": "uint256"
						}
					],
					"name": "decreaseAllowance",
					"outputs": [
						{
							"internalType": "bool",
							"name": "",
							"type": "bool"
						}
					],
					"stateMutability": "nonpayable",
					"type": "function"
				},
				{
					"inputs": [],
					"name": "finishMinting",
					"outputs": [],
					"stateMutability": "nonpayable",
					"type": "function"
				},
				{
					"inputs": [
						{
							"internalType": "address",
							"name": "spender",
							"type": "address"
						},
						{
							"internalType": "uint256",
							"name": "addedValue",
							"type": "uint256"
						}
					],
					"name": "increaseAllowance",
					"outputs": [
						{
							"internalType": "bool",
							"name": "",
							"type": "bool"
						}
					],
					"stateMutability": "nonpayable",
					"type": "function"
				},
				{
					"inputs": [
						{
							"internalType": "address",
							"name": "account",
							"type": "address"
						},
						{
							"internalType": "uint256",
							"name": "amount",
							"type": "uint256"
						}
					],
					"name": "mint",
					"outputs": [],
					"stateMutability": "nonpayable",
					"type": "function"
				},
				{
					"inputs": [],
					"name": "mintingFinished",
					"outputs": [
						{
							"internalType": "bool",
							"name": "",
							"type": "bool"
						}
					],
					"stateMutability": "view",
					"type": "function"
				},
				{
					"inputs": [],
					"name": "name",
					"outputs": [
						{
							"internalType": "string",
							"name": "",
							"type": "string"
						}
					],
					"stateMutability": "view",
					"type": "function"
				},
				{
					"inputs": [],
					"name": "owner",
					"outputs": [
						{
							"internalType": "address",
							"name": "",
							"type": "address"
						}
					],
					"stateMutability": "view",
					"type": "function"
				},
				{
					"inputs": [],
					"name": "renounceOwnership",
					"outputs": [],
					"stateMutability": "nonpayable",
					"type": "function"
				},
				{
					"inputs": [],
					"name": "symbol",
					"outputs": [
						{
							"internalType": "string",
							"name": "",
							"type": "string"
						}
					],
					"stateMutability": "view",
					"type": "function"
				},
				{
					"inputs": [],
					"name": "totalSupply",
					"outputs": [
						{
							"internalType": "uint256",
							"name": "",
							"type": "uint256"
						}
					],
					"stateMutability": "view",
					"type": "function"
				},
				{
					"inputs": [
						{
							"internalType": "address",
							"name": "recipient",
							"type": "address"
						},
						{
							"internalType": "uint256",
							"name": "amount",
							"type": "uint256"
						}
					],
					"name": "transfer",
					"outputs": [
						{
							"internalType": "bool",
							"name": "",
							"type": "bool"
						}
					],
					"stateMutability": "nonpayable",
					"type": "function"
				},
				{
					"inputs": [
						{
							"internalType": "address",
							"name": "sender",
							"type": "address"
						},
						{
							"internalType": "address",
							"name": "recipient",
							"type": "address"
						},
						{
							"internalType": "uint256",
							"name": "amount",
							"type": "uint256"
						}
					],
					"name": "transferFrom",
					"outputs": [
						{
							"internalType": "bool",
							"name": "",
							"type": "bool"
						}
					],
					"stateMutability": "nonpayable",
					"type": "function"
				},
				{
					"inputs": [
						{
							"internalType": "address",
							"name": "newOwner",
							"type": "address"
						}
					],
					"name": "transferOwnership",
					"outputs": [],
					"stateMutability": "nonpayable",
					"type": "function"
				}
			],
			"devdoc": {
				"details": "Implementation of the XXXXXXX",
				"kind": "dev",
				"methods": {
					"allowance(address,address)": {
						"details": "See {IERC20-allowance}."
					},
					"approve(address,uint256)": {
						"details": "See {IERC20-approve}. Requirements: - `spender` cannot be the zero address."
					},
					"balanceOf(address)": {
						"details": "See {IERC20-balanceOf}."
					},
					"cap()": {
						"details": "Returns the cap on the token's total supply."
					},
					"decimals()": {
						"details": "Returns the number of decimals used to get its user representation. For example, if `decimals` equals `2`, a balance of `505` tokens should be displayed to a user as `5,05` (`505 / 10 ** 2`). Tokens usually opt for a value of 18, imitating the relationship between Ether and Wei. This is the value {ERC20} uses, unless {_setupDecimals} is called. NOTE: This information is only used for _display_ purposes: it in no way affects any of the arithmetic of the contract, including {IERC20-balanceOf} and {IERC20-transfer}."
					},
					"decreaseAllowance(address,uint256)": {
						"details": "Atomically decreases the allowance granted to `spender` by the caller. This is an alternative to {approve} that can be used as a mitigation for problems described in {IERC20-approve}. Emits an {Approval} event indicating the updated allowance. Requirements: - `spender` cannot be the zero address. - `spender` must have allowance for the caller of at least `subtractedValue`."
					},
					"finishMinting()": {
						"details": "Function to stop minting new tokens. WARNING: it allows everyone to finish minting. Access controls MUST be defined in derived contracts."
					},
					"increaseAllowance(address,uint256)": {
						"details": "Atomically increases the allowance granted to `spender` by the caller. This is an alternative to {approve} that can be used as a mitigation for problems described in {IERC20-approve}. Emits an {Approval} event indicating the updated allowance. Requirements: - `spender` cannot be the zero address."
					},
					"mint(address,uint256)": {
						"details": "Function to mint tokens. WARNING: it allows everyone to mint new tokens. Access controls MUST be defined in derived contracts.",
						"params": {
							"account": "The address that will receive the minted tokens",
							"amount": "The amount of tokens to mint"
						}
					},
					"mintingFinished()": {
						"returns": {
							"_0": "if minting is finished or not."
						}
					},
					"name()": {
						"details": "Returns the name of the token."
					},
					"owner()": {
						"details": "Returns the address of the current owner."
					},
					"renounceOwnership()": {
						"details": "Leaves the contract without owner. It will not be possible to call `onlyOwner` functions anymore. Can only be called by the current owner. NOTE: Renouncing ownership will leave the contract without an owner, thereby removing any functionality that is only available to the owner."
					},
					"symbol()": {
						"details": "Returns the symbol of the token, usually a shorter version of the name."
					},
					"totalSupply()": {
						"details": "See {IERC20-totalSupply}."
					},
					"transfer(address,uint256)": {
						"details": "See {IERC20-transfer}. Requirements: - `recipient` cannot be the zero address. - the caller must have a balance of at least `amount`."
					},
					"transferFrom(address,address,uint256)": {
						"details": "See {IERC20-transferFrom}. Emits an {Approval} event indicating the updated allowance. This is not required by the EIP. See the note at the beginning of {ERC20}. Requirements: - `sender` and `recipient` cannot be the zero address. - `sender` must have a balance of at least `amount`. - the caller must have allowance for ``sender``'s tokens of at least `amount`."
					},
					"transferOwnership(address)": {
						"details": "Transfers ownership of the contract to a new account (`newOwner`). Can only be called by the current owner."
					}
				},
				"title": "XXXXXXX",
				"version": 1
			},
			"evm": {
				"assembly": "    /* \"MyDevFirst.sol\":25260:26585  contract devtoken is ERC20Capped, ERC20Mintable, Ownable {\r... */\n  mstore(0x40, 0x80)\n    /* \"MyDevFirst.sol\":23838:23843  false */\n  0x00\n    /* \"MyDevFirst.sol\":23806:23843  bool private _mintingFinished = false */\n  0x07\n  exp(0x0100, 0x00)\n  dup2\n  sload\n  dup2\n  0xff\n  mul\n  not\n  and\n  swap1\n  dup4\n  iszero\n  iszero\n  mul\n  or\n  swap1\n  sstore\n  pop\n    /* \"MyDevFirst.sol\":25326:25635  constructor (\r... */\n  callvalue\n  dup1\n  iszero\n  tag_1\n  jumpi\n  0x00\n  dup1\n  revert\ntag_1:\n  pop\n  mload(0x40)\n  sub(codesize, bytecodeSize)\n  dup1\n  bytecodeSize\n  dup4\n  codecopy\n  dup2\n  dup2\n  add\n  0x40\n  mstore\n  0xa0\n  dup2\n  lt\n  iszero\n  tag_2\n  jumpi\n  0x00\n  dup1\n  revert\ntag_2:\n  dup2\n  add\n  swap1\n  dup1\n  dup1\n  mload\n  mload(0x40)\n  swap4\n  swap3\n  swap2\n  swap1\n  dup5\n  0x0100000000\n  dup3\n  gt\n  iszero\n  tag_3\n  jumpi\n  0x00\n  dup1\n  revert\ntag_3:\n  dup4\n  dup3\n  add\n  swap2\n  pop\n  0x20\n  dup3\n  add\n  dup6\n  dup2\n  gt\n  iszero\n  tag_4\n  jumpi\n  0x00\n  dup1\n  revert\ntag_4:\n  dup3\n  mload\n  dup7\n  0x01\n  dup3\n  mul\n  dup4\n  add\n  gt\n  0x0100000000\n  dup3\n  gt\n  or\n  iszero\n  tag_5\n  jumpi\n  0x00\n  dup1\n  revert\ntag_5:\n  dup1\n  dup4\n  mstore\n  0x20\n  dup4\n  add\n  swap3\n  pop\n  pop\n  pop\n  swap1\n  dup1\n  mload\n  swap1\n  0x20\n  add\n  swap1\n  dup1\n  dup4\n  dup4\n  0x00\ntag_6:\n  dup4\n  dup2\n  lt\n  iszero\n  tag_8\n  jumpi\n  dup1\n  dup3\n  add\n  mload\n  dup2\n  dup5\n  add\n  mstore\n  0x20\n  dup2\n  add\n  swap1\n  pop\n  jump(tag_6)\ntag_8:\n  pop\n  pop\n  pop\n  pop\n  swap1\n  pop\n  swap1\n  dup2\n  add\n  swap1\n  0x1f\n  and\n  dup1\n  iszero\n  tag_9\n  jumpi\n  dup1\n  dup3\n  sub\n  dup1\n  mload\n  0x01\n  dup4\n  0x20\n  sub\n  0x0100\n  exp\n  sub\n  not\n  and\n  dup2\n  mstore\n  0x20\n  add\n  swap2\n  pop\ntag_9:\n  pop\n  0x40\n  mstore\n  0x20\n  add\n  dup1\n  mload\n  mload(0x40)\n  swap4\n  swap3\n  swap2\n  swap1\n  dup5\n  0x0100000000\n  dup3\n  gt\n  iszero\n  tag_10\n  jumpi\n  0x00\n  dup1\n  revert\ntag_10:\n  dup4\n  dup3\n  add\n  swap2\n  pop\n  0x20\n  dup3\n  add\n  dup6\n  dup2\n  gt\n  iszero\n  tag_11\n  jumpi\n  0x00\n  dup1\n  revert\ntag_11:\n  dup3\n  mload\n  dup7\n  0x01\n  dup3\n  mul\n  dup4\n  add\n  gt\n  0x0100000000\n  dup3\n  gt\n  or\n  iszero\n  tag_12\n  jumpi\n  0x00\n  dup1\n  revert\ntag_12:\n  dup1\n  dup4\n  mstore\n  0x20\n  dup4\n  add\n  swap3\n  pop\n  pop\n  pop\n  swap1\n  dup1\n  mload\n  swap1\n  0x20\n  add\n  swap1\n  dup1\n  dup4\n  dup4\n  0x00\ntag_13:\n  dup4\n  dup2\n  lt\n  iszero\n  tag_15\n  jumpi\n  dup1\n  dup3\n  add\n  mload\n  dup2\n  dup5\n  add\n  mstore\n  0x20\n  dup2\n  add\n  swap1\n  pop\n  jump(tag_13)\ntag_15:\n  pop\n  pop\n  pop\n  pop\n  swap1\n  pop\n  swap1\n  dup2\n  add\n  swap1\n  0x1f\n  and\n  dup1\n  iszero\n  tag_16\n  jumpi\n  dup1\n  dup3\n  sub\n  dup1\n  mload\n  0x01\n  dup4\n  0x20\n  sub\n  0x0100\n  exp\n  sub\n  not\n  and\n  dup2\n  mstore\n  0x20\n  add\n  swap2\n  pop\ntag_16:\n  pop\n  0x40\n  mstore\n  0x20\n  add\n  dup1\n  mload\n  swap1\n  0x20\n  add\n  swap1\n  swap3\n  swap2\n  swap1\n  dup1\n  mload\n  swap1\n  0x20\n  add\n  swap1\n  swap3\n  swap2\n  swap1\n  dup1\n  mload\n  swap1\n  0x20\n  add\n  swap1\n  swap3\n  swap2\n  swap1\n  pop\n  pop\n  pop\n    /* \"MyDevFirst.sol\":25536:25539  cap */\n  dup2\n    /* \"MyDevFirst.sol\":25501:25505  name */\n  dup6\n    /* \"MyDevFirst.sol\":25507:25513  symbol */\n  dup6\n    /* \"MyDevFirst.sol\":13382:13387  name_ */\n  dup2\n    /* \"MyDevFirst.sol\":13374:13379  _name */\n  0x03\n    /* \"MyDevFirst.sol\":13374:13387  _name = name_ */\n  swap1\n  dup1\n  mload\n  swap1\n  0x20\n  add\n  swap1\n  tag_22\n  swap3\n  swap2\n  swap1\n  tag_23\n  jump\t// in\ntag_22:\n  pop\n    /* \"MyDevFirst.sol\":13408:13415  symbol_ */\n  dup1\n    /* \"MyDevFirst.sol\":13398:13405  _symbol */\n  0x04\n    /* \"MyDevFirst.sol\":13398:13415  _symbol = symbol_ */\n  swap1\n  dup1\n  mload\n  swap1\n  0x20\n  add\n  swap1\n  tag_24\n  swap3\n  swap2\n  swap1\n  tag_23\n  jump\t// in\ntag_24:\n  pop\n    /* \"MyDevFirst.sol\":13438:13440  18 */\n  0x12\n    /* \"MyDevFirst.sol\":13426:13435  _decimals */\n  0x05\n  0x00\n    /* \"MyDevFirst.sol\":13426:13440  _decimals = 18 */\n  0x0100\n  exp\n  dup2\n  sload\n  dup2\n  0xff\n  mul\n  not\n  and\n  swap1\n  dup4\n  0xff\n  and\n  mul\n  or\n  swap1\n  sstore\n  pop\n    /* \"MyDevFirst.sol\":13306:13448  constructor (string memory name_, string memory symbol_) {\r... */\n  pop\n  pop\n    /* \"MyDevFirst.sol\":22789:22790  0 */\n  0x00\n    /* \"MyDevFirst.sol\":22782:22786  cap_ */\n  dup2\n    /* \"MyDevFirst.sol\":22782:22790  cap_ > 0 */\n  gt\n    /* \"MyDevFirst.sol\":22774:22816  require(cap_ > 0, \"ERC20Capped: cap is 0\") */\n  tag_26\n  jumpi\n  mload(0x40)\n  0x08c379a000000000000000000000000000000000000000000000000000000000\n  dup2\n  mstore\n  0x04\n  add\n  dup1\n  dup1\n  0x20\n  add\n  dup3\n  dup2\n  sub\n  dup3\n  mstore\n  0x15\n  dup2\n  mstore\n  0x20\n  add\n  dup1\n  0x45524332304361707065643a2063617020697320300000000000000000000000\n  dup2\n  mstore\n  pop\n  0x20\n  add\n  swap2\n  pop\n  pop\n  mload(0x40)\n  dup1\n  swap2\n  sub\n  swap1\n  revert\ntag_26:\n    /* \"MyDevFirst.sol\":22834:22838  cap_ */\n  dup1\n    /* \"MyDevFirst.sol\":22827:22831  _cap */\n  0x06\n    /* \"MyDevFirst.sol\":22827:22838  _cap = cap_ */\n  dup2\n  swap1\n  sstore\n  pop\n    /* \"MyDevFirst.sol\":22736:22846  constructor (uint256 cap_) {\r... */\n  pop\n    /* \"MyDevFirst.sol\":1867:1884  address msgSender */\n  0x00\n    /* \"MyDevFirst.sol\":1887:1899  _msgSender() */\n  tag_28\n    /* \"MyDevFirst.sol\":1887:1897  _msgSender */\n  shl(0x20, tag_29)\n    /* \"MyDevFirst.sol\":1887:1899  _msgSender() */\n  0x20\n  shr\n  jump\t// in\ntag_28:\n    /* \"MyDevFirst.sol\":1867:1899  address msgSender = _msgSender() */\n  swap1\n  pop\n    /* \"MyDevFirst.sol\":1919:1928  msgSender */\n  dup1\n    /* \"MyDevFirst.sol\":1910:1916  _owner */\n  0x07\n  0x01\n    /* \"MyDevFirst.sol\":1910:1928  _owner = msgSender */\n  0x0100\n  exp\n  dup2\n  sload\n  dup2\n  0xffffffffffffffffffffffffffffffffffffffff\n  mul\n  not\n  and\n  swap1\n  dup4\n  0xffffffffffffffffffffffffffffffffffffffff\n  and\n  mul\n  or\n  swap1\n  sstore\n  pop\n    /* \"MyDevFirst.sol\":1977:1986  msgSender */\n  dup1\n    /* \"MyDevFirst.sol\":1944:1987  OwnershipTransferred(address(0), msgSender) */\n  0xffffffffffffffffffffffffffffffffffffffff\n  and\n    /* \"MyDevFirst.sol\":1973:1974  0 */\n  0x00\n    /* \"MyDevFirst.sol\":1944:1987  OwnershipTransferred(address(0), msgSender) */\n  0xffffffffffffffffffffffffffffffffffffffff\n  and\n  0x8be0079c531659141344cd1fd0a4f28419497f9722a3daafe3b4186f6b6457e0\n  mload(0x40)\n  mload(0x40)\n  dup1\n  swap2\n  sub\n  swap1\n  log3\n    /* \"MyDevFirst.sol\":1841:1995  constructor () {\r... */\n  pop\n    /* \"MyDevFirst.sol\":25557:25581  _setupDecimals(decimals) */\n  tag_31\n    /* \"MyDevFirst.sol\":25572:25580  decimals */\n  dup4\n    /* \"MyDevFirst.sol\":25557:25571  _setupDecimals */\n  shl(0x20, tag_32)\n    /* \"MyDevFirst.sol\":25557:25581  _setupDecimals(decimals) */\n  0x20\n  shr\n  jump\t// in\ntag_31:\n    /* \"MyDevFirst.sol\":25592:25627  _mint(_msgSender(), initialBalance) */\n  tag_33\n    /* \"MyDevFirst.sol\":25598:25610  _msgSender() */\n  tag_34\n    /* \"MyDevFirst.sol\":25598:25608  _msgSender */\n  shl(0x20, tag_29)\n    /* \"MyDevFirst.sol\":25598:25610  _msgSender() */\n  0x20\n  shr\n  jump\t// in\ntag_34:\n    /* \"MyDevFirst.sol\":25612:25626  initialBalance */\n  dup3\n    /* \"MyDevFirst.sol\":25592:25597  _mint */\n  shl(0x20, tag_35)\n    /* \"MyDevFirst.sol\":25592:25627  _mint(_msgSender(), initialBalance) */\n  0x20\n  shr\n  jump\t// in\ntag_33:\n    /* \"MyDevFirst.sol\":25326:25635  constructor (\r... */\n  pop\n  pop\n  pop\n  pop\n  pop\n    /* \"MyDevFirst.sol\":25260:26585  contract devtoken is ERC20Capped, ERC20Mintable, Ownable {\r... */\n  jump(tag_36)\n    /* \"MyDevFirst.sol\":657:763  function _msgSender() internal view virtual returns (address payable) {\r... */\ntag_29:\n    /* \"MyDevFirst.sol\":710:725  address payable */\n  0x00\n    /* \"MyDevFirst.sol\":745:755  msg.sender */\n  caller\n    /* \"MyDevFirst.sol\":738:755  return msg.sender */\n  swap1\n  pop\n    /* \"MyDevFirst.sol\":657:763  function _msgSender() internal view virtual returns (address payable) {\r... */\n  swap1\n  jump\t// out\n    /* \"MyDevFirst.sol\":21551:21641  function _setupDecimals(uint8 decimals_) internal {\r... */\ntag_32:\n    /* \"MyDevFirst.sol\":21624:21633  decimals_ */\n  dup1\n    /* \"MyDevFirst.sol\":21612:21621  _decimals */\n  0x05\n  0x00\n    /* \"MyDevFirst.sol\":21612:21633  _decimals = decimals_ */\n  0x0100\n  exp\n  dup2\n  sload\n  dup2\n  0xff\n  mul\n  not\n  and\n  swap1\n  dup4\n  0xff\n  and\n  mul\n  or\n  swap1\n  sstore\n  pop\n    /* \"MyDevFirst.sol\":21551:21641  function _setupDecimals(uint8 decimals_) internal {\r... */\n  pop\n  jump\t// out\n    /* \"MyDevFirst.sol\":25911:26034  function _mint(address account, uint256 amount) internal override onlyOwner {\r... */\ntag_35:\n    /* \"MyDevFirst.sol\":2298:2310  _msgSender() */\n  tag_40\n    /* \"MyDevFirst.sol\":2298:2308  _msgSender */\n  shl(0x20, tag_29)\n    /* \"MyDevFirst.sol\":2298:2310  _msgSender() */\n  0x20\n  shr\n  jump\t// in\ntag_40:\n    /* \"MyDevFirst.sol\":2288:2310  _owner == _msgSender() */\n  0xffffffffffffffffffffffffffffffffffffffff\n  and\n    /* \"MyDevFirst.sol\":2288:2294  _owner */\n  0x07\n  0x01\n  swap1\n  sload\n  swap1\n  0x0100\n  exp\n  swap1\n  div\n  0xffffffffffffffffffffffffffffffffffffffff\n  and\n    /* \"MyDevFirst.sol\":2288:2310  _owner == _msgSender() */\n  0xffffffffffffffffffffffffffffffffffffffff\n  and\n  eq\n    /* \"MyDevFirst.sol\":2280:2347  require(_owner == _msgSender(), \"Ownable: caller is not the owner\") */\n  tag_41\n  jumpi\n  mload(0x40)\n  0x08c379a000000000000000000000000000000000000000000000000000000000\n  dup2\n  mstore\n  0x04\n  add\n  dup1\n  dup1\n  0x20\n  add\n  dup3\n  dup2\n  sub\n  dup3\n  mstore\n  0x20\n  dup2\n  mstore\n  0x20\n  add\n  dup1\n  0x4f776e61626c653a2063616c6c6572206973206e6f7420746865206f776e6572\n  dup2\n  mstore\n  pop\n  0x20\n  add\n  swap2\n  pop\n  pop\n  mload(0x40)\n  dup1\n  swap2\n  sub\n  swap1\n  revert\ntag_41:\n    /* \"MyDevFirst.sol\":25998:26026  super._mint(account, amount) */\n  tag_43\n    /* \"MyDevFirst.sol\":26010:26017  account */\n  dup3\n    /* \"MyDevFirst.sol\":26019:26025  amount */\n  dup3\n    /* \"MyDevFirst.sol\":25998:26009  super._mint */\n  or(tag_0_77, shl(0x20, tag_44))\n    /* \"MyDevFirst.sol\":25998:26026  super._mint(account, amount) */\n  0x20\n  shr\n  jump\t// in\ntag_43:\n    /* \"MyDevFirst.sol\":25911:26034  function _mint(address account, uint256 amount) internal override onlyOwner {\r... */\n  pop\n  pop\n  jump\t// out\n    /* \"MyDevFirst.sol\":19306:19684  function _mint(address account, uint256 amount) internal virtual {\r... */\ntag_44:\n    /* \"MyDevFirst.sol\":19409:19410  0 */\n  0x00\n    /* \"MyDevFirst.sol\":19390:19411  account != address(0) */\n  0xffffffffffffffffffffffffffffffffffffffff\n  and\n    /* \"MyDevFirst.sol\":19390:19397  account */\n  dup3\n    /* \"MyDevFirst.sol\":19390:19411  account != address(0) */\n  0xffffffffffffffffffffffffffffffffffffffff\n  and\n  eq\n  iszero\n    /* \"MyDevFirst.sol\":19382:19447  require(account != address(0), \"ERC20: mint to the zero address\") */\n  tag_46\n  jumpi\n  mload(0x40)\n  0x08c379a000000000000000000000000000000000000000000000000000000000\n  dup2\n  mstore\n  0x04\n  add\n  dup1\n  dup1\n  0x20\n  add\n  dup3\n  dup2\n  sub\n  dup3\n  mstore\n  0x1f\n  dup2\n  mstore\n  0x20\n  add\n  dup1\n  0x45524332303a206d696e7420746f20746865207a65726f206164647265737300\n  dup2\n  mstore\n  pop\n  0x20\n  add\n  swap2\n  pop\n  pop\n  mload(0x40)\n  dup1\n  swap2\n  sub\n  swap1\n  revert\ntag_46:\n    /* \"MyDevFirst.sol\":19460:19509  _beforeTokenTransfer(address(0), account, amount) */\n  tag_47\n    /* \"MyDevFirst.sol\":19489:19490  0 */\n  0x00\n    /* \"MyDevFirst.sol\":19493:19500  account */\n  dup4\n    /* \"MyDevFirst.sol\":19502:19508  amount */\n  dup4\n    /* \"MyDevFirst.sol\":19460:19480  _beforeTokenTransfer */\n  shl(0x20, tag_48)\n    /* \"MyDevFirst.sol\":19460:19509  _beforeTokenTransfer(address(0), account, amount) */\n  0x20\n  shr\n  jump\t// in\ntag_47:\n    /* \"MyDevFirst.sol\":19537:19561  _totalSupply.add(amount) */\n  tag_49\n    /* \"MyDevFirst.sol\":19554:19560  amount */\n  dup2\n    /* \"MyDevFirst.sol\":19537:19549  _totalSupply */\n  sload(0x02)\n    /* \"MyDevFirst.sol\":19537:19553  _totalSupply.add */\n  or(tag_0_78, shl(0x20, tag_50))\n  swap1\n    /* \"MyDevFirst.sol\":19537:19561  _totalSupply.add(amount) */\n  swap2\n  swap1\n  0x20\n  shr\n  jump\t// in\ntag_49:\n    /* \"MyDevFirst.sol\":19522:19534  _totalSupply */\n  0x02\n    /* \"MyDevFirst.sol\":19522:19561  _totalSupply = _totalSupply.add(amount) */\n  dup2\n  swap1\n  sstore\n  pop\n    /* \"MyDevFirst.sol\":19593:19623  _balances[account].add(amount) */\n  tag_51\n    /* \"MyDevFirst.sol\":19616:19622  amount */\n  dup2\n    /* \"MyDevFirst.sol\":19593:19602  _balances */\n  0x00\n    /* \"MyDevFirst.sol\":19593:19611  _balances[account] */\n  dup1\n    /* \"MyDevFirst.sol\":19603:19610  account */\n  dup6\n    /* \"MyDevFirst.sol\":19593:19611  _balances[account] */\n  0xffffffffffffffffffffffffffffffffffffffff\n  and\n  0xffffffffffffffffffffffffffffffffffffffff\n  and\n  dup2\n  mstore\n  0x20\n  add\n  swap1\n  dup2\n  mstore\n  0x20\n  add\n  0x00\n  keccak256\n  sload\n    /* \"MyDevFirst.sol\":19593:19615  _balances[account].add */\n  or(tag_0_78, shl(0x20, tag_50))\n  swap1\n    /* \"MyDevFirst.sol\":19593:19623  _balances[account].add(amount) */\n  swap2\n  swap1\n  0x20\n  shr\n  jump\t// in\ntag_51:\n    /* \"MyDevFirst.sol\":19572:19581  _balances */\n  0x00\n    /* \"MyDevFirst.sol\":19572:19590  _balances[account] */\n  dup1\n    /* \"MyDevFirst.sol\":19582:19589  account */\n  dup5\n    /* \"MyDevFirst.sol\":19572:19590  _balances[account] */\n  0xffffffffffffffffffffffffffffffffffffffff\n  and\n  0xffffffffffffffffffffffffffffffffffffffff\n  and\n  dup2\n  mstore\n  0x20\n  add\n  swap1\n  dup2\n  mstore\n  0x20\n  add\n  0x00\n  keccak256\n    /* \"MyDevFirst.sol\":19572:19623  _balances[account] = _balances[account].add(amount) */\n  dup2\n  swap1\n  sstore\n  pop\n    /* \"MyDevFirst.sol\":19660:19667  account */\n  dup2\n    /* \"MyDevFirst.sol\":19639:19676  Transfer(address(0), account, amount) */\n  0xffffffffffffffffffffffffffffffffffffffff\n  and\n    /* \"MyDevFirst.sol\":19656:19657  0 */\n  0x00\n    /* \"MyDevFirst.sol\":19639:19676  Transfer(address(0), account, amount) */\n  0xffffffffffffffffffffffffffffffffffffffff\n  and\n  0xddf252ad1be2c89b69c2b068fc378daa952ba7f163c4a11628f55a4df523b3ef\n    /* \"MyDevFirst.sol\":19669:19675  amount */\n  dup4\n    /* \"MyDevFirst.sol\":19639:19676  Transfer(address(0), account, amount) */\n  mload(0x40)\n  dup1\n  dup3\n  dup2\n  mstore\n  0x20\n  add\n  swap2\n  pop\n  pop\n  mload(0x40)\n  dup1\n  swap2\n  sub\n  swap1\n  log3\n    /* \"MyDevFirst.sol\":19306:19684  function _mint(address account, uint256 amount) internal virtual {\r... */\n  pop\n  pop\n  jump\t// out\n    /* \"MyDevFirst.sol\":26409:26582  function _beforeTokenTransfer(address from, address to, uint256 amount) internal override(ERC20, ERC20Capped) {\r... */\ntag_48:\n    /* \"MyDevFirst.sol\":26530:26574  super._beforeTokenTransfer(from, to, amount) */\n  tag_53\n    /* \"MyDevFirst.sol\":26557:26561  from */\n  dup4\n    /* \"MyDevFirst.sol\":26563:26565  to */\n  dup4\n    /* \"MyDevFirst.sol\":26567:26573  amount */\n  dup4\n    /* \"MyDevFirst.sol\":26530:26556  super._beforeTokenTransfer */\n  or(tag_0_79, shl(0x20, tag_54))\n    /* \"MyDevFirst.sol\":26530:26574  super._beforeTokenTransfer(from, to, amount) */\n  0x20\n  shr\n  jump\t// in\ntag_53:\n    /* \"MyDevFirst.sol\":26409:26582  function _beforeTokenTransfer(address from, address to, uint256 amount) internal override(ERC20, ERC20Capped) {\r... */\n  pop\n  pop\n  pop\n  jump\t// out\n    /* \"MyDevFirst.sol\":6938:7119  function add(uint256 a, uint256 b) internal pure returns (uint256) {\r... */\ntag_50:\n    /* \"MyDevFirst.sol\":6996:7003  uint256 */\n  0x00\n    /* \"MyDevFirst.sol\":7016:7025  uint256 c */\n  dup1\n    /* \"MyDevFirst.sol\":7032:7033  b */\n  dup3\n    /* \"MyDevFirst.sol\":7028:7029  a */\n  dup5\n    /* \"MyDevFirst.sol\":7028:7033  a + b */\n  add\n    /* \"MyDevFirst.sol\":7016:7033  uint256 c = a + b */\n  swap1\n  pop\n    /* \"MyDevFirst.sol\":7057:7058  a */\n  dup4\n    /* \"MyDevFirst.sol\":7052:7053  c */\n  dup2\n    /* \"MyDevFirst.sol\":7052:7058  c >= a */\n  lt\n  iszero\n    /* \"MyDevFirst.sol\":7044:7090  require(c >= a, \"SafeMath: addition overflow\") */\n  tag_56\n  jumpi\n  mload(0x40)\n  0x08c379a000000000000000000000000000000000000000000000000000000000\n  dup2\n  mstore\n  0x04\n  add\n  dup1\n  dup1\n  0x20\n  add\n  dup3\n  dup2\n  sub\n  dup3\n  mstore\n  0x1b\n  dup2\n  mstore\n  0x20\n  add\n  dup1\n  0x536166654d6174683a206164646974696f6e206f766572666c6f770000000000\n  dup2\n  mstore\n  pop\n  0x20\n  add\n  swap2\n  pop\n  pop\n  mload(0x40)\n  dup1\n  swap2\n  sub\n  swap1\n  revert\ntag_56:\n    /* \"MyDevFirst.sol\":7110:7111  c */\n  dup1\n    /* \"MyDevFirst.sol\":7103:7111  return c */\n  swap2\n  pop\n  pop\n    /* \"MyDevFirst.sol\":6938:7119  function add(uint256 a, uint256 b) internal pure returns (uint256) {\r... */\n  swap3\n  swap2\n  pop\n  pop\n  jump\t// out\n    /* \"MyDevFirst.sol\":23192:23510  function _beforeTokenTransfer(address from, address to, uint256 amount) internal virtual override {\r... */\ntag_54:\n    /* \"MyDevFirst.sol\":23301:23345  super._beforeTokenTransfer(from, to, amount) */\n  tag_58\n    /* \"MyDevFirst.sol\":23328:23332  from */\n  dup4\n    /* \"MyDevFirst.sol\":23334:23336  to */\n  dup4\n    /* \"MyDevFirst.sol\":23338:23344  amount */\n  dup4\n    /* \"MyDevFirst.sol\":23301:23327  super._beforeTokenTransfer */\n  or(tag_0_80, shl(0x20, tag_59))\n    /* \"MyDevFirst.sol\":23301:23345  super._beforeTokenTransfer(from, to, amount) */\n  0x20\n  shr\n  jump\t// in\ntag_58:\n    /* \"MyDevFirst.sol\":23378:23379  0 */\n  0x00\n    /* \"MyDevFirst.sol\":23362:23380  from == address(0) */\n  0xffffffffffffffffffffffffffffffffffffffff\n  and\n    /* \"MyDevFirst.sol\":23362:23366  from */\n  dup4\n    /* \"MyDevFirst.sol\":23362:23380  from == address(0) */\n  0xffffffffffffffffffffffffffffffffffffffff\n  and\n  eq\n    /* \"MyDevFirst.sol\":23358:23503  if (from == address(0)) { // When minting tokens\r... */\n  iszero\n  tag_60\n  jumpi\n    /* \"MyDevFirst.sol\":23457:23461  _cap */\n  sload(0x06)\n    /* \"MyDevFirst.sol\":23428:23453  totalSupply().add(amount) */\n  tag_61\n    /* \"MyDevFirst.sol\":23446:23452  amount */\n  dup3\n    /* \"MyDevFirst.sol\":23428:23441  totalSupply() */\n  tag_62\n    /* \"MyDevFirst.sol\":23428:23439  totalSupply */\n  shl(0x20, tag_63)\n    /* \"MyDevFirst.sol\":23428:23441  totalSupply() */\n  0x20\n  shr\n  jump\t// in\ntag_62:\n    /* \"MyDevFirst.sol\":23428:23445  totalSupply().add */\n  or(tag_0_78, shl(0x20, tag_50))\n  swap1\n    /* \"MyDevFirst.sol\":23428:23453  totalSupply().add(amount) */\n  swap2\n  swap1\n  0x20\n  shr\n  jump\t// in\ntag_61:\n    /* \"MyDevFirst.sol\":23428:23461  totalSupply().add(amount) <= _cap */\n  gt\n  iszero\n    /* \"MyDevFirst.sol\":23420:23491  require(totalSupply().add(amount) <= _cap, \"ERC20Capped: cap exceeded\") */\n  tag_64\n  jumpi\n  mload(0x40)\n  0x08c379a000000000000000000000000000000000000000000000000000000000\n  dup2\n  mstore\n  0x04\n  add\n  dup1\n  dup1\n  0x20\n  add\n  dup3\n  dup2\n  sub\n  dup3\n  mstore\n  0x19\n  dup2\n  mstore\n  0x20\n  add\n  dup1\n  0x45524332304361707065643a2063617020657863656564656400000000000000\n  dup2\n  mstore\n  pop\n  0x20\n  add\n  swap2\n  pop\n  pop\n  mload(0x40)\n  dup1\n  swap2\n  sub\n  swap1\n  revert\ntag_64:\n    /* \"MyDevFirst.sol\":23358:23503  if (from == address(0)) { // When minting tokens\r... */\ntag_60:\n    /* \"MyDevFirst.sol\":23192:23510  function _beforeTokenTransfer(address from, address to, uint256 amount) internal virtual override {\r... */\n  pop\n  pop\n  pop\n  jump\t// out\n    /* \"MyDevFirst.sol\":22244:22336  function _beforeTokenTransfer(address from, address to, uint256 amount) internal virtual { } */\ntag_59:\n  pop\n  pop\n  pop\n  jump\t// out\n    /* \"MyDevFirst.sol\":14593:14693  function totalSupply() public view override returns (uint256) {\r... */\ntag_63:\n    /* \"MyDevFirst.sol\":14646:14653  uint256 */\n  0x00\n    /* \"MyDevFirst.sol\":14673:14685  _totalSupply */\n  sload(0x02)\n    /* \"MyDevFirst.sol\":14666:14685  return _totalSupply */\n  swap1\n  pop\n    /* \"MyDevFirst.sol\":14593:14693  function totalSupply() public view override returns (uint256) {\r... */\n  swap1\n  jump\t// out\n    /* \"MyDevFirst.sol\":25260:26585  contract devtoken is ERC20Capped, ERC20Mintable, Ownable {\r... */\ntag_23:\n  dup3\n  dup1\n  sload\n  0x01\n  dup2\n  0x01\n  and\n  iszero\n  0x0100\n  mul\n  sub\n  and\n  0x02\n  swap1\n  div\n  swap1\n  0x00\n  mstore\n  keccak256(0x00, 0x20)\n  swap1\n  0x1f\n  add\n  0x20\n  swap1\n  div\n  dup2\n  add\n  swap3\n  dup3\n  tag_68\n  jumpi\n  0x00\n  dup6\n  sstore\n  jump(tag_67)\ntag_68:\n  dup3\n  0x1f\n  lt\n  tag_69\n  jumpi\n  dup1\n  mload\n  not(0xff)\n  and\n  dup4\n  dup1\n  add\n  or\n  dup6\n  sstore\n  jump(tag_67)\ntag_69:\n  dup3\n  dup1\n  add\n  0x01\n  add\n  dup6\n  sstore\n  dup3\n  iszero\n  tag_67\n  jumpi\n  swap2\n  dup3\n  add\ntag_70:\n  dup3\n  dup2\n  gt\n  iszero\n  tag_71\n  jumpi\n  dup3\n  mload\n  dup3\n  sstore\n  swap2\n  0x20\n  add\n  swap2\n  swap1\n  0x01\n  add\n  swap1\n  jump(tag_70)\ntag_71:\ntag_67:\n  pop\n  swap1\n  pop\n  tag_72\n  swap2\n  swap1\n  tag_73\n  jump\t// in\ntag_72:\n  pop\n  swap1\n  jump\t// out\ntag_73:\ntag_74:\n  dup1\n  dup3\n  gt\n  iszero\n  tag_75\n  jumpi\n  0x00\n  dup2\n  0x00\n  swap1\n  sstore\n  pop\n  0x01\n  add\n  jump(tag_74)\ntag_75:\n  pop\n  swap1\n  jump\t// out\ntag_36:\n  dataSize(sub_0)\n  dup1\n  dataOffset(sub_0)\n  0x00\n  codecopy\n  0x00\n  return\nstop\n\nsub_0: assembly {\n        /* \"MyDevFirst.sol\":25260:26585  contract devtoken is ERC20Capped, ERC20Mintable, Ownable {\r... */\n      mstore(0x40, 0x80)\n      callvalue\n      dup1\n      iszero\n      tag_1\n      jumpi\n      0x00\n      dup1\n      revert\n    tag_1:\n      pop\n      jumpi(tag_2, lt(calldatasize, 0x04))\n      shr(0xe0, calldataload(0x00))\n      dup1\n      0x70a08231\n      gt\n      tag_21\n      jumpi\n      dup1\n      0x95d89b41\n      gt\n      tag_22\n      jumpi\n      dup1\n      0x95d89b41\n      eq\n      tag_16\n      jumpi\n      dup1\n      0xa457c2d7\n      eq\n      tag_17\n      jumpi\n      dup1\n      0xa9059cbb\n      eq\n      tag_18\n      jumpi\n      dup1\n      0xdd62ed3e\n      eq\n      tag_19\n      jumpi\n      dup1\n      0xf2fde38b\n      eq\n      tag_20\n      jumpi\n      jump(tag_2)\n    tag_22:\n      dup1\n      0x70a08231\n      eq\n      tag_12\n      jumpi\n      dup1\n      0x715018a6\n      eq\n      tag_13\n      jumpi\n      dup1\n      0x7d64bcb4\n      eq\n      tag_14\n      jumpi\n      dup1\n      0x8da5cb5b\n      eq\n      tag_15\n      jumpi\n      jump(tag_2)\n    tag_21:\n      dup1\n      0x23b872dd\n      gt\n      tag_23\n      jumpi\n      dup1\n      0x23b872dd\n      eq\n      tag_7\n      jumpi\n      dup1\n      0x313ce567\n      eq\n      tag_8\n      jumpi\n      dup1\n      0x355274ea\n      eq\n      tag_9\n      jumpi\n      dup1\n      0x39509351\n      eq\n      tag_10\n      jumpi\n      dup1\n      0x40c10f19\n      eq\n      tag_11\n      jumpi\n      jump(tag_2)\n    tag_23:\n      dup1\n      0x05d2035b\n      eq\n      tag_3\n      jumpi\n      dup1\n      0x06fdde03\n      eq\n      tag_4\n      jumpi\n      dup1\n      0x095ea7b3\n      eq\n      tag_5\n      jumpi\n      dup1\n      0x18160ddd\n      eq\n      tag_6\n      jumpi\n    tag_2:\n      0x00\n      dup1\n      revert\n        /* \"MyDevFirst.sol\":24211:24307  function mintingFinished() public view returns (bool) {\r... */\n    tag_3:\n      tag_24\n      tag_25\n      jump\t// in\n    tag_24:\n      mload(0x40)\n      dup1\n      dup3\n      iszero\n      iszero\n      dup2\n      mstore\n      0x20\n      add\n      swap2\n      pop\n      pop\n      mload(0x40)\n      dup1\n      swap2\n      sub\n      swap1\n      return\n        /* \"MyDevFirst.sol\":13518:13601  function name() public view returns (string memory) {\r... */\n    tag_4:\n      tag_26\n      tag_27\n      jump\t// in\n    tag_26:\n      mload(0x40)\n      dup1\n      dup1\n      0x20\n      add\n      dup3\n      dup2\n      sub\n      dup3\n      mstore\n      dup4\n      dup2\n      dup2\n      mload\n      dup2\n      mstore\n      0x20\n      add\n      swap2\n      pop\n      dup1\n      mload\n      swap1\n      0x20\n      add\n      swap1\n      dup1\n      dup4\n      dup4\n      0x00\n    tag_28:\n      dup4\n      dup2\n      lt\n      iszero\n      tag_30\n      jumpi\n      dup1\n      dup3\n      add\n      mload\n      dup2\n      dup5\n      add\n      mstore\n      0x20\n      dup2\n      add\n      swap1\n      pop\n      jump(tag_28)\n    tag_30:\n      pop\n      pop\n      pop\n      pop\n      swap1\n      pop\n      swap1\n      dup2\n      add\n      swap1\n      0x1f\n      and\n      dup1\n      iszero\n      tag_31\n      jumpi\n      dup1\n      dup3\n      sub\n      dup1\n      mload\n      0x01\n      dup4\n      0x20\n      sub\n      0x0100\n      exp\n      sub\n      not\n      and\n      dup2\n      mstore\n      0x20\n      add\n      swap2\n      pop\n    tag_31:\n      pop\n      swap3\n      pop\n      pop\n      pop\n      mload(0x40)\n      dup1\n      swap2\n      sub\n      swap1\n      return\n        /* \"MyDevFirst.sol\":15624:15793  function approve(address spender, uint256 amount) public virtual override returns (bool) {\r... */\n    tag_5:\n      tag_32\n      0x04\n      dup1\n      calldatasize\n      sub\n      0x40\n      dup2\n      lt\n      iszero\n      tag_33\n      jumpi\n      0x00\n      dup1\n      revert\n    tag_33:\n      dup2\n      add\n      swap1\n      dup1\n      dup1\n      calldataload\n      0xffffffffffffffffffffffffffffffffffffffff\n      and\n      swap1\n      0x20\n      add\n      swap1\n      swap3\n      swap2\n      swap1\n      dup1\n      calldataload\n      swap1\n      0x20\n      add\n      swap1\n      swap3\n      swap2\n      swap1\n      pop\n      pop\n      pop\n      tag_34\n      jump\t// in\n    tag_32:\n      mload(0x40)\n      dup1\n      dup3\n      iszero\n      iszero\n      dup2\n      mstore\n      0x20\n      add\n      swap2\n      pop\n      pop\n      mload(0x40)\n      dup1\n      swap2\n      sub\n      swap1\n      return\n        /* \"MyDevFirst.sol\":14593:14693  function totalSupply() public view override returns (uint256) {\r... */\n    tag_6:\n      tag_35\n      tag_36\n      jump\t// in\n    tag_35:\n      mload(0x40)\n      dup1\n      dup3\n      dup2\n      mstore\n      0x20\n      add\n      swap2\n      pop\n      pop\n      mload(0x40)\n      dup1\n      swap2\n      sub\n      swap1\n      return\n        /* \"MyDevFirst.sol\":16275:16596  function transferFrom(address sender, address recipient, uint256 amount) public virtual override returns (bool) {\r... */\n    tag_7:\n      tag_37\n      0x04\n      dup1\n      calldatasize\n      sub\n      0x60\n      dup2\n      lt\n      iszero\n      tag_38\n      jumpi\n      0x00\n      dup1\n      revert\n    tag_38:\n      dup2\n      add\n      swap1\n      dup1\n      dup1\n      calldataload\n      0xffffffffffffffffffffffffffffffffffffffff\n      and\n      swap1\n      0x20\n      add\n      swap1\n      swap3\n      swap2\n      swap1\n      dup1\n      calldataload\n      0xffffffffffffffffffffffffffffffffffffffff\n      and\n      swap1\n      0x20\n      add\n      swap1\n      swap3\n      swap2\n      swap1\n      dup1\n      calldataload\n      swap1\n      0x20\n      add\n      swap1\n      swap3\n      swap2\n      swap1\n      pop\n      pop\n      pop\n      tag_39\n      jump\t// in\n    tag_37:\n      mload(0x40)\n      dup1\n      dup3\n      iszero\n      iszero\n      dup2\n      mstore\n      0x20\n      add\n      swap2\n      pop\n      pop\n      mload(0x40)\n      dup1\n      swap2\n      sub\n      swap1\n      return\n        /* \"MyDevFirst.sol\":14445:14528  function decimals() public view returns (uint8) {\r... */\n    tag_8:\n      tag_40\n      tag_41\n      jump\t// in\n    tag_40:\n      mload(0x40)\n      dup1\n      dup3\n      0xff\n      and\n      dup2\n      mstore\n      0x20\n      add\n      swap2\n      pop\n      pop\n      mload(0x40)\n      dup1\n      swap2\n      sub\n      swap1\n      return\n        /* \"MyDevFirst.sol\":22930:23005  function cap() public view returns (uint256) {\r... */\n    tag_9:\n      tag_42\n      tag_43\n      jump\t// in\n    tag_42:\n      mload(0x40)\n      dup1\n      dup3\n      dup2\n      mstore\n      0x20\n      add\n      swap2\n      pop\n      pop\n      mload(0x40)\n      dup1\n      swap2\n      sub\n      swap1\n      return\n        /* \"MyDevFirst.sol\":17005:17223  function increaseAllowance(address spender, uint256 addedValue) public virtual returns (bool) {\r... */\n    tag_10:\n      tag_44\n      0x04\n      dup1\n      calldatasize\n      sub\n      0x40\n      dup2\n      lt\n      iszero\n      tag_45\n      jumpi\n      0x00\n      dup1\n      revert\n    tag_45:\n      dup2\n      add\n      swap1\n      dup1\n      dup1\n      calldataload\n      0xffffffffffffffffffffffffffffffffffffffff\n      and\n      swap1\n      0x20\n      add\n      swap1\n      swap3\n      swap2\n      swap1\n      dup1\n      calldataload\n      swap1\n      0x20\n      add\n      swap1\n      swap3\n      swap2\n      swap1\n      pop\n      pop\n      pop\n      tag_46\n      jump\t// in\n    tag_44:\n      mload(0x40)\n      dup1\n      dup3\n      iszero\n      iszero\n      dup2\n      mstore\n      0x20\n      add\n      swap2\n      pop\n      pop\n      mload(0x40)\n      dup1\n      swap2\n      sub\n      swap1\n      return\n        /* \"MyDevFirst.sol\":24619:24722  function mint(address account, uint256 amount) public canMint {\r... */\n    tag_11:\n      tag_47\n      0x04\n      dup1\n      calldatasize\n      sub\n      0x40\n      dup2\n      lt\n      iszero\n      tag_48\n      jumpi\n      0x00\n      dup1\n      revert\n    tag_48:\n      dup2\n      add\n      swap1\n      dup1\n      dup1\n      calldataload\n      0xffffffffffffffffffffffffffffffffffffffff\n      and\n      swap1\n      0x20\n      add\n      swap1\n      swap3\n      swap2\n      swap1\n      dup1\n      calldataload\n      swap1\n      0x20\n      add\n      swap1\n      swap3\n      swap2\n      swap1\n      pop\n      pop\n      pop\n      tag_49\n      jump\t// in\n    tag_47:\n      stop\n        /* \"MyDevFirst.sol\":14756:14875  function balanceOf(address account) public view override returns (uint256) {\r... */\n    tag_12:\n      tag_50\n      0x04\n      dup1\n      calldatasize\n      sub\n      0x20\n      dup2\n      lt\n      iszero\n      tag_51\n      jumpi\n      0x00\n      dup1\n      revert\n    tag_51:\n      dup2\n      add\n      swap1\n      dup1\n      dup1\n      calldataload\n      0xffffffffffffffffffffffffffffffffffffffff\n      and\n      swap1\n      0x20\n      add\n      swap1\n      swap3\n      swap2\n      swap1\n      pop\n      pop\n      pop\n      tag_52\n      jump\t// in\n    tag_50:\n      mload(0x40)\n      dup1\n      dup3\n      dup2\n      mstore\n      0x20\n      add\n      swap2\n      pop\n      pop\n      mload(0x40)\n      dup1\n      swap2\n      sub\n      swap1\n      return\n        /* \"MyDevFirst.sol\":2718:2866  function renounceOwnership() public virtual onlyOwner {\r... */\n    tag_13:\n      tag_53\n      tag_54\n      jump\t// in\n    tag_53:\n      stop\n        /* \"MyDevFirst.sol\":24915:24990  function finishMinting() public canMint {\r... */\n    tag_14:\n      tag_55\n      tag_56\n      jump\t// in\n    tag_55:\n      stop\n        /* \"MyDevFirst.sol\":2076:2155  function owner() public view returns (address) {\r... */\n    tag_15:\n      tag_57\n      tag_58\n      jump\t// in\n    tag_57:\n      mload(0x40)\n      dup1\n      dup3\n      0xffffffffffffffffffffffffffffffffffffffff\n      and\n      dup2\n      mstore\n      0x20\n      add\n      swap2\n      pop\n      pop\n      mload(0x40)\n      dup1\n      swap2\n      sub\n      swap1\n      return\n        /* \"MyDevFirst.sol\":13720:13807  function symbol() public view returns (string memory) {\r... */\n    tag_16:\n      tag_59\n      tag_60\n      jump\t// in\n    tag_59:\n      mload(0x40)\n      dup1\n      dup1\n      0x20\n      add\n      dup3\n      dup2\n      sub\n      dup3\n      mstore\n      dup4\n      dup2\n      dup2\n      mload\n      dup2\n      mstore\n      0x20\n      add\n      swap2\n      pop\n      dup1\n      mload\n      swap1\n      0x20\n      add\n      swap1\n      dup1\n      dup4\n      dup4\n      0x00\n    tag_61:\n      dup4\n      dup2\n      lt\n      iszero\n      tag_63\n      jumpi\n      dup1\n      dup3\n      add\n      mload\n      dup2\n      dup5\n      add\n      mstore\n      0x20\n      dup2\n      add\n      swap1\n      pop\n      jump(tag_61)\n    tag_63:\n      pop\n      pop\n      pop\n      pop\n      swap1\n      pop\n      swap1\n      dup2\n      add\n      swap1\n      0x1f\n      and\n      dup1\n      iszero\n      tag_64\n      jumpi\n      dup1\n      dup3\n      sub\n      dup1\n      mload\n      0x01\n      dup4\n      0x20\n      sub\n      0x0100\n      exp\n      sub\n      not\n      and\n      dup2\n      mstore\n      0x20\n      add\n      swap2\n      pop\n    tag_64:\n      pop\n      swap3\n      pop\n      pop\n      pop\n      mload(0x40)\n      dup1\n      swap2\n      sub\n      swap1\n      return\n        /* \"MyDevFirst.sol\":17726:17995  function decreaseAllowance(address spender, uint256 subtractedValue) public virtual returns (bool) {\r... */\n    tag_17:\n      tag_65\n      0x04\n      dup1\n      calldatasize\n      sub\n      0x40\n      dup2\n      lt\n      iszero\n      tag_66\n      jumpi\n      0x00\n      dup1\n      revert\n    tag_66:\n      dup2\n      add\n      swap1\n      dup1\n      dup1\n      calldataload\n      0xffffffffffffffffffffffffffffffffffffffff\n      and\n      swap1\n      0x20\n      add\n      swap1\n      swap3\n      swap2\n      swap1\n      dup1\n      calldataload\n      swap1\n      0x20\n      add\n      swap1\n      swap3\n      swap2\n      swap1\n      pop\n      pop\n      pop\n      tag_67\n      jump\t// in\n    tag_65:\n      mload(0x40)\n      dup1\n      dup3\n      iszero\n      iszero\n      dup2\n      mstore\n      0x20\n      add\n      swap2\n      pop\n      pop\n      mload(0x40)\n      dup1\n      swap2\n      sub\n      swap1\n      return\n        /* \"MyDevFirst.sol\":15088:15263  function transfer(address recipient, uint256 amount) public virtual override returns (bool) {\r... */\n    tag_18:\n      tag_68\n      0x04\n      dup1\n      calldatasize\n      sub\n      0x40\n      dup2\n      lt\n      iszero\n      tag_69\n      jumpi\n      0x00\n      dup1\n      revert\n    tag_69:\n      dup2\n      add\n      swap1\n      dup1\n      dup1\n      calldataload\n      0xffffffffffffffffffffffffffffffffffffffff\n      and\n      swap1\n      0x20\n      add\n      swap1\n      swap3\n      swap2\n      swap1\n      dup1\n      calldataload\n      swap1\n      0x20\n      add\n      swap1\n      swap3\n      swap2\n      swap1\n      pop\n      pop\n      pop\n      tag_70\n      jump\t// in\n    tag_68:\n      mload(0x40)\n      dup1\n      dup3\n      iszero\n      iszero\n      dup2\n      mstore\n      0x20\n      add\n      swap2\n      pop\n      pop\n      mload(0x40)\n      dup1\n      swap2\n      sub\n      swap1\n      return\n        /* \"MyDevFirst.sol\":15326:15477  function allowance(address owner, address spender) public view virtual override returns (uint256) {\r... */\n    tag_19:\n      tag_71\n      0x04\n      dup1\n      calldatasize\n      sub\n      0x40\n      dup2\n      lt\n      iszero\n      tag_72\n      jumpi\n      0x00\n      dup1\n      revert\n    tag_72:\n      dup2\n      add\n      swap1\n      dup1\n      dup1\n      calldataload\n      0xffffffffffffffffffffffffffffffffffffffff\n      and\n      swap1\n      0x20\n      add\n      swap1\n      swap3\n      swap2\n      swap1\n      dup1\n      calldataload\n      0xffffffffffffffffffffffffffffffffffffffff\n      and\n      swap1\n      0x20\n      add\n      swap1\n      swap3\n      swap2\n      swap1\n      pop\n      pop\n      pop\n      tag_73\n      jump\t// in\n    tag_71:\n      mload(0x40)\n      dup1\n      dup3\n      dup2\n      mstore\n      0x20\n      add\n      swap2\n      pop\n      pop\n      mload(0x40)\n      dup1\n      swap2\n      sub\n      swap1\n      return\n        /* \"MyDevFirst.sol\":3021:3265  function transferOwnership(address newOwner) public virtual onlyOwner {\r... */\n    tag_20:\n      tag_74\n      0x04\n      dup1\n      calldatasize\n      sub\n      0x20\n      dup2\n      lt\n      iszero\n      tag_75\n      jumpi\n      0x00\n      dup1\n      revert\n    tag_75:\n      dup2\n      add\n      swap1\n      dup1\n      dup1\n      calldataload\n      0xffffffffffffffffffffffffffffffffffffffff\n      and\n      swap1\n      0x20\n      add\n      swap1\n      swap3\n      swap2\n      swap1\n      pop\n      pop\n      pop\n      tag_76\n      jump\t// in\n    tag_74:\n      stop\n        /* \"MyDevFirst.sol\":24211:24307  function mintingFinished() public view returns (bool) {\r... */\n    tag_25:\n        /* \"MyDevFirst.sol\":24259:24263  bool */\n      0x00\n        /* \"MyDevFirst.sol\":24283:24299  _mintingFinished */\n      0x07\n      0x00\n      swap1\n      sload\n      swap1\n      0x0100\n      exp\n      swap1\n      div\n      0xff\n      and\n        /* \"MyDevFirst.sol\":24276:24299  return _mintingFinished */\n      swap1\n      pop\n        /* \"MyDevFirst.sol\":24211:24307  function mintingFinished() public view returns (bool) {\r... */\n      swap1\n      jump\t// out\n        /* \"MyDevFirst.sol\":13518:13601  function name() public view returns (string memory) {\r... */\n    tag_27:\n        /* \"MyDevFirst.sol\":13555:13568  string memory */\n      0x60\n        /* \"MyDevFirst.sol\":13588:13593  _name */\n      0x03\n        /* \"MyDevFirst.sol\":13581:13593  return _name */\n      dup1\n      sload\n      0x01\n      dup2\n      0x01\n      and\n      iszero\n      0x0100\n      mul\n      sub\n      and\n      0x02\n      swap1\n      div\n      dup1\n      0x1f\n      add\n      0x20\n      dup1\n      swap2\n      div\n      mul\n      0x20\n      add\n      mload(0x40)\n      swap1\n      dup2\n      add\n      0x40\n      mstore\n      dup1\n      swap3\n      swap2\n      swap1\n      dup2\n      dup2\n      mstore\n      0x20\n      add\n      dup3\n      dup1\n      sload\n      0x01\n      dup2\n      0x01\n      and\n      iszero\n      0x0100\n      mul\n      sub\n      and\n      0x02\n      swap1\n      div\n      dup1\n      iszero\n      tag_83\n      jumpi\n      dup1\n      0x1f\n      lt\n      tag_84\n      jumpi\n      0x0100\n      dup1\n      dup4\n      sload\n      div\n      mul\n      dup4\n      mstore\n      swap2\n      0x20\n      add\n      swap2\n      jump(tag_83)\n    tag_84:\n      dup3\n      add\n      swap2\n      swap1\n      0x00\n      mstore\n      keccak256(0x00, 0x20)\n      swap1\n    tag_85:\n      dup2\n      sload\n      dup2\n      mstore\n      swap1\n      0x01\n      add\n      swap1\n      0x20\n      add\n      dup1\n      dup4\n      gt\n      tag_85\n      jumpi\n      dup3\n      swap1\n      sub\n      0x1f\n      and\n      dup3\n      add\n      swap2\n    tag_83:\n      pop\n      pop\n      pop\n      pop\n      pop\n      swap1\n      pop\n        /* \"MyDevFirst.sol\":13518:13601  function name() public view returns (string memory) {\r... */\n      swap1\n      jump\t// out\n        /* \"MyDevFirst.sol\":15624:15793  function approve(address spender, uint256 amount) public virtual override returns (bool) {\r... */\n    tag_34:\n        /* \"MyDevFirst.sol\":15707:15711  bool */\n      0x00\n        /* \"MyDevFirst.sol\":15724:15763  _approve(_msgSender(), spender, amount) */\n      tag_87\n        /* \"MyDevFirst.sol\":15733:15745  _msgSender() */\n      tag_88\n        /* \"MyDevFirst.sol\":15733:15743  _msgSender */\n      tag_89\n        /* \"MyDevFirst.sol\":15733:15745  _msgSender() */\n      jump\t// in\n    tag_88:\n        /* \"MyDevFirst.sol\":15747:15754  spender */\n      dup5\n        /* \"MyDevFirst.sol\":15756:15762  amount */\n      dup5\n        /* \"MyDevFirst.sol\":15724:15732  _approve */\n      tag_90\n        /* \"MyDevFirst.sol\":15724:15763  _approve(_msgSender(), spender, amount) */\n      jump\t// in\n    tag_87:\n        /* \"MyDevFirst.sol\":15781:15785  true */\n      0x01\n        /* \"MyDevFirst.sol\":15774:15785  return true */\n      swap1\n      pop\n        /* \"MyDevFirst.sol\":15624:15793  function approve(address spender, uint256 amount) public virtual override returns (bool) {\r... */\n      swap3\n      swap2\n      pop\n      pop\n      jump\t// out\n        /* \"MyDevFirst.sol\":14593:14693  function totalSupply() public view override returns (uint256) {\r... */\n    tag_36:\n        /* \"MyDevFirst.sol\":14646:14653  uint256 */\n      0x00\n        /* \"MyDevFirst.sol\":14673:14685  _totalSupply */\n      sload(0x02)\n        /* \"MyDevFirst.sol\":14666:14685  return _totalSupply */\n      swap1\n      pop\n        /* \"MyDevFirst.sol\":14593:14693  function totalSupply() public view override returns (uint256) {\r... */\n      swap1\n      jump\t// out\n        /* \"MyDevFirst.sol\":16275:16596  function transferFrom(address sender, address recipient, uint256 amount) public virtual override returns (bool) {\r... */\n    tag_39:\n        /* \"MyDevFirst.sol\":16381:16385  bool */\n      0x00\n        /* \"MyDevFirst.sol\":16398:16434  _transfer(sender, recipient, amount) */\n      tag_93\n        /* \"MyDevFirst.sol\":16408:16414  sender */\n      dup5\n        /* \"MyDevFirst.sol\":16416:16425  recipient */\n      dup5\n        /* \"MyDevFirst.sol\":16427:16433  amount */\n      dup5\n        /* \"MyDevFirst.sol\":16398:16407  _transfer */\n      tag_94\n        /* \"MyDevFirst.sol\":16398:16434  _transfer(sender, recipient, amount) */\n      jump\t// in\n    tag_93:\n        /* \"MyDevFirst.sol\":16445:16566  _approve(sender, _msgSender(), _allowances[sender][_msgSender()].sub(amount, \"ERC20: transfer amount exceeds allowance\")) */\n      tag_95\n        /* \"MyDevFirst.sol\":16454:16460  sender */\n      dup5\n        /* \"MyDevFirst.sol\":16462:16474  _msgSender() */\n      tag_96\n        /* \"MyDevFirst.sol\":16462:16472  _msgSender */\n      tag_89\n        /* \"MyDevFirst.sol\":16462:16474  _msgSender() */\n      jump\t// in\n    tag_96:\n        /* \"MyDevFirst.sol\":16476:16565  _allowances[sender][_msgSender()].sub(amount, \"ERC20: transfer amount exceeds allowance\") */\n      tag_97\n        /* \"MyDevFirst.sol\":16514:16520  amount */\n      dup6\n        /* \"MyDevFirst.sol\":16476:16565  _allowances[sender][_msgSender()].sub(amount, \"ERC20: transfer amount exceeds allowance\") */\n      mload(0x40)\n      dup1\n      0x60\n      add\n      0x40\n      mstore\n      dup1\n      0x28\n      dup2\n      mstore\n      0x20\n      add\n      data_974d1b4421da69cc60b481194f0dad36a5bb4e23da810da7a7fb30cdba178330\n      0x28\n      swap2\n      codecopy\n        /* \"MyDevFirst.sol\":16476:16487  _allowances */\n      0x01\n        /* \"MyDevFirst.sol\":16476:16495  _allowances[sender] */\n      0x00\n        /* \"MyDevFirst.sol\":16488:16494  sender */\n      dup12\n        /* \"MyDevFirst.sol\":16476:16495  _allowances[sender] */\n      0xffffffffffffffffffffffffffffffffffffffff\n      and\n      0xffffffffffffffffffffffffffffffffffffffff\n      and\n      dup2\n      mstore\n      0x20\n      add\n      swap1\n      dup2\n      mstore\n      0x20\n      add\n      0x00\n      keccak256\n        /* \"MyDevFirst.sol\":16476:16509  _allowances[sender][_msgSender()] */\n      0x00\n        /* \"MyDevFirst.sol\":16496:16508  _msgSender() */\n      tag_98\n        /* \"MyDevFirst.sol\":16496:16506  _msgSender */\n      tag_89\n        /* \"MyDevFirst.sol\":16496:16508  _msgSender() */\n      jump\t// in\n    tag_98:\n        /* \"MyDevFirst.sol\":16476:16509  _allowances[sender][_msgSender()] */\n      0xffffffffffffffffffffffffffffffffffffffff\n      and\n      0xffffffffffffffffffffffffffffffffffffffff\n      and\n      dup2\n      mstore\n      0x20\n      add\n      swap1\n      dup2\n      mstore\n      0x20\n      add\n      0x00\n      keccak256\n      sload\n        /* \"MyDevFirst.sol\":16476:16513  _allowances[sender][_msgSender()].sub */\n      tag_99\n      swap1\n        /* \"MyDevFirst.sol\":16476:16565  _allowances[sender][_msgSender()].sub(amount, \"ERC20: transfer amount exceeds allowance\") */\n      swap3\n      swap2\n      swap1\n      0xffffffff\n      and\n      jump\t// in\n    tag_97:\n        /* \"MyDevFirst.sol\":16445:16453  _approve */\n      tag_90\n        /* \"MyDevFirst.sol\":16445:16566  _approve(sender, _msgSender(), _allowances[sender][_msgSender()].sub(amount, \"ERC20: transfer amount exceeds allowance\")) */\n      jump\t// in\n    tag_95:\n        /* \"MyDevFirst.sol\":16584:16588  true */\n      0x01\n        /* \"MyDevFirst.sol\":16577:16588  return true */\n      swap1\n      pop\n        /* \"MyDevFirst.sol\":16275:16596  function transferFrom(address sender, address recipient, uint256 amount) public virtual override returns (bool) {\r... */\n      swap4\n      swap3\n      pop\n      pop\n      pop\n      jump\t// out\n        /* \"MyDevFirst.sol\":14445:14528  function decimals() public view returns (uint8) {\r... */\n    tag_41:\n        /* \"MyDevFirst.sol\":14486:14491  uint8 */\n      0x00\n        /* \"MyDevFirst.sol\":14511:14520  _decimals */\n      0x05\n      0x00\n      swap1\n      sload\n      swap1\n      0x0100\n      exp\n      swap1\n      div\n      0xff\n      and\n        /* \"MyDevFirst.sol\":14504:14520  return _decimals */\n      swap1\n      pop\n        /* \"MyDevFirst.sol\":14445:14528  function decimals() public view returns (uint8) {\r... */\n      swap1\n      jump\t// out\n        /* \"MyDevFirst.sol\":22930:23005  function cap() public view returns (uint256) {\r... */\n    tag_43:\n        /* \"MyDevFirst.sol\":22966:22973  uint256 */\n      0x00\n        /* \"MyDevFirst.sol\":22993:22997  _cap */\n      sload(0x06)\n        /* \"MyDevFirst.sol\":22986:22997  return _cap */\n      swap1\n      pop\n        /* \"MyDevFirst.sol\":22930:23005  function cap() public view returns (uint256) {\r... */\n      swap1\n      jump\t// out\n        /* \"MyDevFirst.sol\":17005:17223  function increaseAllowance(address spender, uint256 addedValue) public virtual returns (bool) {\r... */\n    tag_46:\n        /* \"MyDevFirst.sol\":17093:17097  bool */\n      0x00\n        /* \"MyDevFirst.sol\":17110:17193  _approve(_msgSender(), spender, _allowances[_msgSender()][spender].add(addedValue)) */\n      tag_103\n        /* \"MyDevFirst.sol\":17119:17131  _msgSender() */\n      tag_104\n        /* \"MyDevFirst.sol\":17119:17129  _msgSender */\n      tag_89\n        /* \"MyDevFirst.sol\":17119:17131  _msgSender() */\n      jump\t// in\n    tag_104:\n        /* \"MyDevFirst.sol\":17133:17140  spender */\n      dup5\n        /* \"MyDevFirst.sol\":17142:17192  _allowances[_msgSender()][spender].add(addedValue) */\n      tag_105\n        /* \"MyDevFirst.sol\":17181:17191  addedValue */\n      dup6\n        /* \"MyDevFirst.sol\":17142:17153  _allowances */\n      0x01\n        /* \"MyDevFirst.sol\":17142:17167  _allowances[_msgSender()] */\n      0x00\n        /* \"MyDevFirst.sol\":17154:17166  _msgSender() */\n      tag_106\n        /* \"MyDevFirst.sol\":17154:17164  _msgSender */\n      tag_89\n        /* \"MyDevFirst.sol\":17154:17166  _msgSender() */\n      jump\t// in\n    tag_106:\n        /* \"MyDevFirst.sol\":17142:17167  _allowances[_msgSender()] */\n      0xffffffffffffffffffffffffffffffffffffffff\n      and\n      0xffffffffffffffffffffffffffffffffffffffff\n      and\n      dup2\n      mstore\n      0x20\n      add\n      swap1\n      dup2\n      mstore\n      0x20\n      add\n      0x00\n      keccak256\n        /* \"MyDevFirst.sol\":17142:17176  _allowances[_msgSender()][spender] */\n      0x00\n        /* \"MyDevFirst.sol\":17168:17175  spender */\n      dup10\n        /* \"MyDevFirst.sol\":17142:17176  _allowances[_msgSender()][spender] */\n      0xffffffffffffffffffffffffffffffffffffffff\n      and\n      0xffffffffffffffffffffffffffffffffffffffff\n      and\n      dup2\n      mstore\n      0x20\n      add\n      swap1\n      dup2\n      mstore\n      0x20\n      add\n      0x00\n      keccak256\n      sload\n        /* \"MyDevFirst.sol\":17142:17180  _allowances[_msgSender()][spender].add */\n      tag_78\n      swap1\n        /* \"MyDevFirst.sol\":17142:17192  _allowances[_msgSender()][spender].add(addedValue) */\n      swap2\n      swap1\n      0xffffffff\n      and\n      jump\t// in\n    tag_105:\n        /* \"MyDevFirst.sol\":17110:17118  _approve */\n      tag_90\n        /* \"MyDevFirst.sol\":17110:17193  _approve(_msgSender(), spender, _allowances[_msgSender()][spender].add(addedValue)) */\n      jump\t// in\n    tag_103:\n        /* \"MyDevFirst.sol\":17211:17215  true */\n      0x01\n        /* \"MyDevFirst.sol\":17204:17215  return true */\n      swap1\n      pop\n        /* \"MyDevFirst.sol\":17005:17223  function increaseAllowance(address spender, uint256 addedValue) public virtual returns (bool) {\r... */\n      swap3\n      swap2\n      pop\n      pop\n      jump\t// out\n        /* \"MyDevFirst.sol\":24619:24722  function mint(address account, uint256 amount) public canMint {\r... */\n    tag_49:\n        /* \"MyDevFirst.sol\":24063:24079  _mintingFinished */\n      0x07\n      0x00\n      swap1\n      sload\n      swap1\n      0x0100\n      exp\n      swap1\n      div\n      0xff\n      and\n        /* \"MyDevFirst.sol\":24062:24079  !_mintingFinished */\n      iszero\n        /* \"MyDevFirst.sol\":24054:24118  require(!_mintingFinished, \"ERC20Mintable: minting is finished\") */\n      tag_108\n      jumpi\n      mload(0x40)\n      0x08c379a000000000000000000000000000000000000000000000000000000000\n      dup2\n      mstore\n      0x04\n      add\n      dup1\n      dup1\n      0x20\n      add\n      dup3\n      dup2\n      sub\n      dup3\n      mstore\n      0x22\n      dup2\n      mstore\n      0x20\n      add\n      dup1\n      data_f0296ba1e0cd26c09d97cb12c7a2251bdeb7854af8141b03b7f1306fbe6b4984\n      0x22\n      swap2\n      codecopy\n      0x40\n      add\n      swap2\n      pop\n      pop\n      mload(0x40)\n      dup1\n      swap2\n      sub\n      swap1\n      revert\n    tag_108:\n        /* \"MyDevFirst.sol\":24692:24714  _mint(account, amount) */\n      tag_110\n        /* \"MyDevFirst.sol\":24698:24705  account */\n      dup3\n        /* \"MyDevFirst.sol\":24707:24713  amount */\n      dup3\n        /* \"MyDevFirst.sol\":24692:24697  _mint */\n      tag_111\n        /* \"MyDevFirst.sol\":24692:24714  _mint(account, amount) */\n      jump\t// in\n    tag_110:\n        /* \"MyDevFirst.sol\":24619:24722  function mint(address account, uint256 amount) public canMint {\r... */\n      pop\n      pop\n      jump\t// out\n        /* \"MyDevFirst.sol\":14756:14875  function balanceOf(address account) public view override returns (uint256) {\r... */\n    tag_52:\n        /* \"MyDevFirst.sol\":14822:14829  uint256 */\n      0x00\n        /* \"MyDevFirst.sol\":14849:14858  _balances */\n      dup1\n        /* \"MyDevFirst.sol\":14849:14867  _balances[account] */\n      0x00\n        /* \"MyDevFirst.sol\":14859:14866  account */\n      dup4\n        /* \"MyDevFirst.sol\":14849:14867  _balances[account] */\n      0xffffffffffffffffffffffffffffffffffffffff\n      and\n      0xffffffffffffffffffffffffffffffffffffffff\n      and\n      dup2\n      mstore\n      0x20\n      add\n      swap1\n      dup2\n      mstore\n      0x20\n      add\n      0x00\n      keccak256\n      sload\n        /* \"MyDevFirst.sol\":14842:14867  return _balances[account] */\n      swap1\n      pop\n        /* \"MyDevFirst.sol\":14756:14875  function balanceOf(address account) public view override returns (uint256) {\r... */\n      swap2\n      swap1\n      pop\n      jump\t// out\n        /* \"MyDevFirst.sol\":2718:2866  function renounceOwnership() public virtual onlyOwner {\r... */\n    tag_54:\n        /* \"MyDevFirst.sol\":2298:2310  _msgSender() */\n      tag_114\n        /* \"MyDevFirst.sol\":2298:2308  _msgSender */\n      tag_89\n        /* \"MyDevFirst.sol\":2298:2310  _msgSender() */\n      jump\t// in\n    tag_114:\n        /* \"MyDevFirst.sol\":2288:2310  _owner == _msgSender() */\n      0xffffffffffffffffffffffffffffffffffffffff\n      and\n        /* \"MyDevFirst.sol\":2288:2294  _owner */\n      0x07\n      0x01\n      swap1\n      sload\n      swap1\n      0x0100\n      exp\n      swap1\n      div\n      0xffffffffffffffffffffffffffffffffffffffff\n      and\n        /* \"MyDevFirst.sol\":2288:2310  _owner == _msgSender() */\n      0xffffffffffffffffffffffffffffffffffffffff\n      and\n      eq\n        /* \"MyDevFirst.sol\":2280:2347  require(_owner == _msgSender(), \"Ownable: caller is not the owner\") */\n      tag_115\n      jumpi\n      mload(0x40)\n      0x08c379a000000000000000000000000000000000000000000000000000000000\n      dup2\n      mstore\n      0x04\n      add\n      dup1\n      dup1\n      0x20\n      add\n      dup3\n      dup2\n      sub\n      dup3\n      mstore\n      0x20\n      dup2\n      mstore\n      0x20\n      add\n      dup1\n      0x4f776e61626c653a2063616c6c6572206973206e6f7420746865206f776e6572\n      dup2\n      mstore\n      pop\n      0x20\n      add\n      swap2\n      pop\n      pop\n      mload(0x40)\n      dup1\n      swap2\n      sub\n      swap1\n      revert\n    tag_115:\n        /* \"MyDevFirst.sol\":2825:2826  0 */\n      0x00\n        /* \"MyDevFirst.sol\":2788:2828  OwnershipTransferred(_owner, address(0)) */\n      0xffffffffffffffffffffffffffffffffffffffff\n      and\n        /* \"MyDevFirst.sol\":2809:2815  _owner */\n      0x07\n      0x01\n      swap1\n      sload\n      swap1\n      0x0100\n      exp\n      swap1\n      div\n      0xffffffffffffffffffffffffffffffffffffffff\n      and\n        /* \"MyDevFirst.sol\":2788:2828  OwnershipTransferred(_owner, address(0)) */\n      0xffffffffffffffffffffffffffffffffffffffff\n      and\n      0x8be0079c531659141344cd1fd0a4f28419497f9722a3daafe3b4186f6b6457e0\n      mload(0x40)\n      mload(0x40)\n      dup1\n      swap2\n      sub\n      swap1\n      log3\n        /* \"MyDevFirst.sol\":2856:2857  0 */\n      0x00\n        /* \"MyDevFirst.sol\":2839:2845  _owner */\n      0x07\n      0x01\n        /* \"MyDevFirst.sol\":2839:2858  _owner = address(0) */\n      0x0100\n      exp\n      dup2\n      sload\n      dup2\n      0xffffffffffffffffffffffffffffffffffffffff\n      mul\n      not\n      and\n      swap1\n      dup4\n      0xffffffffffffffffffffffffffffffffffffffff\n      and\n      mul\n      or\n      swap1\n      sstore\n      pop\n        /* \"MyDevFirst.sol\":2718:2866  function renounceOwnership() public virtual onlyOwner {\r... */\n      jump\t// out\n        /* \"MyDevFirst.sol\":24915:24990  function finishMinting() public canMint {\r... */\n    tag_56:\n        /* \"MyDevFirst.sol\":24063:24079  _mintingFinished */\n      0x07\n      0x00\n      swap1\n      sload\n      swap1\n      0x0100\n      exp\n      swap1\n      div\n      0xff\n      and\n        /* \"MyDevFirst.sol\":24062:24079  !_mintingFinished */\n      iszero\n        /* \"MyDevFirst.sol\":24054:24118  require(!_mintingFinished, \"ERC20Mintable: minting is finished\") */\n      tag_118\n      jumpi\n      mload(0x40)\n      0x08c379a000000000000000000000000000000000000000000000000000000000\n      dup2\n      mstore\n      0x04\n      add\n      dup1\n      dup1\n      0x20\n      add\n      dup3\n      dup2\n      sub\n      dup3\n      mstore\n      0x22\n      dup2\n      mstore\n      0x20\n      add\n      dup1\n      data_f0296ba1e0cd26c09d97cb12c7a2251bdeb7854af8141b03b7f1306fbe6b4984\n      0x22\n      swap2\n      codecopy\n      0x40\n      add\n      swap2\n      pop\n      pop\n      mload(0x40)\n      dup1\n      swap2\n      sub\n      swap1\n      revert\n    tag_118:\n        /* \"MyDevFirst.sol\":24966:24982  _finishMinting() */\n      tag_120\n        /* \"MyDevFirst.sol\":24966:24980  _finishMinting */\n      tag_121\n        /* \"MyDevFirst.sol\":24966:24982  _finishMinting() */\n      jump\t// in\n    tag_120:\n        /* \"MyDevFirst.sol\":24915:24990  function finishMinting() public canMint {\r... */\n      jump\t// out\n        /* \"MyDevFirst.sol\":2076:2155  function owner() public view returns (address) {\r... */\n    tag_58:\n        /* \"MyDevFirst.sol\":2114:2121  address */\n      0x00\n        /* \"MyDevFirst.sol\":2141:2147  _owner */\n      0x07\n      0x01\n      swap1\n      sload\n      swap1\n      0x0100\n      exp\n      swap1\n      div\n      0xffffffffffffffffffffffffffffffffffffffff\n      and\n        /* \"MyDevFirst.sol\":2134:2147  return _owner */\n      swap1\n      pop\n        /* \"MyDevFirst.sol\":2076:2155  function owner() public view returns (address) {\r... */\n      swap1\n      jump\t// out\n        /* \"MyDevFirst.sol\":13720:13807  function symbol() public view returns (string memory) {\r... */\n    tag_60:\n        /* \"MyDevFirst.sol\":13759:13772  string memory */\n      0x60\n        /* \"MyDevFirst.sol\":13792:13799  _symbol */\n      0x04\n        /* \"MyDevFirst.sol\":13785:13799  return _symbol */\n      dup1\n      sload\n      0x01\n      dup2\n      0x01\n      and\n      iszero\n      0x0100\n      mul\n      sub\n      and\n      0x02\n      swap1\n      div\n      dup1\n      0x1f\n      add\n      0x20\n      dup1\n      swap2\n      div\n      mul\n      0x20\n      add\n      mload(0x40)\n      swap1\n      dup2\n      add\n      0x40\n      mstore\n      dup1\n      swap3\n      swap2\n      swap1\n      dup2\n      dup2\n      mstore\n      0x20\n      add\n      dup3\n      dup1\n      sload\n      0x01\n      dup2\n      0x01\n      and\n      iszero\n      0x0100\n      mul\n      sub\n      and\n      0x02\n      swap1\n      div\n      dup1\n      iszero\n      tag_124\n      jumpi\n      dup1\n      0x1f\n      lt\n      tag_125\n      jumpi\n      0x0100\n      dup1\n      dup4\n      sload\n      div\n      mul\n      dup4\n      mstore\n      swap2\n      0x20\n      add\n      swap2\n      jump(tag_124)\n    tag_125:\n      dup3\n      add\n      swap2\n      swap1\n      0x00\n      mstore\n      keccak256(0x00, 0x20)\n      swap1\n    tag_126:\n      dup2\n      sload\n      dup2\n      mstore\n      swap1\n      0x01\n      add\n      swap1\n      0x20\n      add\n      dup1\n      dup4\n      gt\n      tag_126\n      jumpi\n      dup3\n      swap1\n      sub\n      0x1f\n      and\n      dup3\n      add\n      swap2\n    tag_124:\n      pop\n      pop\n      pop\n      pop\n      pop\n      swap1\n      pop\n        /* \"MyDevFirst.sol\":13720:13807  function symbol() public view returns (string memory) {\r... */\n      swap1\n      jump\t// out\n        /* \"MyDevFirst.sol\":17726:17995  function decreaseAllowance(address spender, uint256 subtractedValue) public virtual returns (bool) {\r... */\n    tag_67:\n        /* \"MyDevFirst.sol\":17819:17823  bool */\n      0x00\n        /* \"MyDevFirst.sol\":17836:17965  _approve(_msgSender(), spender, _allowances[_msgSender()][spender].sub(subtractedValue, \"ERC20: decreased allowance below zero\")) */\n      tag_128\n        /* \"MyDevFirst.sol\":17845:17857  _msgSender() */\n      tag_129\n        /* \"MyDevFirst.sol\":17845:17855  _msgSender */\n      tag_89\n        /* \"MyDevFirst.sol\":17845:17857  _msgSender() */\n      jump\t// in\n    tag_129:\n        /* \"MyDevFirst.sol\":17859:17866  spender */\n      dup5\n        /* \"MyDevFirst.sol\":17868:17964  _allowances[_msgSender()][spender].sub(subtractedValue, \"ERC20: decreased allowance below zero\") */\n      tag_130\n        /* \"MyDevFirst.sol\":17907:17922  subtractedValue */\n      dup6\n        /* \"MyDevFirst.sol\":17868:17964  _allowances[_msgSender()][spender].sub(subtractedValue, \"ERC20: decreased allowance below zero\") */\n      mload(0x40)\n      dup1\n      0x60\n      add\n      0x40\n      mstore\n      dup1\n      0x25\n      dup2\n      mstore\n      0x20\n      add\n      data_f8b476f7d28209d77d4a4ac1fe36b9f8259aa1bb6bddfa6e89de7e51615cf8a8\n      0x25\n      swap2\n      codecopy\n        /* \"MyDevFirst.sol\":17868:17879  _allowances */\n      0x01\n        /* \"MyDevFirst.sol\":17868:17893  _allowances[_msgSender()] */\n      0x00\n        /* \"MyDevFirst.sol\":17880:17892  _msgSender() */\n      tag_131\n        /* \"MyDevFirst.sol\":17880:17890  _msgSender */\n      tag_89\n        /* \"MyDevFirst.sol\":17880:17892  _msgSender() */\n      jump\t// in\n    tag_131:\n        /* \"MyDevFirst.sol\":17868:17893  _allowances[_msgSender()] */\n      0xffffffffffffffffffffffffffffffffffffffff\n      and\n      0xffffffffffffffffffffffffffffffffffffffff\n      and\n      dup2\n      mstore\n      0x20\n      add\n      swap1\n      dup2\n      mstore\n      0x20\n      add\n      0x00\n      keccak256\n        /* \"MyDevFirst.sol\":17868:17902  _allowances[_msgSender()][spender] */\n      0x00\n        /* \"MyDevFirst.sol\":17894:17901  spender */\n      dup11\n        /* \"MyDevFirst.sol\":17868:17902  _allowances[_msgSender()][spender] */\n      0xffffffffffffffffffffffffffffffffffffffff\n      and\n      0xffffffffffffffffffffffffffffffffffffffff\n      and\n      dup2\n      mstore\n      0x20\n      add\n      swap1\n      dup2\n      mstore\n      0x20\n      add\n      0x00\n      keccak256\n      sload\n        /* \"MyDevFirst.sol\":17868:17906  _allowances[_msgSender()][spender].sub */\n      tag_99\n      swap1\n        /* \"MyDevFirst.sol\":17868:17964  _allowances[_msgSender()][spender].sub(subtractedValue, \"ERC20: decreased allowance below zero\") */\n      swap3\n      swap2\n      swap1\n      0xffffffff\n      and\n      jump\t// in\n    tag_130:\n        /* \"MyDevFirst.sol\":17836:17844  _approve */\n      tag_90\n        /* \"MyDevFirst.sol\":17836:17965  _approve(_msgSender(), spender, _allowances[_msgSender()][spender].sub(subtractedValue, \"ERC20: decreased allowance below zero\")) */\n      jump\t// in\n    tag_128:\n        /* \"MyDevFirst.sol\":17983:17987  true */\n      0x01\n        /* \"MyDevFirst.sol\":17976:17987  return true */\n      swap1\n      pop\n        /* \"MyDevFirst.sol\":17726:17995  function decreaseAllowance(address spender, uint256 subtractedValue) public virtual returns (bool) {\r... */\n      swap3\n      swap2\n      pop\n      pop\n      jump\t// out\n        /* \"MyDevFirst.sol\":15088:15263  function transfer(address recipient, uint256 amount) public virtual override returns (bool) {\r... */\n    tag_70:\n        /* \"MyDevFirst.sol\":15174:15178  bool */\n      0x00\n        /* \"MyDevFirst.sol\":15191:15233  _transfer(_msgSender(), recipient, amount) */\n      tag_133\n        /* \"MyDevFirst.sol\":15201:15213  _msgSender() */\n      tag_134\n        /* \"MyDevFirst.sol\":15201:15211  _msgSender */\n      tag_89\n        /* \"MyDevFirst.sol\":15201:15213  _msgSender() */\n      jump\t// in\n    tag_134:\n        /* \"MyDevFirst.sol\":15215:15224  recipient */\n      dup5\n        /* \"MyDevFirst.sol\":15226:15232  amount */\n      dup5\n        /* \"MyDevFirst.sol\":15191:15200  _transfer */\n      tag_94\n        /* \"MyDevFirst.sol\":15191:15233  _transfer(_msgSender(), recipient, amount) */\n      jump\t// in\n    tag_133:\n        /* \"MyDevFirst.sol\":15251:15255  true */\n      0x01\n        /* \"MyDevFirst.sol\":15244:15255  return true */\n      swap1\n      pop\n        /* \"MyDevFirst.sol\":15088:15263  function transfer(address recipient, uint256 amount) public virtual override returns (bool) {\r... */\n      swap3\n      swap2\n      pop\n      pop\n      jump\t// out\n        /* \"MyDevFirst.sol\":15326:15477  function allowance(address owner, address spender) public view virtual override returns (uint256) {\r... */\n    tag_73:\n        /* \"MyDevFirst.sol\":15415:15422  uint256 */\n      0x00\n        /* \"MyDevFirst.sol\":15442:15453  _allowances */\n      0x01\n        /* \"MyDevFirst.sol\":15442:15460  _allowances[owner] */\n      0x00\n        /* \"MyDevFirst.sol\":15454:15459  owner */\n      dup5\n        /* \"MyDevFirst.sol\":15442:15460  _allowances[owner] */\n      0xffffffffffffffffffffffffffffffffffffffff\n      and\n      0xffffffffffffffffffffffffffffffffffffffff\n      and\n      dup2\n      mstore\n      0x20\n      add\n      swap1\n      dup2\n      mstore\n      0x20\n      add\n      0x00\n      keccak256\n        /* \"MyDevFirst.sol\":15442:15469  _allowances[owner][spender] */\n      0x00\n        /* \"MyDevFirst.sol\":15461:15468  spender */\n      dup4\n        /* \"MyDevFirst.sol\":15442:15469  _allowances[owner][spender] */\n      0xffffffffffffffffffffffffffffffffffffffff\n      and\n      0xffffffffffffffffffffffffffffffffffffffff\n      and\n      dup2\n      mstore\n      0x20\n      add\n      swap1\n      dup2\n      mstore\n      0x20\n      add\n      0x00\n      keccak256\n      sload\n        /* \"MyDevFirst.sol\":15435:15469  return _allowances[owner][spender] */\n      swap1\n      pop\n        /* \"MyDevFirst.sol\":15326:15477  function allowance(address owner, address spender) public view virtual override returns (uint256) {\r... */\n      swap3\n      swap2\n      pop\n      pop\n      jump\t// out\n        /* \"MyDevFirst.sol\":3021:3265  function transferOwnership(address newOwner) public virtual onlyOwner {\r... */\n    tag_76:\n        /* \"MyDevFirst.sol\":2298:2310  _msgSender() */\n      tag_137\n        /* \"MyDevFirst.sol\":2298:2308  _msgSender */\n      tag_89\n        /* \"MyDevFirst.sol\":2298:2310  _msgSender() */\n      jump\t// in\n    tag_137:\n        /* \"MyDevFirst.sol\":2288:2310  _owner == _msgSender() */\n      0xffffffffffffffffffffffffffffffffffffffff\n      and\n        /* \"MyDevFirst.sol\":2288:2294  _owner */\n      0x07\n      0x01\n      swap1\n      sload\n      swap1\n      0x0100\n      exp\n      swap1\n      div\n      0xffffffffffffffffffffffffffffffffffffffff\n      and\n        /* \"MyDevFirst.sol\":2288:2310  _owner == _msgSender() */\n      0xffffffffffffffffffffffffffffffffffffffff\n      and\n      eq\n        /* \"MyDevFirst.sol\":2280:2347  require(_owner == _msgSender(), \"Ownable: caller is not the owner\") */\n      tag_138\n      jumpi\n      mload(0x40)\n      0x08c379a000000000000000000000000000000000000000000000000000000000\n      dup2\n      mstore\n      0x04\n      add\n      dup1\n      dup1\n      0x20\n      add\n      dup3\n      dup2\n      sub\n      dup3\n      mstore\n      0x20\n      dup2\n      mstore\n      0x20\n      add\n      dup1\n      0x4f776e61626c653a2063616c6c6572206973206e6f7420746865206f776e6572\n      dup2\n      mstore\n      pop\n      0x20\n      add\n      swap2\n      pop\n      pop\n      mload(0x40)\n      dup1\n      swap2\n      sub\n      swap1\n      revert\n    tag_138:\n        /* \"MyDevFirst.sol\":3130:3131  0 */\n      0x00\n        /* \"MyDevFirst.sol\":3110:3132  newOwner != address(0) */\n      0xffffffffffffffffffffffffffffffffffffffff\n      and\n        /* \"MyDevFirst.sol\":3110:3118  newOwner */\n      dup2\n        /* \"MyDevFirst.sol\":3110:3132  newOwner != address(0) */\n      0xffffffffffffffffffffffffffffffffffffffff\n      and\n      eq\n      iszero\n        /* \"MyDevFirst.sol\":3102:3175  require(newOwner != address(0), \"Ownable: new owner is the zero address\") */\n      tag_140\n      jumpi\n      mload(0x40)\n      0x08c379a000000000000000000000000000000000000000000000000000000000\n      dup2\n      mstore\n      0x04\n      add\n      dup1\n      dup1\n      0x20\n      add\n      dup3\n      dup2\n      sub\n      dup3\n      mstore\n      0x26\n      dup2\n      mstore\n      0x20\n      add\n      dup1\n      data_245f15ff17f551913a7a18385165551503906a406f905ac1c2437281a7cd0cfe\n      0x26\n      swap2\n      codecopy\n      0x40\n      add\n      swap2\n      pop\n      pop\n      mload(0x40)\n      dup1\n      swap2\n      sub\n      swap1\n      revert\n    tag_140:\n        /* \"MyDevFirst.sol\":3220:3228  newOwner */\n      dup1\n        /* \"MyDevFirst.sol\":3191:3229  OwnershipTransferred(_owner, newOwner) */\n      0xffffffffffffffffffffffffffffffffffffffff\n      and\n        /* \"MyDevFirst.sol\":3212:3218  _owner */\n      0x07\n      0x01\n      swap1\n      sload\n      swap1\n      0x0100\n      exp\n      swap1\n      div\n      0xffffffffffffffffffffffffffffffffffffffff\n      and\n        /* \"MyDevFirst.sol\":3191:3229  OwnershipTransferred(_owner, newOwner) */\n      0xffffffffffffffffffffffffffffffffffffffff\n      and\n      0x8be0079c531659141344cd1fd0a4f28419497f9722a3daafe3b4186f6b6457e0\n      mload(0x40)\n      mload(0x40)\n      dup1\n      swap2\n      sub\n      swap1\n      log3\n        /* \"MyDevFirst.sol\":3249:3257  newOwner */\n      dup1\n        /* \"MyDevFirst.sol\":3240:3246  _owner */\n      0x07\n      0x01\n        /* \"MyDevFirst.sol\":3240:3257  _owner = newOwner */\n      0x0100\n      exp\n      dup2\n      sload\n      dup2\n      0xffffffffffffffffffffffffffffffffffffffff\n      mul\n      not\n      and\n      swap1\n      dup4\n      0xffffffffffffffffffffffffffffffffffffffff\n      and\n      mul\n      or\n      swap1\n      sstore\n      pop\n        /* \"MyDevFirst.sol\":3021:3265  function transferOwnership(address newOwner) public virtual onlyOwner {\r... */\n      pop\n      jump\t// out\n        /* \"MyDevFirst.sol\":19306:19684  function _mint(address account, uint256 amount) internal virtual {\r... */\n    tag_77:\n        /* \"MyDevFirst.sol\":19409:19410  0 */\n      0x00\n        /* \"MyDevFirst.sol\":19390:19411  account != address(0) */\n      0xffffffffffffffffffffffffffffffffffffffff\n      and\n        /* \"MyDevFirst.sol\":19390:19397  account */\n      dup3\n        /* \"MyDevFirst.sol\":19390:19411  account != address(0) */\n      0xffffffffffffffffffffffffffffffffffffffff\n      and\n      eq\n      iszero\n        /* \"MyDevFirst.sol\":19382:19447  require(account != address(0), \"ERC20: mint to the zero address\") */\n      tag_142\n      jumpi\n      mload(0x40)\n      0x08c379a000000000000000000000000000000000000000000000000000000000\n      dup2\n      mstore\n      0x04\n      add\n      dup1\n      dup1\n      0x20\n      add\n      dup3\n      dup2\n      sub\n      dup3\n      mstore\n      0x1f\n      dup2\n      mstore\n      0x20\n      add\n      dup1\n      0x45524332303a206d696e7420746f20746865207a65726f206164647265737300\n      dup2\n      mstore\n      pop\n      0x20\n      add\n      swap2\n      pop\n      pop\n      mload(0x40)\n      dup1\n      swap2\n      sub\n      swap1\n      revert\n    tag_142:\n        /* \"MyDevFirst.sol\":19460:19509  _beforeTokenTransfer(address(0), account, amount) */\n      tag_143\n        /* \"MyDevFirst.sol\":19489:19490  0 */\n      0x00\n        /* \"MyDevFirst.sol\":19493:19500  account */\n      dup4\n        /* \"MyDevFirst.sol\":19502:19508  amount */\n      dup4\n        /* \"MyDevFirst.sol\":19460:19480  _beforeTokenTransfer */\n      tag_144\n        /* \"MyDevFirst.sol\":19460:19509  _beforeTokenTransfer(address(0), account, amount) */\n      jump\t// in\n    tag_143:\n        /* \"MyDevFirst.sol\":19537:19561  _totalSupply.add(amount) */\n      tag_145\n        /* \"MyDevFirst.sol\":19554:19560  amount */\n      dup2\n        /* \"MyDevFirst.sol\":19537:19549  _totalSupply */\n      sload(0x02)\n        /* \"MyDevFirst.sol\":19537:19553  _totalSupply.add */\n      tag_78\n      swap1\n        /* \"MyDevFirst.sol\":19537:19561  _totalSupply.add(amount) */\n      swap2\n      swap1\n      0xffffffff\n      and\n      jump\t// in\n    tag_145:\n        /* \"MyDevFirst.sol\":19522:19534  _totalSupply */\n      0x02\n        /* \"MyDevFirst.sol\":19522:19561  _totalSupply = _totalSupply.add(amount) */\n      dup2\n      swap1\n      sstore\n      pop\n        /* \"MyDevFirst.sol\":19593:19623  _balances[account].add(amount) */\n      tag_146\n        /* \"MyDevFirst.sol\":19616:19622  amount */\n      dup2\n        /* \"MyDevFirst.sol\":19593:19602  _balances */\n      0x00\n        /* \"MyDevFirst.sol\":19593:19611  _balances[account] */\n      dup1\n        /* \"MyDevFirst.sol\":19603:19610  account */\n      dup6\n        /* \"MyDevFirst.sol\":19593:19611  _balances[account] */\n      0xffffffffffffffffffffffffffffffffffffffff\n      and\n      0xffffffffffffffffffffffffffffffffffffffff\n      and\n      dup2\n      mstore\n      0x20\n      add\n      swap1\n      dup2\n      mstore\n      0x20\n      add\n      0x00\n      keccak256\n      sload\n        /* \"MyDevFirst.sol\":19593:19615  _balances[account].add */\n      tag_78\n      swap1\n        /* \"MyDevFirst.sol\":19593:19623  _balances[account].add(amount) */\n      swap2\n      swap1\n      0xffffffff\n      and\n      jump\t// in\n    tag_146:\n        /* \"MyDevFirst.sol\":19572:19581  _balances */\n      0x00\n        /* \"MyDevFirst.sol\":19572:19590  _balances[account] */\n      dup1\n        /* \"MyDevFirst.sol\":19582:19589  account */\n      dup5\n        /* \"MyDevFirst.sol\":19572:19590  _balances[account] */\n      0xffffffffffffffffffffffffffffffffffffffff\n      and\n      0xffffffffffffffffffffffffffffffffffffffff\n      and\n      dup2\n      mstore\n      0x20\n      add\n      swap1\n      dup2\n      mstore\n      0x20\n      add\n      0x00\n      keccak256\n        /* \"MyDevFirst.sol\":19572:19623  _balances[account] = _balances[account].add(amount) */\n      dup2\n      swap1\n      sstore\n      pop\n        /* \"MyDevFirst.sol\":19660:19667  account */\n      dup2\n        /* \"MyDevFirst.sol\":19639:19676  Transfer(address(0), account, amount) */\n      0xffffffffffffffffffffffffffffffffffffffff\n      and\n        /* \"MyDevFirst.sol\":19656:19657  0 */\n      0x00\n        /* \"MyDevFirst.sol\":19639:19676  Transfer(address(0), account, amount) */\n      0xffffffffffffffffffffffffffffffffffffffff\n      and\n      0xddf252ad1be2c89b69c2b068fc378daa952ba7f163c4a11628f55a4df523b3ef\n        /* \"MyDevFirst.sol\":19669:19675  amount */\n      dup4\n        /* \"MyDevFirst.sol\":19639:19676  Transfer(address(0), account, amount) */\n      mload(0x40)\n      dup1\n      dup3\n      dup2\n      mstore\n      0x20\n      add\n      swap2\n      pop\n      pop\n      mload(0x40)\n      dup1\n      swap2\n      sub\n      swap1\n      log3\n        /* \"MyDevFirst.sol\":19306:19684  function _mint(address account, uint256 amount) internal virtual {\r... */\n      pop\n      pop\n      jump\t// out\n        /* \"MyDevFirst.sol\":6938:7119  function add(uint256 a, uint256 b) internal pure returns (uint256) {\r... */\n    tag_78:\n        /* \"MyDevFirst.sol\":6996:7003  uint256 */\n      0x00\n        /* \"MyDevFirst.sol\":7016:7025  uint256 c */\n      dup1\n        /* \"MyDevFirst.sol\":7032:7033  b */\n      dup3\n        /* \"MyDevFirst.sol\":7028:7029  a */\n      dup5\n        /* \"MyDevFirst.sol\":7028:7033  a + b */\n      add\n        /* \"MyDevFirst.sol\":7016:7033  uint256 c = a + b */\n      swap1\n      pop\n        /* \"MyDevFirst.sol\":7057:7058  a */\n      dup4\n        /* \"MyDevFirst.sol\":7052:7053  c */\n      dup2\n        /* \"MyDevFirst.sol\":7052:7058  c >= a */\n      lt\n      iszero\n        /* \"MyDevFirst.sol\":7044:7090  require(c >= a, \"SafeMath: addition overflow\") */\n      tag_148\n      jumpi\n      mload(0x40)\n      0x08c379a000000000000000000000000000000000000000000000000000000000\n      dup2\n      mstore\n      0x04\n      add\n      dup1\n      dup1\n      0x20\n      add\n      dup3\n      dup2\n      sub\n      dup3\n      mstore\n      0x1b\n      dup2\n      mstore\n      0x20\n      add\n      dup1\n      0x536166654d6174683a206164646974696f6e206f766572666c6f770000000000\n      dup2\n      mstore\n      pop\n      0x20\n      add\n      swap2\n      pop\n      pop\n      mload(0x40)\n      dup1\n      swap2\n      sub\n      swap1\n      revert\n    tag_148:\n        /* \"MyDevFirst.sol\":7110:7111  c */\n      dup1\n        /* \"MyDevFirst.sol\":7103:7111  return c */\n      swap2\n      pop\n      pop\n        /* \"MyDevFirst.sol\":6938:7119  function add(uint256 a, uint256 b) internal pure returns (uint256) {\r... */\n      swap3\n      swap2\n      pop\n      pop\n      jump\t// out\n        /* \"MyDevFirst.sol\":23192:23510  function _beforeTokenTransfer(address from, address to, uint256 amount) internal virtual override {\r... */\n    tag_79:\n        /* \"MyDevFirst.sol\":23301:23345  super._beforeTokenTransfer(from, to, amount) */\n      tag_150\n        /* \"MyDevFirst.sol\":23328:23332  from */\n      dup4\n        /* \"MyDevFirst.sol\":23334:23336  to */\n      dup4\n        /* \"MyDevFirst.sol\":23338:23344  amount */\n      dup4\n        /* \"MyDevFirst.sol\":23301:23327  super._beforeTokenTransfer */\n      tag_80\n        /* \"MyDevFirst.sol\":23301:23345  super._beforeTokenTransfer(from, to, amount) */\n      jump\t// in\n    tag_150:\n        /* \"MyDevFirst.sol\":23378:23379  0 */\n      0x00\n        /* \"MyDevFirst.sol\":23362:23380  from == address(0) */\n      0xffffffffffffffffffffffffffffffffffffffff\n      and\n        /* \"MyDevFirst.sol\":23362:23366  from */\n      dup4\n        /* \"MyDevFirst.sol\":23362:23380  from == address(0) */\n      0xffffffffffffffffffffffffffffffffffffffff\n      and\n      eq\n        /* \"MyDevFirst.sol\":23358:23503  if (from == address(0)) { // When minting tokens\r... */\n      iszero\n      tag_151\n      jumpi\n        /* \"MyDevFirst.sol\":23457:23461  _cap */\n      sload(0x06)\n        /* \"MyDevFirst.sol\":23428:23453  totalSupply().add(amount) */\n      tag_152\n        /* \"MyDevFirst.sol\":23446:23452  amount */\n      dup3\n        /* \"MyDevFirst.sol\":23428:23441  totalSupply() */\n      tag_153\n        /* \"MyDevFirst.sol\":23428:23439  totalSupply */\n      tag_36\n        /* \"MyDevFirst.sol\":23428:23441  totalSupply() */\n      jump\t// in\n    tag_153:\n        /* \"MyDevFirst.sol\":23428:23445  totalSupply().add */\n      tag_78\n      swap1\n        /* \"MyDevFirst.sol\":23428:23453  totalSupply().add(amount) */\n      swap2\n      swap1\n      0xffffffff\n      and\n      jump\t// in\n    tag_152:\n        /* \"MyDevFirst.sol\":23428:23461  totalSupply().add(amount) <= _cap */\n      gt\n      iszero\n        /* \"MyDevFirst.sol\":23420:23491  require(totalSupply().add(amount) <= _cap, \"ERC20Capped: cap exceeded\") */\n      tag_154\n      jumpi\n      mload(0x40)\n      0x08c379a000000000000000000000000000000000000000000000000000000000\n      dup2\n      mstore\n      0x04\n      add\n      dup1\n      dup1\n      0x20\n      add\n      dup3\n      dup2\n      sub\n      dup3\n      mstore\n      0x19\n      dup2\n      mstore\n      0x20\n      add\n      dup1\n      0x45524332304361707065643a2063617020657863656564656400000000000000\n      dup2\n      mstore\n      pop\n      0x20\n      add\n      swap2\n      pop\n      pop\n      mload(0x40)\n      dup1\n      swap2\n      sub\n      swap1\n      revert\n    tag_154:\n        /* \"MyDevFirst.sol\":23358:23503  if (from == address(0)) { // When minting tokens\r... */\n    tag_151:\n        /* \"MyDevFirst.sol\":23192:23510  function _beforeTokenTransfer(address from, address to, uint256 amount) internal virtual override {\r... */\n      pop\n      pop\n      pop\n      jump\t// out\n        /* \"MyDevFirst.sol\":22244:22336  function _beforeTokenTransfer(address from, address to, uint256 amount) internal virtual { } */\n    tag_80:\n      pop\n      pop\n      pop\n      jump\t// out\n        /* \"MyDevFirst.sol\":657:763  function _msgSender() internal view virtual returns (address payable) {\r... */\n    tag_89:\n        /* \"MyDevFirst.sol\":710:725  address payable */\n      0x00\n        /* \"MyDevFirst.sol\":745:755  msg.sender */\n      caller\n        /* \"MyDevFirst.sol\":738:755  return msg.sender */\n      swap1\n      pop\n        /* \"MyDevFirst.sol\":657:763  function _msgSender() internal view virtual returns (address payable) {\r... */\n      swap1\n      jump\t// out\n        /* \"MyDevFirst.sol\":20873:21219  function _approve(address owner, address spender, uint256 amount) internal virtual {\r... */\n    tag_90:\n        /* \"MyDevFirst.sol\":20992:20993  0 */\n      0x00\n        /* \"MyDevFirst.sol\":20975:20994  owner != address(0) */\n      0xffffffffffffffffffffffffffffffffffffffff\n      and\n        /* \"MyDevFirst.sol\":20975:20980  owner */\n      dup4\n        /* \"MyDevFirst.sol\":20975:20994  owner != address(0) */\n      0xffffffffffffffffffffffffffffffffffffffff\n      and\n      eq\n      iszero\n        /* \"MyDevFirst.sol\":20967:21035  require(owner != address(0), \"ERC20: approve from the zero address\") */\n      tag_158\n      jumpi\n      mload(0x40)\n      0x08c379a000000000000000000000000000000000000000000000000000000000\n      dup2\n      mstore\n      0x04\n      add\n      dup1\n      dup1\n      0x20\n      add\n      dup3\n      dup2\n      sub\n      dup3\n      mstore\n      0x24\n      dup2\n      mstore\n      0x20\n      add\n      dup1\n      data_c953f4879035ed60e766b34720f656aab5c697b141d924c283124ecedb91c208\n      0x24\n      swap2\n      codecopy\n      0x40\n      add\n      swap2\n      pop\n      pop\n      mload(0x40)\n      dup1\n      swap2\n      sub\n      swap1\n      revert\n    tag_158:\n        /* \"MyDevFirst.sol\":21073:21074  0 */\n      0x00\n        /* \"MyDevFirst.sol\":21054:21075  spender != address(0) */\n      0xffffffffffffffffffffffffffffffffffffffff\n      and\n        /* \"MyDevFirst.sol\":21054:21061  spender */\n      dup3\n        /* \"MyDevFirst.sol\":21054:21075  spender != address(0) */\n      0xffffffffffffffffffffffffffffffffffffffff\n      and\n      eq\n      iszero\n        /* \"MyDevFirst.sol\":21046:21114  require(spender != address(0), \"ERC20: approve to the zero address\") */\n      tag_159\n      jumpi\n      mload(0x40)\n      0x08c379a000000000000000000000000000000000000000000000000000000000\n      dup2\n      mstore\n      0x04\n      add\n      dup1\n      dup1\n      0x20\n      add\n      dup3\n      dup2\n      sub\n      dup3\n      mstore\n      0x22\n      dup2\n      mstore\n      0x20\n      add\n      dup1\n      data_24883cc5fe64ace9d0df1893501ecb93c77180f0ff69cca79affb3c316dc8029\n      0x22\n      swap2\n      codecopy\n      0x40\n      add\n      swap2\n      pop\n      pop\n      mload(0x40)\n      dup1\n      swap2\n      sub\n      swap1\n      revert\n    tag_159:\n        /* \"MyDevFirst.sol\":21157:21163  amount */\n      dup1\n        /* \"MyDevFirst.sol\":21127:21138  _allowances */\n      0x01\n        /* \"MyDevFirst.sol\":21127:21145  _allowances[owner] */\n      0x00\n        /* \"MyDevFirst.sol\":21139:21144  owner */\n      dup6\n        /* \"MyDevFirst.sol\":21127:21145  _allowances[owner] */\n      0xffffffffffffffffffffffffffffffffffffffff\n      and\n      0xffffffffffffffffffffffffffffffffffffffff\n      and\n      dup2\n      mstore\n      0x20\n      add\n      swap1\n      dup2\n      mstore\n      0x20\n      add\n      0x00\n      keccak256\n        /* \"MyDevFirst.sol\":21127:21154  _allowances[owner][spender] */\n      0x00\n        /* \"MyDevFirst.sol\":21146:21153  spender */\n      dup5\n        /* \"MyDevFirst.sol\":21127:21154  _allowances[owner][spender] */\n      0xffffffffffffffffffffffffffffffffffffffff\n      and\n      0xffffffffffffffffffffffffffffffffffffffff\n      and\n      dup2\n      mstore\n      0x20\n      add\n      swap1\n      dup2\n      mstore\n      0x20\n      add\n      0x00\n      keccak256\n        /* \"MyDevFirst.sol\":21127:21163  _allowances[owner][spender] = amount */\n      dup2\n      swap1\n      sstore\n      pop\n        /* \"MyDevFirst.sol\":21195:21202  spender */\n      dup2\n        /* \"MyDevFirst.sol\":21179:21211  Approval(owner, spender, amount) */\n      0xffffffffffffffffffffffffffffffffffffffff\n      and\n        /* \"MyDevFirst.sol\":21188:21193  owner */\n      dup4\n        /* \"MyDevFirst.sol\":21179:21211  Approval(owner, spender, amount) */\n      0xffffffffffffffffffffffffffffffffffffffff\n      and\n      0x8c5be1e5ebec7d5bd14f71427d1e84f3dd0314c0f7b2291e5b200ac8c7c3b925\n        /* \"MyDevFirst.sol\":21204:21210  amount */\n      dup4\n        /* \"MyDevFirst.sol\":21179:21211  Approval(owner, spender, amount) */\n      mload(0x40)\n      dup1\n      dup3\n      dup2\n      mstore\n      0x20\n      add\n      swap2\n      pop\n      pop\n      mload(0x40)\n      dup1\n      swap2\n      sub\n      swap1\n      log3\n        /* \"MyDevFirst.sol\":20873:21219  function _approve(address owner, address spender, uint256 amount) internal virtual {\r... */\n      pop\n      pop\n      pop\n      jump\t// out\n        /* \"MyDevFirst.sol\":18485:19024  function _transfer(address sender, address recipient, uint256 amount) internal virtual {\r... */\n    tag_94:\n        /* \"MyDevFirst.sol\":18609:18610  0 */\n      0x00\n        /* \"MyDevFirst.sol\":18591:18611  sender != address(0) */\n      0xffffffffffffffffffffffffffffffffffffffff\n      and\n        /* \"MyDevFirst.sol\":18591:18597  sender */\n      dup4\n        /* \"MyDevFirst.sol\":18591:18611  sender != address(0) */\n      0xffffffffffffffffffffffffffffffffffffffff\n      and\n      eq\n      iszero\n        /* \"MyDevFirst.sol\":18583:18653  require(sender != address(0), \"ERC20: transfer from the zero address\") */\n      tag_161\n      jumpi\n      mload(0x40)\n      0x08c379a000000000000000000000000000000000000000000000000000000000\n      dup2\n      mstore\n      0x04\n      add\n      dup1\n      dup1\n      0x20\n      add\n      dup3\n      dup2\n      sub\n      dup3\n      mstore\n      0x25\n      dup2\n      mstore\n      0x20\n      add\n      dup1\n      data_baecc556b46f4ed0f2b4cb599d60785ac8563dd2dc0a5bf12edea1c39e5e1fea\n      0x25\n      swap2\n      codecopy\n      0x40\n      add\n      swap2\n      pop\n      pop\n      mload(0x40)\n      dup1\n      swap2\n      sub\n      swap1\n      revert\n    tag_161:\n        /* \"MyDevFirst.sol\":18693:18694  0 */\n      0x00\n        /* \"MyDevFirst.sol\":18672:18695  recipient != address(0) */\n      0xffffffffffffffffffffffffffffffffffffffff\n      and\n        /* \"MyDevFirst.sol\":18672:18681  recipient */\n      dup3\n        /* \"MyDevFirst.sol\":18672:18695  recipient != address(0) */\n      0xffffffffffffffffffffffffffffffffffffffff\n      and\n      eq\n      iszero\n        /* \"MyDevFirst.sol\":18664:18735  require(recipient != address(0), \"ERC20: transfer to the zero address\") */\n      tag_162\n      jumpi\n      mload(0x40)\n      0x08c379a000000000000000000000000000000000000000000000000000000000\n      dup2\n      mstore\n      0x04\n      add\n      dup1\n      dup1\n      0x20\n      add\n      dup3\n      dup2\n      sub\n      dup3\n      mstore\n      0x23\n      dup2\n      mstore\n      0x20\n      add\n      dup1\n      data_0557e210f7a69a685100a7e4e3d0a7024c546085cee28910fd17d0b081d9516f\n      0x23\n      swap2\n      codecopy\n      0x40\n      add\n      swap2\n      pop\n      pop\n      mload(0x40)\n      dup1\n      swap2\n      sub\n      swap1\n      revert\n    tag_162:\n        /* \"MyDevFirst.sol\":18748:18795  _beforeTokenTransfer(sender, recipient, amount) */\n      tag_163\n        /* \"MyDevFirst.sol\":18769:18775  sender */\n      dup4\n        /* \"MyDevFirst.sol\":18777:18786  recipient */\n      dup4\n        /* \"MyDevFirst.sol\":18788:18794  amount */\n      dup4\n        /* \"MyDevFirst.sol\":18748:18768  _beforeTokenTransfer */\n      tag_144\n        /* \"MyDevFirst.sol\":18748:18795  _beforeTokenTransfer(sender, recipient, amount) */\n      jump\t// in\n    tag_163:\n        /* \"MyDevFirst.sol\":18828:18899  _balances[sender].sub(amount, \"ERC20: transfer amount exceeds balance\") */\n      tag_164\n        /* \"MyDevFirst.sol\":18850:18856  amount */\n      dup2\n        /* \"MyDevFirst.sol\":18828:18899  _balances[sender].sub(amount, \"ERC20: transfer amount exceeds balance\") */\n      mload(0x40)\n      dup1\n      0x60\n      add\n      0x40\n      mstore\n      dup1\n      0x26\n      dup2\n      mstore\n      0x20\n      add\n      data_4107e8a8b9e94bf8ff83080ddec1c0bffe897ebc2241b89d44f66b3d274088b6\n      0x26\n      swap2\n      codecopy\n        /* \"MyDevFirst.sol\":18828:18837  _balances */\n      0x00\n        /* \"MyDevFirst.sol\":18828:18845  _balances[sender] */\n      dup1\n        /* \"MyDevFirst.sol\":18838:18844  sender */\n      dup8\n        /* \"MyDevFirst.sol\":18828:18845  _balances[sender] */\n      0xffffffffffffffffffffffffffffffffffffffff\n      and\n      0xffffffffffffffffffffffffffffffffffffffff\n      and\n      dup2\n      mstore\n      0x20\n      add\n      swap1\n      dup2\n      mstore\n      0x20\n      add\n      0x00\n      keccak256\n      sload\n        /* \"MyDevFirst.sol\":18828:18849  _balances[sender].sub */\n      tag_99\n      swap1\n        /* \"MyDevFirst.sol\":18828:18899  _balances[sender].sub(amount, \"ERC20: transfer amount exceeds balance\") */\n      swap3\n      swap2\n      swap1\n      0xffffffff\n      and\n      jump\t// in\n    tag_164:\n        /* \"MyDevFirst.sol\":18808:18817  _balances */\n      0x00\n        /* \"MyDevFirst.sol\":18808:18825  _balances[sender] */\n      dup1\n        /* \"MyDevFirst.sol\":18818:18824  sender */\n      dup6\n        /* \"MyDevFirst.sol\":18808:18825  _balances[sender] */\n      0xffffffffffffffffffffffffffffffffffffffff\n      and\n      0xffffffffffffffffffffffffffffffffffffffff\n      and\n      dup2\n      mstore\n      0x20\n      add\n      swap1\n      dup2\n      mstore\n      0x20\n      add\n      0x00\n      keccak256\n        /* \"MyDevFirst.sol\":18808:18899  _balances[sender] = _balances[sender].sub(amount, \"ERC20: transfer amount exceeds balance\") */\n      dup2\n      swap1\n      sstore\n      pop\n        /* \"MyDevFirst.sol\":18933:18965  _balances[recipient].add(amount) */\n      tag_165\n        /* \"MyDevFirst.sol\":18958:18964  amount */\n      dup2\n        /* \"MyDevFirst.sol\":18933:18942  _balances */\n      0x00\n        /* \"MyDevFirst.sol\":18933:18953  _balances[recipient] */\n      dup1\n        /* \"MyDevFirst.sol\":18943:18952  recipient */\n      dup6\n        /* \"MyDevFirst.sol\":18933:18953  _balances[recipient] */\n      0xffffffffffffffffffffffffffffffffffffffff\n      and\n      0xffffffffffffffffffffffffffffffffffffffff\n      and\n      dup2\n      mstore\n      0x20\n      add\n      swap1\n      dup2\n      mstore\n      0x20\n      add\n      0x00\n      keccak256\n      sload\n        /* \"MyDevFirst.sol\":18933:18957  _balances[recipient].add */\n      tag_78\n      swap1\n        /* \"MyDevFirst.sol\":18933:18965  _balances[recipient].add(amount) */\n      swap2\n      swap1\n      0xffffffff\n      and\n      jump\t// in\n    tag_165:\n        /* \"MyDevFirst.sol\":18910:18919  _balances */\n      0x00\n        /* \"MyDevFirst.sol\":18910:18930  _balances[recipient] */\n      dup1\n        /* \"MyDevFirst.sol\":18920:18929  recipient */\n      dup5\n        /* \"MyDevFirst.sol\":18910:18930  _balances[recipient] */\n      0xffffffffffffffffffffffffffffffffffffffff\n      and\n      0xffffffffffffffffffffffffffffffffffffffff\n      and\n      dup2\n      mstore\n      0x20\n      add\n      swap1\n      dup2\n      mstore\n      0x20\n      add\n      0x00\n      keccak256\n        /* \"MyDevFirst.sol\":18910:18965  _balances[recipient] = _balances[recipient].add(amount) */\n      dup2\n      swap1\n      sstore\n      pop\n        /* \"MyDevFirst.sol\":18998:19007  recipient */\n      dup2\n        /* \"MyDevFirst.sol\":18981:19016  Transfer(sender, recipient, amount) */\n      0xffffffffffffffffffffffffffffffffffffffff\n      and\n        /* \"MyDevFirst.sol\":18990:18996  sender */\n      dup4\n        /* \"MyDevFirst.sol\":18981:19016  Transfer(sender, recipient, amount) */\n      0xffffffffffffffffffffffffffffffffffffffff\n      and\n      0xddf252ad1be2c89b69c2b068fc378daa952ba7f163c4a11628f55a4df523b3ef\n        /* \"MyDevFirst.sol\":19009:19015  amount */\n      dup4\n        /* \"MyDevFirst.sol\":18981:19016  Transfer(sender, recipient, amount) */\n      mload(0x40)\n      dup1\n      dup3\n      dup2\n      mstore\n      0x20\n      add\n      swap2\n      pop\n      pop\n      mload(0x40)\n      dup1\n      swap2\n      sub\n      swap1\n      log3\n        /* \"MyDevFirst.sol\":18485:19024  function _transfer(address sender, address recipient, uint256 amount) internal virtual {\r... */\n      pop\n      pop\n      pop\n      jump\t// out\n        /* \"MyDevFirst.sol\":7841:8033  function sub(uint256 a, uint256 b, string memory errorMessage) internal pure returns (uint256) {\r... */\n    tag_99:\n        /* \"MyDevFirst.sol\":7927:7934  uint256 */\n      0x00\n        /* \"MyDevFirst.sol\":7960:7961  a */\n      dup4\n        /* \"MyDevFirst.sol\":7955:7956  b */\n      dup4\n        /* \"MyDevFirst.sol\":7955:7961  b <= a */\n      gt\n      iszero\n        /* \"MyDevFirst.sol\":7963:7975  errorMessage */\n      dup3\n        /* \"MyDevFirst.sol\":7947:7976  require(b <= a, errorMessage) */\n      swap1\n      tag_167\n      jumpi\n      mload(0x40)\n      0x08c379a000000000000000000000000000000000000000000000000000000000\n      dup2\n      mstore\n      0x04\n      add\n      dup1\n      dup1\n      0x20\n      add\n      dup3\n      dup2\n      sub\n      dup3\n      mstore\n      dup4\n      dup2\n      dup2\n      mload\n      dup2\n      mstore\n      0x20\n      add\n      swap2\n      pop\n      dup1\n      mload\n      swap1\n      0x20\n      add\n      swap1\n      dup1\n      dup4\n      dup4\n      0x00\n    tag_168:\n      dup4\n      dup2\n      lt\n      iszero\n      tag_170\n      jumpi\n      dup1\n      dup3\n      add\n      mload\n      dup2\n      dup5\n      add\n      mstore\n      0x20\n      dup2\n      add\n      swap1\n      pop\n      jump(tag_168)\n    tag_170:\n      pop\n      pop\n      pop\n      pop\n      swap1\n      pop\n      swap1\n      dup2\n      add\n      swap1\n      0x1f\n      and\n      dup1\n      iszero\n      tag_171\n      jumpi\n      dup1\n      dup3\n      sub\n      dup1\n      mload\n      0x01\n      dup4\n      0x20\n      sub\n      0x0100\n      exp\n      sub\n      not\n      and\n      dup2\n      mstore\n      0x20\n      add\n      swap2\n      pop\n    tag_171:\n      pop\n      swap3\n      pop\n      pop\n      pop\n      mload(0x40)\n      dup1\n      swap2\n      sub\n      swap1\n      revert\n    tag_167:\n      pop\n        /* \"MyDevFirst.sol\":7987:7996  uint256 c */\n      0x00\n        /* \"MyDevFirst.sol\":8003:8004  b */\n      dup4\n        /* \"MyDevFirst.sol\":7999:8000  a */\n      dup6\n        /* \"MyDevFirst.sol\":7999:8004  a - b */\n      sub\n        /* \"MyDevFirst.sol\":7987:8004  uint256 c = a - b */\n      swap1\n      pop\n        /* \"MyDevFirst.sol\":8024:8025  c */\n      dup1\n        /* \"MyDevFirst.sol\":8017:8025  return c */\n      swap2\n      pop\n      pop\n        /* \"MyDevFirst.sol\":7841:8033  function sub(uint256 a, uint256 b, string memory errorMessage) internal pure returns (uint256) {\r... */\n      swap4\n      swap3\n      pop\n      pop\n      pop\n      jump\t// out\n        /* \"MyDevFirst.sol\":25911:26034  function _mint(address account, uint256 amount) internal override onlyOwner {\r... */\n    tag_111:\n        /* \"MyDevFirst.sol\":2298:2310  _msgSender() */\n      tag_173\n        /* \"MyDevFirst.sol\":2298:2308  _msgSender */\n      tag_89\n        /* \"MyDevFirst.sol\":2298:2310  _msgSender() */\n      jump\t// in\n    tag_173:\n        /* \"MyDevFirst.sol\":2288:2310  _owner == _msgSender() */\n      0xffffffffffffffffffffffffffffffffffffffff\n      and\n        /* \"MyDevFirst.sol\":2288:2294  _owner */\n      0x07\n      0x01\n      swap1\n      sload\n      swap1\n      0x0100\n      exp\n      swap1\n      div\n      0xffffffffffffffffffffffffffffffffffffffff\n      and\n        /* \"MyDevFirst.sol\":2288:2310  _owner == _msgSender() */\n      0xffffffffffffffffffffffffffffffffffffffff\n      and\n      eq\n        /* \"MyDevFirst.sol\":2280:2347  require(_owner == _msgSender(), \"Ownable: caller is not the owner\") */\n      tag_174\n      jumpi\n      mload(0x40)\n      0x08c379a000000000000000000000000000000000000000000000000000000000\n      dup2\n      mstore\n      0x04\n      add\n      dup1\n      dup1\n      0x20\n      add\n      dup3\n      dup2\n      sub\n      dup3\n      mstore\n      0x20\n      dup2\n      mstore\n      0x20\n      add\n      dup1\n      0x4f776e61626c653a2063616c6c6572206973206e6f7420746865206f776e6572\n      dup2\n      mstore\n      pop\n      0x20\n      add\n      swap2\n      pop\n      pop\n      mload(0x40)\n      dup1\n      swap2\n      sub\n      swap1\n      revert\n    tag_174:\n        /* \"MyDevFirst.sol\":25998:26026  super._mint(account, amount) */\n      tag_176\n        /* \"MyDevFirst.sol\":26010:26017  account */\n      dup3\n        /* \"MyDevFirst.sol\":26019:26025  amount */\n      dup3\n        /* \"MyDevFirst.sol\":25998:26009  super._mint */\n      tag_77\n        /* \"MyDevFirst.sol\":25998:26026  super._mint(account, amount) */\n      jump\t// in\n    tag_176:\n        /* \"MyDevFirst.sol\":25911:26034  function _mint(address account, uint256 amount) internal override onlyOwner {\r... */\n      pop\n      pop\n      jump\t// out\n        /* \"MyDevFirst.sol\":26201:26296  function _finishMinting() internal override onlyOwner {\r... */\n    tag_121:\n        /* \"MyDevFirst.sol\":2298:2310  _msgSender() */\n      tag_178\n        /* \"MyDevFirst.sol\":2298:2308  _msgSender */\n      tag_89\n        /* \"MyDevFirst.sol\":2298:2310  _msgSender() */\n      jump\t// in\n    tag_178:\n        /* \"MyDevFirst.sol\":2288:2310  _owner == _msgSender() */\n      0xffffffffffffffffffffffffffffffffffffffff\n      and\n        /* \"MyDevFirst.sol\":2288:2294  _owner */\n      0x07\n      0x01\n      swap1\n      sload\n      swap1\n      0x0100\n      exp\n      swap1\n      div\n      0xffffffffffffffffffffffffffffffffffffffff\n      and\n        /* \"MyDevFirst.sol\":2288:2310  _owner == _msgSender() */\n      0xffffffffffffffffffffffffffffffffffffffff\n      and\n      eq\n        /* \"MyDevFirst.sol\":2280:2347  require(_owner == _msgSender(), \"Ownable: caller is not the owner\") */\n      tag_179\n      jumpi\n      mload(0x40)\n      0x08c379a000000000000000000000000000000000000000000000000000000000\n      dup2\n      mstore\n      0x04\n      add\n      dup1\n      dup1\n      0x20\n      add\n      dup3\n      dup2\n      sub\n      dup3\n      mstore\n      0x20\n      dup2\n      mstore\n      0x20\n      add\n      dup1\n      0x4f776e61626c653a2063616c6c6572206973206e6f7420746865206f776e6572\n      dup2\n      mstore\n      pop\n      0x20\n      add\n      swap2\n      pop\n      pop\n      mload(0x40)\n      dup1\n      swap2\n      sub\n      swap1\n      revert\n    tag_179:\n        /* \"MyDevFirst.sol\":26266:26288  super._finishMinting() */\n      tag_181\n        /* \"MyDevFirst.sol\":26266:26286  super._finishMinting */\n      tag_182\n        /* \"MyDevFirst.sol\":26266:26288  super._finishMinting() */\n      jump\t// in\n    tag_181:\n        /* \"MyDevFirst.sol\":26201:26296  function _finishMinting() internal override onlyOwner {\r... */\n      jump\t// out\n        /* \"MyDevFirst.sol\":26409:26582  function _beforeTokenTransfer(address from, address to, uint256 amount) internal override(ERC20, ERC20Capped) {\r... */\n    tag_144:\n        /* \"MyDevFirst.sol\":26530:26574  super._beforeTokenTransfer(from, to, amount) */\n      tag_184\n        /* \"MyDevFirst.sol\":26557:26561  from */\n      dup4\n        /* \"MyDevFirst.sol\":26563:26565  to */\n      dup4\n        /* \"MyDevFirst.sol\":26567:26573  amount */\n      dup4\n        /* \"MyDevFirst.sol\":26530:26556  super._beforeTokenTransfer */\n      tag_79\n        /* \"MyDevFirst.sol\":26530:26574  super._beforeTokenTransfer(from, to, amount) */\n      jump\t// in\n    tag_184:\n        /* \"MyDevFirst.sol\":26409:26582  function _beforeTokenTransfer(address from, address to, uint256 amount) internal override(ERC20, ERC20Capped) {\r... */\n      pop\n      pop\n      pop\n      jump\t// out\n        /* \"MyDevFirst.sol\":25066:25183  function _finishMinting() internal virtual {\r... */\n    tag_182:\n        /* \"MyDevFirst.sol\":25139:25143  true */\n      0x01\n        /* \"MyDevFirst.sol\":25120:25136  _mintingFinished */\n      0x07\n      0x00\n        /* \"MyDevFirst.sol\":25120:25143  _mintingFinished = true */\n      0x0100\n      exp\n      dup2\n      sload\n      dup2\n      0xff\n      mul\n      not\n      and\n      swap1\n      dup4\n      iszero\n      iszero\n      mul\n      or\n      swap1\n      sstore\n      pop\n        /* \"MyDevFirst.sol\":25161:25175  MintFinished() */\n      0xae5184fba832cb2b1f702aca6117b8d265eaf03ad33eb133f19dde0f5920fa08\n      mload(0x40)\n      mload(0x40)\n      dup1\n      swap2\n      sub\n      swap1\n      log1\n        /* \"MyDevFirst.sol\":25066:25183  function _finishMinting() internal virtual {\r... */\n      jump\t// out\n    stop\n    data_0557e210f7a69a685100a7e4e3d0a7024c546085cee28910fd17d0b081d9516f 45524332303a207472616e7366657220746f20746865207a65726f2061646472657373\n    data_245f15ff17f551913a7a18385165551503906a406f905ac1c2437281a7cd0cfe 4f776e61626c653a206e6577206f776e657220697320746865207a65726f2061646472657373\n    data_24883cc5fe64ace9d0df1893501ecb93c77180f0ff69cca79affb3c316dc8029 45524332303a20617070726f766520746f20746865207a65726f2061646472657373\n    data_4107e8a8b9e94bf8ff83080ddec1c0bffe897ebc2241b89d44f66b3d274088b6 45524332303a207472616e7366657220616d6f756e7420657863656564732062616c616e6365\n    data_974d1b4421da69cc60b481194f0dad36a5bb4e23da810da7a7fb30cdba178330 45524332303a207472616e7366657220616d6f756e74206578636565647320616c6c6f77616e6365\n    data_baecc556b46f4ed0f2b4cb599d60785ac8563dd2dc0a5bf12edea1c39e5e1fea 45524332303a207472616e736665722066726f6d20746865207a65726f2061646472657373\n    data_c953f4879035ed60e766b34720f656aab5c697b141d924c283124ecedb91c208 45524332303a20617070726f76652066726f6d20746865207a65726f2061646472657373\n    data_f0296ba1e0cd26c09d97cb12c7a2251bdeb7854af8141b03b7f1306fbe6b4984 45524332304d696e7461626c653a206d696e74696e672069732066696e6973686564\n    data_f8b476f7d28209d77d4a4ac1fe36b9f8259aa1bb6bddfa6e89de7e51615cf8a8 45524332303a2064656372656173656420616c6c6f77616e63652062656c6f77207a65726f\n\n    auxdata: 0xa2646970667358221220c420c1e1794e080aa837958f9423790b79af41ef12a078afc452e028b015444c64736f6c63430007060033\n}\n",
				"bytecode": {
					"linkReferences": {},
					"object": "60806040526000600760006101000a81548160ff0219169083151502179055503480156200002c57600080fd5b506040516200253138038062002531833981810160405260a08110156200005257600080fd5b81019080805160405193929190846401000000008211156200007357600080fd5b838201915060208201858111156200008a57600080fd5b8251866001820283011164010000000082111715620000a857600080fd5b8083526020830192505050908051906020019080838360005b83811015620000de578082015181840152602081019050620000c1565b50505050905090810190601f1680156200010c5780820380516001836020036101000a031916815260200191505b50604052602001805160405193929190846401000000008211156200013057600080fd5b838201915060208201858111156200014757600080fd5b82518660018202830111640100000000821117156200016557600080fd5b8083526020830192505050908051906020019080838360005b838110156200019b5780820151818401526020810190506200017e565b50505050905090810190601f168015620001c95780820380516001836020036101000a031916815260200191505b5060405260200180519060200190929190805190602001909291908051906020019092919050505081858581600390805190602001906200020c9291906200084d565b508060049080519060200190620002259291906200084d565b506012600560006101000a81548160ff021916908360ff160217905550505060008111620002bb576040517f08c379a00000000000000000000000000000000000000000000000000000000081526004018080602001828103825260158152602001807f45524332304361707065643a206361702069732030000000000000000000000081525060200191505060405180910390fd5b80600681905550506000620002d5620003b160201b60201c565b905080600760016101000a81548173ffffffffffffffffffffffffffffffffffffffff021916908373ffffffffffffffffffffffffffffffffffffffff1602179055508073ffffffffffffffffffffffffffffffffffffffff16600073ffffffffffffffffffffffffffffffffffffffff167f8be0079c531659141344cd1fd0a4f28419497f9722a3daafe3b4186f6b6457e060405160405180910390a3506200038583620003b960201b60201c565b620003a662000399620003b160201b60201c565b82620003d760201b60201c565b505050505062000903565b600033905090565b80600560006101000a81548160ff021916908360ff16021790555050565b620003e7620003b160201b60201c565b73ffffffffffffffffffffffffffffffffffffffff16600760019054906101000a900473ffffffffffffffffffffffffffffffffffffffff1673ffffffffffffffffffffffffffffffffffffffff1614620004aa576040517f08c379a00000000000000000000000000000000000000000000000000000000081526004018080602001828103825260208152602001807f4f776e61626c653a2063616c6c6572206973206e6f7420746865206f776e657281525060200191505060405180910390fd5b620004c18282620004c560201b62000fef1760201c565b5050565b600073ffffffffffffffffffffffffffffffffffffffff168273ffffffffffffffffffffffffffffffffffffffff16141562000569576040517f08c379a000000000000000000000000000000000000000000000000000000000815260040180806020018281038252601f8152602001807f45524332303a206d696e7420746f20746865207a65726f20616464726573730081525060200191505060405180910390fd5b6200057d60008383620006a360201b60201c565b6200059981600254620006c060201b620011b61790919060201c565b600281905550620005f7816000808573ffffffffffffffffffffffffffffffffffffffff1673ffffffffffffffffffffffffffffffffffffffff16815260200190815260200160002054620006c060201b620011b61790919060201c565b6000808473ffffffffffffffffffffffffffffffffffffffff1673ffffffffffffffffffffffffffffffffffffffff168152602001908152602001600020819055508173ffffffffffffffffffffffffffffffffffffffff16600073ffffffffffffffffffffffffffffffffffffffff167fddf252ad1be2c89b69c2b068fc378daa952ba7f163c4a11628f55a4df523b3ef836040518082815260200191505060405180910390a35050565b620006bb8383836200074960201b6200123e1760201c565b505050565b6000808284019050838110156200073f576040517f08c379a000000000000000000000000000000000000000000000000000000000815260040180806020018281038252601b8152602001807f536166654d6174683a206164646974696f6e206f766572666c6f77000000000081525060200191505060405180910390fd5b8091505092915050565b620007618383836200083e60201b620013151760201c565b600073ffffffffffffffffffffffffffffffffffffffff168373ffffffffffffffffffffffffffffffffffffffff1614156200083957600654620007c382620007af6200084360201b60201c565b620006c060201b620011b61790919060201c565b111562000838576040517f08c379a00000000000000000000000000000000000000000000000000000000081526004018080602001828103825260198152602001807f45524332304361707065643a206361702065786365656465640000000000000081525060200191505060405180910390fd5b5b505050565b505050565b6000600254905090565b828054600181600116156101000203166002900490600052602060002090601f016020900481019282620008855760008555620008d1565b82601f10620008a057805160ff1916838001178555620008d1565b82800160010185558215620008d1579182015b82811115620008d0578251825591602001919060010190620008b3565b5b509050620008e09190620008e4565b5090565b5b80821115620008ff576000816000905550600101620008e5565b5090565b611c1e80620009136000396000f3fe608060405234801561001057600080fd5b50600436106101165760003560e01c806370a08231116100a257806395d89b411161007157806395d89b4114610455578063a457c2d7146104d8578063a9059cbb1461053c578063dd62ed3e146105a0578063f2fde38b1461061857610116565b806370a08231146103b5578063715018a61461040d5780637d64bcb4146104175780638da5cb5b1461042157610116565b806323b872dd116100e957806323b872dd14610240578063313ce567146102c4578063355274ea146102e5578063395093511461030357806340c10f191461036757610116565b806305d2035b1461011b57806306fdde031461013b578063095ea7b3146101be57806318160ddd14610222575b600080fd5b61012361065c565b60405180821515815260200191505060405180910390f35b610143610673565b6040518080602001828103825283818151815260200191508051906020019080838360005b83811015610183578082015181840152602081019050610168565b50505050905090810190601f1680156101b05780820380516001836020036101000a031916815260200191505b509250505060405180910390f35b61020a600480360360408110156101d457600080fd5b81019080803573ffffffffffffffffffffffffffffffffffffffff16906020019092919080359060200190929190505050610715565b60405180821515815260200191505060405180910390f35b61022a610733565b6040518082815260200191505060405180910390f35b6102ac6004803603606081101561025657600080fd5b81019080803573ffffffffffffffffffffffffffffffffffffffff169060200190929190803573ffffffffffffffffffffffffffffffffffffffff1690602001909291908035906020019092919050505061073d565b60405180821515815260200191505060405180910390f35b6102cc610816565b604051808260ff16815260200191505060405180910390f35b6102ed61082d565b6040518082815260200191505060405180910390f35b61034f6004803603604081101561031957600080fd5b81019080803573ffffffffffffffffffffffffffffffffffffffff16906020019092919080359060200190929190505050610837565b60405180821515815260200191505060405180910390f35b6103b36004803603604081101561037d57600080fd5b81019080803573ffffffffffffffffffffffffffffffffffffffff169060200190929190803590602001909291905050506108ea565b005b6103f7600480360360208110156103cb57600080fd5b81019080803573ffffffffffffffffffffffffffffffffffffffff16906020019092919050505061095e565b6040518082815260200191505060405180910390f35b6104156109a6565b005b61041f610b31565b005b610429610ba1565b604051808273ffffffffffffffffffffffffffffffffffffffff16815260200191505060405180910390f35b61045d610bcb565b6040518080602001828103825283818151815260200191508051906020019080838360005b8381101561049d578082015181840152602081019050610482565b50505050905090810190601f1680156104ca5780820380516001836020036101000a031916815260200191505b509250505060405180910390f35b610524600480360360408110156104ee57600080fd5b81019080803573ffffffffffffffffffffffffffffffffffffffff16906020019092919080359060200190929190505050610c6d565b60405180821515815260200191505060405180910390f35b6105886004803603604081101561055257600080fd5b81019080803573ffffffffffffffffffffffffffffffffffffffff16906020019092919080359060200190929190505050610d3a565b60405180821515815260200191505060405180910390f35b610602600480360360408110156105b657600080fd5b81019080803573ffffffffffffffffffffffffffffffffffffffff169060200190929190803573ffffffffffffffffffffffffffffffffffffffff169060200190929190505050610d58565b6040518082815260200191505060405180910390f35b61065a6004803603602081101561062e57600080fd5b81019080803573ffffffffffffffffffffffffffffffffffffffff169060200190929190505050610ddf565b005b6000600760009054906101000a900460ff16905090565b606060038054600181600116156101000203166002900480601f01602080910402602001604051908101604052809291908181526020018280546001816001161561010002031660029004801561070b5780601f106106e05761010080835404028352916020019161070b565b820191906000526020600020905b8154815290600101906020018083116106ee57829003601f168201915b5050505050905090565b600061072961072261131a565b8484611322565b6001905092915050565b6000600254905090565b600061074a848484611519565b61080b8461075661131a565b61080685604051806060016040528060288152602001611b3160289139600160008b73ffffffffffffffffffffffffffffffffffffffff1673ffffffffffffffffffffffffffffffffffffffff16815260200190815260200160002060006107bc61131a565b73ffffffffffffffffffffffffffffffffffffffff1673ffffffffffffffffffffffffffffffffffffffff168152602001908152602001600020546117da9092919063ffffffff16565b611322565b600190509392505050565b6000600560009054906101000a900460ff16905090565b6000600654905090565b60006108e061084461131a565b846108db856001600061085561131a565b73ffffffffffffffffffffffffffffffffffffffff1673ffffffffffffffffffffffffffffffffffffffff16815260200190815260200160002060008973ffffffffffffffffffffffffffffffffffffffff1673ffffffffffffffffffffffffffffffffffffffff168152602001908152602001600020546111b690919063ffffffff16565b611322565b6001905092915050565b600760009054906101000a900460ff1615610950576040517f08c379a0000000000000000000000000000000000000000000000000000000008152600401808060200182810382526022815260200180611ba26022913960400191505060405180910390fd5b61095a828261189a565b5050565b60008060008373ffffffffffffffffffffffffffffffffffffffff1673ffffffffffffffffffffffffffffffffffffffff168152602001908152602001600020549050919050565b6109ae61131a565b73ffffffffffffffffffffffffffffffffffffffff16600760019054906101000a900473ffffffffffffffffffffffffffffffffffffffff1673ffffffffffffffffffffffffffffffffffffffff1614610a70576040517f08c379a00000000000000000000000000000000000000000000000000000000081526004018080602001828103825260208152602001807f4f776e61626c653a2063616c6c6572206973206e6f7420746865206f776e657281525060200191505060405180910390fd5b600073ffffffffffffffffffffffffffffffffffffffff16600760019054906101000a900473ffffffffffffffffffffffffffffffffffffffff1673ffffffffffffffffffffffffffffffffffffffff167f8be0079c531659141344cd1fd0a4f28419497f9722a3daafe3b4186f6b6457e060405160405180910390a36000600760016101000a81548173ffffffffffffffffffffffffffffffffffffffff021916908373ffffffffffffffffffffffffffffffffffffffff160217905550565b600760009054906101000a900460ff1615610b97576040517f08c379a0000000000000000000000000000000000000000000000000000000008152600401808060200182810382526022815260200180611ba26022913960400191505060405180910390fd5b610b9f611972565b565b6000600760019054906101000a900473ffffffffffffffffffffffffffffffffffffffff16905090565b606060048054600181600116156101000203166002900480601f016020809104026020016040519081016040528092919081815260200182805460018160011615610100020316600290048015610c635780601f10610c3857610100808354040283529160200191610c63565b820191906000526020600020905b815481529060010190602001808311610c4657829003601f168201915b5050505050905090565b6000610d30610c7a61131a565b84610d2b85604051806060016040528060258152602001611bc46025913960016000610ca461131a565b73ffffffffffffffffffffffffffffffffffffffff1673ffffffffffffffffffffffffffffffffffffffff16815260200190815260200160002060008a73ffffffffffffffffffffffffffffffffffffffff1673ffffffffffffffffffffffffffffffffffffffff168152602001908152602001600020546117da9092919063ffffffff16565b611322565b6001905092915050565b6000610d4e610d4761131a565b8484611519565b6001905092915050565b6000600160008473ffffffffffffffffffffffffffffffffffffffff1673ffffffffffffffffffffffffffffffffffffffff16815260200190815260200160002060008373ffffffffffffffffffffffffffffffffffffffff1673ffffffffffffffffffffffffffffffffffffffff16815260200190815260200160002054905092915050565b610de761131a565b73ffffffffffffffffffffffffffffffffffffffff16600760019054906101000a900473ffffffffffffffffffffffffffffffffffffffff1673ffffffffffffffffffffffffffffffffffffffff1614610ea9576040517f08c379a00000000000000000000000000000000000000000000000000000000081526004018080602001828103825260208152602001807f4f776e61626c653a2063616c6c6572206973206e6f7420746865206f776e657281525060200191505060405180910390fd5b600073ffffffffffffffffffffffffffffffffffffffff168173ffffffffffffffffffffffffffffffffffffffff161415610f2f576040517f08c379a0000000000000000000000000000000000000000000000000000000008152600401808060200182810382526026815260200180611ac36026913960400191505060405180910390fd5b8073ffffffffffffffffffffffffffffffffffffffff16600760019054906101000a900473ffffffffffffffffffffffffffffffffffffffff1673ffffffffffffffffffffffffffffffffffffffff167f8be0079c531659141344cd1fd0a4f28419497f9722a3daafe3b4186f6b6457e060405160405180910390a380600760016101000a81548173ffffffffffffffffffffffffffffffffffffffff021916908373ffffffffffffffffffffffffffffffffffffffff16021790555050565b600073ffffffffffffffffffffffffffffffffffffffff168273ffffffffffffffffffffffffffffffffffffffff161415611092576040517f08c379a000000000000000000000000000000000000000000000000000000000815260040180806020018281038252601f8152602001807f45524332303a206d696e7420746f20746865207a65726f20616464726573730081525060200191505060405180910390fd5b61109e60008383611a46565b6110b3816002546111b690919063ffffffff16565b60028190555061110a816000808573ffffffffffffffffffffffffffffffffffffffff1673ffffffffffffffffffffffffffffffffffffffff168152602001908152602001600020546111b690919063ffffffff16565b6000808473ffffffffffffffffffffffffffffffffffffffff1673ffffffffffffffffffffffffffffffffffffffff168152602001908152602001600020819055508173ffffffffffffffffffffffffffffffffffffffff16600073ffffffffffffffffffffffffffffffffffffffff167fddf252ad1be2c89b69c2b068fc378daa952ba7f163c4a11628f55a4df523b3ef836040518082815260200191505060405180910390a35050565b600080828401905083811015611234576040517f08c379a000000000000000000000000000000000000000000000000000000000815260040180806020018281038252601b8152602001807f536166654d6174683a206164646974696f6e206f766572666c6f77000000000081525060200191505060405180910390fd5b8091505092915050565b611249838383611315565b600073ffffffffffffffffffffffffffffffffffffffff168373ffffffffffffffffffffffffffffffffffffffff1614156113105760065461129b8261128d610733565b6111b690919063ffffffff16565b111561130f576040517f08c379a00000000000000000000000000000000000000000000000000000000081526004018080602001828103825260198152602001807f45524332304361707065643a206361702065786365656465640000000000000081525060200191505060405180910390fd5b5b505050565b505050565b600033905090565b600073ffffffffffffffffffffffffffffffffffffffff168373ffffffffffffffffffffffffffffffffffffffff1614156113a8576040517f08c379a0000000000000000000000000000000000000000000000000000000008152600401808060200182810382526024815260200180611b7e6024913960400191505060405180910390fd5b600073ffffffffffffffffffffffffffffffffffffffff168273ffffffffffffffffffffffffffffffffffffffff16141561142e576040517f08c379a0000000000000000000000000000000000000000000000000000000008152600401808060200182810382526022815260200180611ae96022913960400191505060405180910390fd5b80600160008573ffffffffffffffffffffffffffffffffffffffff1673ffffffffffffffffffffffffffffffffffffffff16815260200190815260200160002060008473ffffffffffffffffffffffffffffffffffffffff1673ffffffffffffffffffffffffffffffffffffffff168152602001908152602001600020819055508173ffffffffffffffffffffffffffffffffffffffff168373ffffffffffffffffffffffffffffffffffffffff167f8c5be1e5ebec7d5bd14f71427d1e84f3dd0314c0f7b2291e5b200ac8c7c3b925836040518082815260200191505060405180910390a3505050565b600073ffffffffffffffffffffffffffffffffffffffff168373ffffffffffffffffffffffffffffffffffffffff16141561159f576040517f08c379a0000000000000000000000000000000000000000000000000000000008152600401808060200182810382526025815260200180611b596025913960400191505060405180910390fd5b600073ffffffffffffffffffffffffffffffffffffffff168273ffffffffffffffffffffffffffffffffffffffff161415611625576040517f08c379a0000000000000000000000000000000000000000000000000000000008152600401808060200182810382526023815260200180611aa06023913960400191505060405180910390fd5b611630838383611a46565b61169b81604051806060016040528060268152602001611b0b602691396000808773ffffffffffffffffffffffffffffffffffffffff1673ffffffffffffffffffffffffffffffffffffffff168152602001908152602001600020546117da9092919063ffffffff16565b6000808573ffffffffffffffffffffffffffffffffffffffff1673ffffffffffffffffffffffffffffffffffffffff1681526020019081526020016000208190555061172e816000808573ffffffffffffffffffffffffffffffffffffffff1673ffffffffffffffffffffffffffffffffffffffff168152602001908152602001600020546111b690919063ffffffff16565b6000808473ffffffffffffffffffffffffffffffffffffffff1673ffffffffffffffffffffffffffffffffffffffff168152602001908152602001600020819055508173ffffffffffffffffffffffffffffffffffffffff168373ffffffffffffffffffffffffffffffffffffffff167fddf252ad1be2c89b69c2b068fc378daa952ba7f163c4a11628f55a4df523b3ef836040518082815260200191505060405180910390a3505050565b6000838311158290611887576040517f08c379a00000000000000000000000000000000000000000000000000000000081526004018080602001828103825283818151815260200191508051906020019080838360005b8381101561184c578082015181840152602081019050611831565b50505050905090810190601f1680156118795780820380516001836020036101000a031916815260200191505b509250505060405180910390fd5b5060008385039050809150509392505050565b6118a261131a565b73ffffffffffffffffffffffffffffffffffffffff16600760019054906101000a900473ffffffffffffffffffffffffffffffffffffffff1673ffffffffffffffffffffffffffffffffffffffff1614611964576040517f08c379a00000000000000000000000000000000000000000000000000000000081526004018080602001828103825260208152602001807f4f776e61626c653a2063616c6c6572206973206e6f7420746865206f776e657281525060200191505060405180910390fd5b61196e8282610fef565b5050565b61197a61131a565b73ffffffffffffffffffffffffffffffffffffffff16600760019054906101000a900473ffffffffffffffffffffffffffffffffffffffff1673ffffffffffffffffffffffffffffffffffffffff1614611a3c576040517f08c379a00000000000000000000000000000000000000000000000000000000081526004018080602001828103825260208152602001807f4f776e61626c653a2063616c6c6572206973206e6f7420746865206f776e657281525060200191505060405180910390fd5b611a44611a56565b565b611a5183838361123e565b505050565b6001600760006101000a81548160ff0219169083151502179055507fae5184fba832cb2b1f702aca6117b8d265eaf03ad33eb133f19dde0f5920fa0860405160405180910390a156fe45524332303a207472616e7366657220746f20746865207a65726f20616464726573734f776e61626c653a206e6577206f776e657220697320746865207a65726f206164647265737345524332303a20617070726f766520746f20746865207a65726f206164647265737345524332303a207472616e7366657220616d6f756e7420657863656564732062616c616e636545524332303a207472616e7366657220616d6f756e74206578636565647320616c6c6f77616e636545524332303a207472616e736665722066726f6d20746865207a65726f206164647265737345524332303a20617070726f76652066726f6d20746865207a65726f206164647265737345524332304d696e7461626c653a206d696e74696e672069732066696e697368656445524332303a2064656372656173656420616c6c6f77616e63652062656c6f77207a65726fa2646970667358221220c420c1e1794e080aa837958f9423790b79af41ef12a078afc452e028b015444c64736f6c63430007060033",
					"opcodes": "PUSH1 0x80 PUSH1 0x40 MSTORE PUSH1 0x0 PUSH1 0x7 PUSH1 0x0 PUSH2 0x100 EXP DUP2 SLOAD DUP2 PUSH1 0xFF MUL NOT AND SWAP1 DUP4 ISZERO ISZERO MUL OR SWAP1 SSTORE POP CALLVALUE DUP1 ISZERO PUSH3 0x2C JUMPI PUSH1 0x0 DUP1 REVERT JUMPDEST POP PUSH1 0x40 MLOAD PUSH3 0x2531 CODESIZE SUB DUP1 PUSH3 0x2531 DUP4 CODECOPY DUP2 DUP2 ADD PUSH1 0x40 MSTORE PUSH1 0xA0 DUP2 LT ISZERO PUSH3 0x52 JUMPI PUSH1 0x0 DUP1 REVERT JUMPDEST DUP2 ADD SWAP1 DUP1 DUP1 MLOAD PUSH1 0x40 MLOAD SWAP4 SWAP3 SWAP2 SWAP1 DUP5 PUSH5 0x100000000 DUP3 GT ISZERO PUSH3 0x73 JUMPI PUSH1 0x0 DUP1 REVERT JUMPDEST DUP4 DUP3 ADD SWAP2 POP PUSH1 0x20 DUP3 ADD DUP6 DUP2 GT ISZERO PUSH3 0x8A JUMPI PUSH1 0x0 DUP1 REVERT JUMPDEST DUP3 MLOAD DUP7 PUSH1 0x1 DUP3 MUL DUP4 ADD GT PUSH5 0x100000000 DUP3 GT OR ISZERO PUSH3 0xA8 JUMPI PUSH1 0x0 DUP1 REVERT JUMPDEST DUP1 DUP4 MSTORE PUSH1 0x20 DUP4 ADD SWAP3 POP POP POP SWAP1 DUP1 MLOAD SWAP1 PUSH1 0x20 ADD SWAP1 DUP1 DUP4 DUP4 PUSH1 0x0 JUMPDEST DUP4 DUP2 LT ISZERO PUSH3 0xDE JUMPI DUP1 DUP3 ADD MLOAD DUP2 DUP5 ADD MSTORE PUSH1 0x20 DUP2 ADD SWAP1 POP PUSH3 0xC1 JUMP JUMPDEST POP POP POP POP SWAP1 POP SWAP1 DUP2 ADD SWAP1 PUSH1 0x1F AND DUP1 ISZERO PUSH3 0x10C JUMPI DUP1 DUP3 SUB DUP1 MLOAD PUSH1 0x1 DUP4 PUSH1 0x20 SUB PUSH2 0x100 EXP SUB NOT AND DUP2 MSTORE PUSH1 0x20 ADD SWAP2 POP JUMPDEST POP PUSH1 0x40 MSTORE PUSH1 0x20 ADD DUP1 MLOAD PUSH1 0x40 MLOAD SWAP4 SWAP3 SWAP2 SWAP1 DUP5 PUSH5 0x100000000 DUP3 GT ISZERO PUSH3 0x130 JUMPI PUSH1 0x0 DUP1 REVERT JUMPDEST DUP4 DUP3 ADD SWAP2 POP PUSH1 0x20 DUP3 ADD DUP6 DUP2 GT ISZERO PUSH3 0x147 JUMPI PUSH1 0x0 DUP1 REVERT JUMPDEST DUP3 MLOAD DUP7 PUSH1 0x1 DUP3 MUL DUP4 ADD GT PUSH5 0x100000000 DUP3 GT OR ISZERO PUSH3 0x165 JUMPI PUSH1 0x0 DUP1 REVERT JUMPDEST DUP1 DUP4 MSTORE PUSH1 0x20 DUP4 ADD SWAP3 POP POP POP SWAP1 DUP1 MLOAD SWAP1 PUSH1 0x20 ADD SWAP1 DUP1 DUP4 DUP4 PUSH1 0x0 JUMPDEST DUP4 DUP2 LT ISZERO PUSH3 0x19B JUMPI DUP1 DUP3 ADD MLOAD DUP2 DUP5 ADD MSTORE PUSH1 0x20 DUP2 ADD SWAP1 POP PUSH3 0x17E JUMP JUMPDEST POP POP POP POP SWAP1 POP SWAP1 DUP2 ADD SWAP1 PUSH1 0x1F AND DUP1 ISZERO PUSH3 0x1C9 JUMPI DUP1 DUP3 SUB DUP1 MLOAD PUSH1 0x1 DUP4 PUSH1 0x20 SUB PUSH2 0x100 EXP SUB NOT AND DUP2 MSTORE PUSH1 0x20 ADD SWAP2 POP JUMPDEST POP PUSH1 0x40 MSTORE PUSH1 0x20 ADD DUP1 MLOAD SWAP1 PUSH1 0x20 ADD SWAP1 SWAP3 SWAP2 SWAP1 DUP1 MLOAD SWAP1 PUSH1 0x20 ADD SWAP1 SWAP3 SWAP2 SWAP1 DUP1 MLOAD SWAP1 PUSH1 0x20 ADD SWAP1 SWAP3 SWAP2 SWAP1 POP POP POP DUP2 DUP6 DUP6 DUP2 PUSH1 0x3 SWAP1 DUP1 MLOAD SWAP1 PUSH1 0x20 ADD SWAP1 PUSH3 0x20C SWAP3 SWAP2 SWAP1 PUSH3 0x84D JUMP JUMPDEST POP DUP1 PUSH1 0x4 SWAP1 DUP1 MLOAD SWAP1 PUSH1 0x20 ADD SWAP1 PUSH3 0x225 SWAP3 SWAP2 SWAP1 PUSH3 0x84D JUMP JUMPDEST POP PUSH1 0x12 PUSH1 0x5 PUSH1 0x0 PUSH2 0x100 EXP DUP2 SLOAD DUP2 PUSH1 0xFF MUL NOT AND SWAP1 DUP4 PUSH1 0xFF AND MUL OR SWAP1 SSTORE POP POP POP PUSH1 0x0 DUP2 GT PUSH3 0x2BB JUMPI PUSH1 0x40 MLOAD PUSH32 0x8C379A000000000000000000000000000000000000000000000000000000000 DUP2 MSTORE PUSH1 0x4 ADD DUP1 DUP1 PUSH1 0x20 ADD DUP3 DUP2 SUB DUP3 MSTORE PUSH1 0x15 DUP2 MSTORE PUSH1 0x20 ADD DUP1 PUSH32 0x45524332304361707065643A2063617020697320300000000000000000000000 DUP2 MSTORE POP PUSH1 0x20 ADD SWAP2 POP POP PUSH1 0x40 MLOAD DUP1 SWAP2 SUB SWAP1 REVERT JUMPDEST DUP1 PUSH1 0x6 DUP2 SWAP1 SSTORE POP POP PUSH1 0x0 PUSH3 0x2D5 PUSH3 0x3B1 PUSH1 0x20 SHL PUSH1 0x20 SHR JUMP JUMPDEST SWAP1 POP DUP1 PUSH1 0x7 PUSH1 0x1 PUSH2 0x100 EXP DUP2 SLOAD DUP2 PUSH20 0xFFFFFFFFFFFFFFFFFFFFFFFFFFFFFFFFFFFFFFFF MUL NOT AND SWAP1 DUP4 PUSH20 0xFFFFFFFFFFFFFFFFFFFFFFFFFFFFFFFFFFFFFFFF AND MUL OR SWAP1 SSTORE POP DUP1 PUSH20 0xFFFFFFFFFFFFFFFFFFFFFFFFFFFFFFFFFFFFFFFF AND PUSH1 0x0 PUSH20 0xFFFFFFFFFFFFFFFFFFFFFFFFFFFFFFFFFFFFFFFF AND PUSH32 0x8BE0079C531659141344CD1FD0A4F28419497F9722A3DAAFE3B4186F6B6457E0 PUSH1 0x40 MLOAD PUSH1 0x40 MLOAD DUP1 SWAP2 SUB SWAP1 LOG3 POP PUSH3 0x385 DUP4 PUSH3 0x3B9 PUSH1 0x20 SHL PUSH1 0x20 SHR JUMP JUMPDEST PUSH3 0x3A6 PUSH3 0x399 PUSH3 0x3B1 PUSH1 0x20 SHL PUSH1 0x20 SHR JUMP JUMPDEST DUP3 PUSH3 0x3D7 PUSH1 0x20 SHL PUSH1 0x20 SHR JUMP JUMPDEST POP POP POP POP POP PUSH3 0x903 JUMP JUMPDEST PUSH1 0x0 CALLER SWAP1 POP SWAP1 JUMP JUMPDEST DUP1 PUSH1 0x5 PUSH1 0x0 PUSH2 0x100 EXP DUP2 SLOAD DUP2 PUSH1 0xFF MUL NOT AND SWAP1 DUP4 PUSH1 0xFF AND MUL OR SWAP1 SSTORE POP POP JUMP JUMPDEST PUSH3 0x3E7 PUSH3 0x3B1 PUSH1 0x20 SHL PUSH1 0x20 SHR JUMP JUMPDEST PUSH20 0xFFFFFFFFFFFFFFFFFFFFFFFFFFFFFFFFFFFFFFFF AND PUSH1 0x7 PUSH1 0x1 SWAP1 SLOAD SWAP1 PUSH2 0x100 EXP SWAP1 DIV PUSH20 0xFFFFFFFFFFFFFFFFFFFFFFFFFFFFFFFFFFFFFFFF AND PUSH20 0xFFFFFFFFFFFFFFFFFFFFFFFFFFFFFFFFFFFFFFFF AND EQ PUSH3 0x4AA JUMPI PUSH1 0x40 MLOAD PUSH32 0x8C379A000000000000000000000000000000000000000000000000000000000 DUP2 MSTORE PUSH1 0x4 ADD DUP1 DUP1 PUSH1 0x20 ADD DUP3 DUP2 SUB DUP3 MSTORE PUSH1 0x20 DUP2 MSTORE PUSH1 0x20 ADD DUP1 PUSH32 0x4F776E61626C653A2063616C6C6572206973206E6F7420746865206F776E6572 DUP2 MSTORE POP PUSH1 0x20 ADD SWAP2 POP POP PUSH1 0x40 MLOAD DUP1 SWAP2 SUB SWAP1 REVERT JUMPDEST PUSH3 0x4C1 DUP3 DUP3 PUSH3 0x4C5 PUSH1 0x20 SHL PUSH3 0xFEF OR PUSH1 0x20 SHR JUMP JUMPDEST POP POP JUMP JUMPDEST PUSH1 0x0 PUSH20 0xFFFFFFFFFFFFFFFFFFFFFFFFFFFFFFFFFFFFFFFF AND DUP3 PUSH20 0xFFFFFFFFFFFFFFFFFFFFFFFFFFFFFFFFFFFFFFFF AND EQ ISZERO PUSH3 0x569 JUMPI PUSH1 0x40 MLOAD PUSH32 0x8C379A000000000000000000000000000000000000000000000000000000000 DUP2 MSTORE PUSH1 0x4 ADD DUP1 DUP1 PUSH1 0x20 ADD DUP3 DUP2 SUB DUP3 MSTORE PUSH1 0x1F DUP2 MSTORE PUSH1 0x20 ADD DUP1 PUSH32 0x45524332303A206D696E7420746F20746865207A65726F206164647265737300 DUP2 MSTORE POP PUSH1 0x20 ADD SWAP2 POP POP PUSH1 0x40 MLOAD DUP1 SWAP2 SUB SWAP1 REVERT JUMPDEST PUSH3 0x57D PUSH1 0x0 DUP4 DUP4 PUSH3 0x6A3 PUSH1 0x20 SHL PUSH1 0x20 SHR JUMP JUMPDEST PUSH3 0x599 DUP2 PUSH1 0x2 SLOAD PUSH3 0x6C0 PUSH1 0x20 SHL PUSH3 0x11B6 OR SWAP1 SWAP2 SWAP1 PUSH1 0x20 SHR JUMP JUMPDEST PUSH1 0x2 DUP2 SWAP1 SSTORE POP PUSH3 0x5F7 DUP2 PUSH1 0x0 DUP1 DUP6 PUSH20 0xFFFFFFFFFFFFFFFFFFFFFFFFFFFFFFFFFFFFFFFF AND PUSH20 0xFFFFFFFFFFFFFFFFFFFFFFFFFFFFFFFFFFFFFFFF AND DUP2 MSTORE PUSH1 0x20 ADD SWAP1 DUP2 MSTORE PUSH1 0x20 ADD PUSH1 0x0 KECCAK256 SLOAD PUSH3 0x6C0 PUSH1 0x20 SHL PUSH3 0x11B6 OR SWAP1 SWAP2 SWAP1 PUSH1 0x20 SHR JUMP JUMPDEST PUSH1 0x0 DUP1 DUP5 PUSH20 0xFFFFFFFFFFFFFFFFFFFFFFFFFFFFFFFFFFFFFFFF AND PUSH20 0xFFFFFFFFFFFFFFFFFFFFFFFFFFFFFFFFFFFFFFFF AND DUP2 MSTORE PUSH1 0x20 ADD SWAP1 DUP2 MSTORE PUSH1 0x20 ADD PUSH1 0x0 KECCAK256 DUP2 SWAP1 SSTORE POP DUP2 PUSH20 0xFFFFFFFFFFFFFFFFFFFFFFFFFFFFFFFFFFFFFFFF AND PUSH1 0x0 PUSH20 0xFFFFFFFFFFFFFFFFFFFFFFFFFFFFFFFFFFFFFFFF AND PUSH32 0xDDF252AD1BE2C89B69C2B068FC378DAA952BA7F163C4A11628F55A4DF523B3EF DUP4 PUSH1 0x40 MLOAD DUP1 DUP3 DUP2 MSTORE PUSH1 0x20 ADD SWAP2 POP POP PUSH1 0x40 MLOAD DUP1 SWAP2 SUB SWAP1 LOG3 POP POP JUMP JUMPDEST PUSH3 0x6BB DUP4 DUP4 DUP4 PUSH3 0x749 PUSH1 0x20 SHL PUSH3 0x123E OR PUSH1 0x20 SHR JUMP JUMPDEST POP POP POP JUMP JUMPDEST PUSH1 0x0 DUP1 DUP3 DUP5 ADD SWAP1 POP DUP4 DUP2 LT ISZERO PUSH3 0x73F JUMPI PUSH1 0x40 MLOAD PUSH32 0x8C379A000000000000000000000000000000000000000000000000000000000 DUP2 MSTORE PUSH1 0x4 ADD DUP1 DUP1 PUSH1 0x20 ADD DUP3 DUP2 SUB DUP3 MSTORE PUSH1 0x1B DUP2 MSTORE PUSH1 0x20 ADD DUP1 PUSH32 0x536166654D6174683A206164646974696F6E206F766572666C6F770000000000 DUP2 MSTORE POP PUSH1 0x20 ADD SWAP2 POP POP PUSH1 0x40 MLOAD DUP1 SWAP2 SUB SWAP1 REVERT JUMPDEST DUP1 SWAP2 POP POP SWAP3 SWAP2 POP POP JUMP JUMPDEST PUSH3 0x761 DUP4 DUP4 DUP4 PUSH3 0x83E PUSH1 0x20 SHL PUSH3 0x1315 OR PUSH1 0x20 SHR JUMP JUMPDEST PUSH1 0x0 PUSH20 0xFFFFFFFFFFFFFFFFFFFFFFFFFFFFFFFFFFFFFFFF AND DUP4 PUSH20 0xFFFFFFFFFFFFFFFFFFFFFFFFFFFFFFFFFFFFFFFF AND EQ ISZERO PUSH3 0x839 JUMPI PUSH1 0x6 SLOAD PUSH3 0x7C3 DUP3 PUSH3 0x7AF PUSH3 0x843 PUSH1 0x20 SHL PUSH1 0x20 SHR JUMP JUMPDEST PUSH3 0x6C0 PUSH1 0x20 SHL PUSH3 0x11B6 OR SWAP1 SWAP2 SWAP1 PUSH1 0x20 SHR JUMP JUMPDEST GT ISZERO PUSH3 0x838 JUMPI PUSH1 0x40 MLOAD PUSH32 0x8C379A000000000000000000000000000000000000000000000000000000000 DUP2 MSTORE PUSH1 0x4 ADD DUP1 DUP1 PUSH1 0x20 ADD DUP3 DUP2 SUB DUP3 MSTORE PUSH1 0x19 DUP2 MSTORE PUSH1 0x20 ADD DUP1 PUSH32 0x45524332304361707065643A2063617020657863656564656400000000000000 DUP2 MSTORE POP PUSH1 0x20 ADD SWAP2 POP POP PUSH1 0x40 MLOAD DUP1 SWAP2 SUB SWAP1 REVERT JUMPDEST JUMPDEST POP POP POP JUMP JUMPDEST POP POP POP JUMP JUMPDEST PUSH1 0x0 PUSH1 0x2 SLOAD SWAP1 POP SWAP1 JUMP JUMPDEST DUP3 DUP1 SLOAD PUSH1 0x1 DUP2 PUSH1 0x1 AND ISZERO PUSH2 0x100 MUL SUB AND PUSH1 0x2 SWAP1 DIV SWAP1 PUSH1 0x0 MSTORE PUSH1 0x20 PUSH1 0x0 KECCAK256 SWAP1 PUSH1 0x1F ADD PUSH1 0x20 SWAP1 DIV DUP2 ADD SWAP3 DUP3 PUSH3 0x885 JUMPI PUSH1 0x0 DUP6 SSTORE PUSH3 0x8D1 JUMP JUMPDEST DUP3 PUSH1 0x1F LT PUSH3 0x8A0 JUMPI DUP1 MLOAD PUSH1 0xFF NOT AND DUP4 DUP1 ADD OR DUP6 SSTORE PUSH3 0x8D1 JUMP JUMPDEST DUP3 DUP1 ADD PUSH1 0x1 ADD DUP6 SSTORE DUP3 ISZERO PUSH3 0x8D1 JUMPI SWAP2 DUP3 ADD JUMPDEST DUP3 DUP2 GT ISZERO PUSH3 0x8D0 JUMPI DUP3 MLOAD DUP3 SSTORE SWAP2 PUSH1 0x20 ADD SWAP2 SWAP1 PUSH1 0x1 ADD SWAP1 PUSH3 0x8B3 JUMP JUMPDEST JUMPDEST POP SWAP1 POP PUSH3 0x8E0 SWAP2 SWAP1 PUSH3 0x8E4 JUMP JUMPDEST POP SWAP1 JUMP JUMPDEST JUMPDEST DUP1 DUP3 GT ISZERO PUSH3 0x8FF JUMPI PUSH1 0x0 DUP2 PUSH1 0x0 SWAP1 SSTORE POP PUSH1 0x1 ADD PUSH3 0x8E5 JUMP JUMPDEST POP SWAP1 JUMP JUMPDEST PUSH2 0x1C1E DUP1 PUSH3 0x913 PUSH1 0x0 CODECOPY PUSH1 0x0 RETURN INVALID PUSH1 0x80 PUSH1 0x40 MSTORE CALLVALUE DUP1 ISZERO PUSH2 0x10 JUMPI PUSH1 0x0 DUP1 REVERT JUMPDEST POP PUSH1 0x4 CALLDATASIZE LT PUSH2 0x116 JUMPI PUSH1 0x0 CALLDATALOAD PUSH1 0xE0 SHR DUP1 PUSH4 0x70A08231 GT PUSH2 0xA2 JUMPI DUP1 PUSH4 0x95D89B41 GT PUSH2 0x71 JUMPI DUP1 PUSH4 0x95D89B41 EQ PUSH2 0x455 JUMPI DUP1 PUSH4 0xA457C2D7 EQ PUSH2 0x4D8 JUMPI DUP1 PUSH4 0xA9059CBB EQ PUSH2 0x53C JUMPI DUP1 PUSH4 0xDD62ED3E EQ PUSH2 0x5A0 JUMPI DUP1 PUSH4 0xF2FDE38B EQ PUSH2 0x618 JUMPI PUSH2 0x116 JUMP JUMPDEST DUP1 PUSH4 0x70A08231 EQ PUSH2 0x3B5 JUMPI DUP1 PUSH4 0x715018A6 EQ PUSH2 0x40D JUMPI DUP1 PUSH4 0x7D64BCB4 EQ PUSH2 0x417 JUMPI DUP1 PUSH4 0x8DA5CB5B EQ PUSH2 0x421 JUMPI PUSH2 0x116 JUMP JUMPDEST DUP1 PUSH4 0x23B872DD GT PUSH2 0xE9 JUMPI DUP1 PUSH4 0x23B872DD EQ PUSH2 0x240 JUMPI DUP1 PUSH4 0x313CE567 EQ PUSH2 0x2C4 JUMPI DUP1 PUSH4 0x355274EA EQ PUSH2 0x2E5 JUMPI DUP1 PUSH4 0x39509351 EQ PUSH2 0x303 JUMPI DUP1 PUSH4 0x40C10F19 EQ PUSH2 0x367 JUMPI PUSH2 0x116 JUMP JUMPDEST DUP1 PUSH4 0x5D2035B EQ PUSH2 0x11B JUMPI DUP1 PUSH4 0x6FDDE03 EQ PUSH2 0x13B JUMPI DUP1 PUSH4 0x95EA7B3 EQ PUSH2 0x1BE JUMPI DUP1 PUSH4 0x18160DDD EQ PUSH2 0x222 JUMPI JUMPDEST PUSH1 0x0 DUP1 REVERT JUMPDEST PUSH2 0x123 PUSH2 0x65C JUMP JUMPDEST PUSH1 0x40 MLOAD DUP1 DUP3 ISZERO ISZERO DUP2 MSTORE PUSH1 0x20 ADD SWAP2 POP POP PUSH1 0x40 MLOAD DUP1 SWAP2 SUB SWAP1 RETURN JUMPDEST PUSH2 0x143 PUSH2 0x673 JUMP JUMPDEST PUSH1 0x40 MLOAD DUP1 DUP1 PUSH1 0x20 ADD DUP3 DUP2 SUB DUP3 MSTORE DUP4 DUP2 DUP2 MLOAD DUP2 MSTORE PUSH1 0x20 ADD SWAP2 POP DUP1 MLOAD SWAP1 PUSH1 0x20 ADD SWAP1 DUP1 DUP4 DUP4 PUSH1 0x0 JUMPDEST DUP4 DUP2 LT ISZERO PUSH2 0x183 JUMPI DUP1 DUP3 ADD MLOAD DUP2 DUP5 ADD MSTORE PUSH1 0x20 DUP2 ADD SWAP1 POP PUSH2 0x168 JUMP JUMPDEST POP POP POP POP SWAP1 POP SWAP1 DUP2 ADD SWAP1 PUSH1 0x1F AND DUP1 ISZERO PUSH2 0x1B0 JUMPI DUP1 DUP3 SUB DUP1 MLOAD PUSH1 0x1 DUP4 PUSH1 0x20 SUB PUSH2 0x100 EXP SUB NOT AND DUP2 MSTORE PUSH1 0x20 ADD SWAP2 POP JUMPDEST POP SWAP3 POP POP POP PUSH1 0x40 MLOAD DUP1 SWAP2 SUB SWAP1 RETURN JUMPDEST PUSH2 0x20A PUSH1 0x4 DUP1 CALLDATASIZE SUB PUSH1 0x40 DUP2 LT ISZERO PUSH2 0x1D4 JUMPI PUSH1 0x0 DUP1 REVERT JUMPDEST DUP2 ADD SWAP1 DUP1 DUP1 CALLDATALOAD PUSH20 0xFFFFFFFFFFFFFFFFFFFFFFFFFFFFFFFFFFFFFFFF AND SWAP1 PUSH1 0x20 ADD SWAP1 SWAP3 SWAP2 SWAP1 DUP1 CALLDATALOAD SWAP1 PUSH1 0x20 ADD SWAP1 SWAP3 SWAP2 SWAP1 POP POP POP PUSH2 0x715 JUMP JUMPDEST PUSH1 0x40 MLOAD DUP1 DUP3 ISZERO ISZERO DUP2 MSTORE PUSH1 0x20 ADD SWAP2 POP POP PUSH1 0x40 MLOAD DUP1 SWAP2 SUB SWAP1 RETURN JUMPDEST PUSH2 0x22A PUSH2 0x733 JUMP JUMPDEST PUSH1 0x40 MLOAD DUP1 DUP3 DUP2 MSTORE PUSH1 0x20 ADD SWAP2 POP POP PUSH1 0x40 MLOAD DUP1 SWAP2 SUB SWAP1 RETURN JUMPDEST PUSH2 0x2AC PUSH1 0x4 DUP1 CALLDATASIZE SUB PUSH1 0x60 DUP2 LT ISZERO PUSH2 0x256 JUMPI PUSH1 0x0 DUP1 REVERT JUMPDEST DUP2 ADD SWAP1 DUP1 DUP1 CALLDATALOAD PUSH20 0xFFFFFFFFFFFFFFFFFFFFFFFFFFFFFFFFFFFFFFFF AND SWAP1 PUSH1 0x20 ADD SWAP1 SWAP3 SWAP2 SWAP1 DUP1 CALLDATALOAD PUSH20 0xFFFFFFFFFFFFFFFFFFFFFFFFFFFFFFFFFFFFFFFF AND SWAP1 PUSH1 0x20 ADD SWAP1 SWAP3 SWAP2 SWAP1 DUP1 CALLDATALOAD SWAP1 PUSH1 0x20 ADD SWAP1 SWAP3 SWAP2 SWAP1 POP POP POP PUSH2 0x73D JUMP JUMPDEST PUSH1 0x40 MLOAD DUP1 DUP3 ISZERO ISZERO DUP2 MSTORE PUSH1 0x20 ADD SWAP2 POP POP PUSH1 0x40 MLOAD DUP1 SWAP2 SUB SWAP1 RETURN JUMPDEST PUSH2 0x2CC PUSH2 0x816 JUMP JUMPDEST PUSH1 0x40 MLOAD DUP1 DUP3 PUSH1 0xFF AND DUP2 MSTORE PUSH1 0x20 ADD SWAP2 POP POP PUSH1 0x40 MLOAD DUP1 SWAP2 SUB SWAP1 RETURN JUMPDEST PUSH2 0x2ED PUSH2 0x82D JUMP JUMPDEST PUSH1 0x40 MLOAD DUP1 DUP3 DUP2 MSTORE PUSH1 0x20 ADD SWAP2 POP POP PUSH1 0x40 MLOAD DUP1 SWAP2 SUB SWAP1 RETURN JUMPDEST PUSH2 0x34F PUSH1 0x4 DUP1 CALLDATASIZE SUB PUSH1 0x40 DUP2 LT ISZERO PUSH2 0x319 JUMPI PUSH1 0x0 DUP1 REVERT JUMPDEST DUP2 ADD SWAP1 DUP1 DUP1 CALLDATALOAD PUSH20 0xFFFFFFFFFFFFFFFFFFFFFFFFFFFFFFFFFFFFFFFF AND SWAP1 PUSH1 0x20 ADD SWAP1 SWAP3 SWAP2 SWAP1 DUP1 CALLDATALOAD SWAP1 PUSH1 0x20 ADD SWAP1 SWAP3 SWAP2 SWAP1 POP POP POP PUSH2 0x837 JUMP JUMPDEST PUSH1 0x40 MLOAD DUP1 DUP3 ISZERO ISZERO DUP2 MSTORE PUSH1 0x20 ADD SWAP2 POP POP PUSH1 0x40 MLOAD DUP1 SWAP2 SUB SWAP1 RETURN JUMPDEST PUSH2 0x3B3 PUSH1 0x4 DUP1 CALLDATASIZE SUB PUSH1 0x40 DUP2 LT ISZERO PUSH2 0x37D JUMPI PUSH1 0x0 DUP1 REVERT JUMPDEST DUP2 ADD SWAP1 DUP1 DUP1 CALLDATALOAD PUSH20 0xFFFFFFFFFFFFFFFFFFFFFFFFFFFFFFFFFFFFFFFF AND SWAP1 PUSH1 0x20 ADD SWAP1 SWAP3 SWAP2 SWAP1 DUP1 CALLDATALOAD SWAP1 PUSH1 0x20 ADD SWAP1 SWAP3 SWAP2 SWAP1 POP POP POP PUSH2 0x8EA JUMP JUMPDEST STOP JUMPDEST PUSH2 0x3F7 PUSH1 0x4 DUP1 CALLDATASIZE SUB PUSH1 0x20 DUP2 LT ISZERO PUSH2 0x3CB JUMPI PUSH1 0x0 DUP1 REVERT JUMPDEST DUP2 ADD SWAP1 DUP1 DUP1 CALLDATALOAD PUSH20 0xFFFFFFFFFFFFFFFFFFFFFFFFFFFFFFFFFFFFFFFF AND SWAP1 PUSH1 0x20 ADD SWAP1 SWAP3 SWAP2 SWAP1 POP POP POP PUSH2 0x95E JUMP JUMPDEST PUSH1 0x40 MLOAD DUP1 DUP3 DUP2 MSTORE PUSH1 0x20 ADD SWAP2 POP POP PUSH1 0x40 MLOAD DUP1 SWAP2 SUB SWAP1 RETURN JUMPDEST PUSH2 0x415 PUSH2 0x9A6 JUMP JUMPDEST STOP JUMPDEST PUSH2 0x41F PUSH2 0xB31 JUMP JUMPDEST STOP JUMPDEST PUSH2 0x429 PUSH2 0xBA1 JUMP JUMPDEST PUSH1 0x40 MLOAD DUP1 DUP3 PUSH20 0xFFFFFFFFFFFFFFFFFFFFFFFFFFFFFFFFFFFFFFFF AND DUP2 MSTORE PUSH1 0x20 ADD SWAP2 POP POP PUSH1 0x40 MLOAD DUP1 SWAP2 SUB SWAP1 RETURN JUMPDEST PUSH2 0x45D PUSH2 0xBCB JUMP JUMPDEST PUSH1 0x40 MLOAD DUP1 DUP1 PUSH1 0x20 ADD DUP3 DUP2 SUB DUP3 MSTORE DUP4 DUP2 DUP2 MLOAD DUP2 MSTORE PUSH1 0x20 ADD SWAP2 POP DUP1 MLOAD SWAP1 PUSH1 0x20 ADD SWAP1 DUP1 DUP4 DUP4 PUSH1 0x0 JUMPDEST DUP4 DUP2 LT ISZERO PUSH2 0x49D JUMPI DUP1 DUP3 ADD MLOAD DUP2 DUP5 ADD MSTORE PUSH1 0x20 DUP2 ADD SWAP1 POP PUSH2 0x482 JUMP JUMPDEST POP POP POP POP SWAP1 POP SWAP1 DUP2 ADD SWAP1 PUSH1 0x1F AND DUP1 ISZERO PUSH2 0x4CA JUMPI DUP1 DUP3 SUB DUP1 MLOAD PUSH1 0x1 DUP4 PUSH1 0x20 SUB PUSH2 0x100 EXP SUB NOT AND DUP2 MSTORE PUSH1 0x20 ADD SWAP2 POP JUMPDEST POP SWAP3 POP POP POP PUSH1 0x40 MLOAD DUP1 SWAP2 SUB SWAP1 RETURN JUMPDEST PUSH2 0x524 PUSH1 0x4 DUP1 CALLDATASIZE SUB PUSH1 0x40 DUP2 LT ISZERO PUSH2 0x4EE JUMPI PUSH1 0x0 DUP1 REVERT JUMPDEST DUP2 ADD SWAP1 DUP1 DUP1 CALLDATALOAD PUSH20 0xFFFFFFFFFFFFFFFFFFFFFFFFFFFFFFFFFFFFFFFF AND SWAP1 PUSH1 0x20 ADD SWAP1 SWAP3 SWAP2 SWAP1 DUP1 CALLDATALOAD SWAP1 PUSH1 0x20 ADD SWAP1 SWAP3 SWAP2 SWAP1 POP POP POP PUSH2 0xC6D JUMP JUMPDEST PUSH1 0x40 MLOAD DUP1 DUP3 ISZERO ISZERO DUP2 MSTORE PUSH1 0x20 ADD SWAP2 POP POP PUSH1 0x40 MLOAD DUP1 SWAP2 SUB SWAP1 RETURN JUMPDEST PUSH2 0x588 PUSH1 0x4 DUP1 CALLDATASIZE SUB PUSH1 0x40 DUP2 LT ISZERO PUSH2 0x552 JUMPI PUSH1 0x0 DUP1 REVERT JUMPDEST DUP2 ADD SWAP1 DUP1 DUP1 CALLDATALOAD PUSH20 0xFFFFFFFFFFFFFFFFFFFFFFFFFFFFFFFFFFFFFFFF AND SWAP1 PUSH1 0x20 ADD SWAP1 SWAP3 SWAP2 SWAP1 DUP1 CALLDATALOAD SWAP1 PUSH1 0x20 ADD SWAP1 SWAP3 SWAP2 SWAP1 POP POP POP PUSH2 0xD3A JUMP JUMPDEST PUSH1 0x40 MLOAD DUP1 DUP3 ISZERO ISZERO DUP2 MSTORE PUSH1 0x20 ADD SWAP2 POP POP PUSH1 0x40 MLOAD DUP1 SWAP2 SUB SWAP1 RETURN JUMPDEST PUSH2 0x602 PUSH1 0x4 DUP1 CALLDATASIZE SUB PUSH1 0x40 DUP2 LT ISZERO PUSH2 0x5B6 JUMPI PUSH1 0x0 DUP1 REVERT JUMPDEST DUP2 ADD SWAP1 DUP1 DUP1 CALLDATALOAD PUSH20 0xFFFFFFFFFFFFFFFFFFFFFFFFFFFFFFFFFFFFFFFF AND SWAP1 PUSH1 0x20 ADD SWAP1 SWAP3 SWAP2 SWAP1 DUP1 CALLDATALOAD PUSH20 0xFFFFFFFFFFFFFFFFFFFFFFFFFFFFFFFFFFFFFFFF AND SWAP1 PUSH1 0x20 ADD SWAP1 SWAP3 SWAP2 SWAP1 POP POP POP PUSH2 0xD58 JUMP JUMPDEST PUSH1 0x40 MLOAD DUP1 DUP3 DUP2 MSTORE PUSH1 0x20 ADD SWAP2 POP POP PUSH1 0x40 MLOAD DUP1 SWAP2 SUB SWAP1 RETURN JUMPDEST PUSH2 0x65A PUSH1 0x4 DUP1 CALLDATASIZE SUB PUSH1 0x20 DUP2 LT ISZERO PUSH2 0x62E JUMPI PUSH1 0x0 DUP1 REVERT JUMPDEST DUP2 ADD SWAP1 DUP1 DUP1 CALLDATALOAD PUSH20 0xFFFFFFFFFFFFFFFFFFFFFFFFFFFFFFFFFFFFFFFF AND SWAP1 PUSH1 0x20 ADD SWAP1 SWAP3 SWAP2 SWAP1 POP POP POP PUSH2 0xDDF JUMP JUMPDEST STOP JUMPDEST PUSH1 0x0 PUSH1 0x7 PUSH1 0x0 SWAP1 SLOAD SWAP1 PUSH2 0x100 EXP SWAP1 DIV PUSH1 0xFF AND SWAP1 POP SWAP1 JUMP JUMPDEST PUSH1 0x60 PUSH1 0x3 DUP1 SLOAD PUSH1 0x1 DUP2 PUSH1 0x1 AND ISZERO PUSH2 0x100 MUL SUB AND PUSH1 0x2 SWAP1 DIV DUP1 PUSH1 0x1F ADD PUSH1 0x20 DUP1 SWAP2 DIV MUL PUSH1 0x20 ADD PUSH1 0x40 MLOAD SWAP1 DUP2 ADD PUSH1 0x40 MSTORE DUP1 SWAP3 SWAP2 SWAP1 DUP2 DUP2 MSTORE PUSH1 0x20 ADD DUP3 DUP1 SLOAD PUSH1 0x1 DUP2 PUSH1 0x1 AND ISZERO PUSH2 0x100 MUL SUB AND PUSH1 0x2 SWAP1 DIV DUP1 ISZERO PUSH2 0x70B JUMPI DUP1 PUSH1 0x1F LT PUSH2 0x6E0 JUMPI PUSH2 0x100 DUP1 DUP4 SLOAD DIV MUL DUP4 MSTORE SWAP2 PUSH1 0x20 ADD SWAP2 PUSH2 0x70B JUMP JUMPDEST DUP3 ADD SWAP2 SWAP1 PUSH1 0x0 MSTORE PUSH1 0x20 PUSH1 0x0 KECCAK256 SWAP1 JUMPDEST DUP2 SLOAD DUP2 MSTORE SWAP1 PUSH1 0x1 ADD SWAP1 PUSH1 0x20 ADD DUP1 DUP4 GT PUSH2 0x6EE JUMPI DUP3 SWAP1 SUB PUSH1 0x1F AND DUP3 ADD SWAP2 JUMPDEST POP POP POP POP POP SWAP1 POP SWAP1 JUMP JUMPDEST PUSH1 0x0 PUSH2 0x729 PUSH2 0x722 PUSH2 0x131A JUMP JUMPDEST DUP5 DUP5 PUSH2 0x1322 JUMP JUMPDEST PUSH1 0x1 SWAP1 POP SWAP3 SWAP2 POP POP JUMP JUMPDEST PUSH1 0x0 PUSH1 0x2 SLOAD SWAP1 POP SWAP1 JUMP JUMPDEST PUSH1 0x0 PUSH2 0x74A DUP5 DUP5 DUP5 PUSH2 0x1519 JUMP JUMPDEST PUSH2 0x80B DUP5 PUSH2 0x756 PUSH2 0x131A JUMP JUMPDEST PUSH2 0x806 DUP6 PUSH1 0x40 MLOAD DUP1 PUSH1 0x60 ADD PUSH1 0x40 MSTORE DUP1 PUSH1 0x28 DUP2 MSTORE PUSH1 0x20 ADD PUSH2 0x1B31 PUSH1 0x28 SWAP2 CODECOPY PUSH1 0x1 PUSH1 0x0 DUP12 PUSH20 0xFFFFFFFFFFFFFFFFFFFFFFFFFFFFFFFFFFFFFFFF AND PUSH20 0xFFFFFFFFFFFFFFFFFFFFFFFFFFFFFFFFFFFFFFFF AND DUP2 MSTORE PUSH1 0x20 ADD SWAP1 DUP2 MSTORE PUSH1 0x20 ADD PUSH1 0x0 KECCAK256 PUSH1 0x0 PUSH2 0x7BC PUSH2 0x131A JUMP JUMPDEST PUSH20 0xFFFFFFFFFFFFFFFFFFFFFFFFFFFFFFFFFFFFFFFF AND PUSH20 0xFFFFFFFFFFFFFFFFFFFFFFFFFFFFFFFFFFFFFFFF AND DUP2 MSTORE PUSH1 0x20 ADD SWAP1 DUP2 MSTORE PUSH1 0x20 ADD PUSH1 0x0 KECCAK256 SLOAD PUSH2 0x17DA SWAP1 SWAP3 SWAP2 SWAP1 PUSH4 0xFFFFFFFF AND JUMP JUMPDEST PUSH2 0x1322 JUMP JUMPDEST PUSH1 0x1 SWAP1 POP SWAP4 SWAP3 POP POP POP JUMP JUMPDEST PUSH1 0x0 PUSH1 0x5 PUSH1 0x0 SWAP1 SLOAD SWAP1 PUSH2 0x100 EXP SWAP1 DIV PUSH1 0xFF AND SWAP1 POP SWAP1 JUMP JUMPDEST PUSH1 0x0 PUSH1 0x6 SLOAD SWAP1 POP SWAP1 JUMP JUMPDEST PUSH1 0x0 PUSH2 0x8E0 PUSH2 0x844 PUSH2 0x131A JUMP JUMPDEST DUP5 PUSH2 0x8DB DUP6 PUSH1 0x1 PUSH1 0x0 PUSH2 0x855 PUSH2 0x131A JUMP JUMPDEST PUSH20 0xFFFFFFFFFFFFFFFFFFFFFFFFFFFFFFFFFFFFFFFF AND PUSH20 0xFFFFFFFFFFFFFFFFFFFFFFFFFFFFFFFFFFFFFFFF AND DUP2 MSTORE PUSH1 0x20 ADD SWAP1 DUP2 MSTORE PUSH1 0x20 ADD PUSH1 0x0 KECCAK256 PUSH1 0x0 DUP10 PUSH20 0xFFFFFFFFFFFFFFFFFFFFFFFFFFFFFFFFFFFFFFFF AND PUSH20 0xFFFFFFFFFFFFFFFFFFFFFFFFFFFFFFFFFFFFFFFF AND DUP2 MSTORE PUSH1 0x20 ADD SWAP1 DUP2 MSTORE PUSH1 0x20 ADD PUSH1 0x0 KECCAK256 SLOAD PUSH2 0x11B6 SWAP1 SWAP2 SWAP1 PUSH4 0xFFFFFFFF AND JUMP JUMPDEST PUSH2 0x1322 JUMP JUMPDEST PUSH1 0x1 SWAP1 POP SWAP3 SWAP2 POP POP JUMP JUMPDEST PUSH1 0x7 PUSH1 0x0 SWAP1 SLOAD SWAP1 PUSH2 0x100 EXP SWAP1 DIV PUSH1 0xFF AND ISZERO PUSH2 0x950 JUMPI PUSH1 0x40 MLOAD PUSH32 0x8C379A000000000000000000000000000000000000000000000000000000000 DUP2 MSTORE PUSH1 0x4 ADD DUP1 DUP1 PUSH1 0x20 ADD DUP3 DUP2 SUB DUP3 MSTORE PUSH1 0x22 DUP2 MSTORE PUSH1 0x20 ADD DUP1 PUSH2 0x1BA2 PUSH1 0x22 SWAP2 CODECOPY PUSH1 0x40 ADD SWAP2 POP POP PUSH1 0x40 MLOAD DUP1 SWAP2 SUB SWAP1 REVERT JUMPDEST PUSH2 0x95A DUP3 DUP3 PUSH2 0x189A JUMP JUMPDEST POP POP JUMP JUMPDEST PUSH1 0x0 DUP1 PUSH1 0x0 DUP4 PUSH20 0xFFFFFFFFFFFFFFFFFFFFFFFFFFFFFFFFFFFFFFFF AND PUSH20 0xFFFFFFFFFFFFFFFFFFFFFFFFFFFFFFFFFFFFFFFF AND DUP2 MSTORE PUSH1 0x20 ADD SWAP1 DUP2 MSTORE PUSH1 0x20 ADD PUSH1 0x0 KECCAK256 SLOAD SWAP1 POP SWAP2 SWAP1 POP JUMP JUMPDEST PUSH2 0x9AE PUSH2 0x131A JUMP JUMPDEST PUSH20 0xFFFFFFFFFFFFFFFFFFFFFFFFFFFFFFFFFFFFFFFF AND PUSH1 0x7 PUSH1 0x1 SWAP1 SLOAD SWAP1 PUSH2 0x100 EXP SWAP1 DIV PUSH20 0xFFFFFFFFFFFFFFFFFFFFFFFFFFFFFFFFFFFFFFFF AND PUSH20 0xFFFFFFFFFFFFFFFFFFFFFFFFFFFFFFFFFFFFFFFF AND EQ PUSH2 0xA70 JUMPI PUSH1 0x40 MLOAD PUSH32 0x8C379A000000000000000000000000000000000000000000000000000000000 DUP2 MSTORE PUSH1 0x4 ADD DUP1 DUP1 PUSH1 0x20 ADD DUP3 DUP2 SUB DUP3 MSTORE PUSH1 0x20 DUP2 MSTORE PUSH1 0x20 ADD DUP1 PUSH32 0x4F776E61626C653A2063616C6C6572206973206E6F7420746865206F776E6572 DUP2 MSTORE POP PUSH1 0x20 ADD SWAP2 POP POP PUSH1 0x40 MLOAD DUP1 SWAP2 SUB SWAP1 REVERT JUMPDEST PUSH1 0x0 PUSH20 0xFFFFFFFFFFFFFFFFFFFFFFFFFFFFFFFFFFFFFFFF AND PUSH1 0x7 PUSH1 0x1 SWAP1 SLOAD SWAP1 PUSH2 0x100 EXP SWAP1 DIV PUSH20 0xFFFFFFFFFFFFFFFFFFFFFFFFFFFFFFFFFFFFFFFF AND PUSH20 0xFFFFFFFFFFFFFFFFFFFFFFFFFFFFFFFFFFFFFFFF AND PUSH32 0x8BE0079C531659141344CD1FD0A4F28419497F9722A3DAAFE3B4186F6B6457E0 PUSH1 0x40 MLOAD PUSH1 0x40 MLOAD DUP1 SWAP2 SUB SWAP1 LOG3 PUSH1 0x0 PUSH1 0x7 PUSH1 0x1 PUSH2 0x100 EXP DUP2 SLOAD DUP2 PUSH20 0xFFFFFFFFFFFFFFFFFFFFFFFFFFFFFFFFFFFFFFFF MUL NOT AND SWAP1 DUP4 PUSH20 0xFFFFFFFFFFFFFFFFFFFFFFFFFFFFFFFFFFFFFFFF AND MUL OR SWAP1 SSTORE POP JUMP JUMPDEST PUSH1 0x7 PUSH1 0x0 SWAP1 SLOAD SWAP1 PUSH2 0x100 EXP SWAP1 DIV PUSH1 0xFF AND ISZERO PUSH2 0xB97 JUMPI PUSH1 0x40 MLOAD PUSH32 0x8C379A000000000000000000000000000000000000000000000000000000000 DUP2 MSTORE PUSH1 0x4 ADD DUP1 DUP1 PUSH1 0x20 ADD DUP3 DUP2 SUB DUP3 MSTORE PUSH1 0x22 DUP2 MSTORE PUSH1 0x20 ADD DUP1 PUSH2 0x1BA2 PUSH1 0x22 SWAP2 CODECOPY PUSH1 0x40 ADD SWAP2 POP POP PUSH1 0x40 MLOAD DUP1 SWAP2 SUB SWAP1 REVERT JUMPDEST PUSH2 0xB9F PUSH2 0x1972 JUMP JUMPDEST JUMP JUMPDEST PUSH1 0x0 PUSH1 0x7 PUSH1 0x1 SWAP1 SLOAD SWAP1 PUSH2 0x100 EXP SWAP1 DIV PUSH20 0xFFFFFFFFFFFFFFFFFFFFFFFFFFFFFFFFFFFFFFFF AND SWAP1 POP SWAP1 JUMP JUMPDEST PUSH1 0x60 PUSH1 0x4 DUP1 SLOAD PUSH1 0x1 DUP2 PUSH1 0x1 AND ISZERO PUSH2 0x100 MUL SUB AND PUSH1 0x2 SWAP1 DIV DUP1 PUSH1 0x1F ADD PUSH1 0x20 DUP1 SWAP2 DIV MUL PUSH1 0x20 ADD PUSH1 0x40 MLOAD SWAP1 DUP2 ADD PUSH1 0x40 MSTORE DUP1 SWAP3 SWAP2 SWAP1 DUP2 DUP2 MSTORE PUSH1 0x20 ADD DUP3 DUP1 SLOAD PUSH1 0x1 DUP2 PUSH1 0x1 AND ISZERO PUSH2 0x100 MUL SUB AND PUSH1 0x2 SWAP1 DIV DUP1 ISZERO PUSH2 0xC63 JUMPI DUP1 PUSH1 0x1F LT PUSH2 0xC38 JUMPI PUSH2 0x100 DUP1 DUP4 SLOAD DIV MUL DUP4 MSTORE SWAP2 PUSH1 0x20 ADD SWAP2 PUSH2 0xC63 JUMP JUMPDEST DUP3 ADD SWAP2 SWAP1 PUSH1 0x0 MSTORE PUSH1 0x20 PUSH1 0x0 KECCAK256 SWAP1 JUMPDEST DUP2 SLOAD DUP2 MSTORE SWAP1 PUSH1 0x1 ADD SWAP1 PUSH1 0x20 ADD DUP1 DUP4 GT PUSH2 0xC46 JUMPI DUP3 SWAP1 SUB PUSH1 0x1F AND DUP3 ADD SWAP2 JUMPDEST POP POP POP POP POP SWAP1 POP SWAP1 JUMP JUMPDEST PUSH1 0x0 PUSH2 0xD30 PUSH2 0xC7A PUSH2 0x131A JUMP JUMPDEST DUP5 PUSH2 0xD2B DUP6 PUSH1 0x40 MLOAD DUP1 PUSH1 0x60 ADD PUSH1 0x40 MSTORE DUP1 PUSH1 0x25 DUP2 MSTORE PUSH1 0x20 ADD PUSH2 0x1BC4 PUSH1 0x25 SWAP2 CODECOPY PUSH1 0x1 PUSH1 0x0 PUSH2 0xCA4 PUSH2 0x131A JUMP JUMPDEST PUSH20 0xFFFFFFFFFFFFFFFFFFFFFFFFFFFFFFFFFFFFFFFF AND PUSH20 0xFFFFFFFFFFFFFFFFFFFFFFFFFFFFFFFFFFFFFFFF AND DUP2 MSTORE PUSH1 0x20 ADD SWAP1 DUP2 MSTORE PUSH1 0x20 ADD PUSH1 0x0 KECCAK256 PUSH1 0x0 DUP11 PUSH20 0xFFFFFFFFFFFFFFFFFFFFFFFFFFFFFFFFFFFFFFFF AND PUSH20 0xFFFFFFFFFFFFFFFFFFFFFFFFFFFFFFFFFFFFFFFF AND DUP2 MSTORE PUSH1 0x20 ADD SWAP1 DUP2 MSTORE PUSH1 0x20 ADD PUSH1 0x0 KECCAK256 SLOAD PUSH2 0x17DA SWAP1 SWAP3 SWAP2 SWAP1 PUSH4 0xFFFFFFFF AND JUMP JUMPDEST PUSH2 0x1322 JUMP JUMPDEST PUSH1 0x1 SWAP1 POP SWAP3 SWAP2 POP POP JUMP JUMPDEST PUSH1 0x0 PUSH2 0xD4E PUSH2 0xD47 PUSH2 0x131A JUMP JUMPDEST DUP5 DUP5 PUSH2 0x1519 JUMP JUMPDEST PUSH1 0x1 SWAP1 POP SWAP3 SWAP2 POP POP JUMP JUMPDEST PUSH1 0x0 PUSH1 0x1 PUSH1 0x0 DUP5 PUSH20 0xFFFFFFFFFFFFFFFFFFFFFFFFFFFFFFFFFFFFFFFF AND PUSH20 0xFFFFFFFFFFFFFFFFFFFFFFFFFFFFFFFFFFFFFFFF AND DUP2 MSTORE PUSH1 0x20 ADD SWAP1 DUP2 MSTORE PUSH1 0x20 ADD PUSH1 0x0 KECCAK256 PUSH1 0x0 DUP4 PUSH20 0xFFFFFFFFFFFFFFFFFFFFFFFFFFFFFFFFFFFFFFFF AND PUSH20 0xFFFFFFFFFFFFFFFFFFFFFFFFFFFFFFFFFFFFFFFF AND DUP2 MSTORE PUSH1 0x20 ADD SWAP1 DUP2 MSTORE PUSH1 0x20 ADD PUSH1 0x0 KECCAK256 SLOAD SWAP1 POP SWAP3 SWAP2 POP POP JUMP JUMPDEST PUSH2 0xDE7 PUSH2 0x131A JUMP JUMPDEST PUSH20 0xFFFFFFFFFFFFFFFFFFFFFFFFFFFFFFFFFFFFFFFF AND PUSH1 0x7 PUSH1 0x1 SWAP1 SLOAD SWAP1 PUSH2 0x100 EXP SWAP1 DIV PUSH20 0xFFFFFFFFFFFFFFFFFFFFFFFFFFFFFFFFFFFFFFFF AND PUSH20 0xFFFFFFFFFFFFFFFFFFFFFFFFFFFFFFFFFFFFFFFF AND EQ PUSH2 0xEA9 JUMPI PUSH1 0x40 MLOAD PUSH32 0x8C379A000000000000000000000000000000000000000000000000000000000 DUP2 MSTORE PUSH1 0x4 ADD DUP1 DUP1 PUSH1 0x20 ADD DUP3 DUP2 SUB DUP3 MSTORE PUSH1 0x20 DUP2 MSTORE PUSH1 0x20 ADD DUP1 PUSH32 0x4F776E61626C653A2063616C6C6572206973206E6F7420746865206F776E6572 DUP2 MSTORE POP PUSH1 0x20 ADD SWAP2 POP POP PUSH1 0x40 MLOAD DUP1 SWAP2 SUB SWAP1 REVERT JUMPDEST PUSH1 0x0 PUSH20 0xFFFFFFFFFFFFFFFFFFFFFFFFFFFFFFFFFFFFFFFF AND DUP2 PUSH20 0xFFFFFFFFFFFFFFFFFFFFFFFFFFFFFFFFFFFFFFFF AND EQ ISZERO PUSH2 0xF2F JUMPI PUSH1 0x40 MLOAD PUSH32 0x8C379A000000000000000000000000000000000000000000000000000000000 DUP2 MSTORE PUSH1 0x4 ADD DUP1 DUP1 PUSH1 0x20 ADD DUP3 DUP2 SUB DUP3 MSTORE PUSH1 0x26 DUP2 MSTORE PUSH1 0x20 ADD DUP1 PUSH2 0x1AC3 PUSH1 0x26 SWAP2 CODECOPY PUSH1 0x40 ADD SWAP2 POP POP PUSH1 0x40 MLOAD DUP1 SWAP2 SUB SWAP1 REVERT JUMPDEST DUP1 PUSH20 0xFFFFFFFFFFFFFFFFFFFFFFFFFFFFFFFFFFFFFFFF AND PUSH1 0x7 PUSH1 0x1 SWAP1 SLOAD SWAP1 PUSH2 0x100 EXP SWAP1 DIV PUSH20 0xFFFFFFFFFFFFFFFFFFFFFFFFFFFFFFFFFFFFFFFF AND PUSH20 0xFFFFFFFFFFFFFFFFFFFFFFFFFFFFFFFFFFFFFFFF AND PUSH32 0x8BE0079C531659141344CD1FD0A4F28419497F9722A3DAAFE3B4186F6B6457E0 PUSH1 0x40 MLOAD PUSH1 0x40 MLOAD DUP1 SWAP2 SUB SWAP1 LOG3 DUP1 PUSH1 0x7 PUSH1 0x1 PUSH2 0x100 EXP DUP2 SLOAD DUP2 PUSH20 0xFFFFFFFFFFFFFFFFFFFFFFFFFFFFFFFFFFFFFFFF MUL NOT AND SWAP1 DUP4 PUSH20 0xFFFFFFFFFFFFFFFFFFFFFFFFFFFFFFFFFFFFFFFF AND MUL OR SWAP1 SSTORE POP POP JUMP JUMPDEST PUSH1 0x0 PUSH20 0xFFFFFFFFFFFFFFFFFFFFFFFFFFFFFFFFFFFFFFFF AND DUP3 PUSH20 0xFFFFFFFFFFFFFFFFFFFFFFFFFFFFFFFFFFFFFFFF AND EQ ISZERO PUSH2 0x1092 JUMPI PUSH1 0x40 MLOAD PUSH32 0x8C379A000000000000000000000000000000000000000000000000000000000 DUP2 MSTORE PUSH1 0x4 ADD DUP1 DUP1 PUSH1 0x20 ADD DUP3 DUP2 SUB DUP3 MSTORE PUSH1 0x1F DUP2 MSTORE PUSH1 0x20 ADD DUP1 PUSH32 0x45524332303A206D696E7420746F20746865207A65726F206164647265737300 DUP2 MSTORE POP PUSH1 0x20 ADD SWAP2 POP POP PUSH1 0x40 MLOAD DUP1 SWAP2 SUB SWAP1 REVERT JUMPDEST PUSH2 0x109E PUSH1 0x0 DUP4 DUP4 PUSH2 0x1A46 JUMP JUMPDEST PUSH2 0x10B3 DUP2 PUSH1 0x2 SLOAD PUSH2 0x11B6 SWAP1 SWAP2 SWAP1 PUSH4 0xFFFFFFFF AND JUMP JUMPDEST PUSH1 0x2 DUP2 SWAP1 SSTORE POP PUSH2 0x110A DUP2 PUSH1 0x0 DUP1 DUP6 PUSH20 0xFFFFFFFFFFFFFFFFFFFFFFFFFFFFFFFFFFFFFFFF AND PUSH20 0xFFFFFFFFFFFFFFFFFFFFFFFFFFFFFFFFFFFFFFFF AND DUP2 MSTORE PUSH1 0x20 ADD SWAP1 DUP2 MSTORE PUSH1 0x20 ADD PUSH1 0x0 KECCAK256 SLOAD PUSH2 0x11B6 SWAP1 SWAP2 SWAP1 PUSH4 0xFFFFFFFF AND JUMP JUMPDEST PUSH1 0x0 DUP1 DUP5 PUSH20 0xFFFFFFFFFFFFFFFFFFFFFFFFFFFFFFFFFFFFFFFF AND PUSH20 0xFFFFFFFFFFFFFFFFFFFFFFFFFFFFFFFFFFFFFFFF AND DUP2 MSTORE PUSH1 0x20 ADD SWAP1 DUP2 MSTORE PUSH1 0x20 ADD PUSH1 0x0 KECCAK256 DUP2 SWAP1 SSTORE POP DUP2 PUSH20 0xFFFFFFFFFFFFFFFFFFFFFFFFFFFFFFFFFFFFFFFF AND PUSH1 0x0 PUSH20 0xFFFFFFFFFFFFFFFFFFFFFFFFFFFFFFFFFFFFFFFF AND PUSH32 0xDDF252AD1BE2C89B69C2B068FC378DAA952BA7F163C4A11628F55A4DF523B3EF DUP4 PUSH1 0x40 MLOAD DUP1 DUP3 DUP2 MSTORE PUSH1 0x20 ADD SWAP2 POP POP PUSH1 0x40 MLOAD DUP1 SWAP2 SUB SWAP1 LOG3 POP POP JUMP JUMPDEST PUSH1 0x0 DUP1 DUP3 DUP5 ADD SWAP1 POP DUP4 DUP2 LT ISZERO PUSH2 0x1234 JUMPI PUSH1 0x40 MLOAD PUSH32 0x8C379A000000000000000000000000000000000000000000000000000000000 DUP2 MSTORE PUSH1 0x4 ADD DUP1 DUP1 PUSH1 0x20 ADD DUP3 DUP2 SUB DUP3 MSTORE PUSH1 0x1B DUP2 MSTORE PUSH1 0x20 ADD DUP1 PUSH32 0x536166654D6174683A206164646974696F6E206F766572666C6F770000000000 DUP2 MSTORE POP PUSH1 0x20 ADD SWAP2 POP POP PUSH1 0x40 MLOAD DUP1 SWAP2 SUB SWAP1 REVERT JUMPDEST DUP1 SWAP2 POP POP SWAP3 SWAP2 POP POP JUMP JUMPDEST PUSH2 0x1249 DUP4 DUP4 DUP4 PUSH2 0x1315 JUMP JUMPDEST PUSH1 0x0 PUSH20 0xFFFFFFFFFFFFFFFFFFFFFFFFFFFFFFFFFFFFFFFF AND DUP4 PUSH20 0xFFFFFFFFFFFFFFFFFFFFFFFFFFFFFFFFFFFFFFFF AND EQ ISZERO PUSH2 0x1310 JUMPI PUSH1 0x6 SLOAD PUSH2 0x129B DUP3 PUSH2 0x128D PUSH2 0x733 JUMP JUMPDEST PUSH2 0x11B6 SWAP1 SWAP2 SWAP1 PUSH4 0xFFFFFFFF AND JUMP JUMPDEST GT ISZERO PUSH2 0x130F JUMPI PUSH1 0x40 MLOAD PUSH32 0x8C379A000000000000000000000000000000000000000000000000000000000 DUP2 MSTORE PUSH1 0x4 ADD DUP1 DUP1 PUSH1 0x20 ADD DUP3 DUP2 SUB DUP3 MSTORE PUSH1 0x19 DUP2 MSTORE PUSH1 0x20 ADD DUP1 PUSH32 0x45524332304361707065643A2063617020657863656564656400000000000000 DUP2 MSTORE POP PUSH1 0x20 ADD SWAP2 POP POP PUSH1 0x40 MLOAD DUP1 SWAP2 SUB SWAP1 REVERT JUMPDEST JUMPDEST POP POP POP JUMP JUMPDEST POP POP POP JUMP JUMPDEST PUSH1 0x0 CALLER SWAP1 POP SWAP1 JUMP JUMPDEST PUSH1 0x0 PUSH20 0xFFFFFFFFFFFFFFFFFFFFFFFFFFFFFFFFFFFFFFFF AND DUP4 PUSH20 0xFFFFFFFFFFFFFFFFFFFFFFFFFFFFFFFFFFFFFFFF AND EQ ISZERO PUSH2 0x13A8 JUMPI PUSH1 0x40 MLOAD PUSH32 0x8C379A000000000000000000000000000000000000000000000000000000000 DUP2 MSTORE PUSH1 0x4 ADD DUP1 DUP1 PUSH1 0x20 ADD DUP3 DUP2 SUB DUP3 MSTORE PUSH1 0x24 DUP2 MSTORE PUSH1 0x20 ADD DUP1 PUSH2 0x1B7E PUSH1 0x24 SWAP2 CODECOPY PUSH1 0x40 ADD SWAP2 POP POP PUSH1 0x40 MLOAD DUP1 SWAP2 SUB SWAP1 REVERT JUMPDEST PUSH1 0x0 PUSH20 0xFFFFFFFFFFFFFFFFFFFFFFFFFFFFFFFFFFFFFFFF AND DUP3 PUSH20 0xFFFFFFFFFFFFFFFFFFFFFFFFFFFFFFFFFFFFFFFF AND EQ ISZERO PUSH2 0x142E JUMPI PUSH1 0x40 MLOAD PUSH32 0x8C379A000000000000000000000000000000000000000000000000000000000 DUP2 MSTORE PUSH1 0x4 ADD DUP1 DUP1 PUSH1 0x20 ADD DUP3 DUP2 SUB DUP3 MSTORE PUSH1 0x22 DUP2 MSTORE PUSH1 0x20 ADD DUP1 PUSH2 0x1AE9 PUSH1 0x22 SWAP2 CODECOPY PUSH1 0x40 ADD SWAP2 POP POP PUSH1 0x40 MLOAD DUP1 SWAP2 SUB SWAP1 REVERT JUMPDEST DUP1 PUSH1 0x1 PUSH1 0x0 DUP6 PUSH20 0xFFFFFFFFFFFFFFFFFFFFFFFFFFFFFFFFFFFFFFFF AND PUSH20 0xFFFFFFFFFFFFFFFFFFFFFFFFFFFFFFFFFFFFFFFF AND DUP2 MSTORE PUSH1 0x20 ADD SWAP1 DUP2 MSTORE PUSH1 0x20 ADD PUSH1 0x0 KECCAK256 PUSH1 0x0 DUP5 PUSH20 0xFFFFFFFFFFFFFFFFFFFFFFFFFFFFFFFFFFFFFFFF AND PUSH20 0xFFFFFFFFFFFFFFFFFFFFFFFFFFFFFFFFFFFFFFFF AND DUP2 MSTORE PUSH1 0x20 ADD SWAP1 DUP2 MSTORE PUSH1 0x20 ADD PUSH1 0x0 KECCAK256 DUP2 SWAP1 SSTORE POP DUP2 PUSH20 0xFFFFFFFFFFFFFFFFFFFFFFFFFFFFFFFFFFFFFFFF AND DUP4 PUSH20 0xFFFFFFFFFFFFFFFFFFFFFFFFFFFFFFFFFFFFFFFF AND PUSH32 0x8C5BE1E5EBEC7D5BD14F71427D1E84F3DD0314C0F7B2291E5B200AC8C7C3B925 DUP4 PUSH1 0x40 MLOAD DUP1 DUP3 DUP2 MSTORE PUSH1 0x20 ADD SWAP2 POP POP PUSH1 0x40 MLOAD DUP1 SWAP2 SUB SWAP1 LOG3 POP POP POP JUMP JUMPDEST PUSH1 0x0 PUSH20 0xFFFFFFFFFFFFFFFFFFFFFFFFFFFFFFFFFFFFFFFF AND DUP4 PUSH20 0xFFFFFFFFFFFFFFFFFFFFFFFFFFFFFFFFFFFFFFFF AND EQ ISZERO PUSH2 0x159F JUMPI PUSH1 0x40 MLOAD PUSH32 0x8C379A000000000000000000000000000000000000000000000000000000000 DUP2 MSTORE PUSH1 0x4 ADD DUP1 DUP1 PUSH1 0x20 ADD DUP3 DUP2 SUB DUP3 MSTORE PUSH1 0x25 DUP2 MSTORE PUSH1 0x20 ADD DUP1 PUSH2 0x1B59 PUSH1 0x25 SWAP2 CODECOPY PUSH1 0x40 ADD SWAP2 POP POP PUSH1 0x40 MLOAD DUP1 SWAP2 SUB SWAP1 REVERT JUMPDEST PUSH1 0x0 PUSH20 0xFFFFFFFFFFFFFFFFFFFFFFFFFFFFFFFFFFFFFFFF AND DUP3 PUSH20 0xFFFFFFFFFFFFFFFFFFFFFFFFFFFFFFFFFFFFFFFF AND EQ ISZERO PUSH2 0x1625 JUMPI PUSH1 0x40 MLOAD PUSH32 0x8C379A000000000000000000000000000000000000000000000000000000000 DUP2 MSTORE PUSH1 0x4 ADD DUP1 DUP1 PUSH1 0x20 ADD DUP3 DUP2 SUB DUP3 MSTORE PUSH1 0x23 DUP2 MSTORE PUSH1 0x20 ADD DUP1 PUSH2 0x1AA0 PUSH1 0x23 SWAP2 CODECOPY PUSH1 0x40 ADD SWAP2 POP POP PUSH1 0x40 MLOAD DUP1 SWAP2 SUB SWAP1 REVERT JUMPDEST PUSH2 0x1630 DUP4 DUP4 DUP4 PUSH2 0x1A46 JUMP JUMPDEST PUSH2 0x169B DUP2 PUSH1 0x40 MLOAD DUP1 PUSH1 0x60 ADD PUSH1 0x40 MSTORE DUP1 PUSH1 0x26 DUP2 MSTORE PUSH1 0x20 ADD PUSH2 0x1B0B PUSH1 0x26 SWAP2 CODECOPY PUSH1 0x0 DUP1 DUP8 PUSH20 0xFFFFFFFFFFFFFFFFFFFFFFFFFFFFFFFFFFFFFFFF AND PUSH20 0xFFFFFFFFFFFFFFFFFFFFFFFFFFFFFFFFFFFFFFFF AND DUP2 MSTORE PUSH1 0x20 ADD SWAP1 DUP2 MSTORE PUSH1 0x20 ADD PUSH1 0x0 KECCAK256 SLOAD PUSH2 0x17DA SWAP1 SWAP3 SWAP2 SWAP1 PUSH4 0xFFFFFFFF AND JUMP JUMPDEST PUSH1 0x0 DUP1 DUP6 PUSH20 0xFFFFFFFFFFFFFFFFFFFFFFFFFFFFFFFFFFFFFFFF AND PUSH20 0xFFFFFFFFFFFFFFFFFFFFFFFFFFFFFFFFFFFFFFFF AND DUP2 MSTORE PUSH1 0x20 ADD SWAP1 DUP2 MSTORE PUSH1 0x20 ADD PUSH1 0x0 KECCAK256 DUP2 SWAP1 SSTORE POP PUSH2 0x172E DUP2 PUSH1 0x0 DUP1 DUP6 PUSH20 0xFFFFFFFFFFFFFFFFFFFFFFFFFFFFFFFFFFFFFFFF AND PUSH20 0xFFFFFFFFFFFFFFFFFFFFFFFFFFFFFFFFFFFFFFFF AND DUP2 MSTORE PUSH1 0x20 ADD SWAP1 DUP2 MSTORE PUSH1 0x20 ADD PUSH1 0x0 KECCAK256 SLOAD PUSH2 0x11B6 SWAP1 SWAP2 SWAP1 PUSH4 0xFFFFFFFF AND JUMP JUMPDEST PUSH1 0x0 DUP1 DUP5 PUSH20 0xFFFFFFFFFFFFFFFFFFFFFFFFFFFFFFFFFFFFFFFF AND PUSH20 0xFFFFFFFFFFFFFFFFFFFFFFFFFFFFFFFFFFFFFFFF AND DUP2 MSTORE PUSH1 0x20 ADD SWAP1 DUP2 MSTORE PUSH1 0x20 ADD PUSH1 0x0 KECCAK256 DUP2 SWAP1 SSTORE POP DUP2 PUSH20 0xFFFFFFFFFFFFFFFFFFFFFFFFFFFFFFFFFFFFFFFF AND DUP4 PUSH20 0xFFFFFFFFFFFFFFFFFFFFFFFFFFFFFFFFFFFFFFFF AND PUSH32 0xDDF252AD1BE2C89B69C2B068FC378DAA952BA7F163C4A11628F55A4DF523B3EF DUP4 PUSH1 0x40 MLOAD DUP1 DUP3 DUP2 MSTORE PUSH1 0x20 ADD SWAP2 POP POP PUSH1 0x40 MLOAD DUP1 SWAP2 SUB SWAP1 LOG3 POP POP POP JUMP JUMPDEST PUSH1 0x0 DUP4 DUP4 GT ISZERO DUP3 SWAP1 PUSH2 0x1887 JUMPI PUSH1 0x40 MLOAD PUSH32 0x8C379A000000000000000000000000000000000000000000000000000000000 DUP2 MSTORE PUSH1 0x4 ADD DUP1 DUP1 PUSH1 0x20 ADD DUP3 DUP2 SUB DUP3 MSTORE DUP4 DUP2 DUP2 MLOAD DUP2 MSTORE PUSH1 0x20 ADD SWAP2 POP DUP1 MLOAD SWAP1 PUSH1 0x20 ADD SWAP1 DUP1 DUP4 DUP4 PUSH1 0x0 JUMPDEST DUP4 DUP2 LT ISZERO PUSH2 0x184C JUMPI DUP1 DUP3 ADD MLOAD DUP2 DUP5 ADD MSTORE PUSH1 0x20 DUP2 ADD SWAP1 POP PUSH2 0x1831 JUMP JUMPDEST POP POP POP POP SWAP1 POP SWAP1 DUP2 ADD SWAP1 PUSH1 0x1F AND DUP1 ISZERO PUSH2 0x1879 JUMPI DUP1 DUP3 SUB DUP1 MLOAD PUSH1 0x1 DUP4 PUSH1 0x20 SUB PUSH2 0x100 EXP SUB NOT AND DUP2 MSTORE PUSH1 0x20 ADD SWAP2 POP JUMPDEST POP SWAP3 POP POP POP PUSH1 0x40 MLOAD DUP1 SWAP2 SUB SWAP1 REVERT JUMPDEST POP PUSH1 0x0 DUP4 DUP6 SUB SWAP1 POP DUP1 SWAP2 POP POP SWAP4 SWAP3 POP POP POP JUMP JUMPDEST PUSH2 0x18A2 PUSH2 0x131A JUMP JUMPDEST PUSH20 0xFFFFFFFFFFFFFFFFFFFFFFFFFFFFFFFFFFFFFFFF AND PUSH1 0x7 PUSH1 0x1 SWAP1 SLOAD SWAP1 PUSH2 0x100 EXP SWAP1 DIV PUSH20 0xFFFFFFFFFFFFFFFFFFFFFFFFFFFFFFFFFFFFFFFF AND PUSH20 0xFFFFFFFFFFFFFFFFFFFFFFFFFFFFFFFFFFFFFFFF AND EQ PUSH2 0x1964 JUMPI PUSH1 0x40 MLOAD PUSH32 0x8C379A000000000000000000000000000000000000000000000000000000000 DUP2 MSTORE PUSH1 0x4 ADD DUP1 DUP1 PUSH1 0x20 ADD DUP3 DUP2 SUB DUP3 MSTORE PUSH1 0x20 DUP2 MSTORE PUSH1 0x20 ADD DUP1 PUSH32 0x4F776E61626C653A2063616C6C6572206973206E6F7420746865206F776E6572 DUP2 MSTORE POP PUSH1 0x20 ADD SWAP2 POP POP PUSH1 0x40 MLOAD DUP1 SWAP2 SUB SWAP1 REVERT JUMPDEST PUSH2 0x196E DUP3 DUP3 PUSH2 0xFEF JUMP JUMPDEST POP POP JUMP JUMPDEST PUSH2 0x197A PUSH2 0x131A JUMP JUMPDEST PUSH20 0xFFFFFFFFFFFFFFFFFFFFFFFFFFFFFFFFFFFFFFFF AND PUSH1 0x7 PUSH1 0x1 SWAP1 SLOAD SWAP1 PUSH2 0x100 EXP SWAP1 DIV PUSH20 0xFFFFFFFFFFFFFFFFFFFFFFFFFFFFFFFFFFFFFFFF AND PUSH20 0xFFFFFFFFFFFFFFFFFFFFFFFFFFFFFFFFFFFFFFFF AND EQ PUSH2 0x1A3C JUMPI PUSH1 0x40 MLOAD PUSH32 0x8C379A000000000000000000000000000000000000000000000000000000000 DUP2 MSTORE PUSH1 0x4 ADD DUP1 DUP1 PUSH1 0x20 ADD DUP3 DUP2 SUB DUP3 MSTORE PUSH1 0x20 DUP2 MSTORE PUSH1 0x20 ADD DUP1 PUSH32 0x4F776E61626C653A2063616C6C6572206973206E6F7420746865206F776E6572 DUP2 MSTORE POP PUSH1 0x20 ADD SWAP2 POP POP PUSH1 0x40 MLOAD DUP1 SWAP2 SUB SWAP1 REVERT JUMPDEST PUSH2 0x1A44 PUSH2 0x1A56 JUMP JUMPDEST JUMP JUMPDEST PUSH2 0x1A51 DUP4 DUP4 DUP4 PUSH2 0x123E JUMP JUMPDEST POP POP POP JUMP JUMPDEST PUSH1 0x1 PUSH1 0x7 PUSH1 0x0 PUSH2 0x100 EXP DUP2 SLOAD DUP2 PUSH1 0xFF MUL NOT AND SWAP1 DUP4 ISZERO ISZERO MUL OR SWAP1 SSTORE POP PUSH32 0xAE5184FBA832CB2B1F702ACA6117B8D265EAF03AD33EB133F19DDE0F5920FA08 PUSH1 0x40 MLOAD PUSH1 0x40 MLOAD DUP1 SWAP2 SUB SWAP1 LOG1 JUMP INVALID GASLIMIT MSTORE NUMBER ORIGIN ADDRESS GASPRICE KECCAK256 PUSH21 0x72616E7366657220746F20746865207A65726F2061 PUSH5 0x6472657373 0x4F PUSH24 0x6E61626C653A206E6577206F776E65722069732074686520 PUSH27 0x65726F206164647265737345524332303A20617070726F76652074 PUSH16 0x20746865207A65726F20616464726573 PUSH20 0x45524332303A207472616E7366657220616D6F75 PUSH15 0x7420657863656564732062616C616E PUSH4 0x65455243 ORIGIN ADDRESS GASPRICE KECCAK256 PUSH21 0x72616E7366657220616D6F756E7420657863656564 PUSH20 0x20616C6C6F77616E636545524332303A20747261 PUSH15 0x736665722066726F6D20746865207A PUSH6 0x726F20616464 PUSH19 0x65737345524332303A20617070726F76652066 PUSH19 0x6F6D20746865207A65726F2061646472657373 GASLIMIT MSTORE NUMBER ORIGIN ADDRESS 0x4D PUSH10 0x6E7461626C653A206D69 PUSH15 0x74696E672069732066696E69736865 PUSH5 0x4552433230 GASPRICE KECCAK256 PUSH5 0x6563726561 PUSH20 0x656420616C6C6F77616E63652062656C6F77207A PUSH6 0x726FA2646970 PUSH7 0x7358221220C420 0xC1 0xE1 PUSH26 0x4E080AA837958F9423790B79AF41EF12A078AFC452E028B01544 0x4C PUSH5 0x736F6C6343 STOP SMOD MOD STOP CALLER "
				},
				"gasEstimates": {
					"creation": {
						"codeDepositCost": "1439600",
						"executionCost": "infinite",
						"totalCost": "infinite"
					},
					"external": {
						"allowance(address,address)": "1409",
						"approve(address,uint256)": "infinite",
						"balanceOf(address)": "1219",
						"cap()": "1080",
						"decimals()": "1100",
						"decreaseAllowance(address,uint256)": "infinite",
						"finishMinting()": "infinite",
						"increaseAllowance(address,uint256)": "infinite",
						"mint(address,uint256)": "infinite",
						"mintingFinished()": "1079",
						"name()": "infinite",
						"owner()": "1194",
						"renounceOwnership()": "24492",
						"symbol()": "infinite",
						"totalSupply()": "1103",
						"transfer(address,uint256)": "infinite",
						"transferFrom(address,address,uint256)": "infinite",
						"transferOwnership(address)": "infinite"
					},
					"internal": {
						"_beforeTokenTransfer(address,address,uint256)": "infinite",
						"_finishMinting()": "infinite",
						"_mint(address,uint256)": "infinite"
					}
				},
				"methodIdentifiers": {
					"allowance(address,address)": "dd62ed3e",
					"approve(address,uint256)": "095ea7b3",
					"balanceOf(address)": "70a08231",
					"cap()": "355274ea",
					"decimals()": "313ce567",
					"decreaseAllowance(address,uint256)": "a457c2d7",
					"finishMinting()": "7d64bcb4",
					"increaseAllowance(address,uint256)": "39509351",
					"mint(address,uint256)": "40c10f19",
					"mintingFinished()": "05d2035b",
					"name()": "06fdde03",
					"owner()": "8da5cb5b",
					"renounceOwnership()": "715018a6",
					"symbol()": "95d89b41",
					"totalSupply()": "18160ddd",
					"transfer(address,uint256)": "a9059cbb",
					"transferFrom(address,address,uint256)": "23b872dd",
					"transferOwnership(address)": "f2fde38b"
				}
			},
			"storageLayout": {
				"storage": [
					{
						"astId": 410,
						"contract": "MyDevFirst.sol:devtoken",
						"label": "_balances",
						"offset": 0,
						"slot": "0",
						"type": "t_mapping(t_address,t_uint256)"
					},
					{
						"astId": 416,
						"contract": "MyDevFirst.sol:devtoken",
						"label": "_allowances",
						"offset": 0,
						"slot": "1",
						"type": "t_mapping(t_address,t_mapping(t_address,t_uint256))"
					},
					{
						"astId": 418,
						"contract": "MyDevFirst.sol:devtoken",
						"label": "_totalSupply",
						"offset": 0,
						"slot": "2",
						"type": "t_uint256"
					},
					{
						"astId": 420,
						"contract": "MyDevFirst.sol:devtoken",
						"label": "_name",
						"offset": 0,
						"slot": "3",
						"type": "t_string_storage"
					},
					{
						"astId": 422,
						"contract": "MyDevFirst.sol:devtoken",
						"label": "_symbol",
						"offset": 0,
						"slot": "4",
						"type": "t_string_storage"
					},
					{
						"astId": 424,
						"contract": "MyDevFirst.sol:devtoken",
						"label": "_decimals",
						"offset": 0,
						"slot": "5",
						"type": "t_uint8"
					},
					{
						"astId": 904,
						"contract": "MyDevFirst.sol:devtoken",
						"label": "_cap",
						"offset": 0,
						"slot": "6",
						"type": "t_uint256"
					},
					{
						"astId": 977,
						"contract": "MyDevFirst.sol:devtoken",
						"label": "_mintingFinished",
						"offset": 0,
						"slot": "7",
						"type": "t_bool"
					},
					{
						"astId": 27,
						"contract": "MyDevFirst.sol:devtoken",
						"label": "_owner",
						"offset": 1,
						"slot": "7",
						"type": "t_address"
					}
				],
				"types": {
					"t_address": {
						"encoding": "inplace",
						"label": "address",
						"numberOfBytes": "20"
					},
					"t_bool": {
						"encoding": "inplace",
						"label": "bool",
						"numberOfBytes": "1"
					},
					"t_mapping(t_address,t_mapping(t_address,t_uint256))": {
						"encoding": "mapping",
						"key": "t_address",
						"label": "mapping(address => mapping(address => uint256))",
						"numberOfBytes": "32",
						"value": "t_mapping(t_address,t_uint256)"
					},
					"t_mapping(t_address,t_uint256)": {
						"encoding": "mapping",
						"key": "t_address",
						"label": "mapping(address => uint256)",
						"numberOfBytes": "32",
						"value": "t_uint256"
					},
					"t_string_storage": {
						"encoding": "bytes",
						"label": "string",
						"numberOfBytes": "32"
					},
					"t_uint256": {
						"encoding": "inplace",
						"label": "uint256",
						"numberOfBytes": "32"
					},
					"t_uint8": {
						"encoding": "inplace",
						"label": "uint8",
						"numberOfBytes": "1"
					}
				}
			},
			"userdoc": {
				"kind": "user",
				"methods": {},
				"version": 1
			}
		}
	}
}