{
	"Hsteaking.sol": {
		"EthStaking": {
			"abi": [
				{
					"inputs": [
						{
							"internalType": "address",
							"name": "erc20Token",
							"type": "address"
						}
					],
					"stateMutability": "nonpayable",
					"type": "constructor"
				},
				{
					"inputs": [
						{
							"internalType": "address",
							"name": "addr",
							"type": "address"
						}
					],
					"name": "calculateRewards",
					"outputs": [
						{
							"internalType": "uint256",
							"name": "",
							"type": "uint256"
						}
					],
					"stateMutability": "view",
					"type": "function"
				},
				{
					"inputs": [],
					"name": "getLatestPrice",
					"outputs": [
						{
							"internalType": "uint256",
							"name": "",
							"type": "uint256"
						}
					],
					"stateMutability": "view",
					"type": "function"
				},
				{
					"inputs": [],
					"name": "stakeEth",
					"outputs": [
						{
							"internalType": "uint256",
							"name": "",
							"type": "uint256"
						}
					],
					"stateMutability": "payable",
					"type": "function"
				},
				{
					"inputs": [
						{
							"internalType": "address",
							"name": "addr",
							"type": "address"
						}
					],
					"name": "stakeholderStakes",
					"outputs": [
						{
							"internalType": "uint256",
							"name": "stakes",
							"type": "uint256"
						}
					],
					"stateMutability": "view",
					"type": "function"
				},
				{
					"inputs": [],
					"name": "unstake",
					"outputs": [],
					"stateMutability": "payable",
					"type": "function"
				},
				{
					"inputs": [],
					"name": "walletAddress",
					"outputs": [
						{
							"internalType": "address",
							"name": "",
							"type": "address"
						}
					],
					"stateMutability": "view",
					"type": "function"
				}
			],
			"devdoc": {
				"kind": "dev",
				"methods": {},
				"version": 1
			},
			"evm": {
				"assembly": "    /* \"Hsteaking.sol\":210:1907  contract EthStaking {... */\n  mstore(0x40, 0x80)\n    /* \"Hsteaking.sol\":401:648  constructor(... */\n  callvalue\n  dup1\n  iszero\n  tag_1\n  jumpi\n  0x00\n  dup1\n  revert\ntag_1:\n  pop\n  mload(0x40)\n  sub(codesize, bytecodeSize)\n  dup1\n  bytecodeSize\n  dup4\n  codecopy\n  dup2\n  dup2\n  add\n  0x40\n  mstore\n  dup2\n  add\n  swap1\n  tag_2\n  swap2\n  swap1\n  tag_3\n  jump\t// in\ntag_2:\n    /* \"Hsteaking.sol\":476:486  msg.sender */\n  caller\n    /* \"Hsteaking.sol\":460:473  walletAddress */\n  0x00\n  dup1\n    /* \"Hsteaking.sol\":460:486  walletAddress = msg.sender */\n  0x0100\n  exp\n  dup2\n  sload\n  dup2\n  0xffffffffffffffffffffffffffffffffffffffff\n  mul\n  not\n  and\n  swap1\n  dup4\n  0xffffffffffffffffffffffffffffffffffffffff\n  and\n  mul\n  or\n  swap1\n  sstore\n  pop\n    /* \"Hsteaking.sol\":517:527  erc20Token */\n  dup1\n    /* \"Hsteaking.sol\":497:507  tokenERC20 */\n  0x01\n  0x00\n    /* \"Hsteaking.sol\":497:528  tokenERC20 = IERC20(erc20Token) */\n  0x0100\n  exp\n  dup2\n  sload\n  dup2\n  0xffffffffffffffffffffffffffffffffffffffff\n  mul\n  not\n  and\n  swap1\n  dup4\n  0xffffffffffffffffffffffffffffffffffffffff\n  and\n  mul\n  or\n  swap1\n  sstore\n  pop\n    /* \"Hsteaking.sol\":587:629  0x8A753747A1Fa494EC906cE90E9f37563A8AF630e */\n  0x8a753747a1fa494ec906ce90e9f37563a8af630e\n    /* \"Hsteaking.sol\":539:548  priceFeed */\n  0x03\n  0x00\n    /* \"Hsteaking.sol\":539:640  priceFeed = AggregatorV3Interface(... */\n  0x0100\n  exp\n  dup2\n  sload\n  dup2\n  0xffffffffffffffffffffffffffffffffffffffff\n  mul\n  not\n  and\n  swap1\n  dup4\n  0xffffffffffffffffffffffffffffffffffffffff\n  and\n  mul\n  or\n  swap1\n  sstore\n  pop\n    /* \"Hsteaking.sol\":401:648  constructor(... */\n  pop\n    /* \"Hsteaking.sol\":210:1907  contract EthStaking {... */\n  jump(tag_6)\n    /* \"#utility.yul\":88:205   */\ntag_8:\n    /* \"#utility.yul\":197:198   */\n  0x00\n    /* \"#utility.yul\":194:195   */\n  dup1\n    /* \"#utility.yul\":187:199   */\n  revert\n    /* \"#utility.yul\":334:460   */\ntag_10:\n    /* \"#utility.yul\":371:378   */\n  0x00\n    /* \"#utility.yul\":411:453   */\n  0xffffffffffffffffffffffffffffffffffffffff\n    /* \"#utility.yul\":404:409   */\n  dup3\n    /* \"#utility.yul\":400:454   */\n  and\n    /* \"#utility.yul\":389:454   */\n  swap1\n  pop\n    /* \"#utility.yul\":334:460   */\n  swap2\n  swap1\n  pop\n  jump\t// out\n    /* \"#utility.yul\":466:562   */\ntag_11:\n    /* \"#utility.yul\":503:510   */\n  0x00\n    /* \"#utility.yul\":532:556   */\n  tag_20\n    /* \"#utility.yul\":550:555   */\n  dup3\n    /* \"#utility.yul\":532:556   */\n  tag_10\n  jump\t// in\ntag_20:\n    /* \"#utility.yul\":521:556   */\n  swap1\n  pop\n    /* \"#utility.yul\":466:562   */\n  swap2\n  swap1\n  pop\n  jump\t// out\n    /* \"#utility.yul\":568:690   */\ntag_12:\n    /* \"#utility.yul\":641:665   */\n  tag_22\n    /* \"#utility.yul\":659:664   */\n  dup2\n    /* \"#utility.yul\":641:665   */\n  tag_11\n  jump\t// in\ntag_22:\n    /* \"#utility.yul\":634:639   */\n  dup2\n    /* \"#utility.yul\":631:666   */\n  eq\n    /* \"#utility.yul\":621:684   */\n  tag_23\n  jumpi\n    /* \"#utility.yul\":680:681   */\n  0x00\n    /* \"#utility.yul\":677:678   */\n  dup1\n    /* \"#utility.yul\":670:682   */\n  revert\n    /* \"#utility.yul\":621:684   */\ntag_23:\n    /* \"#utility.yul\":568:690   */\n  pop\n  jump\t// out\n    /* \"#utility.yul\":696:839   */\ntag_13:\n    /* \"#utility.yul\":753:758   */\n  0x00\n    /* \"#utility.yul\":784:790   */\n  dup2\n    /* \"#utility.yul\":778:791   */\n  mload\n    /* \"#utility.yul\":769:791   */\n  swap1\n  pop\n    /* \"#utility.yul\":800:833   */\n  tag_25\n    /* \"#utility.yul\":827:832   */\n  dup2\n    /* \"#utility.yul\":800:833   */\n  tag_12\n  jump\t// in\ntag_25:\n    /* \"#utility.yul\":696:839   */\n  swap3\n  swap2\n  pop\n  pop\n  jump\t// out\n    /* \"#utility.yul\":845:1196   */\ntag_3:\n    /* \"#utility.yul\":915:921   */\n  0x00\n    /* \"#utility.yul\":964:966   */\n  0x20\n    /* \"#utility.yul\":952:961   */\n  dup3\n    /* \"#utility.yul\":943:950   */\n  dup5\n    /* \"#utility.yul\":939:962   */\n  sub\n    /* \"#utility.yul\":935:967   */\n  slt\n    /* \"#utility.yul\":932:1051   */\n  iszero\n  tag_27\n  jumpi\n    /* \"#utility.yul\":970:1049   */\n  tag_28\n  tag_8\n  jump\t// in\ntag_28:\n    /* \"#utility.yul\":932:1051   */\ntag_27:\n    /* \"#utility.yul\":1090:1091   */\n  0x00\n    /* \"#utility.yul\":1115:1179   */\n  tag_29\n    /* \"#utility.yul\":1171:1178   */\n  dup5\n    /* \"#utility.yul\":1162:1168   */\n  dup3\n    /* \"#utility.yul\":1151:1160   */\n  dup6\n    /* \"#utility.yul\":1147:1169   */\n  add\n    /* \"#utility.yul\":1115:1179   */\n  tag_13\n  jump\t// in\ntag_29:\n    /* \"#utility.yul\":1105:1179   */\n  swap2\n  pop\n    /* \"#utility.yul\":1061:1189   */\n  pop\n    /* \"#utility.yul\":845:1196   */\n  swap3\n  swap2\n  pop\n  pop\n  jump\t// out\n    /* \"Hsteaking.sol\":210:1907  contract EthStaking {... */\ntag_6:\n  dataSize(sub_0)\n  dup1\n  dataOffset(sub_0)\n  0x00\n  codecopy\n  0x00\n  return\nstop\n\nsub_0: assembly {\n        /* \"Hsteaking.sol\":210:1907  contract EthStaking {... */\n      mstore(0x40, 0x80)\n      jumpi(tag_1, lt(calldatasize, 0x04))\n      shr(0xe0, calldataload(0x00))\n      dup1\n      0x2def6620\n      eq\n      tag_2\n      jumpi\n      dup1\n      0x64ab8675\n      eq\n      tag_3\n      jumpi\n      dup1\n      0x6ad5b3ea\n      eq\n      tag_4\n      jumpi\n      dup1\n      0x7a5f0dc4\n      eq\n      tag_5\n      jumpi\n      dup1\n      0x8e15f473\n      eq\n      tag_6\n      jumpi\n      dup1\n      0xd3fd09ec\n      eq\n      tag_7\n      jumpi\n    tag_1:\n      0x00\n      dup1\n      revert\n        /* \"Hsteaking.sol\":1571:1904  function unstake ( ) public payable {... */\n    tag_2:\n      tag_8\n      tag_9\n      jump\t// in\n    tag_8:\n      stop\n        /* \"Hsteaking.sol\":1365:1563  function calculateRewards(address addr) public view returns (uint256) {... */\n    tag_3:\n      callvalue\n      dup1\n      iszero\n      tag_10\n      jumpi\n      0x00\n      dup1\n      revert\n    tag_10:\n      pop\n      tag_11\n      0x04\n      dup1\n      calldatasize\n      sub\n      dup2\n      add\n      swap1\n      tag_12\n      swap2\n      swap1\n      tag_13\n      jump\t// in\n    tag_12:\n      tag_14\n      jump\t// in\n    tag_11:\n      mload(0x40)\n      tag_15\n      swap2\n      swap1\n      tag_16\n      jump\t// in\n    tag_15:\n      mload(0x40)\n      dup1\n      swap2\n      sub\n      swap1\n      return\n        /* \"Hsteaking.sol\":237:265  address public walletAddress */\n    tag_4:\n      callvalue\n      dup1\n      iszero\n      tag_17\n      jumpi\n      0x00\n      dup1\n      revert\n    tag_17:\n      pop\n      tag_18\n      tag_19\n      jump\t// in\n    tag_18:\n      mload(0x40)\n      tag_20\n      swap2\n      swap1\n      tag_21\n      jump\t// in\n    tag_20:\n      mload(0x40)\n      dup1\n      swap2\n      sub\n      swap1\n      return\n        /* \"Hsteaking.sol\":656:879  function stakeEth() public payable returns (uint256) {... */\n    tag_5:\n      tag_22\n      tag_23\n      jump\t// in\n    tag_22:\n      mload(0x40)\n      tag_24\n      swap2\n      swap1\n      tag_16\n      jump\t// in\n    tag_24:\n      mload(0x40)\n      dup1\n      swap2\n      sub\n      swap1\n      return\n        /* \"Hsteaking.sol\":1050:1357  function getLatestPrice() public view returns (uint256) {... */\n    tag_6:\n      callvalue\n      dup1\n      iszero\n      tag_25\n      jumpi\n      0x00\n      dup1\n      revert\n    tag_25:\n      pop\n      tag_26\n      tag_27\n      jump\t// in\n    tag_26:\n      mload(0x40)\n      tag_28\n      swap2\n      swap1\n      tag_16\n      jump\t// in\n    tag_28:\n      mload(0x40)\n      dup1\n      swap2\n      sub\n      swap1\n      return\n        /* \"Hsteaking.sol\":887:1042  function stakeholderStakes(address addr)... */\n    tag_7:\n      callvalue\n      dup1\n      iszero\n      tag_29\n      jumpi\n      0x00\n      dup1\n      revert\n    tag_29:\n      pop\n      tag_30\n      0x04\n      dup1\n      calldatasize\n      sub\n      dup2\n      add\n      swap1\n      tag_31\n      swap2\n      swap1\n      tag_13\n      jump\t// in\n    tag_31:\n      tag_32\n      jump\t// in\n    tag_30:\n      mload(0x40)\n      tag_33\n      swap2\n      swap1\n      tag_16\n      jump\t// in\n    tag_33:\n      mload(0x40)\n      dup1\n      swap2\n      sub\n      swap1\n      return\n        /* \"Hsteaking.sol\":1571:1904  function unstake ( ) public payable {... */\n    tag_9:\n        /* \"Hsteaking.sol\":1618:1637  uint256 rewardValue */\n      0x00\n        /* \"Hsteaking.sol\":1640:1668  calculateRewards(msg.sender) */\n      tag_35\n        /* \"Hsteaking.sol\":1657:1667  msg.sender */\n      caller\n        /* \"Hsteaking.sol\":1640:1656  calculateRewards */\n      tag_14\n        /* \"Hsteaking.sol\":1640:1668  calculateRewards(msg.sender) */\n      jump\t// in\n    tag_35:\n        /* \"Hsteaking.sol\":1618:1668  uint256 rewardValue = calculateRewards(msg.sender) */\n      swap1\n      pop\n        /* \"Hsteaking.sol\":1679:1696  uint256 ethAmount */\n      0x00\n        /* \"Hsteaking.sol\":1699:1712  _stakeHolders */\n      0x02\n        /* \"Hsteaking.sol\":1699:1724  _stakeHolders[msg.sender] */\n      0x00\n        /* \"Hsteaking.sol\":1713:1723  msg.sender */\n      caller\n        /* \"Hsteaking.sol\":1699:1724  _stakeHolders[msg.sender] */\n      0xffffffffffffffffffffffffffffffffffffffff\n      and\n      0xffffffffffffffffffffffffffffffffffffffff\n      and\n      dup2\n      mstore\n      0x20\n      add\n      swap1\n      dup2\n      mstore\n      0x20\n      add\n      0x00\n      keccak256\n      sload\n        /* \"Hsteaking.sol\":1679:1724  uint256 ethAmount = _stakeHolders[msg.sender] */\n      swap1\n      pop\n        /* \"Hsteaking.sol\":1737:1747  tokenERC20 */\n      0x01\n      0x00\n      swap1\n      sload\n      swap1\n      0x0100\n      exp\n      swap1\n      div\n      0xffffffffffffffffffffffffffffffffffffffff\n      and\n        /* \"Hsteaking.sol\":1737:1760  tokenERC20.transferFrom */\n      0xffffffffffffffffffffffffffffffffffffffff\n      and\n      0x23b872dd\n        /* \"Hsteaking.sol\":1762:1775  walletAddress */\n      0x00\n      dup1\n      sload\n      swap1\n      0x0100\n      exp\n      swap1\n      div\n      0xffffffffffffffffffffffffffffffffffffffff\n      and\n        /* \"Hsteaking.sol\":1777:1787  msg.sender */\n      caller\n        /* \"Hsteaking.sol\":1789:1800  rewardValue */\n      dup6\n        /* \"Hsteaking.sol\":1737:1802  tokenERC20.transferFrom( walletAddress, msg.sender, rewardValue ) */\n      mload(0x40)\n      dup5\n      0xffffffff\n      and\n      0xe0\n      shl\n      dup2\n      mstore\n      0x04\n      add\n      tag_36\n      swap4\n      swap3\n      swap2\n      swap1\n      tag_37\n      jump\t// in\n    tag_36:\n      0x20\n      mload(0x40)\n      dup1\n      dup4\n      sub\n      dup2\n      0x00\n      dup8\n      gas\n      call\n      iszero\n      dup1\n      iszero\n      tag_39\n      jumpi\n      returndatasize\n      0x00\n      dup1\n      returndatacopy\n      revert(0x00, returndatasize)\n    tag_39:\n      pop\n      pop\n      pop\n      pop\n      mload(0x40)\n      returndatasize\n      not(0x1f)\n      0x1f\n      dup3\n      add\n      and\n      dup3\n      add\n      dup1\n      0x40\n      mstore\n      pop\n      dup2\n      add\n      swap1\n      tag_40\n      swap2\n      swap1\n      tag_41\n      jump\t// in\n    tag_40:\n      pop\n        /* \"Hsteaking.sol\":1821:1831  msg.sender */\n      caller\n        /* \"Hsteaking.sol\":1813:1841  payable(msg.sender).transfer */\n      0xffffffffffffffffffffffffffffffffffffffff\n      and\n        /* \"Hsteaking.sol\":1813:1852  payable(msg.sender).transfer(ethAmount) */\n      0x08fc\n        /* \"Hsteaking.sol\":1842:1851  ethAmount */\n      dup3\n        /* \"Hsteaking.sol\":1813:1852  payable(msg.sender).transfer(ethAmount) */\n      swap1\n      dup2\n      iszero\n      mul\n      swap1\n      mload(0x40)\n      0x00\n      mload(0x40)\n      dup1\n      dup4\n      sub\n      dup2\n      dup6\n      dup9\n      dup9\n      call\n      swap4\n      pop\n      pop\n      pop\n      pop\n      iszero\n      dup1\n      iszero\n      tag_43\n      jumpi\n      returndatasize\n      0x00\n      dup1\n      returndatacopy\n      revert(0x00, returndatasize)\n    tag_43:\n      pop\n        /* \"Hsteaking.sol\":1893:1894  0 */\n      0x00\n        /* \"Hsteaking.sol\":1865:1878  _stakeHolders */\n      0x02\n        /* \"Hsteaking.sol\":1865:1890  _stakeHolders[msg.sender] */\n      0x00\n        /* \"Hsteaking.sol\":1879:1889  msg.sender */\n      caller\n        /* \"Hsteaking.sol\":1865:1890  _stakeHolders[msg.sender] */\n      0xffffffffffffffffffffffffffffffffffffffff\n      and\n      0xffffffffffffffffffffffffffffffffffffffff\n      and\n      dup2\n      mstore\n      0x20\n      add\n      swap1\n      dup2\n      mstore\n      0x20\n      add\n      0x00\n      keccak256\n        /* \"Hsteaking.sol\":1865:1894  _stakeHolders[msg.sender] = 0 */\n      dup2\n      swap1\n      sstore\n      pop\n        /* \"Hsteaking.sol\":1607:1904  {... */\n      pop\n      pop\n        /* \"Hsteaking.sol\":1571:1904  function unstake ( ) public payable {... */\n      jump\t// out\n        /* \"Hsteaking.sol\":1365:1563  function calculateRewards(address addr) public view returns (uint256) {... */\n    tag_14:\n        /* \"Hsteaking.sol\":1426:1433  uint256 */\n      0x00\n        /* \"Hsteaking.sol\":1446:1459  uint256 price */\n      dup1\n        /* \"Hsteaking.sol\":1521:1530  100000000 */\n      0x05f5e100\n        /* \"Hsteaking.sol\":1512:1515  100 */\n      0x64\n        /* \"Hsteaking.sol\":1507:1508  5 */\n      0x05\n        /* \"Hsteaking.sol\":1484:1497  _stakeHolders */\n      0x02\n        /* \"Hsteaking.sol\":1484:1503  _stakeHolders[addr] */\n      0x00\n        /* \"Hsteaking.sol\":1498:1502  addr */\n      dup8\n        /* \"Hsteaking.sol\":1484:1503  _stakeHolders[addr] */\n      0xffffffffffffffffffffffffffffffffffffffff\n      and\n      0xffffffffffffffffffffffffffffffffffffffff\n      and\n      dup2\n      mstore\n      0x20\n      add\n      swap1\n      dup2\n      mstore\n      0x20\n      add\n      0x00\n      keccak256\n      sload\n        /* \"Hsteaking.sol\":1465:1481  getLatestPrice() */\n      tag_45\n        /* \"Hsteaking.sol\":1465:1479  getLatestPrice */\n      tag_27\n        /* \"Hsteaking.sol\":1465:1481  getLatestPrice() */\n      jump\t// in\n    tag_45:\n        /* \"Hsteaking.sol\":1465:1503  getLatestPrice() * _stakeHolders[addr] */\n      tag_46\n      swap2\n      swap1\n      tag_47\n      jump\t// in\n    tag_46:\n        /* \"Hsteaking.sol\":1464:1508  (getLatestPrice() * _stakeHolders[addr]) * 5 */\n      tag_48\n      swap2\n      swap1\n      tag_47\n      jump\t// in\n    tag_48:\n        /* \"Hsteaking.sol\":1463:1515  ((getLatestPrice() * _stakeHolders[addr]) * 5) / 100 */\n      tag_49\n      swap2\n      swap1\n      tag_50\n      jump\t// in\n    tag_49:\n        /* \"Hsteaking.sol\":1462:1532  (((getLatestPrice() * _stakeHolders[addr]) * 5) / 100) / ( 100000000 ) */\n      tag_51\n      swap2\n      swap1\n      tag_50\n      jump\t// in\n    tag_51:\n        /* \"Hsteaking.sol\":1446:1532  uint256 price = (((getLatestPrice() * _stakeHolders[addr]) * 5) / 100) / ( 100000000 ) */\n      swap1\n      pop\n        /* \"Hsteaking.sol\":1550:1555  price */\n      dup1\n        /* \"Hsteaking.sol\":1543:1555  return price */\n      swap2\n      pop\n      pop\n        /* \"Hsteaking.sol\":1365:1563  function calculateRewards(address addr) public view returns (uint256) {... */\n      swap2\n      swap1\n      pop\n      jump\t// out\n        /* \"Hsteaking.sol\":237:265  address public walletAddress */\n    tag_19:\n      0x00\n      dup1\n      sload\n      swap1\n      0x0100\n      exp\n      swap1\n      div\n      0xffffffffffffffffffffffffffffffffffffffff\n      and\n      dup2\n      jump\t// out\n        /* \"Hsteaking.sol\":656:879  function stakeEth() public payable returns (uint256) {... */\n    tag_23:\n        /* \"Hsteaking.sol\":700:707  uint256 */\n      0x00\n        /* \"Hsteaking.sol\":742:749  5 ether */\n      0x4563918244f40000\n        /* \"Hsteaking.sol\":729:738  msg.value */\n      callvalue\n        /* \"Hsteaking.sol\":729:749  msg.value >= 5 ether */\n      lt\n      iszero\n        /* \"Hsteaking.sol\":720:795  require( msg.value >= 5 ether, \"Stake value should be greater than 5 eth\" ) */\n      tag_53\n      jumpi\n      mload(0x40)\n      0x08c379a000000000000000000000000000000000000000000000000000000000\n      dup2\n      mstore\n      0x04\n      add\n      tag_54\n      swap1\n      tag_55\n      jump\t// in\n    tag_54:\n      mload(0x40)\n      dup1\n      swap2\n      sub\n      swap1\n      revert\n    tag_53:\n        /* \"Hsteaking.sol\":835:844  msg.value */\n      callvalue\n        /* \"Hsteaking.sol\":806:819  _stakeHolders */\n      0x02\n        /* \"Hsteaking.sol\":806:831  _stakeHolders[msg.sender] */\n      0x00\n        /* \"Hsteaking.sol\":820:830  msg.sender */\n      caller\n        /* \"Hsteaking.sol\":806:831  _stakeHolders[msg.sender] */\n      0xffffffffffffffffffffffffffffffffffffffff\n      and\n      0xffffffffffffffffffffffffffffffffffffffff\n      and\n      dup2\n      mstore\n      0x20\n      add\n      swap1\n      dup2\n      mstore\n      0x20\n      add\n      0x00\n      keccak256\n      0x00\n        /* \"Hsteaking.sol\":806:844  _stakeHolders[msg.sender] += msg.value */\n      dup3\n      dup3\n      sload\n      tag_56\n      swap2\n      swap1\n      tag_57\n      jump\t// in\n    tag_56:\n      swap3\n      pop\n      pop\n      dup2\n      swap1\n      sstore\n      pop\n        /* \"Hsteaking.sol\":862:871  msg.value */\n      callvalue\n        /* \"Hsteaking.sol\":855:871  return msg.value */\n      swap1\n      pop\n        /* \"Hsteaking.sol\":656:879  function stakeEth() public payable returns (uint256) {... */\n      swap1\n      jump\t// out\n        /* \"Hsteaking.sol\":1050:1357  function getLatestPrice() public view returns (uint256) {... */\n    tag_27:\n        /* \"Hsteaking.sol\":1097:1104  uint256 */\n      0x00\n        /* \"Hsteaking.sol\":1132:1146  uint80 roundID */\n      dup1\n        /* \"Hsteaking.sol\":1161:1173  int256 price */\n      0x00\n        /* \"Hsteaking.sol\":1188:1205  uint256 startedAt */\n      dup1\n        /* \"Hsteaking.sol\":1220:1237  uint256 timeStamp */\n      0x00\n        /* \"Hsteaking.sol\":1252:1274  uint80 answeredInRound */\n      dup1\n        /* \"Hsteaking.sol\":1288:1297  priceFeed */\n      0x03\n      0x00\n      swap1\n      sload\n      swap1\n      0x0100\n      exp\n      swap1\n      div\n      0xffffffffffffffffffffffffffffffffffffffff\n      and\n        /* \"Hsteaking.sol\":1288:1313  priceFeed.latestRoundData */\n      0xffffffffffffffffffffffffffffffffffffffff\n      and\n      0xfeaf968c\n        /* \"Hsteaking.sol\":1288:1315  priceFeed.latestRoundData() */\n      mload(0x40)\n      dup2\n      0xffffffff\n      and\n      0xe0\n      shl\n      dup2\n      mstore\n      0x04\n      add\n      0xa0\n      mload(0x40)\n      dup1\n      dup4\n      sub\n      dup2\n      dup7\n      gas\n      staticcall\n      iszero\n      dup1\n      iszero\n      tag_60\n      jumpi\n      returndatasize\n      0x00\n      dup1\n      returndatacopy\n      revert(0x00, returndatasize)\n    tag_60:\n      pop\n      pop\n      pop\n      pop\n      mload(0x40)\n      returndatasize\n      not(0x1f)\n      0x1f\n      dup3\n      add\n      and\n      dup3\n      add\n      dup1\n      0x40\n      mstore\n      pop\n      dup2\n      add\n      swap1\n      tag_61\n      swap2\n      swap1\n      tag_62\n      jump\t// in\n    tag_61:\n        /* \"Hsteaking.sol\":1117:1315  (... */\n      swap5\n      pop\n      swap5\n      pop\n      swap5\n      pop\n      swap5\n      pop\n      swap5\n      pop\n        /* \"Hsteaking.sol\":1343:1348  price */\n      dup4\n        /* \"Hsteaking.sol\":1328:1349  return uint256(price) */\n      swap6\n      pop\n      pop\n      pop\n      pop\n      pop\n      pop\n        /* \"Hsteaking.sol\":1050:1357  function getLatestPrice() public view returns (uint256) {... */\n      swap1\n      jump\t// out\n        /* \"Hsteaking.sol\":887:1042  function stakeholderStakes(address addr)... */\n    tag_32:\n        /* \"Hsteaking.sol\":976:990  uint256 stakes */\n      0x00\n        /* \"Hsteaking.sol\":1015:1028  _stakeHolders */\n      0x02\n        /* \"Hsteaking.sol\":1015:1034  _stakeHolders[addr] */\n      0x00\n        /* \"Hsteaking.sol\":1029:1033  addr */\n      dup4\n        /* \"Hsteaking.sol\":1015:1034  _stakeHolders[addr] */\n      0xffffffffffffffffffffffffffffffffffffffff\n      and\n      0xffffffffffffffffffffffffffffffffffffffff\n      and\n      dup2\n      mstore\n      0x20\n      add\n      swap1\n      dup2\n      mstore\n      0x20\n      add\n      0x00\n      keccak256\n      sload\n        /* \"Hsteaking.sol\":1008:1034  return _stakeHolders[addr] */\n      swap1\n      pop\n        /* \"Hsteaking.sol\":887:1042  function stakeholderStakes(address addr)... */\n      swap2\n      swap1\n      pop\n      jump\t// out\n        /* \"#utility.yul\":88:205   */\n    tag_65:\n        /* \"#utility.yul\":197:198   */\n      0x00\n        /* \"#utility.yul\":194:195   */\n      dup1\n        /* \"#utility.yul\":187:199   */\n      revert\n        /* \"#utility.yul\":334:460   */\n    tag_67:\n        /* \"#utility.yul\":371:378   */\n      0x00\n        /* \"#utility.yul\":411:453   */\n      0xffffffffffffffffffffffffffffffffffffffff\n        /* \"#utility.yul\":404:409   */\n      dup3\n        /* \"#utility.yul\":400:454   */\n      and\n        /* \"#utility.yul\":389:454   */\n      swap1\n      pop\n        /* \"#utility.yul\":334:460   */\n      swap2\n      swap1\n      pop\n      jump\t// out\n        /* \"#utility.yul\":466:562   */\n    tag_68:\n        /* \"#utility.yul\":503:510   */\n      0x00\n        /* \"#utility.yul\":532:556   */\n      tag_96\n        /* \"#utility.yul\":550:555   */\n      dup3\n        /* \"#utility.yul\":532:556   */\n      tag_67\n      jump\t// in\n    tag_96:\n        /* \"#utility.yul\":521:556   */\n      swap1\n      pop\n        /* \"#utility.yul\":466:562   */\n      swap2\n      swap1\n      pop\n      jump\t// out\n        /* \"#utility.yul\":568:690   */\n    tag_69:\n        /* \"#utility.yul\":641:665   */\n      tag_98\n        /* \"#utility.yul\":659:664   */\n      dup2\n        /* \"#utility.yul\":641:665   */\n      tag_68\n      jump\t// in\n    tag_98:\n        /* \"#utility.yul\":634:639   */\n      dup2\n        /* \"#utility.yul\":631:666   */\n      eq\n        /* \"#utility.yul\":621:684   */\n      tag_99\n      jumpi\n        /* \"#utility.yul\":680:681   */\n      0x00\n        /* \"#utility.yul\":677:678   */\n      dup1\n        /* \"#utility.yul\":670:682   */\n      revert\n        /* \"#utility.yul\":621:684   */\n    tag_99:\n        /* \"#utility.yul\":568:690   */\n      pop\n      jump\t// out\n        /* \"#utility.yul\":696:835   */\n    tag_70:\n        /* \"#utility.yul\":742:747   */\n      0x00\n        /* \"#utility.yul\":780:786   */\n      dup2\n        /* \"#utility.yul\":767:787   */\n      calldataload\n        /* \"#utility.yul\":758:787   */\n      swap1\n      pop\n        /* \"#utility.yul\":796:829   */\n      tag_101\n        /* \"#utility.yul\":823:828   */\n      dup2\n        /* \"#utility.yul\":796:829   */\n      tag_69\n      jump\t// in\n    tag_101:\n        /* \"#utility.yul\":696:835   */\n      swap3\n      swap2\n      pop\n      pop\n      jump\t// out\n        /* \"#utility.yul\":841:1170   */\n    tag_13:\n        /* \"#utility.yul\":900:906   */\n      0x00\n        /* \"#utility.yul\":949:951   */\n      0x20\n        /* \"#utility.yul\":937:946   */\n      dup3\n        /* \"#utility.yul\":928:935   */\n      dup5\n        /* \"#utility.yul\":924:947   */\n      sub\n        /* \"#utility.yul\":920:952   */\n      slt\n        /* \"#utility.yul\":917:1036   */\n      iszero\n      tag_103\n      jumpi\n        /* \"#utility.yul\":955:1034   */\n      tag_104\n      tag_65\n      jump\t// in\n    tag_104:\n        /* \"#utility.yul\":917:1036   */\n    tag_103:\n        /* \"#utility.yul\":1075:1076   */\n      0x00\n        /* \"#utility.yul\":1100:1153   */\n      tag_105\n        /* \"#utility.yul\":1145:1152   */\n      dup5\n        /* \"#utility.yul\":1136:1142   */\n      dup3\n        /* \"#utility.yul\":1125:1134   */\n      dup6\n        /* \"#utility.yul\":1121:1143   */\n      add\n        /* \"#utility.yul\":1100:1153   */\n      tag_70\n      jump\t// in\n    tag_105:\n        /* \"#utility.yul\":1090:1153   */\n      swap2\n      pop\n        /* \"#utility.yul\":1046:1163   */\n      pop\n        /* \"#utility.yul\":841:1170   */\n      swap3\n      swap2\n      pop\n      pop\n      jump\t// out\n        /* \"#utility.yul\":1176:1253   */\n    tag_71:\n        /* \"#utility.yul\":1213:1220   */\n      0x00\n        /* \"#utility.yul\":1242:1247   */\n      dup2\n        /* \"#utility.yul\":1231:1247   */\n      swap1\n      pop\n        /* \"#utility.yul\":1176:1253   */\n      swap2\n      swap1\n      pop\n      jump\t// out\n        /* \"#utility.yul\":1259:1377   */\n    tag_72:\n        /* \"#utility.yul\":1346:1370   */\n      tag_108\n        /* \"#utility.yul\":1364:1369   */\n      dup2\n        /* \"#utility.yul\":1346:1370   */\n      tag_71\n      jump\t// in\n    tag_108:\n        /* \"#utility.yul\":1341:1344   */\n      dup3\n        /* \"#utility.yul\":1334:1371   */\n      mstore\n        /* \"#utility.yul\":1259:1377   */\n      pop\n      pop\n      jump\t// out\n        /* \"#utility.yul\":1383:1605   */\n    tag_16:\n        /* \"#utility.yul\":1476:1480   */\n      0x00\n        /* \"#utility.yul\":1514:1516   */\n      0x20\n        /* \"#utility.yul\":1503:1512   */\n      dup3\n        /* \"#utility.yul\":1499:1517   */\n      add\n        /* \"#utility.yul\":1491:1517   */\n      swap1\n      pop\n        /* \"#utility.yul\":1527:1598   */\n      tag_110\n        /* \"#utility.yul\":1595:1596   */\n      0x00\n        /* \"#utility.yul\":1584:1593   */\n      dup4\n        /* \"#utility.yul\":1580:1597   */\n      add\n        /* \"#utility.yul\":1571:1577   */\n      dup5\n        /* \"#utility.yul\":1527:1598   */\n      tag_72\n      jump\t// in\n    tag_110:\n        /* \"#utility.yul\":1383:1605   */\n      swap3\n      swap2\n      pop\n      pop\n      jump\t// out\n        /* \"#utility.yul\":1611:1729   */\n    tag_73:\n        /* \"#utility.yul\":1698:1722   */\n      tag_112\n        /* \"#utility.yul\":1716:1721   */\n      dup2\n        /* \"#utility.yul\":1698:1722   */\n      tag_68\n      jump\t// in\n    tag_112:\n        /* \"#utility.yul\":1693:1696   */\n      dup3\n        /* \"#utility.yul\":1686:1723   */\n      mstore\n        /* \"#utility.yul\":1611:1729   */\n      pop\n      pop\n      jump\t// out\n        /* \"#utility.yul\":1735:1957   */\n    tag_21:\n        /* \"#utility.yul\":1828:1832   */\n      0x00\n        /* \"#utility.yul\":1866:1868   */\n      0x20\n        /* \"#utility.yul\":1855:1864   */\n      dup3\n        /* \"#utility.yul\":1851:1869   */\n      add\n        /* \"#utility.yul\":1843:1869   */\n      swap1\n      pop\n        /* \"#utility.yul\":1879:1950   */\n      tag_114\n        /* \"#utility.yul\":1947:1948   */\n      0x00\n        /* \"#utility.yul\":1936:1945   */\n      dup4\n        /* \"#utility.yul\":1932:1949   */\n      add\n        /* \"#utility.yul\":1923:1929   */\n      dup5\n        /* \"#utility.yul\":1879:1950   */\n      tag_73\n      jump\t// in\n    tag_114:\n        /* \"#utility.yul\":1735:1957   */\n      swap3\n      swap2\n      pop\n      pop\n      jump\t// out\n        /* \"#utility.yul\":1963:2405   */\n    tag_37:\n        /* \"#utility.yul\":2112:2116   */\n      0x00\n        /* \"#utility.yul\":2150:2152   */\n      0x60\n        /* \"#utility.yul\":2139:2148   */\n      dup3\n        /* \"#utility.yul\":2135:2153   */\n      add\n        /* \"#utility.yul\":2127:2153   */\n      swap1\n      pop\n        /* \"#utility.yul\":2163:2234   */\n      tag_116\n        /* \"#utility.yul\":2231:2232   */\n      0x00\n        /* \"#utility.yul\":2220:2229   */\n      dup4\n        /* \"#utility.yul\":2216:2233   */\n      add\n        /* \"#utility.yul\":2207:2213   */\n      dup7\n        /* \"#utility.yul\":2163:2234   */\n      tag_73\n      jump\t// in\n    tag_116:\n        /* \"#utility.yul\":2244:2316   */\n      tag_117\n        /* \"#utility.yul\":2312:2314   */\n      0x20\n        /* \"#utility.yul\":2301:2310   */\n      dup4\n        /* \"#utility.yul\":2297:2315   */\n      add\n        /* \"#utility.yul\":2288:2294   */\n      dup6\n        /* \"#utility.yul\":2244:2316   */\n      tag_73\n      jump\t// in\n    tag_117:\n        /* \"#utility.yul\":2326:2398   */\n      tag_118\n        /* \"#utility.yul\":2394:2396   */\n      0x40\n        /* \"#utility.yul\":2383:2392   */\n      dup4\n        /* \"#utility.yul\":2379:2397   */\n      add\n        /* \"#utility.yul\":2370:2376   */\n      dup5\n        /* \"#utility.yul\":2326:2398   */\n      tag_72\n      jump\t// in\n    tag_118:\n        /* \"#utility.yul\":1963:2405   */\n      swap5\n      swap4\n      pop\n      pop\n      pop\n      pop\n      jump\t// out\n        /* \"#utility.yul\":2411:2501   */\n    tag_74:\n        /* \"#utility.yul\":2445:2452   */\n      0x00\n        /* \"#utility.yul\":2488:2493   */\n      dup2\n        /* \"#utility.yul\":2481:2494   */\n      iszero\n        /* \"#utility.yul\":2474:2495   */\n      iszero\n        /* \"#utility.yul\":2463:2495   */\n      swap1\n      pop\n        /* \"#utility.yul\":2411:2501   */\n      swap2\n      swap1\n      pop\n      jump\t// out\n        /* \"#utility.yul\":2507:2623   */\n    tag_75:\n        /* \"#utility.yul\":2577:2598   */\n      tag_121\n        /* \"#utility.yul\":2592:2597   */\n      dup2\n        /* \"#utility.yul\":2577:2598   */\n      tag_74\n      jump\t// in\n    tag_121:\n        /* \"#utility.yul\":2570:2575   */\n      dup2\n        /* \"#utility.yul\":2567:2599   */\n      eq\n        /* \"#utility.yul\":2557:2617   */\n      tag_122\n      jumpi\n        /* \"#utility.yul\":2613:2614   */\n      0x00\n        /* \"#utility.yul\":2610:2611   */\n      dup1\n        /* \"#utility.yul\":2603:2615   */\n      revert\n        /* \"#utility.yul\":2557:2617   */\n    tag_122:\n        /* \"#utility.yul\":2507:2623   */\n      pop\n      jump\t// out\n        /* \"#utility.yul\":2629:2766   */\n    tag_76:\n        /* \"#utility.yul\":2683:2688   */\n      0x00\n        /* \"#utility.yul\":2714:2720   */\n      dup2\n        /* \"#utility.yul\":2708:2721   */\n      mload\n        /* \"#utility.yul\":2699:2721   */\n      swap1\n      pop\n        /* \"#utility.yul\":2730:2760   */\n      tag_124\n        /* \"#utility.yul\":2754:2759   */\n      dup2\n        /* \"#utility.yul\":2730:2760   */\n      tag_75\n      jump\t// in\n    tag_124:\n        /* \"#utility.yul\":2629:2766   */\n      swap3\n      swap2\n      pop\n      pop\n      jump\t// out\n        /* \"#utility.yul\":2772:3117   */\n    tag_41:\n        /* \"#utility.yul\":2839:2845   */\n      0x00\n        /* \"#utility.yul\":2888:2890   */\n      0x20\n        /* \"#utility.yul\":2876:2885   */\n      dup3\n        /* \"#utility.yul\":2867:2874   */\n      dup5\n        /* \"#utility.yul\":2863:2886   */\n      sub\n        /* \"#utility.yul\":2859:2891   */\n      slt\n        /* \"#utility.yul\":2856:2975   */\n      iszero\n      tag_126\n      jumpi\n        /* \"#utility.yul\":2894:2973   */\n      tag_127\n      tag_65\n      jump\t// in\n    tag_127:\n        /* \"#utility.yul\":2856:2975   */\n    tag_126:\n        /* \"#utility.yul\":3014:3015   */\n      0x00\n        /* \"#utility.yul\":3039:3100   */\n      tag_128\n        /* \"#utility.yul\":3092:3099   */\n      dup5\n        /* \"#utility.yul\":3083:3089   */\n      dup3\n        /* \"#utility.yul\":3072:3081   */\n      dup6\n        /* \"#utility.yul\":3068:3090   */\n      add\n        /* \"#utility.yul\":3039:3100   */\n      tag_76\n      jump\t// in\n    tag_128:\n        /* \"#utility.yul\":3029:3100   */\n      swap2\n      pop\n        /* \"#utility.yul\":2985:3110   */\n      pop\n        /* \"#utility.yul\":2772:3117   */\n      swap3\n      swap2\n      pop\n      pop\n      jump\t// out\n        /* \"#utility.yul\":3123:3303   */\n    tag_77:\n        /* \"#utility.yul\":3171:3248   */\n      0x4e487b7100000000000000000000000000000000000000000000000000000000\n        /* \"#utility.yul\":3168:3169   */\n      0x00\n        /* \"#utility.yul\":3161:3249   */\n      mstore\n        /* \"#utility.yul\":3268:3272   */\n      0x11\n        /* \"#utility.yul\":3265:3266   */\n      0x04\n        /* \"#utility.yul\":3258:3273   */\n      mstore\n        /* \"#utility.yul\":3292:3296   */\n      0x24\n        /* \"#utility.yul\":3289:3290   */\n      0x00\n        /* \"#utility.yul\":3282:3297   */\n      revert\n        /* \"#utility.yul\":3309:3657   */\n    tag_47:\n        /* \"#utility.yul\":3349:3356   */\n      0x00\n        /* \"#utility.yul\":3372:3392   */\n      tag_131\n        /* \"#utility.yul\":3390:3391   */\n      dup3\n        /* \"#utility.yul\":3372:3392   */\n      tag_71\n      jump\t// in\n    tag_131:\n        /* \"#utility.yul\":3367:3392   */\n      swap2\n      pop\n        /* \"#utility.yul\":3406:3426   */\n      tag_132\n        /* \"#utility.yul\":3424:3425   */\n      dup4\n        /* \"#utility.yul\":3406:3426   */\n      tag_71\n      jump\t// in\n    tag_132:\n        /* \"#utility.yul\":3401:3426   */\n      swap3\n      pop\n        /* \"#utility.yul\":3594:3595   */\n      dup2\n        /* \"#utility.yul\":3526:3592   */\n      0xffffffffffffffffffffffffffffffffffffffffffffffffffffffffffffffff\n        /* \"#utility.yul\":3522:3596   */\n      div\n        /* \"#utility.yul\":3519:3520   */\n      dup4\n        /* \"#utility.yul\":3516:3597   */\n      gt\n        /* \"#utility.yul\":3511:3512   */\n      dup3\n        /* \"#utility.yul\":3504:3513   */\n      iszero\n        /* \"#utility.yul\":3497:3514   */\n      iszero\n        /* \"#utility.yul\":3493:3598   */\n      and\n        /* \"#utility.yul\":3490:3621   */\n      iszero\n      tag_133\n      jumpi\n        /* \"#utility.yul\":3601:3619   */\n      tag_134\n      tag_77\n      jump\t// in\n    tag_134:\n        /* \"#utility.yul\":3490:3621   */\n    tag_133:\n        /* \"#utility.yul\":3649:3650   */\n      dup3\n        /* \"#utility.yul\":3646:3647   */\n      dup3\n        /* \"#utility.yul\":3642:3651   */\n      mul\n        /* \"#utility.yul\":3631:3651   */\n      swap1\n      pop\n        /* \"#utility.yul\":3309:3657   */\n      swap3\n      swap2\n      pop\n      pop\n      jump\t// out\n        /* \"#utility.yul\":3663:3843   */\n    tag_78:\n        /* \"#utility.yul\":3711:3788   */\n      0x4e487b7100000000000000000000000000000000000000000000000000000000\n        /* \"#utility.yul\":3708:3709   */\n      0x00\n        /* \"#utility.yul\":3701:3789   */\n      mstore\n        /* \"#utility.yul\":3808:3812   */\n      0x12\n        /* \"#utility.yul\":3805:3806   */\n      0x04\n        /* \"#utility.yul\":3798:3813   */\n      mstore\n        /* \"#utility.yul\":3832:3836   */\n      0x24\n        /* \"#utility.yul\":3829:3830   */\n      0x00\n        /* \"#utility.yul\":3822:3837   */\n      revert\n        /* \"#utility.yul\":3849:4034   */\n    tag_50:\n        /* \"#utility.yul\":3889:3890   */\n      0x00\n        /* \"#utility.yul\":3906:3926   */\n      tag_137\n        /* \"#utility.yul\":3924:3925   */\n      dup3\n        /* \"#utility.yul\":3906:3926   */\n      tag_71\n      jump\t// in\n    tag_137:\n        /* \"#utility.yul\":3901:3926   */\n      swap2\n      pop\n        /* \"#utility.yul\":3940:3960   */\n      tag_138\n        /* \"#utility.yul\":3958:3959   */\n      dup4\n        /* \"#utility.yul\":3940:3960   */\n      tag_71\n      jump\t// in\n    tag_138:\n        /* \"#utility.yul\":3935:3960   */\n      swap3\n      pop\n        /* \"#utility.yul\":3979:3980   */\n      dup3\n        /* \"#utility.yul\":3969:4004   */\n      tag_139\n      jumpi\n        /* \"#utility.yul\":3984:4002   */\n      tag_140\n      tag_78\n      jump\t// in\n    tag_140:\n        /* \"#utility.yul\":3969:4004   */\n    tag_139:\n        /* \"#utility.yul\":4026:4027   */\n      dup3\n        /* \"#utility.yul\":4023:4024   */\n      dup3\n        /* \"#utility.yul\":4019:4028   */\n      div\n        /* \"#utility.yul\":4014:4028   */\n      swap1\n      pop\n        /* \"#utility.yul\":3849:4034   */\n      swap3\n      swap2\n      pop\n      pop\n      jump\t// out\n        /* \"#utility.yul\":4040:4209   */\n    tag_79:\n        /* \"#utility.yul\":4124:4135   */\n      0x00\n        /* \"#utility.yul\":4158:4164   */\n      dup3\n        /* \"#utility.yul\":4153:4156   */\n      dup3\n        /* \"#utility.yul\":4146:4165   */\n      mstore\n        /* \"#utility.yul\":4198:4202   */\n      0x20\n        /* \"#utility.yul\":4193:4196   */\n      dup3\n        /* \"#utility.yul\":4189:4203   */\n      add\n        /* \"#utility.yul\":4174:4203   */\n      swap1\n      pop\n        /* \"#utility.yul\":4040:4209   */\n      swap3\n      swap2\n      pop\n      pop\n      jump\t// out\n        /* \"#utility.yul\":4215:4442   */\n    tag_80:\n        /* \"#utility.yul\":4355:4389   */\n      0x5374616b652076616c75652073686f756c642062652067726561746572207468\n        /* \"#utility.yul\":4351:4352   */\n      0x00\n        /* \"#utility.yul\":4343:4349   */\n      dup3\n        /* \"#utility.yul\":4339:4353   */\n      add\n        /* \"#utility.yul\":4332:4390   */\n      mstore\n        /* \"#utility.yul\":4424:4434   */\n      0x616e203520657468000000000000000000000000000000000000000000000000\n        /* \"#utility.yul\":4419:4421   */\n      0x20\n        /* \"#utility.yul\":4411:4417   */\n      dup3\n        /* \"#utility.yul\":4407:4422   */\n      add\n        /* \"#utility.yul\":4400:4435   */\n      mstore\n        /* \"#utility.yul\":4215:4442   */\n      pop\n      jump\t// out\n        /* \"#utility.yul\":4448:4814   */\n    tag_81:\n        /* \"#utility.yul\":4590:4593   */\n      0x00\n        /* \"#utility.yul\":4611:4678   */\n      tag_144\n        /* \"#utility.yul\":4675:4677   */\n      0x28\n        /* \"#utility.yul\":4670:4673   */\n      dup4\n        /* \"#utility.yul\":4611:4678   */\n      tag_79\n      jump\t// in\n    tag_144:\n        /* \"#utility.yul\":4604:4678   */\n      swap2\n      pop\n        /* \"#utility.yul\":4687:4780   */\n      tag_145\n        /* \"#utility.yul\":4776:4779   */\n      dup3\n        /* \"#utility.yul\":4687:4780   */\n      tag_80\n      jump\t// in\n    tag_145:\n        /* \"#utility.yul\":4805:4807   */\n      0x40\n        /* \"#utility.yul\":4800:4803   */\n      dup3\n        /* \"#utility.yul\":4796:4808   */\n      add\n        /* \"#utility.yul\":4789:4808   */\n      swap1\n      pop\n        /* \"#utility.yul\":4448:4814   */\n      swap2\n      swap1\n      pop\n      jump\t// out\n        /* \"#utility.yul\":4820:5239   */\n    tag_55:\n        /* \"#utility.yul\":4986:4990   */\n      0x00\n        /* \"#utility.yul\":5024:5026   */\n      0x20\n        /* \"#utility.yul\":5013:5022   */\n      dup3\n        /* \"#utility.yul\":5009:5027   */\n      add\n        /* \"#utility.yul\":5001:5027   */\n      swap1\n      pop\n        /* \"#utility.yul\":5073:5082   */\n      dup2\n        /* \"#utility.yul\":5067:5071   */\n      dup2\n        /* \"#utility.yul\":5063:5083   */\n      sub\n        /* \"#utility.yul\":5059:5060   */\n      0x00\n        /* \"#utility.yul\":5048:5057   */\n      dup4\n        /* \"#utility.yul\":5044:5061   */\n      add\n        /* \"#utility.yul\":5037:5084   */\n      mstore\n        /* \"#utility.yul\":5101:5232   */\n      tag_147\n        /* \"#utility.yul\":5227:5231   */\n      dup2\n        /* \"#utility.yul\":5101:5232   */\n      tag_81\n      jump\t// in\n    tag_147:\n        /* \"#utility.yul\":5093:5232   */\n      swap1\n      pop\n        /* \"#utility.yul\":4820:5239   */\n      swap2\n      swap1\n      pop\n      jump\t// out\n        /* \"#utility.yul\":5245:5550   */\n    tag_57:\n        /* \"#utility.yul\":5285:5288   */\n      0x00\n        /* \"#utility.yul\":5304:5324   */\n      tag_149\n        /* \"#utility.yul\":5322:5323   */\n      dup3\n        /* \"#utility.yul\":5304:5324   */\n      tag_71\n      jump\t// in\n    tag_149:\n        /* \"#utility.yul\":5299:5324   */\n      swap2\n      pop\n        /* \"#utility.yul\":5338:5358   */\n      tag_150\n        /* \"#utility.yul\":5356:5357   */\n      dup4\n        /* \"#utility.yul\":5338:5358   */\n      tag_71\n      jump\t// in\n    tag_150:\n        /* \"#utility.yul\":5333:5358   */\n      swap3\n      pop\n        /* \"#utility.yul\":5492:5493   */\n      dup3\n        /* \"#utility.yul\":5424:5490   */\n      0xffffffffffffffffffffffffffffffffffffffffffffffffffffffffffffffff\n        /* \"#utility.yul\":5420:5494   */\n      sub\n        /* \"#utility.yul\":5417:5418   */\n      dup3\n        /* \"#utility.yul\":5414:5495   */\n      gt\n        /* \"#utility.yul\":5411:5518   */\n      iszero\n      tag_151\n      jumpi\n        /* \"#utility.yul\":5498:5516   */\n      tag_152\n      tag_77\n      jump\t// in\n    tag_152:\n        /* \"#utility.yul\":5411:5518   */\n    tag_151:\n        /* \"#utility.yul\":5542:5543   */\n      dup3\n        /* \"#utility.yul\":5539:5540   */\n      dup3\n        /* \"#utility.yul\":5535:5544   */\n      add\n        /* \"#utility.yul\":5528:5544   */\n      swap1\n      pop\n        /* \"#utility.yul\":5245:5550   */\n      swap3\n      swap2\n      pop\n      pop\n      jump\t// out\n        /* \"#utility.yul\":5556:5661   */\n    tag_82:\n        /* \"#utility.yul\":5592:5599   */\n      0x00\n        /* \"#utility.yul\":5632:5654   */\n      0xffffffffffffffffffff\n        /* \"#utility.yul\":5625:5630   */\n      dup3\n        /* \"#utility.yul\":5621:5655   */\n      and\n        /* \"#utility.yul\":5610:5655   */\n      swap1\n      pop\n        /* \"#utility.yul\":5556:5661   */\n      swap2\n      swap1\n      pop\n      jump\t// out\n        /* \"#utility.yul\":5667:5787   */\n    tag_83:\n        /* \"#utility.yul\":5739:5762   */\n      tag_155\n        /* \"#utility.yul\":5756:5761   */\n      dup2\n        /* \"#utility.yul\":5739:5762   */\n      tag_82\n      jump\t// in\n    tag_155:\n        /* \"#utility.yul\":5732:5737   */\n      dup2\n        /* \"#utility.yul\":5729:5763   */\n      eq\n        /* \"#utility.yul\":5719:5781   */\n      tag_156\n      jumpi\n        /* \"#utility.yul\":5777:5778   */\n      0x00\n        /* \"#utility.yul\":5774:5775   */\n      dup1\n        /* \"#utility.yul\":5767:5779   */\n      revert\n        /* \"#utility.yul\":5719:5781   */\n    tag_156:\n        /* \"#utility.yul\":5667:5787   */\n      pop\n      jump\t// out\n        /* \"#utility.yul\":5793:5934   */\n    tag_84:\n        /* \"#utility.yul\":5849:5854   */\n      0x00\n        /* \"#utility.yul\":5880:5886   */\n      dup2\n        /* \"#utility.yul\":5874:5887   */\n      mload\n        /* \"#utility.yul\":5865:5887   */\n      swap1\n      pop\n        /* \"#utility.yul\":5896:5928   */\n      tag_158\n        /* \"#utility.yul\":5922:5927   */\n      dup2\n        /* \"#utility.yul\":5896:5928   */\n      tag_83\n      jump\t// in\n    tag_158:\n        /* \"#utility.yul\":5793:5934   */\n      swap3\n      swap2\n      pop\n      pop\n      jump\t// out\n        /* \"#utility.yul\":5940:6016   */\n    tag_85:\n        /* \"#utility.yul\":5976:5983   */\n      0x00\n        /* \"#utility.yul\":6005:6010   */\n      dup2\n        /* \"#utility.yul\":5994:6010   */\n      swap1\n      pop\n        /* \"#utility.yul\":5940:6016   */\n      swap2\n      swap1\n      pop\n      jump\t// out\n        /* \"#utility.yul\":6022:6142   */\n    tag_86:\n        /* \"#utility.yul\":6094:6117   */\n      tag_161\n        /* \"#utility.yul\":6111:6116   */\n      dup2\n        /* \"#utility.yul\":6094:6117   */\n      tag_85\n      jump\t// in\n    tag_161:\n        /* \"#utility.yul\":6087:6092   */\n      dup2\n        /* \"#utility.yul\":6084:6118   */\n      eq\n        /* \"#utility.yul\":6074:6136   */\n      tag_162\n      jumpi\n        /* \"#utility.yul\":6132:6133   */\n      0x00\n        /* \"#utility.yul\":6129:6130   */\n      dup1\n        /* \"#utility.yul\":6122:6134   */\n      revert\n        /* \"#utility.yul\":6074:6136   */\n    tag_162:\n        /* \"#utility.yul\":6022:6142   */\n      pop\n      jump\t// out\n        /* \"#utility.yul\":6148:6289   */\n    tag_87:\n        /* \"#utility.yul\":6204:6209   */\n      0x00\n        /* \"#utility.yul\":6235:6241   */\n      dup2\n        /* \"#utility.yul\":6229:6242   */\n      mload\n        /* \"#utility.yul\":6220:6242   */\n      swap1\n      pop\n        /* \"#utility.yul\":6251:6283   */\n      tag_164\n        /* \"#utility.yul\":6277:6282   */\n      dup2\n        /* \"#utility.yul\":6251:6283   */\n      tag_86\n      jump\t// in\n    tag_164:\n        /* \"#utility.yul\":6148:6289   */\n      swap3\n      swap2\n      pop\n      pop\n      jump\t// out\n        /* \"#utility.yul\":6295:6417   */\n    tag_88:\n        /* \"#utility.yul\":6368:6392   */\n      tag_166\n        /* \"#utility.yul\":6386:6391   */\n      dup2\n        /* \"#utility.yul\":6368:6392   */\n      tag_71\n      jump\t// in\n    tag_166:\n        /* \"#utility.yul\":6361:6366   */\n      dup2\n        /* \"#utility.yul\":6358:6393   */\n      eq\n        /* \"#utility.yul\":6348:6411   */\n      tag_167\n      jumpi\n        /* \"#utility.yul\":6407:6408   */\n      0x00\n        /* \"#utility.yul\":6404:6405   */\n      dup1\n        /* \"#utility.yul\":6397:6409   */\n      revert\n        /* \"#utility.yul\":6348:6411   */\n    tag_167:\n        /* \"#utility.yul\":6295:6417   */\n      pop\n      jump\t// out\n        /* \"#utility.yul\":6423:6566   */\n    tag_89:\n        /* \"#utility.yul\":6480:6485   */\n      0x00\n        /* \"#utility.yul\":6511:6517   */\n      dup2\n        /* \"#utility.yul\":6505:6518   */\n      mload\n        /* \"#utility.yul\":6496:6518   */\n      swap1\n      pop\n        /* \"#utility.yul\":6527:6560   */\n      tag_169\n        /* \"#utility.yul\":6554:6559   */\n      dup2\n        /* \"#utility.yul\":6527:6560   */\n      tag_88\n      jump\t// in\n    tag_169:\n        /* \"#utility.yul\":6423:6566   */\n      swap3\n      swap2\n      pop\n      pop\n      jump\t// out\n        /* \"#utility.yul\":6572:7543   */\n    tag_62:\n        /* \"#utility.yul\":6675:6681   */\n      0x00\n        /* \"#utility.yul\":6683:6689   */\n      dup1\n        /* \"#utility.yul\":6691:6697   */\n      0x00\n        /* \"#utility.yul\":6699:6705   */\n      dup1\n        /* \"#utility.yul\":6707:6713   */\n      0x00\n        /* \"#utility.yul\":6756:6759   */\n      0xa0\n        /* \"#utility.yul\":6744:6753   */\n      dup7\n        /* \"#utility.yul\":6735:6742   */\n      dup9\n        /* \"#utility.yul\":6731:6754   */\n      sub\n        /* \"#utility.yul\":6727:6760   */\n      slt\n        /* \"#utility.yul\":6724:6844   */\n      iszero\n      tag_171\n      jumpi\n        /* \"#utility.yul\":6763:6842   */\n      tag_172\n      tag_65\n      jump\t// in\n    tag_172:\n        /* \"#utility.yul\":6724:6844   */\n    tag_171:\n        /* \"#utility.yul\":6883:6884   */\n      0x00\n        /* \"#utility.yul\":6908:6971   */\n      tag_173\n        /* \"#utility.yul\":6963:6970   */\n      dup9\n        /* \"#utility.yul\":6954:6960   */\n      dup3\n        /* \"#utility.yul\":6943:6952   */\n      dup10\n        /* \"#utility.yul\":6939:6961   */\n      add\n        /* \"#utility.yul\":6908:6971   */\n      tag_84\n      jump\t// in\n    tag_173:\n        /* \"#utility.yul\":6898:6971   */\n      swap6\n      pop\n        /* \"#utility.yul\":6854:6981   */\n      pop\n        /* \"#utility.yul\":7020:7022   */\n      0x20\n        /* \"#utility.yul\":7046:7109   */\n      tag_174\n        /* \"#utility.yul\":7101:7108   */\n      dup9\n        /* \"#utility.yul\":7092:7098   */\n      dup3\n        /* \"#utility.yul\":7081:7090   */\n      dup10\n        /* \"#utility.yul\":7077:7099   */\n      add\n        /* \"#utility.yul\":7046:7109   */\n      tag_87\n      jump\t// in\n    tag_174:\n        /* \"#utility.yul\":7036:7109   */\n      swap5\n      pop\n        /* \"#utility.yul\":6991:7119   */\n      pop\n        /* \"#utility.yul\":7158:7160   */\n      0x40\n        /* \"#utility.yul\":7184:7248   */\n      tag_175\n        /* \"#utility.yul\":7240:7247   */\n      dup9\n        /* \"#utility.yul\":7231:7237   */\n      dup3\n        /* \"#utility.yul\":7220:7229   */\n      dup10\n        /* \"#utility.yul\":7216:7238   */\n      add\n        /* \"#utility.yul\":7184:7248   */\n      tag_89\n      jump\t// in\n    tag_175:\n        /* \"#utility.yul\":7174:7248   */\n      swap4\n      pop\n        /* \"#utility.yul\":7129:7258   */\n      pop\n        /* \"#utility.yul\":7297:7299   */\n      0x60\n        /* \"#utility.yul\":7323:7387   */\n      tag_176\n        /* \"#utility.yul\":7379:7386   */\n      dup9\n        /* \"#utility.yul\":7370:7376   */\n      dup3\n        /* \"#utility.yul\":7359:7368   */\n      dup10\n        /* \"#utility.yul\":7355:7377   */\n      add\n        /* \"#utility.yul\":7323:7387   */\n      tag_89\n      jump\t// in\n    tag_176:\n        /* \"#utility.yul\":7313:7387   */\n      swap3\n      pop\n        /* \"#utility.yul\":7268:7397   */\n      pop\n        /* \"#utility.yul\":7436:7439   */\n      0x80\n        /* \"#utility.yul\":7463:7526   */\n      tag_177\n        /* \"#utility.yul\":7518:7525   */\n      dup9\n        /* \"#utility.yul\":7509:7515   */\n      dup3\n        /* \"#utility.yul\":7498:7507   */\n      dup10\n        /* \"#utility.yul\":7494:7516   */\n      add\n        /* \"#utility.yul\":7463:7526   */\n      tag_84\n      jump\t// in\n    tag_177:\n        /* \"#utility.yul\":7453:7526   */\n      swap2\n      pop\n        /* \"#utility.yul\":7407:7536   */\n      pop\n        /* \"#utility.yul\":6572:7543   */\n      swap3\n      swap6\n      pop\n      swap3\n      swap6\n      swap1\n      swap4\n      pop\n      jump\t// out\n\n    auxdata: 0xa26469706673582212203aaa1459fabb9269ff94ba29c9f76b108006d03c636a6b2e0321a71477b4ec7b64736f6c634300080e0033\n}\n",
				"bytecode": {
					"linkReferences": {},
					"object": "608060405234801561001057600080fd5b50604051610bb0380380610bb083398181016040528101906100329190610171565b336000806101000a81548173ffffffffffffffffffffffffffffffffffffffff021916908373ffffffffffffffffffffffffffffffffffffffff16021790555080600160006101000a81548173ffffffffffffffffffffffffffffffffffffffff021916908373ffffffffffffffffffffffffffffffffffffffff160217905550738a753747a1fa494ec906ce90e9f37563a8af630e600360006101000a81548173ffffffffffffffffffffffffffffffffffffffff021916908373ffffffffffffffffffffffffffffffffffffffff1602179055505061019e565b600080fd5b600073ffffffffffffffffffffffffffffffffffffffff82169050919050565b600061013e82610113565b9050919050565b61014e81610133565b811461015957600080fd5b50565b60008151905061016b81610145565b92915050565b6000602082840312156101875761018661010e565b5b60006101958482850161015c565b91505092915050565b610a03806101ad6000396000f3fe6080604052600436106100555760003560e01c80632def66201461005a57806364ab8675146100645780636ad5b3ea146100a15780637a5f0dc4146100cc5780638e15f473146100ea578063d3fd09ec14610115575b600080fd5b610062610152565b005b34801561007057600080fd5b5061008b600480360381019061008691906105a5565b6102f6565b60405161009891906105eb565b60405180910390f35b3480156100ad57600080fd5b506100b661037d565b6040516100c39190610615565b60405180910390f35b6100d46103a1565b6040516100e191906105eb565b60405180910390f35b3480156100f657600080fd5b506100ff61044a565b60405161010c91906105eb565b60405180910390f35b34801561012157600080fd5b5061013c600480360381019061013791906105a5565b6104f9565b60405161014991906105eb565b60405180910390f35b600061015d336102f6565b90506000600260003373ffffffffffffffffffffffffffffffffffffffff1673ffffffffffffffffffffffffffffffffffffffff168152602001908152602001600020549050600160009054906101000a900473ffffffffffffffffffffffffffffffffffffffff1673ffffffffffffffffffffffffffffffffffffffff166323b872dd60008054906101000a900473ffffffffffffffffffffffffffffffffffffffff1633856040518463ffffffff1660e01b815260040161022293929190610630565b6020604051808303816000875af1158015610241573d6000803e3d6000fd5b505050506040513d601f19601f82011682018060405250810190610265919061069f565b503373ffffffffffffffffffffffffffffffffffffffff166108fc829081150290604051600060405180830381858888f193505050501580156102ac573d6000803e3d6000fd5b506000600260003373ffffffffffffffffffffffffffffffffffffffff1673ffffffffffffffffffffffffffffffffffffffff168152602001908152602001600020819055505050565b6000806305f5e10060646005600260008773ffffffffffffffffffffffffffffffffffffffff1673ffffffffffffffffffffffffffffffffffffffff1681526020019081526020016000205461034a61044a565b61035491906106fb565b61035e91906106fb565b6103689190610784565b6103729190610784565b905080915050919050565b60008054906101000a900473ffffffffffffffffffffffffffffffffffffffff1681565b6000674563918244f400003410156103ee576040517f08c379a00000000000000000000000000000000000000000000000000000000081526004016103e590610838565b60405180910390fd5b34600260003373ffffffffffffffffffffffffffffffffffffffff1673ffffffffffffffffffffffffffffffffffffffff168152602001908152602001600020600082825461043d9190610858565b9250508190555034905090565b600080600080600080600360009054906101000a900473ffffffffffffffffffffffffffffffffffffffff1673ffffffffffffffffffffffffffffffffffffffff1663feaf968c6040518163ffffffff1660e01b815260040160a060405180830381865afa1580156104c0573d6000803e3d6000fd5b505050506040513d601f19601f820116820180604052508101906104e49190610952565b94509450945094509450839550505050505090565b6000600260008373ffffffffffffffffffffffffffffffffffffffff1673ffffffffffffffffffffffffffffffffffffffff168152602001908152602001600020549050919050565b600080fd5b600073ffffffffffffffffffffffffffffffffffffffff82169050919050565b600061057282610547565b9050919050565b61058281610567565b811461058d57600080fd5b50565b60008135905061059f81610579565b92915050565b6000602082840312156105bb576105ba610542565b5b60006105c984828501610590565b91505092915050565b6000819050919050565b6105e5816105d2565b82525050565b600060208201905061060060008301846105dc565b92915050565b61060f81610567565b82525050565b600060208201905061062a6000830184610606565b92915050565b60006060820190506106456000830186610606565b6106526020830185610606565b61065f60408301846105dc565b949350505050565b60008115159050919050565b61067c81610667565b811461068757600080fd5b50565b60008151905061069981610673565b92915050565b6000602082840312156106b5576106b4610542565b5b60006106c38482850161068a565b91505092915050565b7f4e487b7100000000000000000000000000000000000000000000000000000000600052601160045260246000fd5b6000610706826105d2565b9150610711836105d2565b9250817fffffffffffffffffffffffffffffffffffffffffffffffffffffffffffffffff048311821515161561074a576107496106cc565b5b828202905092915050565b7f4e487b7100000000000000000000000000000000000000000000000000000000600052601260045260246000fd5b600061078f826105d2565b915061079a836105d2565b9250826107aa576107a9610755565b5b828204905092915050565b600082825260208201905092915050565b7f5374616b652076616c75652073686f756c64206265206772656174657220746860008201527f616e203520657468000000000000000000000000000000000000000000000000602082015250565b60006108226028836107b5565b915061082d826107c6565b604082019050919050565b6000602082019050818103600083015261085181610815565b9050919050565b6000610863826105d2565b915061086e836105d2565b9250827fffffffffffffffffffffffffffffffffffffffffffffffffffffffffffffffff038211156108a3576108a26106cc565b5b828201905092915050565b600069ffffffffffffffffffff82169050919050565b6108cd816108ae565b81146108d857600080fd5b50565b6000815190506108ea816108c4565b92915050565b6000819050919050565b610903816108f0565b811461090e57600080fd5b50565b600081519050610920816108fa565b92915050565b61092f816105d2565b811461093a57600080fd5b50565b60008151905061094c81610926565b92915050565b600080600080600060a0868803121561096e5761096d610542565b5b600061097c888289016108db565b955050602061098d88828901610911565b945050604061099e8882890161093d565b93505060606109af8882890161093d565b92505060806109c0888289016108db565b915050929550929590935056fea26469706673582212203aaa1459fabb9269ff94ba29c9f76b108006d03c636a6b2e0321a71477b4ec7b64736f6c634300080e0033",
					"opcodes": "PUSH1 0x80 PUSH1 0x40 MSTORE CALLVALUE DUP1 ISZERO PUSH2 0x10 JUMPI PUSH1 0x0 DUP1 REVERT JUMPDEST POP PUSH1 0x40 MLOAD PUSH2 0xBB0 CODESIZE SUB DUP1 PUSH2 0xBB0 DUP4 CODECOPY DUP2 DUP2 ADD PUSH1 0x40 MSTORE DUP2 ADD SWAP1 PUSH2 0x32 SWAP2 SWAP1 PUSH2 0x171 JUMP JUMPDEST CALLER PUSH1 0x0 DUP1 PUSH2 0x100 EXP DUP2 SLOAD DUP2 PUSH20 0xFFFFFFFFFFFFFFFFFFFFFFFFFFFFFFFFFFFFFFFF MUL NOT AND SWAP1 DUP4 PUSH20 0xFFFFFFFFFFFFFFFFFFFFFFFFFFFFFFFFFFFFFFFF AND MUL OR SWAP1 SSTORE POP DUP1 PUSH1 0x1 PUSH1 0x0 PUSH2 0x100 EXP DUP2 SLOAD DUP2 PUSH20 0xFFFFFFFFFFFFFFFFFFFFFFFFFFFFFFFFFFFFFFFF MUL NOT AND SWAP1 DUP4 PUSH20 0xFFFFFFFFFFFFFFFFFFFFFFFFFFFFFFFFFFFFFFFF AND MUL OR SWAP1 SSTORE POP PUSH20 0x8A753747A1FA494EC906CE90E9F37563A8AF630E PUSH1 0x3 PUSH1 0x0 PUSH2 0x100 EXP DUP2 SLOAD DUP2 PUSH20 0xFFFFFFFFFFFFFFFFFFFFFFFFFFFFFFFFFFFFFFFF MUL NOT AND SWAP1 DUP4 PUSH20 0xFFFFFFFFFFFFFFFFFFFFFFFFFFFFFFFFFFFFFFFF AND MUL OR SWAP1 SSTORE POP POP PUSH2 0x19E JUMP JUMPDEST PUSH1 0x0 DUP1 REVERT JUMPDEST PUSH1 0x0 PUSH20 0xFFFFFFFFFFFFFFFFFFFFFFFFFFFFFFFFFFFFFFFF DUP3 AND SWAP1 POP SWAP2 SWAP1 POP JUMP JUMPDEST PUSH1 0x0 PUSH2 0x13E DUP3 PUSH2 0x113 JUMP JUMPDEST SWAP1 POP SWAP2 SWAP1 POP JUMP JUMPDEST PUSH2 0x14E DUP2 PUSH2 0x133 JUMP JUMPDEST DUP2 EQ PUSH2 0x159 JUMPI PUSH1 0x0 DUP1 REVERT JUMPDEST POP JUMP JUMPDEST PUSH1 0x0 DUP2 MLOAD SWAP1 POP PUSH2 0x16B DUP2 PUSH2 0x145 JUMP JUMPDEST SWAP3 SWAP2 POP POP JUMP JUMPDEST PUSH1 0x0 PUSH1 0x20 DUP3 DUP5 SUB SLT ISZERO PUSH2 0x187 JUMPI PUSH2 0x186 PUSH2 0x10E JUMP JUMPDEST JUMPDEST PUSH1 0x0 PUSH2 0x195 DUP5 DUP3 DUP6 ADD PUSH2 0x15C JUMP JUMPDEST SWAP2 POP POP SWAP3 SWAP2 POP POP JUMP JUMPDEST PUSH2 0xA03 DUP1 PUSH2 0x1AD PUSH1 0x0 CODECOPY PUSH1 0x0 RETURN INVALID PUSH1 0x80 PUSH1 0x40 MSTORE PUSH1 0x4 CALLDATASIZE LT PUSH2 0x55 JUMPI PUSH1 0x0 CALLDATALOAD PUSH1 0xE0 SHR DUP1 PUSH4 0x2DEF6620 EQ PUSH2 0x5A JUMPI DUP1 PUSH4 0x64AB8675 EQ PUSH2 0x64 JUMPI DUP1 PUSH4 0x6AD5B3EA EQ PUSH2 0xA1 JUMPI DUP1 PUSH4 0x7A5F0DC4 EQ PUSH2 0xCC JUMPI DUP1 PUSH4 0x8E15F473 EQ PUSH2 0xEA JUMPI DUP1 PUSH4 0xD3FD09EC EQ PUSH2 0x115 JUMPI JUMPDEST PUSH1 0x0 DUP1 REVERT JUMPDEST PUSH2 0x62 PUSH2 0x152 JUMP JUMPDEST STOP JUMPDEST CALLVALUE DUP1 ISZERO PUSH2 0x70 JUMPI PUSH1 0x0 DUP1 REVERT JUMPDEST POP PUSH2 0x8B PUSH1 0x4 DUP1 CALLDATASIZE SUB DUP2 ADD SWAP1 PUSH2 0x86 SWAP2 SWAP1 PUSH2 0x5A5 JUMP JUMPDEST PUSH2 0x2F6 JUMP JUMPDEST PUSH1 0x40 MLOAD PUSH2 0x98 SWAP2 SWAP1 PUSH2 0x5EB JUMP JUMPDEST PUSH1 0x40 MLOAD DUP1 SWAP2 SUB SWAP1 RETURN JUMPDEST CALLVALUE DUP1 ISZERO PUSH2 0xAD JUMPI PUSH1 0x0 DUP1 REVERT JUMPDEST POP PUSH2 0xB6 PUSH2 0x37D JUMP JUMPDEST PUSH1 0x40 MLOAD PUSH2 0xC3 SWAP2 SWAP1 PUSH2 0x615 JUMP JUMPDEST PUSH1 0x40 MLOAD DUP1 SWAP2 SUB SWAP1 RETURN JUMPDEST PUSH2 0xD4 PUSH2 0x3A1 JUMP JUMPDEST PUSH1 0x40 MLOAD PUSH2 0xE1 SWAP2 SWAP1 PUSH2 0x5EB JUMP JUMPDEST PUSH1 0x40 MLOAD DUP1 SWAP2 SUB SWAP1 RETURN JUMPDEST CALLVALUE DUP1 ISZERO PUSH2 0xF6 JUMPI PUSH1 0x0 DUP1 REVERT JUMPDEST POP PUSH2 0xFF PUSH2 0x44A JUMP JUMPDEST PUSH1 0x40 MLOAD PUSH2 0x10C SWAP2 SWAP1 PUSH2 0x5EB JUMP JUMPDEST PUSH1 0x40 MLOAD DUP1 SWAP2 SUB SWAP1 RETURN JUMPDEST CALLVALUE DUP1 ISZERO PUSH2 0x121 JUMPI PUSH1 0x0 DUP1 REVERT JUMPDEST POP PUSH2 0x13C PUSH1 0x4 DUP1 CALLDATASIZE SUB DUP2 ADD SWAP1 PUSH2 0x137 SWAP2 SWAP1 PUSH2 0x5A5 JUMP JUMPDEST PUSH2 0x4F9 JUMP JUMPDEST PUSH1 0x40 MLOAD PUSH2 0x149 SWAP2 SWAP1 PUSH2 0x5EB JUMP JUMPDEST PUSH1 0x40 MLOAD DUP1 SWAP2 SUB SWAP1 RETURN JUMPDEST PUSH1 0x0 PUSH2 0x15D CALLER PUSH2 0x2F6 JUMP JUMPDEST SWAP1 POP PUSH1 0x0 PUSH1 0x2 PUSH1 0x0 CALLER PUSH20 0xFFFFFFFFFFFFFFFFFFFFFFFFFFFFFFFFFFFFFFFF AND PUSH20 0xFFFFFFFFFFFFFFFFFFFFFFFFFFFFFFFFFFFFFFFF AND DUP2 MSTORE PUSH1 0x20 ADD SWAP1 DUP2 MSTORE PUSH1 0x20 ADD PUSH1 0x0 KECCAK256 SLOAD SWAP1 POP PUSH1 0x1 PUSH1 0x0 SWAP1 SLOAD SWAP1 PUSH2 0x100 EXP SWAP1 DIV PUSH20 0xFFFFFFFFFFFFFFFFFFFFFFFFFFFFFFFFFFFFFFFF AND PUSH20 0xFFFFFFFFFFFFFFFFFFFFFFFFFFFFFFFFFFFFFFFF AND PUSH4 0x23B872DD PUSH1 0x0 DUP1 SLOAD SWAP1 PUSH2 0x100 EXP SWAP1 DIV PUSH20 0xFFFFFFFFFFFFFFFFFFFFFFFFFFFFFFFFFFFFFFFF AND CALLER DUP6 PUSH1 0x40 MLOAD DUP5 PUSH4 0xFFFFFFFF AND PUSH1 0xE0 SHL DUP2 MSTORE PUSH1 0x4 ADD PUSH2 0x222 SWAP4 SWAP3 SWAP2 SWAP1 PUSH2 0x630 JUMP JUMPDEST PUSH1 0x20 PUSH1 0x40 MLOAD DUP1 DUP4 SUB DUP2 PUSH1 0x0 DUP8 GAS CALL ISZERO DUP1 ISZERO PUSH2 0x241 JUMPI RETURNDATASIZE PUSH1 0x0 DUP1 RETURNDATACOPY RETURNDATASIZE PUSH1 0x0 REVERT JUMPDEST POP POP POP POP PUSH1 0x40 MLOAD RETURNDATASIZE PUSH1 0x1F NOT PUSH1 0x1F DUP3 ADD AND DUP3 ADD DUP1 PUSH1 0x40 MSTORE POP DUP2 ADD SWAP1 PUSH2 0x265 SWAP2 SWAP1 PUSH2 0x69F JUMP JUMPDEST POP CALLER PUSH20 0xFFFFFFFFFFFFFFFFFFFFFFFFFFFFFFFFFFFFFFFF AND PUSH2 0x8FC DUP3 SWAP1 DUP2 ISZERO MUL SWAP1 PUSH1 0x40 MLOAD PUSH1 0x0 PUSH1 0x40 MLOAD DUP1 DUP4 SUB DUP2 DUP6 DUP9 DUP9 CALL SWAP4 POP POP POP POP ISZERO DUP1 ISZERO PUSH2 0x2AC JUMPI RETURNDATASIZE PUSH1 0x0 DUP1 RETURNDATACOPY RETURNDATASIZE PUSH1 0x0 REVERT JUMPDEST POP PUSH1 0x0 PUSH1 0x2 PUSH1 0x0 CALLER PUSH20 0xFFFFFFFFFFFFFFFFFFFFFFFFFFFFFFFFFFFFFFFF AND PUSH20 0xFFFFFFFFFFFFFFFFFFFFFFFFFFFFFFFFFFFFFFFF AND DUP2 MSTORE PUSH1 0x20 ADD SWAP1 DUP2 MSTORE PUSH1 0x20 ADD PUSH1 0x0 KECCAK256 DUP2 SWAP1 SSTORE POP POP POP JUMP JUMPDEST PUSH1 0x0 DUP1 PUSH4 0x5F5E100 PUSH1 0x64 PUSH1 0x5 PUSH1 0x2 PUSH1 0x0 DUP8 PUSH20 0xFFFFFFFFFFFFFFFFFFFFFFFFFFFFFFFFFFFFFFFF AND PUSH20 0xFFFFFFFFFFFFFFFFFFFFFFFFFFFFFFFFFFFFFFFF AND DUP2 MSTORE PUSH1 0x20 ADD SWAP1 DUP2 MSTORE PUSH1 0x20 ADD PUSH1 0x0 KECCAK256 SLOAD PUSH2 0x34A PUSH2 0x44A JUMP JUMPDEST PUSH2 0x354 SWAP2 SWAP1 PUSH2 0x6FB JUMP JUMPDEST PUSH2 0x35E SWAP2 SWAP1 PUSH2 0x6FB JUMP JUMPDEST PUSH2 0x368 SWAP2 SWAP1 PUSH2 0x784 JUMP JUMPDEST PUSH2 0x372 SWAP2 SWAP1 PUSH2 0x784 JUMP JUMPDEST SWAP1 POP DUP1 SWAP2 POP POP SWAP2 SWAP1 POP JUMP JUMPDEST PUSH1 0x0 DUP1 SLOAD SWAP1 PUSH2 0x100 EXP SWAP1 DIV PUSH20 0xFFFFFFFFFFFFFFFFFFFFFFFFFFFFFFFFFFFFFFFF AND DUP2 JUMP JUMPDEST PUSH1 0x0 PUSH8 0x4563918244F40000 CALLVALUE LT ISZERO PUSH2 0x3EE JUMPI PUSH1 0x40 MLOAD PUSH32 0x8C379A000000000000000000000000000000000000000000000000000000000 DUP2 MSTORE PUSH1 0x4 ADD PUSH2 0x3E5 SWAP1 PUSH2 0x838 JUMP JUMPDEST PUSH1 0x40 MLOAD DUP1 SWAP2 SUB SWAP1 REVERT JUMPDEST CALLVALUE PUSH1 0x2 PUSH1 0x0 CALLER PUSH20 0xFFFFFFFFFFFFFFFFFFFFFFFFFFFFFFFFFFFFFFFF AND PUSH20 0xFFFFFFFFFFFFFFFFFFFFFFFFFFFFFFFFFFFFFFFF AND DUP2 MSTORE PUSH1 0x20 ADD SWAP1 DUP2 MSTORE PUSH1 0x20 ADD PUSH1 0x0 KECCAK256 PUSH1 0x0 DUP3 DUP3 SLOAD PUSH2 0x43D SWAP2 SWAP1 PUSH2 0x858 JUMP JUMPDEST SWAP3 POP POP DUP2 SWAP1 SSTORE POP CALLVALUE SWAP1 POP SWAP1 JUMP JUMPDEST PUSH1 0x0 DUP1 PUSH1 0x0 DUP1 PUSH1 0x0 DUP1 PUSH1 0x3 PUSH1 0x0 SWAP1 SLOAD SWAP1 PUSH2 0x100 EXP SWAP1 DIV PUSH20 0xFFFFFFFFFFFFFFFFFFFFFFFFFFFFFFFFFFFFFFFF AND PUSH20 0xFFFFFFFFFFFFFFFFFFFFFFFFFFFFFFFFFFFFFFFF AND PUSH4 0xFEAF968C PUSH1 0x40 MLOAD DUP2 PUSH4 0xFFFFFFFF AND PUSH1 0xE0 SHL DUP2 MSTORE PUSH1 0x4 ADD PUSH1 0xA0 PUSH1 0x40 MLOAD DUP1 DUP4 SUB DUP2 DUP7 GAS STATICCALL ISZERO DUP1 ISZERO PUSH2 0x4C0 JUMPI RETURNDATASIZE PUSH1 0x0 DUP1 RETURNDATACOPY RETURNDATASIZE PUSH1 0x0 REVERT JUMPDEST POP POP POP POP PUSH1 0x40 MLOAD RETURNDATASIZE PUSH1 0x1F NOT PUSH1 0x1F DUP3 ADD AND DUP3 ADD DUP1 PUSH1 0x40 MSTORE POP DUP2 ADD SWAP1 PUSH2 0x4E4 SWAP2 SWAP1 PUSH2 0x952 JUMP JUMPDEST SWAP5 POP SWAP5 POP SWAP5 POP SWAP5 POP SWAP5 POP DUP4 SWAP6 POP POP POP POP POP POP SWAP1 JUMP JUMPDEST PUSH1 0x0 PUSH1 0x2 PUSH1 0x0 DUP4 PUSH20 0xFFFFFFFFFFFFFFFFFFFFFFFFFFFFFFFFFFFFFFFF AND PUSH20 0xFFFFFFFFFFFFFFFFFFFFFFFFFFFFFFFFFFFFFFFF AND DUP2 MSTORE PUSH1 0x20 ADD SWAP1 DUP2 MSTORE PUSH1 0x20 ADD PUSH1 0x0 KECCAK256 SLOAD SWAP1 POP SWAP2 SWAP1 POP JUMP JUMPDEST PUSH1 0x0 DUP1 REVERT JUMPDEST PUSH1 0x0 PUSH20 0xFFFFFFFFFFFFFFFFFFFFFFFFFFFFFFFFFFFFFFFF DUP3 AND SWAP1 POP SWAP2 SWAP1 POP JUMP JUMPDEST PUSH1 0x0 PUSH2 0x572 DUP3 PUSH2 0x547 JUMP JUMPDEST SWAP1 POP SWAP2 SWAP1 POP JUMP JUMPDEST PUSH2 0x582 DUP2 PUSH2 0x567 JUMP JUMPDEST DUP2 EQ PUSH2 0x58D JUMPI PUSH1 0x0 DUP1 REVERT JUMPDEST POP JUMP JUMPDEST PUSH1 0x0 DUP2 CALLDATALOAD SWAP1 POP PUSH2 0x59F DUP2 PUSH2 0x579 JUMP JUMPDEST SWAP3 SWAP2 POP POP JUMP JUMPDEST PUSH1 0x0 PUSH1 0x20 DUP3 DUP5 SUB SLT ISZERO PUSH2 0x5BB JUMPI PUSH2 0x5BA PUSH2 0x542 JUMP JUMPDEST JUMPDEST PUSH1 0x0 PUSH2 0x5C9 DUP5 DUP3 DUP6 ADD PUSH2 0x590 JUMP JUMPDEST SWAP2 POP POP SWAP3 SWAP2 POP POP JUMP JUMPDEST PUSH1 0x0 DUP2 SWAP1 POP SWAP2 SWAP1 POP JUMP JUMPDEST PUSH2 0x5E5 DUP2 PUSH2 0x5D2 JUMP JUMPDEST DUP3 MSTORE POP POP JUMP JUMPDEST PUSH1 0x0 PUSH1 0x20 DUP3 ADD SWAP1 POP PUSH2 0x600 PUSH1 0x0 DUP4 ADD DUP5 PUSH2 0x5DC JUMP JUMPDEST SWAP3 SWAP2 POP POP JUMP JUMPDEST PUSH2 0x60F DUP2 PUSH2 0x567 JUMP JUMPDEST DUP3 MSTORE POP POP JUMP JUMPDEST PUSH1 0x0 PUSH1 0x20 DUP3 ADD SWAP1 POP PUSH2 0x62A PUSH1 0x0 DUP4 ADD DUP5 PUSH2 0x606 JUMP JUMPDEST SWAP3 SWAP2 POP POP JUMP JUMPDEST PUSH1 0x0 PUSH1 0x60 DUP3 ADD SWAP1 POP PUSH2 0x645 PUSH1 0x0 DUP4 ADD DUP7 PUSH2 0x606 JUMP JUMPDEST PUSH2 0x652 PUSH1 0x20 DUP4 ADD DUP6 PUSH2 0x606 JUMP JUMPDEST PUSH2 0x65F PUSH1 0x40 DUP4 ADD DUP5 PUSH2 0x5DC JUMP JUMPDEST SWAP5 SWAP4 POP POP POP POP JUMP JUMPDEST PUSH1 0x0 DUP2 ISZERO ISZERO SWAP1 POP SWAP2 SWAP1 POP JUMP JUMPDEST PUSH2 0x67C DUP2 PUSH2 0x667 JUMP JUMPDEST DUP2 EQ PUSH2 0x687 JUMPI PUSH1 0x0 DUP1 REVERT JUMPDEST POP JUMP JUMPDEST PUSH1 0x0 DUP2 MLOAD SWAP1 POP PUSH2 0x699 DUP2 PUSH2 0x673 JUMP JUMPDEST SWAP3 SWAP2 POP POP JUMP JUMPDEST PUSH1 0x0 PUSH1 0x20 DUP3 DUP5 SUB SLT ISZERO PUSH2 0x6B5 JUMPI PUSH2 0x6B4 PUSH2 0x542 JUMP JUMPDEST JUMPDEST PUSH1 0x0 PUSH2 0x6C3 DUP5 DUP3 DUP6 ADD PUSH2 0x68A JUMP JUMPDEST SWAP2 POP POP SWAP3 SWAP2 POP POP JUMP JUMPDEST PUSH32 0x4E487B7100000000000000000000000000000000000000000000000000000000 PUSH1 0x0 MSTORE PUSH1 0x11 PUSH1 0x4 MSTORE PUSH1 0x24 PUSH1 0x0 REVERT JUMPDEST PUSH1 0x0 PUSH2 0x706 DUP3 PUSH2 0x5D2 JUMP JUMPDEST SWAP2 POP PUSH2 0x711 DUP4 PUSH2 0x5D2 JUMP JUMPDEST SWAP3 POP DUP2 PUSH32 0xFFFFFFFFFFFFFFFFFFFFFFFFFFFFFFFFFFFFFFFFFFFFFFFFFFFFFFFFFFFFFFFF DIV DUP4 GT DUP3 ISZERO ISZERO AND ISZERO PUSH2 0x74A JUMPI PUSH2 0x749 PUSH2 0x6CC JUMP JUMPDEST JUMPDEST DUP3 DUP3 MUL SWAP1 POP SWAP3 SWAP2 POP POP JUMP JUMPDEST PUSH32 0x4E487B7100000000000000000000000000000000000000000000000000000000 PUSH1 0x0 MSTORE PUSH1 0x12 PUSH1 0x4 MSTORE PUSH1 0x24 PUSH1 0x0 REVERT JUMPDEST PUSH1 0x0 PUSH2 0x78F DUP3 PUSH2 0x5D2 JUMP JUMPDEST SWAP2 POP PUSH2 0x79A DUP4 PUSH2 0x5D2 JUMP JUMPDEST SWAP3 POP DUP3 PUSH2 0x7AA JUMPI PUSH2 0x7A9 PUSH2 0x755 JUMP JUMPDEST JUMPDEST DUP3 DUP3 DIV SWAP1 POP SWAP3 SWAP2 POP POP JUMP JUMPDEST PUSH1 0x0 DUP3 DUP3 MSTORE PUSH1 0x20 DUP3 ADD SWAP1 POP SWAP3 SWAP2 POP POP JUMP JUMPDEST PUSH32 0x5374616B652076616C75652073686F756C642062652067726561746572207468 PUSH1 0x0 DUP3 ADD MSTORE PUSH32 0x616E203520657468000000000000000000000000000000000000000000000000 PUSH1 0x20 DUP3 ADD MSTORE POP JUMP JUMPDEST PUSH1 0x0 PUSH2 0x822 PUSH1 0x28 DUP4 PUSH2 0x7B5 JUMP JUMPDEST SWAP2 POP PUSH2 0x82D DUP3 PUSH2 0x7C6 JUMP JUMPDEST PUSH1 0x40 DUP3 ADD SWAP1 POP SWAP2 SWAP1 POP JUMP JUMPDEST PUSH1 0x0 PUSH1 0x20 DUP3 ADD SWAP1 POP DUP2 DUP2 SUB PUSH1 0x0 DUP4 ADD MSTORE PUSH2 0x851 DUP2 PUSH2 0x815 JUMP JUMPDEST SWAP1 POP SWAP2 SWAP1 POP JUMP JUMPDEST PUSH1 0x0 PUSH2 0x863 DUP3 PUSH2 0x5D2 JUMP JUMPDEST SWAP2 POP PUSH2 0x86E DUP4 PUSH2 0x5D2 JUMP JUMPDEST SWAP3 POP DUP3 PUSH32 0xFFFFFFFFFFFFFFFFFFFFFFFFFFFFFFFFFFFFFFFFFFFFFFFFFFFFFFFFFFFFFFFF SUB DUP3 GT ISZERO PUSH2 0x8A3 JUMPI PUSH2 0x8A2 PUSH2 0x6CC JUMP JUMPDEST JUMPDEST DUP3 DUP3 ADD SWAP1 POP SWAP3 SWAP2 POP POP JUMP JUMPDEST PUSH1 0x0 PUSH10 0xFFFFFFFFFFFFFFFFFFFF DUP3 AND SWAP1 POP SWAP2 SWAP1 POP JUMP JUMPDEST PUSH2 0x8CD DUP2 PUSH2 0x8AE JUMP JUMPDEST DUP2 EQ PUSH2 0x8D8 JUMPI PUSH1 0x0 DUP1 REVERT JUMPDEST POP JUMP JUMPDEST PUSH1 0x0 DUP2 MLOAD SWAP1 POP PUSH2 0x8EA DUP2 PUSH2 0x8C4 JUMP JUMPDEST SWAP3 SWAP2 POP POP JUMP JUMPDEST PUSH1 0x0 DUP2 SWAP1 POP SWAP2 SWAP1 POP JUMP JUMPDEST PUSH2 0x903 DUP2 PUSH2 0x8F0 JUMP JUMPDEST DUP2 EQ PUSH2 0x90E JUMPI PUSH1 0x0 DUP1 REVERT JUMPDEST POP JUMP JUMPDEST PUSH1 0x0 DUP2 MLOAD SWAP1 POP PUSH2 0x920 DUP2 PUSH2 0x8FA JUMP JUMPDEST SWAP3 SWAP2 POP POP JUMP JUMPDEST PUSH2 0x92F DUP2 PUSH2 0x5D2 JUMP JUMPDEST DUP2 EQ PUSH2 0x93A JUMPI PUSH1 0x0 DUP1 REVERT JUMPDEST POP JUMP JUMPDEST PUSH1 0x0 DUP2 MLOAD SWAP1 POP PUSH2 0x94C DUP2 PUSH2 0x926 JUMP JUMPDEST SWAP3 SWAP2 POP POP JUMP JUMPDEST PUSH1 0x0 DUP1 PUSH1 0x0 DUP1 PUSH1 0x0 PUSH1 0xA0 DUP7 DUP9 SUB SLT ISZERO PUSH2 0x96E JUMPI PUSH2 0x96D PUSH2 0x542 JUMP JUMPDEST JUMPDEST PUSH1 0x0 PUSH2 0x97C DUP9 DUP3 DUP10 ADD PUSH2 0x8DB JUMP JUMPDEST SWAP6 POP POP PUSH1 0x20 PUSH2 0x98D DUP9 DUP3 DUP10 ADD PUSH2 0x911 JUMP JUMPDEST SWAP5 POP POP PUSH1 0x40 PUSH2 0x99E DUP9 DUP3 DUP10 ADD PUSH2 0x93D JUMP JUMPDEST SWAP4 POP POP PUSH1 0x60 PUSH2 0x9AF DUP9 DUP3 DUP10 ADD PUSH2 0x93D JUMP JUMPDEST SWAP3 POP POP PUSH1 0x80 PUSH2 0x9C0 DUP9 DUP3 DUP10 ADD PUSH2 0x8DB JUMP JUMPDEST SWAP2 POP POP SWAP3 SWAP6 POP SWAP3 SWAP6 SWAP1 SWAP4 POP JUMP INVALID LOG2 PUSH5 0x6970667358 0x22 SLT KECCAK256 GASPRICE 0xAA EQ MSIZE STATICCALL 0xBB SWAP3 PUSH10 0xFF94BA29C9F76B108006 0xD0 EXTCODECOPY PUSH4 0x6A6B2E03 0x21 0xA7 EQ PUSH24 0xB4EC7B64736F6C634300080E003300000000000000000000 "
				},
				"gasEstimates": {
					"creation": {
						"codeDepositCost": "512600",
						"executionCost": "infinite",
						"totalCost": "infinite"
					},
					"external": {
						"calculateRewards(address)": "infinite",
						"getLatestPrice()": "infinite",
						"stakeEth()": "infinite",
						"stakeholderStakes(address)": "2929",
						"unstake()": "infinite",
						"walletAddress()": "2533"
					}
				},
				"methodIdentifiers": {
					"calculateRewards(address)": "64ab8675",
					"getLatestPrice()": "8e15f473",
					"stakeEth()": "7a5f0dc4",
					"stakeholderStakes(address)": "d3fd09ec",
					"unstake()": "2def6620",
					"walletAddress()": "6ad5b3ea"
				}
			},
			"storageLayout": {
				"storage": [
					{
						"astId": 129,
						"contract": "Hsteaking.sol:EthStaking",
						"label": "walletAddress",
						"offset": 0,
						"slot": "0",
						"type": "t_address"
					},
					{
						"astId": 132,
						"contract": "Hsteaking.sol:EthStaking",
						"label": "tokenERC20",
						"offset": 0,
						"slot": "1",
						"type": "t_contract(IERC20)123"
					},
					{
						"astId": 136,
						"contract": "Hsteaking.sol:EthStaking",
						"label": "_stakeHolders",
						"offset": 0,
						"slot": "2",
						"type": "t_mapping(t_address,t_uint256)"
					},
					{
						"astId": 139,
						"contract": "Hsteaking.sol:EthStaking",
						"label": "priceFeed",
						"offset": 0,
						"slot": "3",
						"type": "t_contract(AggregatorV3Interface)45"
					}
				],
				"types": {
					"t_address": {
						"encoding": "inplace",
						"label": "address",
						"numberOfBytes": "20"
					},
					"t_contract(AggregatorV3Interface)45": {
						"encoding": "inplace",
						"label": "contract AggregatorV3Interface",
						"numberOfBytes": "20"
					},
					"t_contract(IERC20)123": {
						"encoding": "inplace",
						"label": "contract IERC20",
						"numberOfBytes": "20"
					},
					"t_mapping(t_address,t_uint256)": {
						"encoding": "mapping",
						"key": "t_address",
						"label": "mapping(address => uint256)",
						"numberOfBytes": "32",
						"value": "t_uint256"
					},
					"t_uint256": {
						"encoding": "inplace",
						"label": "uint256",
						"numberOfBytes": "32"
					}
				}
			},
			"userdoc": {
				"kind": "user",
				"methods": {},
				"version": 1
			}
		}
	}
}