{
	"my2ndtoken.sol": {
		"TokenERC20": {
			"abi": [
				{
					"constant": true,
					"inputs": [],
					"name": "name",
					"outputs": [
						{
							"name": "",
							"type": "string"
						}
					],
					"payable": false,
					"stateMutability": "view",
					"type": "function"
				},
				{
					"constant": false,
					"inputs": [
						{
							"name": "_spender",
							"type": "address"
						},
						{
							"name": "_value",
							"type": "uint256"
						}
					],
					"name": "approve",
					"outputs": [
						{
							"name": "success",
							"type": "bool"
						}
					],
					"payable": false,
					"stateMutability": "nonpayable",
					"type": "function"
				},
				{
					"constant": true,
					"inputs": [],
					"name": "totalSupply",
					"outputs": [
						{
							"name": "",
							"type": "uint256"
						}
					],
					"payable": false,
					"stateMutability": "view",
					"type": "function"
				},
				{
					"constant": false,
					"inputs": [
						{
							"name": "_from",
							"type": "address"
						},
						{
							"name": "_to",
							"type": "address"
						},
						{
							"name": "_value",
							"type": "uint256"
						}
					],
					"name": "transferFrom",
					"outputs": [
						{
							"name": "success",
							"type": "bool"
						}
					],
					"payable": false,
					"stateMutability": "nonpayable",
					"type": "function"
				},
				{
					"constant": true,
					"inputs": [],
					"name": "decimals",
					"outputs": [
						{
							"name": "",
							"type": "uint8"
						}
					],
					"payable": false,
					"stateMutability": "view",
					"type": "function"
				},
				{
					"constant": false,
					"inputs": [
						{
							"name": "_value",
							"type": "uint256"
						}
					],
					"name": "burn",
					"outputs": [
						{
							"name": "success",
							"type": "bool"
						}
					],
					"payable": false,
					"stateMutability": "nonpayable",
					"type": "function"
				},
				{
					"constant": true,
					"inputs": [
						{
							"name": "",
							"type": "address"
						}
					],
					"name": "balanceOf",
					"outputs": [
						{
							"name": "",
							"type": "uint256"
						}
					],
					"payable": false,
					"stateMutability": "view",
					"type": "function"
				},
				{
					"constant": false,
					"inputs": [
						{
							"name": "_from",
							"type": "address"
						},
						{
							"name": "_value",
							"type": "uint256"
						}
					],
					"name": "burnFrom",
					"outputs": [
						{
							"name": "success",
							"type": "bool"
						}
					],
					"payable": false,
					"stateMutability": "nonpayable",
					"type": "function"
				},
				{
					"constant": true,
					"inputs": [],
					"name": "symbol",
					"outputs": [
						{
							"name": "",
							"type": "string"
						}
					],
					"payable": false,
					"stateMutability": "view",
					"type": "function"
				},
				{
					"constant": false,
					"inputs": [
						{
							"name": "_to",
							"type": "address"
						},
						{
							"name": "_value",
							"type": "uint256"
						}
					],
					"name": "transfer",
					"outputs": [
						{
							"name": "success",
							"type": "bool"
						}
					],
					"payable": false,
					"stateMutability": "nonpayable",
					"type": "function"
				},
				{
					"constant": false,
					"inputs": [
						{
							"name": "_spender",
							"type": "address"
						},
						{
							"name": "_value",
							"type": "uint256"
						},
						{
							"name": "_extraData",
							"type": "bytes"
						}
					],
					"name": "approveAndCall",
					"outputs": [
						{
							"name": "success",
							"type": "bool"
						}
					],
					"payable": false,
					"stateMutability": "nonpayable",
					"type": "function"
				},
				{
					"constant": true,
					"inputs": [
						{
							"name": "",
							"type": "address"
						},
						{
							"name": "",
							"type": "address"
						}
					],
					"name": "allowance",
					"outputs": [
						{
							"name": "",
							"type": "uint256"
						}
					],
					"payable": false,
					"stateMutability": "view",
					"type": "function"
				},
				{
					"inputs": [
						{
							"name": "initialSupply",
							"type": "uint256"
						},
						{
							"name": "tokenName",
							"type": "string"
						},
						{
							"name": "tokenSymbol",
							"type": "string"
						}
					],
					"payable": false,
					"stateMutability": "nonpayable",
					"type": "constructor"
				},
				{
					"anonymous": false,
					"inputs": [
						{
							"indexed": true,
							"name": "from",
							"type": "address"
						},
						{
							"indexed": true,
							"name": "to",
							"type": "address"
						},
						{
							"indexed": false,
							"name": "value",
							"type": "uint256"
						}
					],
					"name": "Transfer",
					"type": "event"
				},
				{
					"anonymous": false,
					"inputs": [
						{
							"indexed": true,
							"name": "_owner",
							"type": "address"
						},
						{
							"indexed": true,
							"name": "_spender",
							"type": "address"
						},
						{
							"indexed": false,
							"name": "_value",
							"type": "uint256"
						}
					],
					"name": "Approval",
					"type": "event"
				},
				{
					"anonymous": false,
					"inputs": [
						{
							"indexed": true,
							"name": "from",
							"type": "address"
						},
						{
							"indexed": false,
							"name": "value",
							"type": "uint256"
						}
					],
					"name": "Burn",
					"type": "event"
				}
			],
			"devdoc": {
				"methods": {
					"approve(address,uint256)": {
						"params": {
							"_spender": "The address authorized to spend\r",
							"_value": "the max amount they can spend\r"
						}
					},
					"approveAndCall(address,uint256,bytes)": {
						"params": {
							"_extraData": "some extra information to send to the approved contract\r",
							"_spender": "The address authorized to spend\r",
							"_value": "the max amount they can spend\r"
						}
					},
					"burn(uint256)": {
						"params": {
							"_value": "the amount of money to burn\r"
						}
					},
					"burnFrom(address,uint256)": {
						"params": {
							"_from": "the address of the sender\r",
							"_value": "the amount of money to burn\r"
						}
					},
					"transfer(address,uint256)": {
						"params": {
							"_to": "The address of the recipient\r",
							"_value": "the amount to send\r"
						}
					},
					"transferFrom(address,address,uint256)": {
						"params": {
							"_from": "The address of the sender\r",
							"_to": "The address of the recipient\r",
							"_value": "the amount to send\r"
						}
					}
				}
			},
			"evm": {
				"assembly": "    /* \"my2ndtoken.sol\":503:6597  contract TokenERC20 {\r... */\n  mstore(0x40, 0x80)\n    /* \"my2ndtoken.sol\":644:646  18 */\n  0x12\n    /* \"my2ndtoken.sol\":620:646  uint8 public decimals = 18 */\n  0x2\n  exp(0x100, 0x0)\n  dup2\n  sload\n  dup2\n  0xff\n  mul\n  not\n  and\n  swap1\n  dup4\n  0xff\n  and\n  mul\n  or\n  swap1\n  sstore\n  pop\n    /* \"my2ndtoken.sol\":1521:2061  function TokenERC20(\r... */\n  callvalue\n    /* \"--CODEGEN--\":8:17   */\n  dup1\n    /* \"--CODEGEN--\":5:7   */\n  iszero\n  tag_1\n  jumpi\n    /* \"--CODEGEN--\":30:31   */\n  0x0\n    /* \"--CODEGEN--\":27:28   */\n  dup1\n    /* \"--CODEGEN--\":20:32   */\n  revert\n    /* \"--CODEGEN--\":5:7   */\ntag_1:\n    /* \"my2ndtoken.sol\":1521:2061  function TokenERC20(\r... */\n  pop\n  mload(0x40)\n  sub(codesize, bytecodeSize)\n  dup1\n  bytecodeSize\n  dup4\n  codecopy\n  dup2\n  add\n  dup1\n  0x40\n  mstore\n  dup2\n  add\n  swap1\n  dup1\n  dup1\n  mload\n  swap1\n  0x20\n  add\n  swap1\n  swap3\n  swap2\n  swap1\n  dup1\n  mload\n  dup3\n  add\n  swap3\n  swap2\n  swap1\n  0x20\n  add\n  dup1\n  mload\n  dup3\n  add\n  swap3\n  swap2\n  swap1\n  pop\n  pop\n  pop\n    /* \"my2ndtoken.sol\":1698:1706  decimals */\n  0x2\n  0x0\n  swap1\n  sload\n  swap1\n  0x100\n  exp\n  swap1\n  div\n  0xff\n  and\n    /* \"my2ndtoken.sol\":1690:1707  uint256(decimals) */\n  0xff\n  and\n    /* \"my2ndtoken.sol\":1684:1686  10 */\n  0xa\n    /* \"my2ndtoken.sol\":1684:1707  10 ** uint256(decimals) */\n  exp\n    /* \"my2ndtoken.sol\":1668:1681  initialSupply */\n  dup4\n    /* \"my2ndtoken.sol\":1668:1707  initialSupply * 10 ** uint256(decimals) */\n  mul\n    /* \"my2ndtoken.sol\":1654:1665  totalSupply */\n  0x3\n    /* \"my2ndtoken.sol\":1654:1707  totalSupply = initialSupply * 10 ** uint256(decimals) */\n  dup2\n  swap1\n  sstore\n  pop\n    /* \"my2ndtoken.sol\":1790:1801  totalSupply */\n  sload(0x3)\n    /* \"my2ndtoken.sol\":1766:1775  balanceOf */\n  0x4\n    /* \"my2ndtoken.sol\":1766:1787  balanceOf[msg.sender] */\n  0x0\n    /* \"my2ndtoken.sol\":1776:1786  msg.sender */\n  caller\n    /* \"my2ndtoken.sol\":1766:1787  balanceOf[msg.sender] */\n  0xffffffffffffffffffffffffffffffffffffffff\n  and\n  0xffffffffffffffffffffffffffffffffffffffff\n  and\n  dup2\n  mstore\n  0x20\n  add\n  swap1\n  dup2\n  mstore\n  0x20\n  add\n  0x0\n  keccak256\n    /* \"my2ndtoken.sol\":1766:1801  balanceOf[msg.sender] = totalSupply */\n  dup2\n  swap1\n  sstore\n  pop\n    /* \"my2ndtoken.sol\":1873:1882  tokenName */\n  dup2\n    /* \"my2ndtoken.sol\":1866:1870  name */\n  0x0\n    /* \"my2ndtoken.sol\":1866:1882  name = tokenName */\n  swap1\n  dup1\n  mload\n  swap1\n  0x20\n  add\n  swap1\n  tag_4\n  swap3\n  swap2\n  swap1\n  jump\t// in(tag_5)\ntag_4:\n  pop\n    /* \"my2ndtoken.sol\":1973:1984  tokenSymbol */\n  dup1\n    /* \"my2ndtoken.sol\":1964:1970  symbol */\n  0x1\n    /* \"my2ndtoken.sol\":1964:1984  symbol = tokenSymbol */\n  swap1\n  dup1\n  mload\n  swap1\n  0x20\n  add\n  swap1\n  tag_6\n  swap3\n  swap2\n  swap1\n  jump\t// in(tag_5)\ntag_6:\n  pop\n    /* \"my2ndtoken.sol\":1521:2061  function TokenERC20(\r... */\n  pop\n  pop\n  pop\n    /* \"my2ndtoken.sol\":503:6597  contract TokenERC20 {\r... */\n  jump(tag_7)\ntag_5:\n  dup3\n  dup1\n  sload\n  0x1\n  dup2\n  0x1\n  and\n  iszero\n  0x100\n  mul\n  sub\n  and\n  0x2\n  swap1\n  div\n  swap1\n  0x0\n  mstore\n  keccak256(0x0, 0x20)\n  swap1\n  0x1f\n  add\n  0x20\n  swap1\n  div\n  dup2\n  add\n  swap3\n  dup3\n  0x1f\n  lt\n  tag_9\n  jumpi\n  dup1\n  mload\n  not(0xff)\n  and\n  dup4\n  dup1\n  add\n  or\n  dup6\n  sstore\n  jump(tag_8)\ntag_9:\n  dup3\n  dup1\n  add\n  0x1\n  add\n  dup6\n  sstore\n  dup3\n  iszero\n  tag_8\n  jumpi\n  swap2\n  dup3\n  add\ntag_10:\n  dup3\n  dup2\n  gt\n  iszero\n  tag_11\n  jumpi\n  dup3\n  mload\n  dup3\n  sstore\n  swap2\n  0x20\n  add\n  swap2\n  swap1\n  0x1\n  add\n  swap1\n  jump(tag_10)\ntag_11:\ntag_8:\n  pop\n  swap1\n  pop\n  tag_12\n  swap2\n  swap1\n  jump\t// in(tag_13)\ntag_12:\n  pop\n  swap1\n  jump\t// out\ntag_13:\n  tag_14\n  swap2\n  swap1\ntag_15:\n  dup1\n  dup3\n  gt\n  iszero\n  tag_16\n  jumpi\n  0x0\n  dup2\n  0x0\n  swap1\n  sstore\n  pop\n  0x1\n  add\n  jump(tag_15)\ntag_16:\n  pop\n  swap1\n  jump\ntag_14:\n  swap1\n  jump\t// out\ntag_7:\n  dataSize(sub_0)\n  dup1\n  dataOffset(sub_0)\n  0x0\n  codecopy\n  0x0\n  return\nstop\n\nsub_0: assembly {\n        /* \"my2ndtoken.sol\":503:6597  contract TokenERC20 {\r... */\n      mstore(0x40, 0x80)\n      jumpi(tag_1, lt(calldatasize, 0x4))\n      calldataload(0x0)\n      0x100000000000000000000000000000000000000000000000000000000\n      swap1\n      div\n      0xffffffff\n      and\n      dup1\n      0x6fdde03\n      eq\n      tag_2\n      jumpi\n      dup1\n      0x95ea7b3\n      eq\n      tag_3\n      jumpi\n      dup1\n      0x18160ddd\n      eq\n      tag_4\n      jumpi\n      dup1\n      0x23b872dd\n      eq\n      tag_5\n      jumpi\n      dup1\n      0x313ce567\n      eq\n      tag_6\n      jumpi\n      dup1\n      0x42966c68\n      eq\n      tag_7\n      jumpi\n      dup1\n      0x70a08231\n      eq\n      tag_8\n      jumpi\n      dup1\n      0x79cc6790\n      eq\n      tag_9\n      jumpi\n      dup1\n      0x95d89b41\n      eq\n      tag_10\n      jumpi\n      dup1\n      0xa9059cbb\n      eq\n      tag_11\n      jumpi\n      dup1\n      0xcae9ca51\n      eq\n      tag_12\n      jumpi\n      dup1\n      0xdd62ed3e\n      eq\n      tag_13\n      jumpi\n    tag_1:\n      0x0\n      dup1\n      revert\n        /* \"my2ndtoken.sol\":568:586  string public name */\n    tag_2:\n      callvalue\n        /* \"--CODEGEN--\":8:17   */\n      dup1\n        /* \"--CODEGEN--\":5:7   */\n      iszero\n      tag_14\n      jumpi\n        /* \"--CODEGEN--\":30:31   */\n      0x0\n        /* \"--CODEGEN--\":27:28   */\n      dup1\n        /* \"--CODEGEN--\":20:32   */\n      revert\n        /* \"--CODEGEN--\":5:7   */\n    tag_14:\n        /* \"my2ndtoken.sol\":568:586  string public name */\n      pop\n      tag_15\n      jump(tag_16)\n    tag_15:\n      mload(0x40)\n      dup1\n      dup1\n      0x20\n      add\n      dup3\n      dup2\n      sub\n      dup3\n      mstore\n      dup4\n      dup2\n      dup2\n      mload\n      dup2\n      mstore\n      0x20\n      add\n      swap2\n      pop\n      dup1\n      mload\n      swap1\n      0x20\n      add\n      swap1\n      dup1\n      dup4\n      dup4\n        /* \"--CODEGEN--\":23:24   */\n      0x0\n        /* \"--CODEGEN--\":8:108   */\n    tag_17:\n        /* \"--CODEGEN--\":33:36   */\n      dup4\n        /* \"--CODEGEN--\":30:31   */\n      dup2\n        /* \"--CODEGEN--\":27:37   */\n      lt\n        /* \"--CODEGEN--\":8:108   */\n      iszero\n      tag_18\n      jumpi\n        /* \"--CODEGEN--\":99:100   */\n      dup1\n        /* \"--CODEGEN--\":94:97   */\n      dup3\n        /* \"--CODEGEN--\":90:101   */\n      add\n        /* \"--CODEGEN--\":84:102   */\n      mload\n        /* \"--CODEGEN--\":80:81   */\n      dup2\n        /* \"--CODEGEN--\":75:78   */\n      dup5\n        /* \"--CODEGEN--\":71:82   */\n      add\n        /* \"--CODEGEN--\":64:103   */\n      mstore\n        /* \"--CODEGEN--\":52:54   */\n      0x20\n        /* \"--CODEGEN--\":49:50   */\n      dup2\n        /* \"--CODEGEN--\":45:55   */\n      add\n        /* \"--CODEGEN--\":40:55   */\n      swap1\n      pop\n        /* \"--CODEGEN--\":8:108   */\n      jump(tag_17)\n    tag_18:\n        /* \"--CODEGEN--\":12:26   */\n      pop\n        /* \"my2ndtoken.sol\":568:586  string public name */\n      pop\n      pop\n      pop\n      swap1\n      pop\n      swap1\n      dup2\n      add\n      swap1\n      0x1f\n      and\n      dup1\n      iszero\n      tag_20\n      jumpi\n      dup1\n      dup3\n      sub\n      dup1\n      mload\n      0x1\n      dup4\n      0x20\n      sub\n      0x100\n      exp\n      sub\n      not\n      and\n      dup2\n      mstore\n      0x20\n      add\n      swap2\n      pop\n    tag_20:\n      pop\n      swap3\n      pop\n      pop\n      pop\n      mload(0x40)\n      dup1\n      swap2\n      sub\n      swap1\n      return\n        /* \"my2ndtoken.sol\":4200:4425  function approve(address _spender, uint256 _value) public\r... */\n    tag_3:\n      callvalue\n        /* \"--CODEGEN--\":8:17   */\n      dup1\n        /* \"--CODEGEN--\":5:7   */\n      iszero\n      tag_21\n      jumpi\n        /* \"--CODEGEN--\":30:31   */\n      0x0\n        /* \"--CODEGEN--\":27:28   */\n      dup1\n        /* \"--CODEGEN--\":20:32   */\n      revert\n        /* \"--CODEGEN--\":5:7   */\n    tag_21:\n        /* \"my2ndtoken.sol\":4200:4425  function approve(address _spender, uint256 _value) public\r... */\n      pop\n      tag_22\n      0x4\n      dup1\n      calldatasize\n      sub\n      dup2\n      add\n      swap1\n      dup1\n      dup1\n      calldataload\n      0xffffffffffffffffffffffffffffffffffffffff\n      and\n      swap1\n      0x20\n      add\n      swap1\n      swap3\n      swap2\n      swap1\n      dup1\n      calldataload\n      swap1\n      0x20\n      add\n      swap1\n      swap3\n      swap2\n      swap1\n      pop\n      pop\n      pop\n      jump(tag_23)\n    tag_22:\n      mload(0x40)\n      dup1\n      dup3\n      iszero\n      iszero\n      iszero\n      iszero\n      dup2\n      mstore\n      0x20\n      add\n      swap2\n      pop\n      pop\n      mload(0x40)\n      dup1\n      swap2\n      sub\n      swap1\n      return\n        /* \"my2ndtoken.sol\":726:752  uint256 public totalSupply */\n    tag_4:\n      callvalue\n        /* \"--CODEGEN--\":8:17   */\n      dup1\n        /* \"--CODEGEN--\":5:7   */\n      iszero\n      tag_24\n      jumpi\n        /* \"--CODEGEN--\":30:31   */\n      0x0\n        /* \"--CODEGEN--\":27:28   */\n      dup1\n        /* \"--CODEGEN--\":20:32   */\n      revert\n        /* \"--CODEGEN--\":5:7   */\n    tag_24:\n        /* \"my2ndtoken.sol\":726:752  uint256 public totalSupply */\n      pop\n      tag_25\n      jump(tag_26)\n    tag_25:\n      mload(0x40)\n      dup1\n      dup3\n      dup2\n      mstore\n      0x20\n      add\n      swap2\n      pop\n      pop\n      mload(0x40)\n      dup1\n      swap2\n      sub\n      swap1\n      return\n        /* \"my2ndtoken.sol\":3635:3931  function transferFrom(address _from, address _to, uint256 _value) public returns (bool success) {\r... */\n    tag_5:\n      callvalue\n        /* \"--CODEGEN--\":8:17   */\n      dup1\n        /* \"--CODEGEN--\":5:7   */\n      iszero\n      tag_27\n      jumpi\n        /* \"--CODEGEN--\":30:31   */\n      0x0\n        /* \"--CODEGEN--\":27:28   */\n      dup1\n        /* \"--CODEGEN--\":20:32   */\n      revert\n        /* \"--CODEGEN--\":5:7   */\n    tag_27:\n        /* \"my2ndtoken.sol\":3635:3931  function transferFrom(address _from, address _to, uint256 _value) public returns (bool success) {\r... */\n      pop\n      tag_28\n      0x4\n      dup1\n      calldatasize\n      sub\n      dup2\n      add\n      swap1\n      dup1\n      dup1\n      calldataload\n      0xffffffffffffffffffffffffffffffffffffffff\n      and\n      swap1\n      0x20\n      add\n      swap1\n      swap3\n      swap2\n      swap1\n      dup1\n      calldataload\n      0xffffffffffffffffffffffffffffffffffffffff\n      and\n      swap1\n      0x20\n      add\n      swap1\n      swap3\n      swap2\n      swap1\n      dup1\n      calldataload\n      swap1\n      0x20\n      add\n      swap1\n      swap3\n      swap2\n      swap1\n      pop\n      pop\n      pop\n      jump(tag_29)\n    tag_28:\n      mload(0x40)\n      dup1\n      dup3\n      iszero\n      iszero\n      iszero\n      iszero\n      dup2\n      mstore\n      0x20\n      add\n      swap2\n      pop\n      pop\n      mload(0x40)\n      dup1\n      swap2\n      sub\n      swap1\n      return\n        /* \"my2ndtoken.sol\":620:646  uint8 public decimals = 18 */\n    tag_6:\n      callvalue\n        /* \"--CODEGEN--\":8:17   */\n      dup1\n        /* \"--CODEGEN--\":5:7   */\n      iszero\n      tag_30\n      jumpi\n        /* \"--CODEGEN--\":30:31   */\n      0x0\n        /* \"--CODEGEN--\":27:28   */\n      dup1\n        /* \"--CODEGEN--\":20:32   */\n      revert\n        /* \"--CODEGEN--\":5:7   */\n    tag_30:\n        /* \"my2ndtoken.sol\":620:646  uint8 public decimals = 18 */\n      pop\n      tag_31\n      jump(tag_32)\n    tag_31:\n      mload(0x40)\n      dup1\n      dup3\n      0xff\n      and\n      0xff\n      and\n      dup2\n      mstore\n      0x20\n      add\n      swap2\n      pop\n      pop\n      mload(0x40)\n      dup1\n      swap2\n      sub\n      swap1\n      return\n        /* \"my2ndtoken.sol\":5346:5720  function burn(uint256 _value) public returns (bool success) {\r... */\n    tag_7:\n      callvalue\n        /* \"--CODEGEN--\":8:17   */\n      dup1\n        /* \"--CODEGEN--\":5:7   */\n      iszero\n      tag_33\n      jumpi\n        /* \"--CODEGEN--\":30:31   */\n      0x0\n        /* \"--CODEGEN--\":27:28   */\n      dup1\n        /* \"--CODEGEN--\":20:32   */\n      revert\n        /* \"--CODEGEN--\":5:7   */\n    tag_33:\n        /* \"my2ndtoken.sol\":5346:5720  function burn(uint256 _value) public returns (bool success) {\r... */\n      pop\n      tag_34\n      0x4\n      dup1\n      calldatasize\n      sub\n      dup2\n      add\n      swap1\n      dup1\n      dup1\n      calldataload\n      swap1\n      0x20\n      add\n      swap1\n      swap3\n      swap2\n      swap1\n      pop\n      pop\n      pop\n      jump(tag_35)\n    tag_34:\n      mload(0x40)\n      dup1\n      dup3\n      iszero\n      iszero\n      iszero\n      iszero\n      dup2\n      mstore\n      0x20\n      add\n      swap2\n      pop\n      pop\n      mload(0x40)\n      dup1\n      swap2\n      sub\n      swap1\n      return\n        /* \"my2ndtoken.sol\":809:854  mapping (address => uint256) public balanceOf */\n    tag_8:\n      callvalue\n        /* \"--CODEGEN--\":8:17   */\n      dup1\n        /* \"--CODEGEN--\":5:7   */\n      iszero\n      tag_36\n      jumpi\n        /* \"--CODEGEN--\":30:31   */\n      0x0\n        /* \"--CODEGEN--\":27:28   */\n      dup1\n        /* \"--CODEGEN--\":20:32   */\n      revert\n        /* \"--CODEGEN--\":5:7   */\n    tag_36:\n        /* \"my2ndtoken.sol\":809:854  mapping (address => uint256) public balanceOf */\n      pop\n      tag_37\n      0x4\n      dup1\n      calldatasize\n      sub\n      dup2\n      add\n      swap1\n      dup1\n      dup1\n      calldataload\n      0xffffffffffffffffffffffffffffffffffffffff\n      and\n      swap1\n      0x20\n      add\n      swap1\n      swap3\n      swap2\n      swap1\n      pop\n      pop\n      pop\n      jump(tag_38)\n    tag_37:\n      mload(0x40)\n      dup1\n      dup3\n      dup2\n      mstore\n      0x20\n      add\n      swap2\n      pop\n      pop\n      mload(0x40)\n      dup1\n      swap2\n      sub\n      swap1\n      return\n        /* \"my2ndtoken.sol\":5983:6594  function burnFrom(address _from, uint256 _value) public returns (bool success) {\r... */\n    tag_9:\n      callvalue\n        /* \"--CODEGEN--\":8:17   */\n      dup1\n        /* \"--CODEGEN--\":5:7   */\n      iszero\n      tag_39\n      jumpi\n        /* \"--CODEGEN--\":30:31   */\n      0x0\n        /* \"--CODEGEN--\":27:28   */\n      dup1\n        /* \"--CODEGEN--\":20:32   */\n      revert\n        /* \"--CODEGEN--\":5:7   */\n    tag_39:\n        /* \"my2ndtoken.sol\":5983:6594  function burnFrom(address _from, uint256 _value) public returns (bool success) {\r... */\n      pop\n      tag_40\n      0x4\n      dup1\n      calldatasize\n      sub\n      dup2\n      add\n      swap1\n      dup1\n      dup1\n      calldataload\n      0xffffffffffffffffffffffffffffffffffffffff\n      and\n      swap1\n      0x20\n      add\n      swap1\n      swap3\n      swap2\n      swap1\n      dup1\n      calldataload\n      swap1\n      0x20\n      add\n      swap1\n      swap3\n      swap2\n      swap1\n      pop\n      pop\n      pop\n      jump(tag_41)\n    tag_40:\n      mload(0x40)\n      dup1\n      dup3\n      iszero\n      iszero\n      iszero\n      iszero\n      dup2\n      mstore\n      0x20\n      add\n      swap2\n      pop\n      pop\n      mload(0x40)\n      dup1\n      swap2\n      sub\n      swap1\n      return\n        /* \"my2ndtoken.sol\":593:613  string public symbol */\n    tag_10:\n      callvalue\n        /* \"--CODEGEN--\":8:17   */\n      dup1\n        /* \"--CODEGEN--\":5:7   */\n      iszero\n      tag_42\n      jumpi\n        /* \"--CODEGEN--\":30:31   */\n      0x0\n        /* \"--CODEGEN--\":27:28   */\n      dup1\n        /* \"--CODEGEN--\":20:32   */\n      revert\n        /* \"--CODEGEN--\":5:7   */\n    tag_42:\n        /* \"my2ndtoken.sol\":593:613  string public symbol */\n      pop\n      tag_43\n      jump(tag_44)\n    tag_43:\n      mload(0x40)\n      dup1\n      dup1\n      0x20\n      add\n      dup3\n      dup2\n      sub\n      dup3\n      mstore\n      dup4\n      dup2\n      dup2\n      mload\n      dup2\n      mstore\n      0x20\n      add\n      swap2\n      pop\n      dup1\n      mload\n      swap1\n      0x20\n      add\n      swap1\n      dup1\n      dup4\n      dup4\n        /* \"--CODEGEN--\":23:24   */\n      0x0\n        /* \"--CODEGEN--\":8:108   */\n    tag_45:\n        /* \"--CODEGEN--\":33:36   */\n      dup4\n        /* \"--CODEGEN--\":30:31   */\n      dup2\n        /* \"--CODEGEN--\":27:37   */\n      lt\n        /* \"--CODEGEN--\":8:108   */\n      iszero\n      tag_46\n      jumpi\n        /* \"--CODEGEN--\":99:100   */\n      dup1\n        /* \"--CODEGEN--\":94:97   */\n      dup3\n        /* \"--CODEGEN--\":90:101   */\n      add\n        /* \"--CODEGEN--\":84:102   */\n      mload\n        /* \"--CODEGEN--\":80:81   */\n      dup2\n        /* \"--CODEGEN--\":75:78   */\n      dup5\n        /* \"--CODEGEN--\":71:82   */\n      add\n        /* \"--CODEGEN--\":64:103   */\n      mstore\n        /* \"--CODEGEN--\":52:54   */\n      0x20\n        /* \"--CODEGEN--\":49:50   */\n      dup2\n        /* \"--CODEGEN--\":45:55   */\n      add\n        /* \"--CODEGEN--\":40:55   */\n      swap1\n      pop\n        /* \"--CODEGEN--\":8:108   */\n      jump(tag_45)\n    tag_46:\n        /* \"--CODEGEN--\":12:26   */\n      pop\n        /* \"my2ndtoken.sol\":593:613  string public symbol */\n      pop\n      pop\n      pop\n      swap1\n      pop\n      swap1\n      dup2\n      add\n      swap1\n      0x1f\n      and\n      dup1\n      iszero\n      tag_48\n      jumpi\n      dup1\n      dup3\n      sub\n      dup1\n      mload\n      0x1\n      dup4\n      0x20\n      sub\n      0x100\n      exp\n      sub\n      not\n      and\n      dup2\n      mstore\n      0x20\n      add\n      swap2\n      pop\n    tag_48:\n      pop\n      swap3\n      pop\n      pop\n      pop\n      mload(0x40)\n      dup1\n      swap2\n      sub\n      swap1\n      return\n        /* \"my2ndtoken.sol\":3203:3355  function transfer(address _to, uint256 _value) public returns (bool success) {\r... */\n    tag_11:\n      callvalue\n        /* \"--CODEGEN--\":8:17   */\n      dup1\n        /* \"--CODEGEN--\":5:7   */\n      iszero\n      tag_49\n      jumpi\n        /* \"--CODEGEN--\":30:31   */\n      0x0\n        /* \"--CODEGEN--\":27:28   */\n      dup1\n        /* \"--CODEGEN--\":20:32   */\n      revert\n        /* \"--CODEGEN--\":5:7   */\n    tag_49:\n        /* \"my2ndtoken.sol\":3203:3355  function transfer(address _to, uint256 _value) public returns (bool success) {\r... */\n      pop\n      tag_50\n      0x4\n      dup1\n      calldatasize\n      sub\n      dup2\n      add\n      swap1\n      dup1\n      dup1\n      calldataload\n      0xffffffffffffffffffffffffffffffffffffffff\n      and\n      swap1\n      0x20\n      add\n      swap1\n      swap3\n      swap2\n      swap1\n      dup1\n      calldataload\n      swap1\n      0x20\n      add\n      swap1\n      swap3\n      swap2\n      swap1\n      pop\n      pop\n      pop\n      jump(tag_51)\n    tag_50:\n      mload(0x40)\n      dup1\n      dup3\n      iszero\n      iszero\n      iszero\n      iszero\n      dup2\n      mstore\n      0x20\n      add\n      swap2\n      pop\n      pop\n      mload(0x40)\n      dup1\n      swap2\n      sub\n      swap1\n      return\n        /* \"my2ndtoken.sol\":4824:5171  function approveAndCall(address _spender, uint256 _value, bytes _extraData)\r... */\n    tag_12:\n      callvalue\n        /* \"--CODEGEN--\":8:17   */\n      dup1\n        /* \"--CODEGEN--\":5:7   */\n      iszero\n      tag_52\n      jumpi\n        /* \"--CODEGEN--\":30:31   */\n      0x0\n        /* \"--CODEGEN--\":27:28   */\n      dup1\n        /* \"--CODEGEN--\":20:32   */\n      revert\n        /* \"--CODEGEN--\":5:7   */\n    tag_52:\n        /* \"my2ndtoken.sol\":4824:5171  function approveAndCall(address _spender, uint256 _value, bytes _extraData)\r... */\n      pop\n      tag_53\n      0x4\n      dup1\n      calldatasize\n      sub\n      dup2\n      add\n      swap1\n      dup1\n      dup1\n      calldataload\n      0xffffffffffffffffffffffffffffffffffffffff\n      and\n      swap1\n      0x20\n      add\n      swap1\n      swap3\n      swap2\n      swap1\n      dup1\n      calldataload\n      swap1\n      0x20\n      add\n      swap1\n      swap3\n      swap2\n      swap1\n      dup1\n      calldataload\n      swap1\n      0x20\n      add\n      swap1\n      dup3\n      add\n      dup1\n      calldataload\n      swap1\n      0x20\n      add\n      swap1\n      dup1\n      dup1\n      0x1f\n      add\n      0x20\n      dup1\n      swap2\n      div\n      mul\n      0x20\n      add\n      mload(0x40)\n      swap1\n      dup2\n      add\n      0x40\n      mstore\n      dup1\n      swap4\n      swap3\n      swap2\n      swap1\n      dup2\n      dup2\n      mstore\n      0x20\n      add\n      dup4\n      dup4\n      dup1\n      dup3\n      dup5\n      calldatacopy\n      dup3\n      add\n      swap2\n      pop\n      pop\n      pop\n      pop\n      pop\n      pop\n      swap2\n      swap3\n      swap2\n      swap3\n      swap1\n      pop\n      pop\n      pop\n      jump(tag_54)\n    tag_53:\n      mload(0x40)\n      dup1\n      dup3\n      iszero\n      iszero\n      iszero\n      iszero\n      dup2\n      mstore\n      0x20\n      add\n      swap2\n      pop\n      pop\n      mload(0x40)\n      dup1\n      swap2\n      sub\n      swap1\n      return\n        /* \"my2ndtoken.sol\":861:927  mapping (address => mapping (address => uint256)) public allowance */\n    tag_13:\n      callvalue\n        /* \"--CODEGEN--\":8:17   */\n      dup1\n        /* \"--CODEGEN--\":5:7   */\n      iszero\n      tag_55\n      jumpi\n        /* \"--CODEGEN--\":30:31   */\n      0x0\n        /* \"--CODEGEN--\":27:28   */\n      dup1\n        /* \"--CODEGEN--\":20:32   */\n      revert\n        /* \"--CODEGEN--\":5:7   */\n    tag_55:\n        /* \"my2ndtoken.sol\":861:927  mapping (address => mapping (address => uint256)) public allowance */\n      pop\n      tag_56\n      0x4\n      dup1\n      calldatasize\n      sub\n      dup2\n      add\n      swap1\n      dup1\n      dup1\n      calldataload\n      0xffffffffffffffffffffffffffffffffffffffff\n      and\n      swap1\n      0x20\n      add\n      swap1\n      swap3\n      swap2\n      swap1\n      dup1\n      calldataload\n      0xffffffffffffffffffffffffffffffffffffffff\n      and\n      swap1\n      0x20\n      add\n      swap1\n      swap3\n      swap2\n      swap1\n      pop\n      pop\n      pop\n      jump(tag_57)\n    tag_56:\n      mload(0x40)\n      dup1\n      dup3\n      dup2\n      mstore\n      0x20\n      add\n      swap2\n      pop\n      pop\n      mload(0x40)\n      dup1\n      swap2\n      sub\n      swap1\n      return\n        /* \"my2ndtoken.sol\":568:586  string public name */\n    tag_16:\n      0x0\n      dup1\n      sload\n      0x1\n      dup2\n      0x1\n      and\n      iszero\n      0x100\n      mul\n      sub\n      and\n      0x2\n      swap1\n      div\n      dup1\n      0x1f\n      add\n      0x20\n      dup1\n      swap2\n      div\n      mul\n      0x20\n      add\n      mload(0x40)\n      swap1\n      dup2\n      add\n      0x40\n      mstore\n      dup1\n      swap3\n      swap2\n      swap1\n      dup2\n      dup2\n      mstore\n      0x20\n      add\n      dup3\n      dup1\n      sload\n      0x1\n      dup2\n      0x1\n      and\n      iszero\n      0x100\n      mul\n      sub\n      and\n      0x2\n      swap1\n      div\n      dup1\n      iszero\n      tag_58\n      jumpi\n      dup1\n      0x1f\n      lt\n      tag_59\n      jumpi\n      0x100\n      dup1\n      dup4\n      sload\n      div\n      mul\n      dup4\n      mstore\n      swap2\n      0x20\n      add\n      swap2\n      jump(tag_58)\n    tag_59:\n      dup3\n      add\n      swap2\n      swap1\n      0x0\n      mstore\n      keccak256(0x0, 0x20)\n      swap1\n    tag_60:\n      dup2\n      sload\n      dup2\n      mstore\n      swap1\n      0x1\n      add\n      swap1\n      0x20\n      add\n      dup1\n      dup4\n      gt\n      tag_60\n      jumpi\n      dup3\n      swap1\n      sub\n      0x1f\n      and\n      dup3\n      add\n      swap2\n    tag_58:\n      pop\n      pop\n      pop\n      pop\n      pop\n      dup2\n      jump\t// out\n        /* \"my2ndtoken.sol\":4200:4425  function approve(address _spender, uint256 _value) public\r... */\n    tag_23:\n        /* \"my2ndtoken.sol\":4276:4288  bool success */\n      0x0\n        /* \"my2ndtoken.sol\":4335:4341  _value */\n      dup2\n        /* \"my2ndtoken.sol\":4301:4310  allowance */\n      0x5\n        /* \"my2ndtoken.sol\":4301:4322  allowance[msg.sender] */\n      0x0\n        /* \"my2ndtoken.sol\":4311:4321  msg.sender */\n      caller\n        /* \"my2ndtoken.sol\":4301:4322  allowance[msg.sender] */\n      0xffffffffffffffffffffffffffffffffffffffff\n      and\n      0xffffffffffffffffffffffffffffffffffffffff\n      and\n      dup2\n      mstore\n      0x20\n      add\n      swap1\n      dup2\n      mstore\n      0x20\n      add\n      0x0\n      keccak256\n        /* \"my2ndtoken.sol\":4301:4332  allowance[msg.sender][_spender] */\n      0x0\n        /* \"my2ndtoken.sol\":4323:4331  _spender */\n      dup6\n        /* \"my2ndtoken.sol\":4301:4332  allowance[msg.sender][_spender] */\n      0xffffffffffffffffffffffffffffffffffffffff\n      and\n      0xffffffffffffffffffffffffffffffffffffffff\n      and\n      dup2\n      mstore\n      0x20\n      add\n      swap1\n      dup2\n      mstore\n      0x20\n      add\n      0x0\n      keccak256\n        /* \"my2ndtoken.sol\":4301:4341  allowance[msg.sender][_spender] = _value */\n      dup2\n      swap1\n      sstore\n      pop\n        /* \"my2ndtoken.sol\":4378:4386  _spender */\n      dup3\n        /* \"my2ndtoken.sol\":4357:4395  Approval(msg.sender, _spender, _value) */\n      0xffffffffffffffffffffffffffffffffffffffff\n      and\n        /* \"my2ndtoken.sol\":4366:4376  msg.sender */\n      caller\n        /* \"my2ndtoken.sol\":4357:4395  Approval(msg.sender, _spender, _value) */\n      0xffffffffffffffffffffffffffffffffffffffff\n      and\n      0x8c5be1e5ebec7d5bd14f71427d1e84f3dd0314c0f7b2291e5b200ac8c7c3b925\n        /* \"my2ndtoken.sol\":4388:4394  _value */\n      dup5\n        /* \"my2ndtoken.sol\":4357:4395  Approval(msg.sender, _spender, _value) */\n      mload(0x40)\n      dup1\n      dup3\n      dup2\n      mstore\n      0x20\n      add\n      swap2\n      pop\n      pop\n      mload(0x40)\n      dup1\n      swap2\n      sub\n      swap1\n      log3\n        /* \"my2ndtoken.sol\":4413:4417  true */\n      0x1\n        /* \"my2ndtoken.sol\":4406:4417  return true */\n      swap1\n      pop\n        /* \"my2ndtoken.sol\":4200:4425  function approve(address _spender, uint256 _value) public\r... */\n      swap3\n      swap2\n      pop\n      pop\n      jump\t// out\n        /* \"my2ndtoken.sol\":726:752  uint256 public totalSupply */\n    tag_26:\n      sload(0x3)\n      dup2\n      jump\t// out\n        /* \"my2ndtoken.sol\":3635:3931  function transferFrom(address _from, address _to, uint256 _value) public returns (bool success) {\r... */\n    tag_29:\n        /* \"my2ndtoken.sol\":3717:3729  bool success */\n      0x0\n        /* \"my2ndtoken.sol\":3760:3769  allowance */\n      0x5\n        /* \"my2ndtoken.sol\":3760:3776  allowance[_from] */\n      0x0\n        /* \"my2ndtoken.sol\":3770:3775  _from */\n      dup6\n        /* \"my2ndtoken.sol\":3760:3776  allowance[_from] */\n      0xffffffffffffffffffffffffffffffffffffffff\n      and\n      0xffffffffffffffffffffffffffffffffffffffff\n      and\n      dup2\n      mstore\n      0x20\n      add\n      swap1\n      dup2\n      mstore\n      0x20\n      add\n      0x0\n      keccak256\n        /* \"my2ndtoken.sol\":3760:3788  allowance[_from][msg.sender] */\n      0x0\n        /* \"my2ndtoken.sol\":3777:3787  msg.sender */\n      caller\n        /* \"my2ndtoken.sol\":3760:3788  allowance[_from][msg.sender] */\n      0xffffffffffffffffffffffffffffffffffffffff\n      and\n      0xffffffffffffffffffffffffffffffffffffffff\n      and\n      dup2\n      mstore\n      0x20\n      add\n      swap1\n      dup2\n      mstore\n      0x20\n      add\n      0x0\n      keccak256\n      sload\n        /* \"my2ndtoken.sol\":3750:3756  _value */\n      dup3\n        /* \"my2ndtoken.sol\":3750:3788  _value <= allowance[_from][msg.sender] */\n      gt\n      iszero\n        /* \"my2ndtoken.sol\":3742:3789  require(_value <= allowance[_from][msg.sender]) */\n      iszero\n      iszero\n      tag_63\n      jumpi\n      0x0\n      dup1\n      revert\n    tag_63:\n        /* \"my2ndtoken.sol\":3855:3861  _value */\n      dup2\n        /* \"my2ndtoken.sol\":3823:3832  allowance */\n      0x5\n        /* \"my2ndtoken.sol\":3823:3839  allowance[_from] */\n      0x0\n        /* \"my2ndtoken.sol\":3833:3838  _from */\n      dup7\n        /* \"my2ndtoken.sol\":3823:3839  allowance[_from] */\n      0xffffffffffffffffffffffffffffffffffffffff\n      and\n      0xffffffffffffffffffffffffffffffffffffffff\n      and\n      dup2\n      mstore\n      0x20\n      add\n      swap1\n      dup2\n      mstore\n      0x20\n      add\n      0x0\n      keccak256\n        /* \"my2ndtoken.sol\":3823:3851  allowance[_from][msg.sender] */\n      0x0\n        /* \"my2ndtoken.sol\":3840:3850  msg.sender */\n      caller\n        /* \"my2ndtoken.sol\":3823:3851  allowance[_from][msg.sender] */\n      0xffffffffffffffffffffffffffffffffffffffff\n      and\n      0xffffffffffffffffffffffffffffffffffffffff\n      and\n      dup2\n      mstore\n      0x20\n      add\n      swap1\n      dup2\n      mstore\n      0x20\n      add\n      0x0\n      keccak256\n      0x0\n        /* \"my2ndtoken.sol\":3823:3861  allowance[_from][msg.sender] -= _value */\n      dup3\n      dup3\n      sload\n      sub\n      swap3\n      pop\n      pop\n      dup2\n      swap1\n      sstore\n      pop\n        /* \"my2ndtoken.sol\":3872:3901  _transfer(_from, _to, _value) */\n      tag_64\n        /* \"my2ndtoken.sol\":3882:3887  _from */\n      dup5\n        /* \"my2ndtoken.sol\":3889:3892  _to */\n      dup5\n        /* \"my2ndtoken.sol\":3894:3900  _value */\n      dup5\n        /* \"my2ndtoken.sol\":3872:3881  _transfer */\n      tag_65\n        /* \"my2ndtoken.sol\":3872:3901  _transfer(_from, _to, _value) */\n      jump\t// in\n    tag_64:\n        /* \"my2ndtoken.sol\":3919:3923  true */\n      0x1\n        /* \"my2ndtoken.sol\":3912:3923  return true */\n      swap1\n      pop\n        /* \"my2ndtoken.sol\":3635:3931  function transferFrom(address _from, address _to, uint256 _value) public returns (bool success) {\r... */\n      swap4\n      swap3\n      pop\n      pop\n      pop\n      jump\t// out\n        /* \"my2ndtoken.sol\":620:646  uint8 public decimals = 18 */\n    tag_32:\n      0x2\n      0x0\n      swap1\n      sload\n      swap1\n      0x100\n      exp\n      swap1\n      div\n      0xff\n      and\n      dup2\n      jump\t// out\n        /* \"my2ndtoken.sol\":5346:5720  function burn(uint256 _value) public returns (bool success) {\r... */\n    tag_35:\n        /* \"my2ndtoken.sol\":5392:5404  bool success */\n      0x0\n        /* \"my2ndtoken.sol\":5450:5456  _value */\n      dup2\n        /* \"my2ndtoken.sol\":5425:5434  balanceOf */\n      0x4\n        /* \"my2ndtoken.sol\":5425:5446  balanceOf[msg.sender] */\n      0x0\n        /* \"my2ndtoken.sol\":5435:5445  msg.sender */\n      caller\n        /* \"my2ndtoken.sol\":5425:5446  balanceOf[msg.sender] */\n      0xffffffffffffffffffffffffffffffffffffffff\n      and\n      0xffffffffffffffffffffffffffffffffffffffff\n      and\n      dup2\n      mstore\n      0x20\n      add\n      swap1\n      dup2\n      mstore\n      0x20\n      add\n      0x0\n      keccak256\n      sload\n        /* \"my2ndtoken.sol\":5425:5456  balanceOf[msg.sender] >= _value */\n      lt\n      iszero\n        /* \"my2ndtoken.sol\":5417:5457  require(balanceOf[msg.sender] >= _value) */\n      iszero\n      iszero\n      tag_67\n      jumpi\n      0x0\n      dup1\n      revert\n    tag_67:\n        /* \"my2ndtoken.sol\":5529:5535  _value */\n      dup2\n        /* \"my2ndtoken.sol\":5504:5513  balanceOf */\n      0x4\n        /* \"my2ndtoken.sol\":5504:5525  balanceOf[msg.sender] */\n      0x0\n        /* \"my2ndtoken.sol\":5514:5524  msg.sender */\n      caller\n        /* \"my2ndtoken.sol\":5504:5525  balanceOf[msg.sender] */\n      0xffffffffffffffffffffffffffffffffffffffff\n      and\n      0xffffffffffffffffffffffffffffffffffffffff\n      and\n      dup2\n      mstore\n      0x20\n      add\n      swap1\n      dup2\n      mstore\n      0x20\n      add\n      0x0\n      keccak256\n      0x0\n        /* \"my2ndtoken.sol\":5504:5535  balanceOf[msg.sender] -= _value */\n      dup3\n      dup3\n      sload\n      sub\n      swap3\n      pop\n      pop\n      dup2\n      swap1\n      sstore\n      pop\n        /* \"my2ndtoken.sol\":5600:5606  _value */\n      dup2\n        /* \"my2ndtoken.sol\":5585:5596  totalSupply */\n      0x3\n      0x0\n        /* \"my2ndtoken.sol\":5585:5606  totalSupply -= _value */\n      dup3\n      dup3\n      sload\n      sub\n      swap3\n      pop\n      pop\n      dup2\n      swap1\n      sstore\n      pop\n        /* \"my2ndtoken.sol\":5671:5681  msg.sender */\n      caller\n        /* \"my2ndtoken.sol\":5666:5690  Burn(msg.sender, _value) */\n      0xffffffffffffffffffffffffffffffffffffffff\n      and\n      0xcc16f5dbb4873280815c1ee09dbd06736cffcc184412cf7a71a0fdb75d397ca5\n        /* \"my2ndtoken.sol\":5683:5689  _value */\n      dup4\n        /* \"my2ndtoken.sol\":5666:5690  Burn(msg.sender, _value) */\n      mload(0x40)\n      dup1\n      dup3\n      dup2\n      mstore\n      0x20\n      add\n      swap2\n      pop\n      pop\n      mload(0x40)\n      dup1\n      swap2\n      sub\n      swap1\n      log2\n        /* \"my2ndtoken.sol\":5708:5712  true */\n      0x1\n        /* \"my2ndtoken.sol\":5701:5712  return true */\n      swap1\n      pop\n        /* \"my2ndtoken.sol\":5346:5720  function burn(uint256 _value) public returns (bool success) {\r... */\n      swap2\n      swap1\n      pop\n      jump\t// out\n        /* \"my2ndtoken.sol\":809:854  mapping (address => uint256) public balanceOf */\n    tag_38:\n      mstore(0x20, 0x4)\n      dup1\n      0x0\n      mstore\n      keccak256(0x0, 0x40)\n      0x0\n      swap2\n      pop\n      swap1\n      pop\n      sload\n      dup2\n      jump\t// out\n        /* \"my2ndtoken.sol\":5983:6594  function burnFrom(address _from, uint256 _value) public returns (bool success) {\r... */\n    tag_41:\n        /* \"my2ndtoken.sol\":6048:6060  bool success */\n      0x0\n        /* \"my2ndtoken.sol\":6101:6107  _value */\n      dup2\n        /* \"my2ndtoken.sol\":6081:6090  balanceOf */\n      0x4\n        /* \"my2ndtoken.sol\":6081:6097  balanceOf[_from] */\n      0x0\n        /* \"my2ndtoken.sol\":6091:6096  _from */\n      dup6\n        /* \"my2ndtoken.sol\":6081:6097  balanceOf[_from] */\n      0xffffffffffffffffffffffffffffffffffffffff\n      and\n      0xffffffffffffffffffffffffffffffffffffffff\n      and\n      dup2\n      mstore\n      0x20\n      add\n      swap1\n      dup2\n      mstore\n      0x20\n      add\n      0x0\n      keccak256\n      sload\n        /* \"my2ndtoken.sol\":6081:6107  balanceOf[_from] >= _value */\n      lt\n      iszero\n        /* \"my2ndtoken.sol\":6073:6108  require(balanceOf[_from] >= _value) */\n      iszero\n      iszero\n      tag_69\n      jumpi\n      0x0\n      dup1\n      revert\n    tag_69:\n        /* \"my2ndtoken.sol\":6195:6204  allowance */\n      0x5\n        /* \"my2ndtoken.sol\":6195:6211  allowance[_from] */\n      0x0\n        /* \"my2ndtoken.sol\":6205:6210  _from */\n      dup5\n        /* \"my2ndtoken.sol\":6195:6211  allowance[_from] */\n      0xffffffffffffffffffffffffffffffffffffffff\n      and\n      0xffffffffffffffffffffffffffffffffffffffff\n      and\n      dup2\n      mstore\n      0x20\n      add\n      swap1\n      dup2\n      mstore\n      0x20\n      add\n      0x0\n      keccak256\n        /* \"my2ndtoken.sol\":6195:6223  allowance[_from][msg.sender] */\n      0x0\n        /* \"my2ndtoken.sol\":6212:6222  msg.sender */\n      caller\n        /* \"my2ndtoken.sol\":6195:6223  allowance[_from][msg.sender] */\n      0xffffffffffffffffffffffffffffffffffffffff\n      and\n      0xffffffffffffffffffffffffffffffffffffffff\n      and\n      dup2\n      mstore\n      0x20\n      add\n      swap1\n      dup2\n      mstore\n      0x20\n      add\n      0x0\n      keccak256\n      sload\n        /* \"my2ndtoken.sol\":6185:6191  _value */\n      dup3\n        /* \"my2ndtoken.sol\":6185:6223  _value <= allowance[_from][msg.sender] */\n      gt\n      iszero\n        /* \"my2ndtoken.sol\":6177:6224  require(_value <= allowance[_from][msg.sender]) */\n      iszero\n      iszero\n      tag_70\n      jumpi\n      0x0\n      dup1\n      revert\n    tag_70:\n        /* \"my2ndtoken.sol\":6277:6283  _value */\n      dup2\n        /* \"my2ndtoken.sol\":6257:6266  balanceOf */\n      0x4\n        /* \"my2ndtoken.sol\":6257:6273  balanceOf[_from] */\n      0x0\n        /* \"my2ndtoken.sol\":6267:6272  _from */\n      dup6\n        /* \"my2ndtoken.sol\":6257:6273  balanceOf[_from] */\n      0xffffffffffffffffffffffffffffffffffffffff\n      and\n      0xffffffffffffffffffffffffffffffffffffffff\n      and\n      dup2\n      mstore\n      0x20\n      add\n      swap1\n      dup2\n      mstore\n      0x20\n      add\n      0x0\n      keccak256\n      0x0\n        /* \"my2ndtoken.sol\":6257:6283  balanceOf[_from] -= _value */\n      dup3\n      dup3\n      sload\n      sub\n      swap3\n      pop\n      pop\n      dup2\n      swap1\n      sstore\n      pop\n        /* \"my2ndtoken.sol\":6388:6394  _value */\n      dup2\n        /* \"my2ndtoken.sol\":6356:6365  allowance */\n      0x5\n        /* \"my2ndtoken.sol\":6356:6372  allowance[_from] */\n      0x0\n        /* \"my2ndtoken.sol\":6366:6371  _from */\n      dup6\n        /* \"my2ndtoken.sol\":6356:6372  allowance[_from] */\n      0xffffffffffffffffffffffffffffffffffffffff\n      and\n      0xffffffffffffffffffffffffffffffffffffffff\n      and\n      dup2\n      mstore\n      0x20\n      add\n      swap1\n      dup2\n      mstore\n      0x20\n      add\n      0x0\n      keccak256\n        /* \"my2ndtoken.sol\":6356:6384  allowance[_from][msg.sender] */\n      0x0\n        /* \"my2ndtoken.sol\":6373:6383  msg.sender */\n      caller\n        /* \"my2ndtoken.sol\":6356:6384  allowance[_from][msg.sender] */\n      0xffffffffffffffffffffffffffffffffffffffff\n      and\n      0xffffffffffffffffffffffffffffffffffffffff\n      and\n      dup2\n      mstore\n      0x20\n      add\n      swap1\n      dup2\n      mstore\n      0x20\n      add\n      0x0\n      keccak256\n      0x0\n        /* \"my2ndtoken.sol\":6356:6394  allowance[_from][msg.sender] -= _value */\n      dup3\n      dup3\n      sload\n      sub\n      swap3\n      pop\n      pop\n      dup2\n      swap1\n      sstore\n      pop\n        /* \"my2ndtoken.sol\":6472:6478  _value */\n      dup2\n        /* \"my2ndtoken.sol\":6457:6468  totalSupply */\n      0x3\n      0x0\n        /* \"my2ndtoken.sol\":6457:6478  totalSupply -= _value */\n      dup3\n      dup3\n      sload\n      sub\n      swap3\n      pop\n      pop\n      dup2\n      swap1\n      sstore\n      pop\n        /* \"my2ndtoken.sol\":6550:6555  _from */\n      dup3\n        /* \"my2ndtoken.sol\":6545:6564  Burn(_from, _value) */\n      0xffffffffffffffffffffffffffffffffffffffff\n      and\n      0xcc16f5dbb4873280815c1ee09dbd06736cffcc184412cf7a71a0fdb75d397ca5\n        /* \"my2ndtoken.sol\":6557:6563  _value */\n      dup4\n        /* \"my2ndtoken.sol\":6545:6564  Burn(_from, _value) */\n      mload(0x40)\n      dup1\n      dup3\n      dup2\n      mstore\n      0x20\n      add\n      swap2\n      pop\n      pop\n      mload(0x40)\n      dup1\n      swap2\n      sub\n      swap1\n      log2\n        /* \"my2ndtoken.sol\":6582:6586  true */\n      0x1\n        /* \"my2ndtoken.sol\":6575:6586  return true */\n      swap1\n      pop\n        /* \"my2ndtoken.sol\":5983:6594  function burnFrom(address _from, uint256 _value) public returns (bool success) {\r... */\n      swap3\n      swap2\n      pop\n      pop\n      jump\t// out\n        /* \"my2ndtoken.sol\":593:613  string public symbol */\n    tag_44:\n      0x1\n      dup1\n      sload\n      0x1\n      dup2\n      0x1\n      and\n      iszero\n      0x100\n      mul\n      sub\n      and\n      0x2\n      swap1\n      div\n      dup1\n      0x1f\n      add\n      0x20\n      dup1\n      swap2\n      div\n      mul\n      0x20\n      add\n      mload(0x40)\n      swap1\n      dup2\n      add\n      0x40\n      mstore\n      dup1\n      swap3\n      swap2\n      swap1\n      dup2\n      dup2\n      mstore\n      0x20\n      add\n      dup3\n      dup1\n      sload\n      0x1\n      dup2\n      0x1\n      and\n      iszero\n      0x100\n      mul\n      sub\n      and\n      0x2\n      swap1\n      div\n      dup1\n      iszero\n      tag_71\n      jumpi\n      dup1\n      0x1f\n      lt\n      tag_72\n      jumpi\n      0x100\n      dup1\n      dup4\n      sload\n      div\n      mul\n      dup4\n      mstore\n      swap2\n      0x20\n      add\n      swap2\n      jump(tag_71)\n    tag_72:\n      dup3\n      add\n      swap2\n      swap1\n      0x0\n      mstore\n      keccak256(0x0, 0x20)\n      swap1\n    tag_73:\n      dup2\n      sload\n      dup2\n      mstore\n      swap1\n      0x1\n      add\n      swap1\n      0x20\n      add\n      dup1\n      dup4\n      gt\n      tag_73\n      jumpi\n      dup3\n      swap1\n      sub\n      0x1f\n      and\n      dup3\n      add\n      swap2\n    tag_71:\n      pop\n      pop\n      pop\n      pop\n      pop\n      dup2\n      jump\t// out\n        /* \"my2ndtoken.sol\":3203:3355  function transfer(address _to, uint256 _value) public returns (bool success) {\r... */\n    tag_51:\n        /* \"my2ndtoken.sol\":3266:3278  bool success */\n      0x0\n        /* \"my2ndtoken.sol\":3291:3325  _transfer(msg.sender, _to, _value) */\n      tag_75\n        /* \"my2ndtoken.sol\":3301:3311  msg.sender */\n      caller\n        /* \"my2ndtoken.sol\":3313:3316  _to */\n      dup5\n        /* \"my2ndtoken.sol\":3318:3324  _value */\n      dup5\n        /* \"my2ndtoken.sol\":3291:3300  _transfer */\n      tag_65\n        /* \"my2ndtoken.sol\":3291:3325  _transfer(msg.sender, _to, _value) */\n      jump\t// in\n    tag_75:\n        /* \"my2ndtoken.sol\":3343:3347  true */\n      0x1\n        /* \"my2ndtoken.sol\":3336:3347  return true */\n      swap1\n      pop\n        /* \"my2ndtoken.sol\":3203:3355  function transfer(address _to, uint256 _value) public returns (bool success) {\r... */\n      swap3\n      swap2\n      pop\n      pop\n      jump\t// out\n        /* \"my2ndtoken.sol\":4824:5171  function approveAndCall(address _spender, uint256 _value, bytes _extraData)\r... */\n    tag_54:\n        /* \"my2ndtoken.sol\":4934:4946  bool success */\n      0x0\n        /* \"my2ndtoken.sol\":4959:4981  tokenRecipient spender */\n      dup1\n        /* \"my2ndtoken.sol\":4999:5007  _spender */\n      dup5\n        /* \"my2ndtoken.sol\":4959:5008  tokenRecipient spender = tokenRecipient(_spender) */\n      swap1\n      pop\n        /* \"my2ndtoken.sol\":5023:5048  approve(_spender, _value) */\n      tag_77\n        /* \"my2ndtoken.sol\":5031:5039  _spender */\n      dup6\n        /* \"my2ndtoken.sol\":5041:5047  _value */\n      dup6\n        /* \"my2ndtoken.sol\":5023:5030  approve */\n      tag_23\n        /* \"my2ndtoken.sol\":5023:5048  approve(_spender, _value) */\n      jump\t// in\n    tag_77:\n        /* \"my2ndtoken.sol\":5019:5164  if (approve(_spender, _value)) {\r... */\n      iszero\n      tag_78\n      jumpi\n        /* \"my2ndtoken.sol\":5065:5072  spender */\n      dup1\n        /* \"my2ndtoken.sol\":5065:5088  spender.receiveApproval */\n      0xffffffffffffffffffffffffffffffffffffffff\n      and\n      0x8f4ffcb1\n        /* \"my2ndtoken.sol\":5089:5099  msg.sender */\n      caller\n        /* \"my2ndtoken.sol\":5101:5107  _value */\n      dup7\n        /* \"my2ndtoken.sol\":5109:5113  this */\n      address\n        /* \"my2ndtoken.sol\":5115:5125  _extraData */\n      dup8\n        /* \"my2ndtoken.sol\":5065:5126  spender.receiveApproval(msg.sender, _value, this, _extraData) */\n      mload(0x40)\n      dup6\n      0xffffffff\n      and\n      0x100000000000000000000000000000000000000000000000000000000\n      mul\n      dup2\n      mstore\n      0x4\n      add\n      dup1\n      dup6\n      0xffffffffffffffffffffffffffffffffffffffff\n      and\n      0xffffffffffffffffffffffffffffffffffffffff\n      and\n      dup2\n      mstore\n      0x20\n      add\n      dup5\n      dup2\n      mstore\n      0x20\n      add\n      dup4\n      0xffffffffffffffffffffffffffffffffffffffff\n      and\n      0xffffffffffffffffffffffffffffffffffffffff\n      and\n      dup2\n      mstore\n      0x20\n      add\n      dup1\n      0x20\n      add\n      dup3\n      dup2\n      sub\n      dup3\n      mstore\n      dup4\n      dup2\n      dup2\n      mload\n      dup2\n      mstore\n      0x20\n      add\n      swap2\n      pop\n      dup1\n      mload\n      swap1\n      0x20\n      add\n      swap1\n      dup1\n      dup4\n      dup4\n        /* \"--CODEGEN--\":23:24   */\n      0x0\n        /* \"--CODEGEN--\":8:108   */\n    tag_79:\n        /* \"--CODEGEN--\":33:36   */\n      dup4\n        /* \"--CODEGEN--\":30:31   */\n      dup2\n        /* \"--CODEGEN--\":27:37   */\n      lt\n        /* \"--CODEGEN--\":8:108   */\n      iszero\n      tag_80\n      jumpi\n        /* \"--CODEGEN--\":99:100   */\n      dup1\n        /* \"--CODEGEN--\":94:97   */\n      dup3\n        /* \"--CODEGEN--\":90:101   */\n      add\n        /* \"--CODEGEN--\":84:102   */\n      mload\n        /* \"--CODEGEN--\":80:81   */\n      dup2\n        /* \"--CODEGEN--\":75:78   */\n      dup5\n        /* \"--CODEGEN--\":71:82   */\n      add\n        /* \"--CODEGEN--\":64:103   */\n      mstore\n        /* \"--CODEGEN--\":52:54   */\n      0x20\n        /* \"--CODEGEN--\":49:50   */\n      dup2\n        /* \"--CODEGEN--\":45:55   */\n      add\n        /* \"--CODEGEN--\":40:55   */\n      swap1\n      pop\n        /* \"--CODEGEN--\":8:108   */\n      jump(tag_79)\n    tag_80:\n        /* \"--CODEGEN--\":12:26   */\n      pop\n        /* \"my2ndtoken.sol\":5065:5126  spender.receiveApproval(msg.sender, _value, this, _extraData) */\n      pop\n      pop\n      pop\n      swap1\n      pop\n      swap1\n      dup2\n      add\n      swap1\n      0x1f\n      and\n      dup1\n      iszero\n      tag_82\n      jumpi\n      dup1\n      dup3\n      sub\n      dup1\n      mload\n      0x1\n      dup4\n      0x20\n      sub\n      0x100\n      exp\n      sub\n      not\n      and\n      dup2\n      mstore\n      0x20\n      add\n      swap2\n      pop\n    tag_82:\n      pop\n      swap6\n      pop\n      pop\n      pop\n      pop\n      pop\n      pop\n      0x0\n      mload(0x40)\n      dup1\n      dup4\n      sub\n      dup2\n      0x0\n      dup8\n      dup1\n      extcodesize\n      iszero\n        /* \"--CODEGEN--\":8:17   */\n      dup1\n        /* \"--CODEGEN--\":5:7   */\n      iszero\n      tag_83\n      jumpi\n        /* \"--CODEGEN--\":30:31   */\n      0x0\n        /* \"--CODEGEN--\":27:28   */\n      dup1\n        /* \"--CODEGEN--\":20:32   */\n      revert\n        /* \"--CODEGEN--\":5:7   */\n    tag_83:\n        /* \"my2ndtoken.sol\":5065:5126  spender.receiveApproval(msg.sender, _value, this, _extraData) */\n      pop\n      gas\n      call\n      iszero\n        /* \"--CODEGEN--\":8:17   */\n      dup1\n        /* \"--CODEGEN--\":5:7   */\n      iszero\n      tag_84\n      jumpi\n        /* \"--CODEGEN--\":45:61   */\n      returndatasize\n        /* \"--CODEGEN--\":42:43   */\n      0x0\n        /* \"--CODEGEN--\":39:40   */\n      dup1\n        /* \"--CODEGEN--\":24:62   */\n      returndatacopy\n        /* \"--CODEGEN--\":77:93   */\n      returndatasize\n        /* \"--CODEGEN--\":74:75   */\n      0x0\n        /* \"--CODEGEN--\":67:94   */\n      revert\n        /* \"--CODEGEN--\":5:7   */\n    tag_84:\n        /* \"my2ndtoken.sol\":5065:5126  spender.receiveApproval(msg.sender, _value, this, _extraData) */\n      pop\n      pop\n      pop\n      pop\n        /* \"my2ndtoken.sol\":5148:5152  true */\n      0x1\n        /* \"my2ndtoken.sol\":5141:5152  return true */\n      swap2\n      pop\n      jump(tag_76)\n        /* \"my2ndtoken.sol\":5019:5164  if (approve(_spender, _value)) {\r... */\n    tag_78:\n        /* \"my2ndtoken.sol\":4824:5171  function approveAndCall(address _spender, uint256 _value, bytes _extraData)\r... */\n    tag_76:\n      pop\n      swap4\n      swap3\n      pop\n      pop\n      pop\n      jump\t// out\n        /* \"my2ndtoken.sol\":861:927  mapping (address => mapping (address => uint256)) public allowance */\n    tag_57:\n      mstore(0x20, 0x5)\n      dup2\n      0x0\n      mstore\n      mstore(0x20, keccak256(0x0, 0x40))\n      dup1\n      0x0\n      mstore\n      keccak256(0x0, 0x40)\n      0x0\n      swap2\n      pop\n      swap2\n      pop\n      pop\n      sload\n      dup2\n      jump\t// out\n        /* \"my2ndtoken.sol\":2150:2992  function _transfer(address _from, address _to, uint _value) internal {\r... */\n    tag_65:\n        /* \"my2ndtoken.sol\":2558:2579  uint previousBalances */\n      0x0\n        /* \"my2ndtoken.sol\":2309:2312  0x0 */\n      dup1\n        /* \"my2ndtoken.sol\":2302:2305  _to */\n      dup4\n        /* \"my2ndtoken.sol\":2302:2312  _to != 0x0 */\n      0xffffffffffffffffffffffffffffffffffffffff\n      and\n      eq\n      iszero\n        /* \"my2ndtoken.sol\":2294:2313  require(_to != 0x0) */\n      iszero\n      iszero\n      tag_86\n      jumpi\n      0x0\n      dup1\n      revert\n    tag_86:\n        /* \"my2ndtoken.sol\":2395:2401  _value */\n      dup2\n        /* \"my2ndtoken.sol\":2375:2384  balanceOf */\n      0x4\n        /* \"my2ndtoken.sol\":2375:2391  balanceOf[_from] */\n      0x0\n        /* \"my2ndtoken.sol\":2385:2390  _from */\n      dup7\n        /* \"my2ndtoken.sol\":2375:2391  balanceOf[_from] */\n      0xffffffffffffffffffffffffffffffffffffffff\n      and\n      0xffffffffffffffffffffffffffffffffffffffff\n      and\n      dup2\n      mstore\n      0x20\n      add\n      swap1\n      dup2\n      mstore\n      0x20\n      add\n      0x0\n      keccak256\n      sload\n        /* \"my2ndtoken.sol\":2375:2401  balanceOf[_from] >= _value */\n      lt\n      iszero\n        /* \"my2ndtoken.sol\":2367:2402  require(balanceOf[_from] >= _value) */\n      iszero\n      iszero\n      tag_87\n      jumpi\n      0x0\n      dup1\n      revert\n    tag_87:\n        /* \"my2ndtoken.sol\":2479:2488  balanceOf */\n      0x4\n        /* \"my2ndtoken.sol\":2479:2493  balanceOf[_to] */\n      0x0\n        /* \"my2ndtoken.sol\":2489:2492  _to */\n      dup5\n        /* \"my2ndtoken.sol\":2479:2493  balanceOf[_to] */\n      0xffffffffffffffffffffffffffffffffffffffff\n      and\n      0xffffffffffffffffffffffffffffffffffffffff\n      and\n      dup2\n      mstore\n      0x20\n      add\n      swap1\n      dup2\n      mstore\n      0x20\n      add\n      0x0\n      keccak256\n      sload\n        /* \"my2ndtoken.sol\":2470:2476  _value */\n      dup3\n        /* \"my2ndtoken.sol\":2453:2462  balanceOf */\n      0x4\n        /* \"my2ndtoken.sol\":2453:2467  balanceOf[_to] */\n      0x0\n        /* \"my2ndtoken.sol\":2463:2466  _to */\n      dup7\n        /* \"my2ndtoken.sol\":2453:2467  balanceOf[_to] */\n      0xffffffffffffffffffffffffffffffffffffffff\n      and\n      0xffffffffffffffffffffffffffffffffffffffff\n      and\n      dup2\n      mstore\n      0x20\n      add\n      swap1\n      dup2\n      mstore\n      0x20\n      add\n      0x0\n      keccak256\n      sload\n        /* \"my2ndtoken.sol\":2453:2476  balanceOf[_to] + _value */\n      add\n        /* \"my2ndtoken.sol\":2453:2493  balanceOf[_to] + _value > balanceOf[_to] */\n      gt\n        /* \"my2ndtoken.sol\":2445:2494  require(balanceOf[_to] + _value > balanceOf[_to]) */\n      iszero\n      iszero\n      tag_88\n      jumpi\n      0x0\n      dup1\n      revert\n    tag_88:\n        /* \"my2ndtoken.sol\":2601:2610  balanceOf */\n      0x4\n        /* \"my2ndtoken.sol\":2601:2615  balanceOf[_to] */\n      0x0\n        /* \"my2ndtoken.sol\":2611:2614  _to */\n      dup5\n        /* \"my2ndtoken.sol\":2601:2615  balanceOf[_to] */\n      0xffffffffffffffffffffffffffffffffffffffff\n      and\n      0xffffffffffffffffffffffffffffffffffffffff\n      and\n      dup2\n      mstore\n      0x20\n      add\n      swap1\n      dup2\n      mstore\n      0x20\n      add\n      0x0\n      keccak256\n      sload\n        /* \"my2ndtoken.sol\":2582:2591  balanceOf */\n      0x4\n        /* \"my2ndtoken.sol\":2582:2598  balanceOf[_from] */\n      0x0\n        /* \"my2ndtoken.sol\":2592:2597  _from */\n      dup7\n        /* \"my2ndtoken.sol\":2582:2598  balanceOf[_from] */\n      0xffffffffffffffffffffffffffffffffffffffff\n      and\n      0xffffffffffffffffffffffffffffffffffffffff\n      and\n      dup2\n      mstore\n      0x20\n      add\n      swap1\n      dup2\n      mstore\n      0x20\n      add\n      0x0\n      keccak256\n      sload\n        /* \"my2ndtoken.sol\":2582:2615  balanceOf[_from] + balanceOf[_to] */\n      add\n        /* \"my2ndtoken.sol\":2558:2615  uint previousBalances = balanceOf[_from] + balanceOf[_to] */\n      swap1\n      pop\n        /* \"my2ndtoken.sol\":2683:2689  _value */\n      dup2\n        /* \"my2ndtoken.sol\":2663:2672  balanceOf */\n      0x4\n        /* \"my2ndtoken.sol\":2663:2679  balanceOf[_from] */\n      0x0\n        /* \"my2ndtoken.sol\":2673:2678  _from */\n      dup7\n        /* \"my2ndtoken.sol\":2663:2679  balanceOf[_from] */\n      0xffffffffffffffffffffffffffffffffffffffff\n      and\n      0xffffffffffffffffffffffffffffffffffffffff\n      and\n      dup2\n      mstore\n      0x20\n      add\n      swap1\n      dup2\n      mstore\n      0x20\n      add\n      0x0\n      keccak256\n      0x0\n        /* \"my2ndtoken.sol\":2663:2689  balanceOf[_from] -= _value */\n      dup3\n      dup3\n      sload\n      sub\n      swap3\n      pop\n      pop\n      dup2\n      swap1\n      sstore\n      pop\n        /* \"my2ndtoken.sol\":2760:2766  _value */\n      dup2\n        /* \"my2ndtoken.sol\":2742:2751  balanceOf */\n      0x4\n        /* \"my2ndtoken.sol\":2742:2756  balanceOf[_to] */\n      0x0\n        /* \"my2ndtoken.sol\":2752:2755  _to */\n      dup6\n        /* \"my2ndtoken.sol\":2742:2756  balanceOf[_to] */\n      0xffffffffffffffffffffffffffffffffffffffff\n      and\n      0xffffffffffffffffffffffffffffffffffffffff\n      and\n      dup2\n      mstore\n      0x20\n      add\n      swap1\n      dup2\n      mstore\n      0x20\n      add\n      0x0\n      keccak256\n      0x0\n        /* \"my2ndtoken.sol\":2742:2766  balanceOf[_to] += _value */\n      dup3\n      dup3\n      sload\n      add\n      swap3\n      pop\n      pop\n      dup2\n      swap1\n      sstore\n      pop\n        /* \"my2ndtoken.sol\":2798:2801  _to */\n      dup3\n        /* \"my2ndtoken.sol\":2782:2810  Transfer(_from, _to, _value) */\n      0xffffffffffffffffffffffffffffffffffffffff\n      and\n        /* \"my2ndtoken.sol\":2791:2796  _from */\n      dup5\n        /* \"my2ndtoken.sol\":2782:2810  Transfer(_from, _to, _value) */\n      0xffffffffffffffffffffffffffffffffffffffff\n      and\n      0xddf252ad1be2c89b69c2b068fc378daa952ba7f163c4a11628f55a4df523b3ef\n        /* \"my2ndtoken.sol\":2803:2809  _value */\n      dup5\n        /* \"my2ndtoken.sol\":2782:2810  Transfer(_from, _to, _value) */\n      mload(0x40)\n      dup1\n      dup3\n      dup2\n      mstore\n      0x20\n      add\n      swap2\n      pop\n      pop\n      mload(0x40)\n      dup1\n      swap2\n      sub\n      swap1\n      log3\n        /* \"my2ndtoken.sol\":2967:2983  previousBalances */\n      dup1\n        /* \"my2ndtoken.sol\":2949:2958  balanceOf */\n      0x4\n        /* \"my2ndtoken.sol\":2949:2963  balanceOf[_to] */\n      0x0\n        /* \"my2ndtoken.sol\":2959:2962  _to */\n      dup6\n        /* \"my2ndtoken.sol\":2949:2963  balanceOf[_to] */\n      0xffffffffffffffffffffffffffffffffffffffff\n      and\n      0xffffffffffffffffffffffffffffffffffffffff\n      and\n      dup2\n      mstore\n      0x20\n      add\n      swap1\n      dup2\n      mstore\n      0x20\n      add\n      0x0\n      keccak256\n      sload\n        /* \"my2ndtoken.sol\":2930:2939  balanceOf */\n      0x4\n        /* \"my2ndtoken.sol\":2930:2946  balanceOf[_from] */\n      0x0\n        /* \"my2ndtoken.sol\":2940:2945  _from */\n      dup8\n        /* \"my2ndtoken.sol\":2930:2946  balanceOf[_from] */\n      0xffffffffffffffffffffffffffffffffffffffff\n      and\n      0xffffffffffffffffffffffffffffffffffffffff\n      and\n      dup2\n      mstore\n      0x20\n      add\n      swap1\n      dup2\n      mstore\n      0x20\n      add\n      0x0\n      keccak256\n      sload\n        /* \"my2ndtoken.sol\":2930:2963  balanceOf[_from] + balanceOf[_to] */\n      add\n        /* \"my2ndtoken.sol\":2930:2983  balanceOf[_from] + balanceOf[_to] == previousBalances */\n      eq\n        /* \"my2ndtoken.sol\":2923:2984  assert(balanceOf[_from] + balanceOf[_to] == previousBalances) */\n      iszero\n      iszero\n      tag_89\n      jumpi\n      invalid\n    tag_89:\n        /* \"my2ndtoken.sol\":2150:2992  function _transfer(address _from, address _to, uint _value) internal {\r... */\n      pop\n      pop\n      pop\n      pop\n      jump\t// out\n\n    auxdata: 0xa165627a7a72305820f2194b9570326f3685270e16c48aff0b75bc01ea5bf135a80c53a808a99de3c30029\n}\n",
				"bytecode": {
					"linkReferences": {},
					"object": "60806040526012600260006101000a81548160ff021916908360ff1602179055503480156200002d57600080fd5b506040516200131c3803806200131c833981018060405281019080805190602001909291908051820192919060200180518201929190505050600260009054906101000a900460ff1660ff16600a0a8302600381905550600354600460003373ffffffffffffffffffffffffffffffffffffffff1673ffffffffffffffffffffffffffffffffffffffff168152602001908152602001600020819055508160009080519060200190620000e292919062000105565b508060019080519060200190620000fb92919062000105565b50505050620001b4565b828054600181600116156101000203166002900490600052602060002090601f016020900481019282601f106200014857805160ff191683800117855562000179565b8280016001018555821562000179579182015b82811115620001785782518255916020019190600101906200015b565b5b5090506200018891906200018c565b5090565b620001b191905b80821115620001ad57600081600090555060010162000193565b5090565b90565b61115880620001c46000396000f3006080604052600436106100ba576000357c0100000000000000000000000000000000000000000000000000000000900463ffffffff16806306fdde03146100bf578063095ea7b31461014f57806318160ddd146101b457806323b872dd146101df578063313ce5671461026457806342966c681461029557806370a08231146102da57806379cc67901461033157806395d89b4114610396578063a9059cbb14610426578063cae9ca511461048b578063dd62ed3e14610536575b600080fd5b3480156100cb57600080fd5b506100d46105ad565b6040518080602001828103825283818151815260200191508051906020019080838360005b838110156101145780820151818401526020810190506100f9565b50505050905090810190601f1680156101415780820380516001836020036101000a031916815260200191505b509250505060405180910390f35b34801561015b57600080fd5b5061019a600480360381019080803573ffffffffffffffffffffffffffffffffffffffff1690602001909291908035906020019092919050505061064b565b604051808215151515815260200191505060405180910390f35b3480156101c057600080fd5b506101c961073d565b6040518082815260200191505060405180910390f35b3480156101eb57600080fd5b5061024a600480360381019080803573ffffffffffffffffffffffffffffffffffffffff169060200190929190803573ffffffffffffffffffffffffffffffffffffffff16906020019092919080359060200190929190505050610743565b604051808215151515815260200191505060405180910390f35b34801561027057600080fd5b50610279610870565b604051808260ff1660ff16815260200191505060405180910390f35b3480156102a157600080fd5b506102c060048036038101908080359060200190929190505050610883565b604051808215151515815260200191505060405180910390f35b3480156102e657600080fd5b5061031b600480360381019080803573ffffffffffffffffffffffffffffffffffffffff169060200190929190505050610987565b6040518082815260200191505060405180910390f35b34801561033d57600080fd5b5061037c600480360381019080803573ffffffffffffffffffffffffffffffffffffffff1690602001909291908035906020019092919050505061099f565b604051808215151515815260200191505060405180910390f35b3480156103a257600080fd5b506103ab610bb9565b6040518080602001828103825283818151815260200191508051906020019080838360005b838110156103eb5780820151818401526020810190506103d0565b50505050905090810190601f1680156104185780820380516001836020036101000a031916815260200191505b509250505060405180910390f35b34801561043257600080fd5b50610471600480360381019080803573ffffffffffffffffffffffffffffffffffffffff16906020019092919080359060200190929190505050610c57565b604051808215151515815260200191505060405180910390f35b34801561049757600080fd5b5061051c600480360381019080803573ffffffffffffffffffffffffffffffffffffffff16906020019092919080359060200190929190803590602001908201803590602001908080601f0160208091040260200160405190810160405280939291908181526020018383808284378201915050505050509192919290505050610c6e565b604051808215151515815260200191505060405180910390f35b34801561054257600080fd5b50610597600480360381019080803573ffffffffffffffffffffffffffffffffffffffff169060200190929190803573ffffffffffffffffffffffffffffffffffffffff169060200190929190505050610df1565b6040518082815260200191505060405180910390f35b60008054600181600116156101000203166002900480601f0160208091040260200160405190810160405280929190818152602001828054600181600116156101000203166002900480156106435780601f1061061857610100808354040283529160200191610643565b820191906000526020600020905b81548152906001019060200180831161062657829003601f168201915b505050505081565b600081600560003373ffffffffffffffffffffffffffffffffffffffff1673ffffffffffffffffffffffffffffffffffffffff16815260200190815260200160002060008573ffffffffffffffffffffffffffffffffffffffff1673ffffffffffffffffffffffffffffffffffffffff168152602001908152602001600020819055508273ffffffffffffffffffffffffffffffffffffffff163373ffffffffffffffffffffffffffffffffffffffff167f8c5be1e5ebec7d5bd14f71427d1e84f3dd0314c0f7b2291e5b200ac8c7c3b925846040518082815260200191505060405180910390a36001905092915050565b60035481565b6000600560008573ffffffffffffffffffffffffffffffffffffffff1673ffffffffffffffffffffffffffffffffffffffff16815260200190815260200160002060003373ffffffffffffffffffffffffffffffffffffffff1673ffffffffffffffffffffffffffffffffffffffff1681526020019081526020016000205482111515156107d057600080fd5b81600560008673ffffffffffffffffffffffffffffffffffffffff1673ffffffffffffffffffffffffffffffffffffffff16815260200190815260200160002060003373ffffffffffffffffffffffffffffffffffffffff1673ffffffffffffffffffffffffffffffffffffffff16815260200190815260200160002060008282540392505081905550610865848484610e16565b600190509392505050565b600260009054906101000a900460ff1681565b600081600460003373ffffffffffffffffffffffffffffffffffffffff1673ffffffffffffffffffffffffffffffffffffffff16815260200190815260200160002054101515156108d357600080fd5b81600460003373ffffffffffffffffffffffffffffffffffffffff1673ffffffffffffffffffffffffffffffffffffffff16815260200190815260200160002060008282540392505081905550816003600082825403925050819055503373ffffffffffffffffffffffffffffffffffffffff167fcc16f5dbb4873280815c1ee09dbd06736cffcc184412cf7a71a0fdb75d397ca5836040518082815260200191505060405180910390a260019050919050565b60046020528060005260406000206000915090505481565b600081600460008573ffffffffffffffffffffffffffffffffffffffff1673ffffffffffffffffffffffffffffffffffffffff16815260200190815260200160002054101515156109ef57600080fd5b600560008473ffffffffffffffffffffffffffffffffffffffff1673ffffffffffffffffffffffffffffffffffffffff16815260200190815260200160002060003373ffffffffffffffffffffffffffffffffffffffff1673ffffffffffffffffffffffffffffffffffffffff168152602001908152602001600020548211151515610a7a57600080fd5b81600460008573ffffffffffffffffffffffffffffffffffffffff1673ffffffffffffffffffffffffffffffffffffffff1681526020019081526020016000206000828254039250508190555081600560008573ffffffffffffffffffffffffffffffffffffffff1673ffffffffffffffffffffffffffffffffffffffff16815260200190815260200160002060003373ffffffffffffffffffffffffffffffffffffffff1673ffffffffffffffffffffffffffffffffffffffff16815260200190815260200160002060008282540392505081905550816003600082825403925050819055508273ffffffffffffffffffffffffffffffffffffffff167fcc16f5dbb4873280815c1ee09dbd06736cffcc184412cf7a71a0fdb75d397ca5836040518082815260200191505060405180910390a26001905092915050565b60018054600181600116156101000203166002900480601f016020809104026020016040519081016040528092919081815260200182805460018160011615610100020316600290048015610c4f5780601f10610c2457610100808354040283529160200191610c4f565b820191906000526020600020905b815481529060010190602001808311610c3257829003601f168201915b505050505081565b6000610c64338484610e16565b6001905092915050565b600080849050610c7e858561064b565b15610de8578073ffffffffffffffffffffffffffffffffffffffff16638f4ffcb1338630876040518563ffffffff167c0100000000000000000000000000000000000000000000000000000000028152600401808573ffffffffffffffffffffffffffffffffffffffff1673ffffffffffffffffffffffffffffffffffffffff1681526020018481526020018373ffffffffffffffffffffffffffffffffffffffff1673ffffffffffffffffffffffffffffffffffffffff16815260200180602001828103825283818151815260200191508051906020019080838360005b83811015610d78578082015181840152602081019050610d5d565b50505050905090810190601f168015610da55780820380516001836020036101000a031916815260200191505b5095505050505050600060405180830381600087803b158015610dc757600080fd5b505af1158015610ddb573d6000803e3d6000fd5b5050505060019150610de9565b5b509392505050565b6005602052816000526040600020602052806000526040600020600091509150505481565b6000808373ffffffffffffffffffffffffffffffffffffffff1614151515610e3d57600080fd5b81600460008673ffffffffffffffffffffffffffffffffffffffff1673ffffffffffffffffffffffffffffffffffffffff1681526020019081526020016000205410151515610e8b57600080fd5b600460008473ffffffffffffffffffffffffffffffffffffffff1673ffffffffffffffffffffffffffffffffffffffff1681526020019081526020016000205482600460008673ffffffffffffffffffffffffffffffffffffffff1673ffffffffffffffffffffffffffffffffffffffff1681526020019081526020016000205401111515610f1957600080fd5b600460008473ffffffffffffffffffffffffffffffffffffffff1673ffffffffffffffffffffffffffffffffffffffff16815260200190815260200160002054600460008673ffffffffffffffffffffffffffffffffffffffff1673ffffffffffffffffffffffffffffffffffffffff1681526020019081526020016000205401905081600460008673ffffffffffffffffffffffffffffffffffffffff1673ffffffffffffffffffffffffffffffffffffffff1681526020019081526020016000206000828254039250508190555081600460008573ffffffffffffffffffffffffffffffffffffffff1673ffffffffffffffffffffffffffffffffffffffff168152602001908152602001600020600082825401925050819055508273ffffffffffffffffffffffffffffffffffffffff168473ffffffffffffffffffffffffffffffffffffffff167fddf252ad1be2c89b69c2b068fc378daa952ba7f163c4a11628f55a4df523b3ef846040518082815260200191505060405180910390a380600460008573ffffffffffffffffffffffffffffffffffffffff1673ffffffffffffffffffffffffffffffffffffffff16815260200190815260200160002054600460008773ffffffffffffffffffffffffffffffffffffffff1673ffffffffffffffffffffffffffffffffffffffff168152602001908152602001600020540114151561112657fe5b505050505600a165627a7a72305820f2194b9570326f3685270e16c48aff0b75bc01ea5bf135a80c53a808a99de3c30029",
					"opcodes": "PUSH1 0x80 PUSH1 0x40 MSTORE PUSH1 0x12 PUSH1 0x2 PUSH1 0x0 PUSH2 0x100 EXP DUP2 SLOAD DUP2 PUSH1 0xFF MUL NOT AND SWAP1 DUP4 PUSH1 0xFF AND MUL OR SWAP1 SSTORE POP CALLVALUE DUP1 ISZERO PUSH3 0x2D JUMPI PUSH1 0x0 DUP1 REVERT JUMPDEST POP PUSH1 0x40 MLOAD PUSH3 0x131C CODESIZE SUB DUP1 PUSH3 0x131C DUP4 CODECOPY DUP2 ADD DUP1 PUSH1 0x40 MSTORE DUP2 ADD SWAP1 DUP1 DUP1 MLOAD SWAP1 PUSH1 0x20 ADD SWAP1 SWAP3 SWAP2 SWAP1 DUP1 MLOAD DUP3 ADD SWAP3 SWAP2 SWAP1 PUSH1 0x20 ADD DUP1 MLOAD DUP3 ADD SWAP3 SWAP2 SWAP1 POP POP POP PUSH1 0x2 PUSH1 0x0 SWAP1 SLOAD SWAP1 PUSH2 0x100 EXP SWAP1 DIV PUSH1 0xFF AND PUSH1 0xFF AND PUSH1 0xA EXP DUP4 MUL PUSH1 0x3 DUP2 SWAP1 SSTORE POP PUSH1 0x3 SLOAD PUSH1 0x4 PUSH1 0x0 CALLER PUSH20 0xFFFFFFFFFFFFFFFFFFFFFFFFFFFFFFFFFFFFFFFF AND PUSH20 0xFFFFFFFFFFFFFFFFFFFFFFFFFFFFFFFFFFFFFFFF AND DUP2 MSTORE PUSH1 0x20 ADD SWAP1 DUP2 MSTORE PUSH1 0x20 ADD PUSH1 0x0 KECCAK256 DUP2 SWAP1 SSTORE POP DUP2 PUSH1 0x0 SWAP1 DUP1 MLOAD SWAP1 PUSH1 0x20 ADD SWAP1 PUSH3 0xE2 SWAP3 SWAP2 SWAP1 PUSH3 0x105 JUMP JUMPDEST POP DUP1 PUSH1 0x1 SWAP1 DUP1 MLOAD SWAP1 PUSH1 0x20 ADD SWAP1 PUSH3 0xFB SWAP3 SWAP2 SWAP1 PUSH3 0x105 JUMP JUMPDEST POP POP POP POP PUSH3 0x1B4 JUMP JUMPDEST DUP3 DUP1 SLOAD PUSH1 0x1 DUP2 PUSH1 0x1 AND ISZERO PUSH2 0x100 MUL SUB AND PUSH1 0x2 SWAP1 DIV SWAP1 PUSH1 0x0 MSTORE PUSH1 0x20 PUSH1 0x0 KECCAK256 SWAP1 PUSH1 0x1F ADD PUSH1 0x20 SWAP1 DIV DUP2 ADD SWAP3 DUP3 PUSH1 0x1F LT PUSH3 0x148 JUMPI DUP1 MLOAD PUSH1 0xFF NOT AND DUP4 DUP1 ADD OR DUP6 SSTORE PUSH3 0x179 JUMP JUMPDEST DUP3 DUP1 ADD PUSH1 0x1 ADD DUP6 SSTORE DUP3 ISZERO PUSH3 0x179 JUMPI SWAP2 DUP3 ADD JUMPDEST DUP3 DUP2 GT ISZERO PUSH3 0x178 JUMPI DUP3 MLOAD DUP3 SSTORE SWAP2 PUSH1 0x20 ADD SWAP2 SWAP1 PUSH1 0x1 ADD SWAP1 PUSH3 0x15B JUMP JUMPDEST JUMPDEST POP SWAP1 POP PUSH3 0x188 SWAP2 SWAP1 PUSH3 0x18C JUMP JUMPDEST POP SWAP1 JUMP JUMPDEST PUSH3 0x1B1 SWAP2 SWAP1 JUMPDEST DUP1 DUP3 GT ISZERO PUSH3 0x1AD JUMPI PUSH1 0x0 DUP2 PUSH1 0x0 SWAP1 SSTORE POP PUSH1 0x1 ADD PUSH3 0x193 JUMP JUMPDEST POP SWAP1 JUMP JUMPDEST SWAP1 JUMP JUMPDEST PUSH2 0x1158 DUP1 PUSH3 0x1C4 PUSH1 0x0 CODECOPY PUSH1 0x0 RETURN STOP PUSH1 0x80 PUSH1 0x40 MSTORE PUSH1 0x4 CALLDATASIZE LT PUSH2 0xBA JUMPI PUSH1 0x0 CALLDATALOAD PUSH29 0x100000000000000000000000000000000000000000000000000000000 SWAP1 DIV PUSH4 0xFFFFFFFF AND DUP1 PUSH4 0x6FDDE03 EQ PUSH2 0xBF JUMPI DUP1 PUSH4 0x95EA7B3 EQ PUSH2 0x14F JUMPI DUP1 PUSH4 0x18160DDD EQ PUSH2 0x1B4 JUMPI DUP1 PUSH4 0x23B872DD EQ PUSH2 0x1DF JUMPI DUP1 PUSH4 0x313CE567 EQ PUSH2 0x264 JUMPI DUP1 PUSH4 0x42966C68 EQ PUSH2 0x295 JUMPI DUP1 PUSH4 0x70A08231 EQ PUSH2 0x2DA JUMPI DUP1 PUSH4 0x79CC6790 EQ PUSH2 0x331 JUMPI DUP1 PUSH4 0x95D89B41 EQ PUSH2 0x396 JUMPI DUP1 PUSH4 0xA9059CBB EQ PUSH2 0x426 JUMPI DUP1 PUSH4 0xCAE9CA51 EQ PUSH2 0x48B JUMPI DUP1 PUSH4 0xDD62ED3E EQ PUSH2 0x536 JUMPI JUMPDEST PUSH1 0x0 DUP1 REVERT JUMPDEST CALLVALUE DUP1 ISZERO PUSH2 0xCB JUMPI PUSH1 0x0 DUP1 REVERT JUMPDEST POP PUSH2 0xD4 PUSH2 0x5AD JUMP JUMPDEST PUSH1 0x40 MLOAD DUP1 DUP1 PUSH1 0x20 ADD DUP3 DUP2 SUB DUP3 MSTORE DUP4 DUP2 DUP2 MLOAD DUP2 MSTORE PUSH1 0x20 ADD SWAP2 POP DUP1 MLOAD SWAP1 PUSH1 0x20 ADD SWAP1 DUP1 DUP4 DUP4 PUSH1 0x0 JUMPDEST DUP4 DUP2 LT ISZERO PUSH2 0x114 JUMPI DUP1 DUP3 ADD MLOAD DUP2 DUP5 ADD MSTORE PUSH1 0x20 DUP2 ADD SWAP1 POP PUSH2 0xF9 JUMP JUMPDEST POP POP POP POP SWAP1 POP SWAP1 DUP2 ADD SWAP1 PUSH1 0x1F AND DUP1 ISZERO PUSH2 0x141 JUMPI DUP1 DUP3 SUB DUP1 MLOAD PUSH1 0x1 DUP4 PUSH1 0x20 SUB PUSH2 0x100 EXP SUB NOT AND DUP2 MSTORE PUSH1 0x20 ADD SWAP2 POP JUMPDEST POP SWAP3 POP POP POP PUSH1 0x40 MLOAD DUP1 SWAP2 SUB SWAP1 RETURN JUMPDEST CALLVALUE DUP1 ISZERO PUSH2 0x15B JUMPI PUSH1 0x0 DUP1 REVERT JUMPDEST POP PUSH2 0x19A PUSH1 0x4 DUP1 CALLDATASIZE SUB DUP2 ADD SWAP1 DUP1 DUP1 CALLDATALOAD PUSH20 0xFFFFFFFFFFFFFFFFFFFFFFFFFFFFFFFFFFFFFFFF AND SWAP1 PUSH1 0x20 ADD SWAP1 SWAP3 SWAP2 SWAP1 DUP1 CALLDATALOAD SWAP1 PUSH1 0x20 ADD SWAP1 SWAP3 SWAP2 SWAP1 POP POP POP PUSH2 0x64B JUMP JUMPDEST PUSH1 0x40 MLOAD DUP1 DUP3 ISZERO ISZERO ISZERO ISZERO DUP2 MSTORE PUSH1 0x20 ADD SWAP2 POP POP PUSH1 0x40 MLOAD DUP1 SWAP2 SUB SWAP1 RETURN JUMPDEST CALLVALUE DUP1 ISZERO PUSH2 0x1C0 JUMPI PUSH1 0x0 DUP1 REVERT JUMPDEST POP PUSH2 0x1C9 PUSH2 0x73D JUMP JUMPDEST PUSH1 0x40 MLOAD DUP1 DUP3 DUP2 MSTORE PUSH1 0x20 ADD SWAP2 POP POP PUSH1 0x40 MLOAD DUP1 SWAP2 SUB SWAP1 RETURN JUMPDEST CALLVALUE DUP1 ISZERO PUSH2 0x1EB JUMPI PUSH1 0x0 DUP1 REVERT JUMPDEST POP PUSH2 0x24A PUSH1 0x4 DUP1 CALLDATASIZE SUB DUP2 ADD SWAP1 DUP1 DUP1 CALLDATALOAD PUSH20 0xFFFFFFFFFFFFFFFFFFFFFFFFFFFFFFFFFFFFFFFF AND SWAP1 PUSH1 0x20 ADD SWAP1 SWAP3 SWAP2 SWAP1 DUP1 CALLDATALOAD PUSH20 0xFFFFFFFFFFFFFFFFFFFFFFFFFFFFFFFFFFFFFFFF AND SWAP1 PUSH1 0x20 ADD SWAP1 SWAP3 SWAP2 SWAP1 DUP1 CALLDATALOAD SWAP1 PUSH1 0x20 ADD SWAP1 SWAP3 SWAP2 SWAP1 POP POP POP PUSH2 0x743 JUMP JUMPDEST PUSH1 0x40 MLOAD DUP1 DUP3 ISZERO ISZERO ISZERO ISZERO DUP2 MSTORE PUSH1 0x20 ADD SWAP2 POP POP PUSH1 0x40 MLOAD DUP1 SWAP2 SUB SWAP1 RETURN JUMPDEST CALLVALUE DUP1 ISZERO PUSH2 0x270 JUMPI PUSH1 0x0 DUP1 REVERT JUMPDEST POP PUSH2 0x279 PUSH2 0x870 JUMP JUMPDEST PUSH1 0x40 MLOAD DUP1 DUP3 PUSH1 0xFF AND PUSH1 0xFF AND DUP2 MSTORE PUSH1 0x20 ADD SWAP2 POP POP PUSH1 0x40 MLOAD DUP1 SWAP2 SUB SWAP1 RETURN JUMPDEST CALLVALUE DUP1 ISZERO PUSH2 0x2A1 JUMPI PUSH1 0x0 DUP1 REVERT JUMPDEST POP PUSH2 0x2C0 PUSH1 0x4 DUP1 CALLDATASIZE SUB DUP2 ADD SWAP1 DUP1 DUP1 CALLDATALOAD SWAP1 PUSH1 0x20 ADD SWAP1 SWAP3 SWAP2 SWAP1 POP POP POP PUSH2 0x883 JUMP JUMPDEST PUSH1 0x40 MLOAD DUP1 DUP3 ISZERO ISZERO ISZERO ISZERO DUP2 MSTORE PUSH1 0x20 ADD SWAP2 POP POP PUSH1 0x40 MLOAD DUP1 SWAP2 SUB SWAP1 RETURN JUMPDEST CALLVALUE DUP1 ISZERO PUSH2 0x2E6 JUMPI PUSH1 0x0 DUP1 REVERT JUMPDEST POP PUSH2 0x31B PUSH1 0x4 DUP1 CALLDATASIZE SUB DUP2 ADD SWAP1 DUP1 DUP1 CALLDATALOAD PUSH20 0xFFFFFFFFFFFFFFFFFFFFFFFFFFFFFFFFFFFFFFFF AND SWAP1 PUSH1 0x20 ADD SWAP1 SWAP3 SWAP2 SWAP1 POP POP POP PUSH2 0x987 JUMP JUMPDEST PUSH1 0x40 MLOAD DUP1 DUP3 DUP2 MSTORE PUSH1 0x20 ADD SWAP2 POP POP PUSH1 0x40 MLOAD DUP1 SWAP2 SUB SWAP1 RETURN JUMPDEST CALLVALUE DUP1 ISZERO PUSH2 0x33D JUMPI PUSH1 0x0 DUP1 REVERT JUMPDEST POP PUSH2 0x37C PUSH1 0x4 DUP1 CALLDATASIZE SUB DUP2 ADD SWAP1 DUP1 DUP1 CALLDATALOAD PUSH20 0xFFFFFFFFFFFFFFFFFFFFFFFFFFFFFFFFFFFFFFFF AND SWAP1 PUSH1 0x20 ADD SWAP1 SWAP3 SWAP2 SWAP1 DUP1 CALLDATALOAD SWAP1 PUSH1 0x20 ADD SWAP1 SWAP3 SWAP2 SWAP1 POP POP POP PUSH2 0x99F JUMP JUMPDEST PUSH1 0x40 MLOAD DUP1 DUP3 ISZERO ISZERO ISZERO ISZERO DUP2 MSTORE PUSH1 0x20 ADD SWAP2 POP POP PUSH1 0x40 MLOAD DUP1 SWAP2 SUB SWAP1 RETURN JUMPDEST CALLVALUE DUP1 ISZERO PUSH2 0x3A2 JUMPI PUSH1 0x0 DUP1 REVERT JUMPDEST POP PUSH2 0x3AB PUSH2 0xBB9 JUMP JUMPDEST PUSH1 0x40 MLOAD DUP1 DUP1 PUSH1 0x20 ADD DUP3 DUP2 SUB DUP3 MSTORE DUP4 DUP2 DUP2 MLOAD DUP2 MSTORE PUSH1 0x20 ADD SWAP2 POP DUP1 MLOAD SWAP1 PUSH1 0x20 ADD SWAP1 DUP1 DUP4 DUP4 PUSH1 0x0 JUMPDEST DUP4 DUP2 LT ISZERO PUSH2 0x3EB JUMPI DUP1 DUP3 ADD MLOAD DUP2 DUP5 ADD MSTORE PUSH1 0x20 DUP2 ADD SWAP1 POP PUSH2 0x3D0 JUMP JUMPDEST POP POP POP POP SWAP1 POP SWAP1 DUP2 ADD SWAP1 PUSH1 0x1F AND DUP1 ISZERO PUSH2 0x418 JUMPI DUP1 DUP3 SUB DUP1 MLOAD PUSH1 0x1 DUP4 PUSH1 0x20 SUB PUSH2 0x100 EXP SUB NOT AND DUP2 MSTORE PUSH1 0x20 ADD SWAP2 POP JUMPDEST POP SWAP3 POP POP POP PUSH1 0x40 MLOAD DUP1 SWAP2 SUB SWAP1 RETURN JUMPDEST CALLVALUE DUP1 ISZERO PUSH2 0x432 JUMPI PUSH1 0x0 DUP1 REVERT JUMPDEST POP PUSH2 0x471 PUSH1 0x4 DUP1 CALLDATASIZE SUB DUP2 ADD SWAP1 DUP1 DUP1 CALLDATALOAD PUSH20 0xFFFFFFFFFFFFFFFFFFFFFFFFFFFFFFFFFFFFFFFF AND SWAP1 PUSH1 0x20 ADD SWAP1 SWAP3 SWAP2 SWAP1 DUP1 CALLDATALOAD SWAP1 PUSH1 0x20 ADD SWAP1 SWAP3 SWAP2 SWAP1 POP POP POP PUSH2 0xC57 JUMP JUMPDEST PUSH1 0x40 MLOAD DUP1 DUP3 ISZERO ISZERO ISZERO ISZERO DUP2 MSTORE PUSH1 0x20 ADD SWAP2 POP POP PUSH1 0x40 MLOAD DUP1 SWAP2 SUB SWAP1 RETURN JUMPDEST CALLVALUE DUP1 ISZERO PUSH2 0x497 JUMPI PUSH1 0x0 DUP1 REVERT JUMPDEST POP PUSH2 0x51C PUSH1 0x4 DUP1 CALLDATASIZE SUB DUP2 ADD SWAP1 DUP1 DUP1 CALLDATALOAD PUSH20 0xFFFFFFFFFFFFFFFFFFFFFFFFFFFFFFFFFFFFFFFF AND SWAP1 PUSH1 0x20 ADD SWAP1 SWAP3 SWAP2 SWAP1 DUP1 CALLDATALOAD SWAP1 PUSH1 0x20 ADD SWAP1 SWAP3 SWAP2 SWAP1 DUP1 CALLDATALOAD SWAP1 PUSH1 0x20 ADD SWAP1 DUP3 ADD DUP1 CALLDATALOAD SWAP1 PUSH1 0x20 ADD SWAP1 DUP1 DUP1 PUSH1 0x1F ADD PUSH1 0x20 DUP1 SWAP2 DIV MUL PUSH1 0x20 ADD PUSH1 0x40 MLOAD SWAP1 DUP2 ADD PUSH1 0x40 MSTORE DUP1 SWAP4 SWAP3 SWAP2 SWAP1 DUP2 DUP2 MSTORE PUSH1 0x20 ADD DUP4 DUP4 DUP1 DUP3 DUP5 CALLDATACOPY DUP3 ADD SWAP2 POP POP POP POP POP POP SWAP2 SWAP3 SWAP2 SWAP3 SWAP1 POP POP POP PUSH2 0xC6E JUMP JUMPDEST PUSH1 0x40 MLOAD DUP1 DUP3 ISZERO ISZERO ISZERO ISZERO DUP2 MSTORE PUSH1 0x20 ADD SWAP2 POP POP PUSH1 0x40 MLOAD DUP1 SWAP2 SUB SWAP1 RETURN JUMPDEST CALLVALUE DUP1 ISZERO PUSH2 0x542 JUMPI PUSH1 0x0 DUP1 REVERT JUMPDEST POP PUSH2 0x597 PUSH1 0x4 DUP1 CALLDATASIZE SUB DUP2 ADD SWAP1 DUP1 DUP1 CALLDATALOAD PUSH20 0xFFFFFFFFFFFFFFFFFFFFFFFFFFFFFFFFFFFFFFFF AND SWAP1 PUSH1 0x20 ADD SWAP1 SWAP3 SWAP2 SWAP1 DUP1 CALLDATALOAD PUSH20 0xFFFFFFFFFFFFFFFFFFFFFFFFFFFFFFFFFFFFFFFF AND SWAP1 PUSH1 0x20 ADD SWAP1 SWAP3 SWAP2 SWAP1 POP POP POP PUSH2 0xDF1 JUMP JUMPDEST PUSH1 0x40 MLOAD DUP1 DUP3 DUP2 MSTORE PUSH1 0x20 ADD SWAP2 POP POP PUSH1 0x40 MLOAD DUP1 SWAP2 SUB SWAP1 RETURN JUMPDEST PUSH1 0x0 DUP1 SLOAD PUSH1 0x1 DUP2 PUSH1 0x1 AND ISZERO PUSH2 0x100 MUL SUB AND PUSH1 0x2 SWAP1 DIV DUP1 PUSH1 0x1F ADD PUSH1 0x20 DUP1 SWAP2 DIV MUL PUSH1 0x20 ADD PUSH1 0x40 MLOAD SWAP1 DUP2 ADD PUSH1 0x40 MSTORE DUP1 SWAP3 SWAP2 SWAP1 DUP2 DUP2 MSTORE PUSH1 0x20 ADD DUP3 DUP1 SLOAD PUSH1 0x1 DUP2 PUSH1 0x1 AND ISZERO PUSH2 0x100 MUL SUB AND PUSH1 0x2 SWAP1 DIV DUP1 ISZERO PUSH2 0x643 JUMPI DUP1 PUSH1 0x1F LT PUSH2 0x618 JUMPI PUSH2 0x100 DUP1 DUP4 SLOAD DIV MUL DUP4 MSTORE SWAP2 PUSH1 0x20 ADD SWAP2 PUSH2 0x643 JUMP JUMPDEST DUP3 ADD SWAP2 SWAP1 PUSH1 0x0 MSTORE PUSH1 0x20 PUSH1 0x0 KECCAK256 SWAP1 JUMPDEST DUP2 SLOAD DUP2 MSTORE SWAP1 PUSH1 0x1 ADD SWAP1 PUSH1 0x20 ADD DUP1 DUP4 GT PUSH2 0x626 JUMPI DUP3 SWAP1 SUB PUSH1 0x1F AND DUP3 ADD SWAP2 JUMPDEST POP POP POP POP POP DUP2 JUMP JUMPDEST PUSH1 0x0 DUP2 PUSH1 0x5 PUSH1 0x0 CALLER PUSH20 0xFFFFFFFFFFFFFFFFFFFFFFFFFFFFFFFFFFFFFFFF AND PUSH20 0xFFFFFFFFFFFFFFFFFFFFFFFFFFFFFFFFFFFFFFFF AND DUP2 MSTORE PUSH1 0x20 ADD SWAP1 DUP2 MSTORE PUSH1 0x20 ADD PUSH1 0x0 KECCAK256 PUSH1 0x0 DUP6 PUSH20 0xFFFFFFFFFFFFFFFFFFFFFFFFFFFFFFFFFFFFFFFF AND PUSH20 0xFFFFFFFFFFFFFFFFFFFFFFFFFFFFFFFFFFFFFFFF AND DUP2 MSTORE PUSH1 0x20 ADD SWAP1 DUP2 MSTORE PUSH1 0x20 ADD PUSH1 0x0 KECCAK256 DUP2 SWAP1 SSTORE POP DUP3 PUSH20 0xFFFFFFFFFFFFFFFFFFFFFFFFFFFFFFFFFFFFFFFF AND CALLER PUSH20 0xFFFFFFFFFFFFFFFFFFFFFFFFFFFFFFFFFFFFFFFF AND PUSH32 0x8C5BE1E5EBEC7D5BD14F71427D1E84F3DD0314C0F7B2291E5B200AC8C7C3B925 DUP5 PUSH1 0x40 MLOAD DUP1 DUP3 DUP2 MSTORE PUSH1 0x20 ADD SWAP2 POP POP PUSH1 0x40 MLOAD DUP1 SWAP2 SUB SWAP1 LOG3 PUSH1 0x1 SWAP1 POP SWAP3 SWAP2 POP POP JUMP JUMPDEST PUSH1 0x3 SLOAD DUP2 JUMP JUMPDEST PUSH1 0x0 PUSH1 0x5 PUSH1 0x0 DUP6 PUSH20 0xFFFFFFFFFFFFFFFFFFFFFFFFFFFFFFFFFFFFFFFF AND PUSH20 0xFFFFFFFFFFFFFFFFFFFFFFFFFFFFFFFFFFFFFFFF AND DUP2 MSTORE PUSH1 0x20 ADD SWAP1 DUP2 MSTORE PUSH1 0x20 ADD PUSH1 0x0 KECCAK256 PUSH1 0x0 CALLER PUSH20 0xFFFFFFFFFFFFFFFFFFFFFFFFFFFFFFFFFFFFFFFF AND PUSH20 0xFFFFFFFFFFFFFFFFFFFFFFFFFFFFFFFFFFFFFFFF AND DUP2 MSTORE PUSH1 0x20 ADD SWAP1 DUP2 MSTORE PUSH1 0x20 ADD PUSH1 0x0 KECCAK256 SLOAD DUP3 GT ISZERO ISZERO ISZERO PUSH2 0x7D0 JUMPI PUSH1 0x0 DUP1 REVERT JUMPDEST DUP2 PUSH1 0x5 PUSH1 0x0 DUP7 PUSH20 0xFFFFFFFFFFFFFFFFFFFFFFFFFFFFFFFFFFFFFFFF AND PUSH20 0xFFFFFFFFFFFFFFFFFFFFFFFFFFFFFFFFFFFFFFFF AND DUP2 MSTORE PUSH1 0x20 ADD SWAP1 DUP2 MSTORE PUSH1 0x20 ADD PUSH1 0x0 KECCAK256 PUSH1 0x0 CALLER PUSH20 0xFFFFFFFFFFFFFFFFFFFFFFFFFFFFFFFFFFFFFFFF AND PUSH20 0xFFFFFFFFFFFFFFFFFFFFFFFFFFFFFFFFFFFFFFFF AND DUP2 MSTORE PUSH1 0x20 ADD SWAP1 DUP2 MSTORE PUSH1 0x20 ADD PUSH1 0x0 KECCAK256 PUSH1 0x0 DUP3 DUP3 SLOAD SUB SWAP3 POP POP DUP2 SWAP1 SSTORE POP PUSH2 0x865 DUP5 DUP5 DUP5 PUSH2 0xE16 JUMP JUMPDEST PUSH1 0x1 SWAP1 POP SWAP4 SWAP3 POP POP POP JUMP JUMPDEST PUSH1 0x2 PUSH1 0x0 SWAP1 SLOAD SWAP1 PUSH2 0x100 EXP SWAP1 DIV PUSH1 0xFF AND DUP2 JUMP JUMPDEST PUSH1 0x0 DUP2 PUSH1 0x4 PUSH1 0x0 CALLER PUSH20 0xFFFFFFFFFFFFFFFFFFFFFFFFFFFFFFFFFFFFFFFF AND PUSH20 0xFFFFFFFFFFFFFFFFFFFFFFFFFFFFFFFFFFFFFFFF AND DUP2 MSTORE PUSH1 0x20 ADD SWAP1 DUP2 MSTORE PUSH1 0x20 ADD PUSH1 0x0 KECCAK256 SLOAD LT ISZERO ISZERO ISZERO PUSH2 0x8D3 JUMPI PUSH1 0x0 DUP1 REVERT JUMPDEST DUP2 PUSH1 0x4 PUSH1 0x0 CALLER PUSH20 0xFFFFFFFFFFFFFFFFFFFFFFFFFFFFFFFFFFFFFFFF AND PUSH20 0xFFFFFFFFFFFFFFFFFFFFFFFFFFFFFFFFFFFFFFFF AND DUP2 MSTORE PUSH1 0x20 ADD SWAP1 DUP2 MSTORE PUSH1 0x20 ADD PUSH1 0x0 KECCAK256 PUSH1 0x0 DUP3 DUP3 SLOAD SUB SWAP3 POP POP DUP2 SWAP1 SSTORE POP DUP2 PUSH1 0x3 PUSH1 0x0 DUP3 DUP3 SLOAD SUB SWAP3 POP POP DUP2 SWAP1 SSTORE POP CALLER PUSH20 0xFFFFFFFFFFFFFFFFFFFFFFFFFFFFFFFFFFFFFFFF AND PUSH32 0xCC16F5DBB4873280815C1EE09DBD06736CFFCC184412CF7A71A0FDB75D397CA5 DUP4 PUSH1 0x40 MLOAD DUP1 DUP3 DUP2 MSTORE PUSH1 0x20 ADD SWAP2 POP POP PUSH1 0x40 MLOAD DUP1 SWAP2 SUB SWAP1 LOG2 PUSH1 0x1 SWAP1 POP SWAP2 SWAP1 POP JUMP JUMPDEST PUSH1 0x4 PUSH1 0x20 MSTORE DUP1 PUSH1 0x0 MSTORE PUSH1 0x40 PUSH1 0x0 KECCAK256 PUSH1 0x0 SWAP2 POP SWAP1 POP SLOAD DUP2 JUMP JUMPDEST PUSH1 0x0 DUP2 PUSH1 0x4 PUSH1 0x0 DUP6 PUSH20 0xFFFFFFFFFFFFFFFFFFFFFFFFFFFFFFFFFFFFFFFF AND PUSH20 0xFFFFFFFFFFFFFFFFFFFFFFFFFFFFFFFFFFFFFFFF AND DUP2 MSTORE PUSH1 0x20 ADD SWAP1 DUP2 MSTORE PUSH1 0x20 ADD PUSH1 0x0 KECCAK256 SLOAD LT ISZERO ISZERO ISZERO PUSH2 0x9EF JUMPI PUSH1 0x0 DUP1 REVERT JUMPDEST PUSH1 0x5 PUSH1 0x0 DUP5 PUSH20 0xFFFFFFFFFFFFFFFFFFFFFFFFFFFFFFFFFFFFFFFF AND PUSH20 0xFFFFFFFFFFFFFFFFFFFFFFFFFFFFFFFFFFFFFFFF AND DUP2 MSTORE PUSH1 0x20 ADD SWAP1 DUP2 MSTORE PUSH1 0x20 ADD PUSH1 0x0 KECCAK256 PUSH1 0x0 CALLER PUSH20 0xFFFFFFFFFFFFFFFFFFFFFFFFFFFFFFFFFFFFFFFF AND PUSH20 0xFFFFFFFFFFFFFFFFFFFFFFFFFFFFFFFFFFFFFFFF AND DUP2 MSTORE PUSH1 0x20 ADD SWAP1 DUP2 MSTORE PUSH1 0x20 ADD PUSH1 0x0 KECCAK256 SLOAD DUP3 GT ISZERO ISZERO ISZERO PUSH2 0xA7A JUMPI PUSH1 0x0 DUP1 REVERT JUMPDEST DUP2 PUSH1 0x4 PUSH1 0x0 DUP6 PUSH20 0xFFFFFFFFFFFFFFFFFFFFFFFFFFFFFFFFFFFFFFFF AND PUSH20 0xFFFFFFFFFFFFFFFFFFFFFFFFFFFFFFFFFFFFFFFF AND DUP2 MSTORE PUSH1 0x20 ADD SWAP1 DUP2 MSTORE PUSH1 0x20 ADD PUSH1 0x0 KECCAK256 PUSH1 0x0 DUP3 DUP3 SLOAD SUB SWAP3 POP POP DUP2 SWAP1 SSTORE POP DUP2 PUSH1 0x5 PUSH1 0x0 DUP6 PUSH20 0xFFFFFFFFFFFFFFFFFFFFFFFFFFFFFFFFFFFFFFFF AND PUSH20 0xFFFFFFFFFFFFFFFFFFFFFFFFFFFFFFFFFFFFFFFF AND DUP2 MSTORE PUSH1 0x20 ADD SWAP1 DUP2 MSTORE PUSH1 0x20 ADD PUSH1 0x0 KECCAK256 PUSH1 0x0 CALLER PUSH20 0xFFFFFFFFFFFFFFFFFFFFFFFFFFFFFFFFFFFFFFFF AND PUSH20 0xFFFFFFFFFFFFFFFFFFFFFFFFFFFFFFFFFFFFFFFF AND DUP2 MSTORE PUSH1 0x20 ADD SWAP1 DUP2 MSTORE PUSH1 0x20 ADD PUSH1 0x0 KECCAK256 PUSH1 0x0 DUP3 DUP3 SLOAD SUB SWAP3 POP POP DUP2 SWAP1 SSTORE POP DUP2 PUSH1 0x3 PUSH1 0x0 DUP3 DUP3 SLOAD SUB SWAP3 POP POP DUP2 SWAP1 SSTORE POP DUP3 PUSH20 0xFFFFFFFFFFFFFFFFFFFFFFFFFFFFFFFFFFFFFFFF AND PUSH32 0xCC16F5DBB4873280815C1EE09DBD06736CFFCC184412CF7A71A0FDB75D397CA5 DUP4 PUSH1 0x40 MLOAD DUP1 DUP3 DUP2 MSTORE PUSH1 0x20 ADD SWAP2 POP POP PUSH1 0x40 MLOAD DUP1 SWAP2 SUB SWAP1 LOG2 PUSH1 0x1 SWAP1 POP SWAP3 SWAP2 POP POP JUMP JUMPDEST PUSH1 0x1 DUP1 SLOAD PUSH1 0x1 DUP2 PUSH1 0x1 AND ISZERO PUSH2 0x100 MUL SUB AND PUSH1 0x2 SWAP1 DIV DUP1 PUSH1 0x1F ADD PUSH1 0x20 DUP1 SWAP2 DIV MUL PUSH1 0x20 ADD PUSH1 0x40 MLOAD SWAP1 DUP2 ADD PUSH1 0x40 MSTORE DUP1 SWAP3 SWAP2 SWAP1 DUP2 DUP2 MSTORE PUSH1 0x20 ADD DUP3 DUP1 SLOAD PUSH1 0x1 DUP2 PUSH1 0x1 AND ISZERO PUSH2 0x100 MUL SUB AND PUSH1 0x2 SWAP1 DIV DUP1 ISZERO PUSH2 0xC4F JUMPI DUP1 PUSH1 0x1F LT PUSH2 0xC24 JUMPI PUSH2 0x100 DUP1 DUP4 SLOAD DIV MUL DUP4 MSTORE SWAP2 PUSH1 0x20 ADD SWAP2 PUSH2 0xC4F JUMP JUMPDEST DUP3 ADD SWAP2 SWAP1 PUSH1 0x0 MSTORE PUSH1 0x20 PUSH1 0x0 KECCAK256 SWAP1 JUMPDEST DUP2 SLOAD DUP2 MSTORE SWAP1 PUSH1 0x1 ADD SWAP1 PUSH1 0x20 ADD DUP1 DUP4 GT PUSH2 0xC32 JUMPI DUP3 SWAP1 SUB PUSH1 0x1F AND DUP3 ADD SWAP2 JUMPDEST POP POP POP POP POP DUP2 JUMP JUMPDEST PUSH1 0x0 PUSH2 0xC64 CALLER DUP5 DUP5 PUSH2 0xE16 JUMP JUMPDEST PUSH1 0x1 SWAP1 POP SWAP3 SWAP2 POP POP JUMP JUMPDEST PUSH1 0x0 DUP1 DUP5 SWAP1 POP PUSH2 0xC7E DUP6 DUP6 PUSH2 0x64B JUMP JUMPDEST ISZERO PUSH2 0xDE8 JUMPI DUP1 PUSH20 0xFFFFFFFFFFFFFFFFFFFFFFFFFFFFFFFFFFFFFFFF AND PUSH4 0x8F4FFCB1 CALLER DUP7 ADDRESS DUP8 PUSH1 0x40 MLOAD DUP6 PUSH4 0xFFFFFFFF AND PUSH29 0x100000000000000000000000000000000000000000000000000000000 MUL DUP2 MSTORE PUSH1 0x4 ADD DUP1 DUP6 PUSH20 0xFFFFFFFFFFFFFFFFFFFFFFFFFFFFFFFFFFFFFFFF AND PUSH20 0xFFFFFFFFFFFFFFFFFFFFFFFFFFFFFFFFFFFFFFFF AND DUP2 MSTORE PUSH1 0x20 ADD DUP5 DUP2 MSTORE PUSH1 0x20 ADD DUP4 PUSH20 0xFFFFFFFFFFFFFFFFFFFFFFFFFFFFFFFFFFFFFFFF AND PUSH20 0xFFFFFFFFFFFFFFFFFFFFFFFFFFFFFFFFFFFFFFFF AND DUP2 MSTORE PUSH1 0x20 ADD DUP1 PUSH1 0x20 ADD DUP3 DUP2 SUB DUP3 MSTORE DUP4 DUP2 DUP2 MLOAD DUP2 MSTORE PUSH1 0x20 ADD SWAP2 POP DUP1 MLOAD SWAP1 PUSH1 0x20 ADD SWAP1 DUP1 DUP4 DUP4 PUSH1 0x0 JUMPDEST DUP4 DUP2 LT ISZERO PUSH2 0xD78 JUMPI DUP1 DUP3 ADD MLOAD DUP2 DUP5 ADD MSTORE PUSH1 0x20 DUP2 ADD SWAP1 POP PUSH2 0xD5D JUMP JUMPDEST POP POP POP POP SWAP1 POP SWAP1 DUP2 ADD SWAP1 PUSH1 0x1F AND DUP1 ISZERO PUSH2 0xDA5 JUMPI DUP1 DUP3 SUB DUP1 MLOAD PUSH1 0x1 DUP4 PUSH1 0x20 SUB PUSH2 0x100 EXP SUB NOT AND DUP2 MSTORE PUSH1 0x20 ADD SWAP2 POP JUMPDEST POP SWAP6 POP POP POP POP POP POP PUSH1 0x0 PUSH1 0x40 MLOAD DUP1 DUP4 SUB DUP2 PUSH1 0x0 DUP8 DUP1 EXTCODESIZE ISZERO DUP1 ISZERO PUSH2 0xDC7 JUMPI PUSH1 0x0 DUP1 REVERT JUMPDEST POP GAS CALL ISZERO DUP1 ISZERO PUSH2 0xDDB JUMPI RETURNDATASIZE PUSH1 0x0 DUP1 RETURNDATACOPY RETURNDATASIZE PUSH1 0x0 REVERT JUMPDEST POP POP POP POP PUSH1 0x1 SWAP2 POP PUSH2 0xDE9 JUMP JUMPDEST JUMPDEST POP SWAP4 SWAP3 POP POP POP JUMP JUMPDEST PUSH1 0x5 PUSH1 0x20 MSTORE DUP2 PUSH1 0x0 MSTORE PUSH1 0x40 PUSH1 0x0 KECCAK256 PUSH1 0x20 MSTORE DUP1 PUSH1 0x0 MSTORE PUSH1 0x40 PUSH1 0x0 KECCAK256 PUSH1 0x0 SWAP2 POP SWAP2 POP POP SLOAD DUP2 JUMP JUMPDEST PUSH1 0x0 DUP1 DUP4 PUSH20 0xFFFFFFFFFFFFFFFFFFFFFFFFFFFFFFFFFFFFFFFF AND EQ ISZERO ISZERO ISZERO PUSH2 0xE3D JUMPI PUSH1 0x0 DUP1 REVERT JUMPDEST DUP2 PUSH1 0x4 PUSH1 0x0 DUP7 PUSH20 0xFFFFFFFFFFFFFFFFFFFFFFFFFFFFFFFFFFFFFFFF AND PUSH20 0xFFFFFFFFFFFFFFFFFFFFFFFFFFFFFFFFFFFFFFFF AND DUP2 MSTORE PUSH1 0x20 ADD SWAP1 DUP2 MSTORE PUSH1 0x20 ADD PUSH1 0x0 KECCAK256 SLOAD LT ISZERO ISZERO ISZERO PUSH2 0xE8B JUMPI PUSH1 0x0 DUP1 REVERT JUMPDEST PUSH1 0x4 PUSH1 0x0 DUP5 PUSH20 0xFFFFFFFFFFFFFFFFFFFFFFFFFFFFFFFFFFFFFFFF AND PUSH20 0xFFFFFFFFFFFFFFFFFFFFFFFFFFFFFFFFFFFFFFFF AND DUP2 MSTORE PUSH1 0x20 ADD SWAP1 DUP2 MSTORE PUSH1 0x20 ADD PUSH1 0x0 KECCAK256 SLOAD DUP3 PUSH1 0x4 PUSH1 0x0 DUP7 PUSH20 0xFFFFFFFFFFFFFFFFFFFFFFFFFFFFFFFFFFFFFFFF AND PUSH20 0xFFFFFFFFFFFFFFFFFFFFFFFFFFFFFFFFFFFFFFFF AND DUP2 MSTORE PUSH1 0x20 ADD SWAP1 DUP2 MSTORE PUSH1 0x20 ADD PUSH1 0x0 KECCAK256 SLOAD ADD GT ISZERO ISZERO PUSH2 0xF19 JUMPI PUSH1 0x0 DUP1 REVERT JUMPDEST PUSH1 0x4 PUSH1 0x0 DUP5 PUSH20 0xFFFFFFFFFFFFFFFFFFFFFFFFFFFFFFFFFFFFFFFF AND PUSH20 0xFFFFFFFFFFFFFFFFFFFFFFFFFFFFFFFFFFFFFFFF AND DUP2 MSTORE PUSH1 0x20 ADD SWAP1 DUP2 MSTORE PUSH1 0x20 ADD PUSH1 0x0 KECCAK256 SLOAD PUSH1 0x4 PUSH1 0x0 DUP7 PUSH20 0xFFFFFFFFFFFFFFFFFFFFFFFFFFFFFFFFFFFFFFFF AND PUSH20 0xFFFFFFFFFFFFFFFFFFFFFFFFFFFFFFFFFFFFFFFF AND DUP2 MSTORE PUSH1 0x20 ADD SWAP1 DUP2 MSTORE PUSH1 0x20 ADD PUSH1 0x0 KECCAK256 SLOAD ADD SWAP1 POP DUP2 PUSH1 0x4 PUSH1 0x0 DUP7 PUSH20 0xFFFFFFFFFFFFFFFFFFFFFFFFFFFFFFFFFFFFFFFF AND PUSH20 0xFFFFFFFFFFFFFFFFFFFFFFFFFFFFFFFFFFFFFFFF AND DUP2 MSTORE PUSH1 0x20 ADD SWAP1 DUP2 MSTORE PUSH1 0x20 ADD PUSH1 0x0 KECCAK256 PUSH1 0x0 DUP3 DUP3 SLOAD SUB SWAP3 POP POP DUP2 SWAP1 SSTORE POP DUP2 PUSH1 0x4 PUSH1 0x0 DUP6 PUSH20 0xFFFFFFFFFFFFFFFFFFFFFFFFFFFFFFFFFFFFFFFF AND PUSH20 0xFFFFFFFFFFFFFFFFFFFFFFFFFFFFFFFFFFFFFFFF AND DUP2 MSTORE PUSH1 0x20 ADD SWAP1 DUP2 MSTORE PUSH1 0x20 ADD PUSH1 0x0 KECCAK256 PUSH1 0x0 DUP3 DUP3 SLOAD ADD SWAP3 POP POP DUP2 SWAP1 SSTORE POP DUP3 PUSH20 0xFFFFFFFFFFFFFFFFFFFFFFFFFFFFFFFFFFFFFFFF AND DUP5 PUSH20 0xFFFFFFFFFFFFFFFFFFFFFFFFFFFFFFFFFFFFFFFF AND PUSH32 0xDDF252AD1BE2C89B69C2B068FC378DAA952BA7F163C4A11628F55A4DF523B3EF DUP5 PUSH1 0x40 MLOAD DUP1 DUP3 DUP2 MSTORE PUSH1 0x20 ADD SWAP2 POP POP PUSH1 0x40 MLOAD DUP1 SWAP2 SUB SWAP1 LOG3 DUP1 PUSH1 0x4 PUSH1 0x0 DUP6 PUSH20 0xFFFFFFFFFFFFFFFFFFFFFFFFFFFFFFFFFFFFFFFF AND PUSH20 0xFFFFFFFFFFFFFFFFFFFFFFFFFFFFFFFFFFFFFFFF AND DUP2 MSTORE PUSH1 0x20 ADD SWAP1 DUP2 MSTORE PUSH1 0x20 ADD PUSH1 0x0 KECCAK256 SLOAD PUSH1 0x4 PUSH1 0x0 DUP8 PUSH20 0xFFFFFFFFFFFFFFFFFFFFFFFFFFFFFFFFFFFFFFFF AND PUSH20 0xFFFFFFFFFFFFFFFFFFFFFFFFFFFFFFFFFFFFFFFF AND DUP2 MSTORE PUSH1 0x20 ADD SWAP1 DUP2 MSTORE PUSH1 0x20 ADD PUSH1 0x0 KECCAK256 SLOAD ADD EQ ISZERO ISZERO PUSH2 0x1126 JUMPI INVALID JUMPDEST POP POP POP POP JUMP STOP LOG1 PUSH6 0x627A7A723058 KECCAK256 CALLCODE NOT 0x4b SWAP6 PUSH17 0x326F3685270E16C48AFF0B75BC01EA5BF1 CALLDATALOAD 0xa8 0xc MSTORE8 0xa8 ADDMOD 0xa9 SWAP14 0xe3 0xc3 STOP 0x29 "
				},
				"gasEstimates": {
					"creation": {
						"codeDepositCost": "888000",
						"executionCost": "infinite",
						"totalCost": "infinite"
					},
					"external": {
						"allowance(address,address)": "872",
						"approve(address,uint256)": "22353",
						"approveAndCall(address,uint256,bytes)": "infinite",
						"balanceOf(address)": "664",
						"burn(uint256)": "42705",
						"burnFrom(address,uint256)": "63610",
						"decimals()": "530",
						"name()": "infinite",
						"symbol()": "infinite",
						"totalSupply()": "438",
						"transfer(address,uint256)": "45210",
						"transferFrom(address,address,uint256)": "65937"
					},
					"internal": {
						"_transfer(address,address,uint256)": "infinite"
					}
				},
				"methodIdentifiers": {
					"allowance(address,address)": "dd62ed3e",
					"approve(address,uint256)": "095ea7b3",
					"approveAndCall(address,uint256,bytes)": "cae9ca51",
					"balanceOf(address)": "70a08231",
					"burn(uint256)": "42966c68",
					"burnFrom(address,uint256)": "79cc6790",
					"decimals()": "313ce567",
					"name()": "06fdde03",
					"symbol()": "95d89b41",
					"totalSupply()": "18160ddd",
					"transfer(address,uint256)": "a9059cbb",
					"transferFrom(address,address,uint256)": "23b872dd"
				}
			},
			"userdoc": {
				"methods": {
					"approve(address,uint256)": {
						"notice": "Set allowance for other address\r      * Allows `_spender` to spend no more than `_value` tokens in your behalf\r "
					},
					"approveAndCall(address,uint256,bytes)": {
						"notice": "Set allowance for other address and notify\r      * Allows `_spender` to spend no more than `_value` tokens in your behalf, and then ping the contract about it\r "
					},
					"burn(uint256)": {
						"notice": "Destroy tokens\r      * Remove `_value` tokens from the system irreversibly\r "
					},
					"burnFrom(address,uint256)": {
						"notice": "Destroy tokens from other account\r      * Remove `_value` tokens from the system irreversibly on behalf of `_from`.\r "
					},
					"transfer(address,uint256)": {
						"notice": "Transfer tokens\r      * Send `_value` tokens to `_to` from your account\r "
					},
					"transferFrom(address,address,uint256)": {
						"notice": "Transfer tokens from other address\r      * Send `_value` tokens to `_to` in behalf of `_from`\r "
					}
				}
			}
		}
	}
}